{
	"3-Twitter-Struct.sol": {
		"Twitter": {
			"abi": [
				{
					"inputs": [
						{
							"internalType": "string",
							"name": "_tweet",
							"type": "string"
						}
					],
					"name": "createTweet",
					"outputs": [],
					"stateMutability": "nonpayable",
					"type": "function"
				},
				{
					"inputs": [],
					"name": "getAllTweets",
					"outputs": [
						{
							"components": [
								{
									"internalType": "address",
									"name": "author",
									"type": "address"
								},
								{
									"internalType": "string",
									"name": "content",
									"type": "string"
								},
								{
									"internalType": "uint256",
									"name": "timestamp",
									"type": "uint256"
								},
								{
									"internalType": "uint256",
									"name": "likes",
									"type": "uint256"
								}
							],
							"internalType": "struct Twitter.Tweet[]",
							"name": "",
							"type": "tuple[]"
						}
					],
					"stateMutability": "view",
					"type": "function"
				},
				{
					"inputs": [
						{
							"internalType": "uint256",
							"name": "_i",
							"type": "uint256"
						}
					],
					"name": "getTweet",
					"outputs": [
						{
							"components": [
								{
									"internalType": "address",
									"name": "author",
									"type": "address"
								},
								{
									"internalType": "string",
									"name": "content",
									"type": "string"
								},
								{
									"internalType": "uint256",
									"name": "timestamp",
									"type": "uint256"
								},
								{
									"internalType": "uint256",
									"name": "likes",
									"type": "uint256"
								}
							],
							"internalType": "struct Twitter.Tweet",
							"name": "",
							"type": "tuple"
						}
					],
					"stateMutability": "view",
					"type": "function"
				},
				{
					"inputs": [
						{
							"internalType": "address",
							"name": "",
							"type": "address"
						},
						{
							"internalType": "uint256",
							"name": "",
							"type": "uint256"
						}
					],
					"name": "tweets",
					"outputs": [
						{
							"internalType": "address",
							"name": "author",
							"type": "address"
						},
						{
							"internalType": "string",
							"name": "content",
							"type": "string"
						},
						{
							"internalType": "uint256",
							"name": "timestamp",
							"type": "uint256"
						},
						{
							"internalType": "uint256",
							"name": "likes",
							"type": "uint256"
						}
					],
					"stateMutability": "view",
					"type": "function"
				}
			],
			"devdoc": {
				"kind": "dev",
				"methods": {},
				"version": 1
			},
			"evm": {
				"assembly": "    /* \"3-Twitter-Struct.sol\":195:981  contract Twitter {... */\n  mstore(0x40, 0x80)\n  callvalue\n  dup1\n  iszero\n  tag_1\n  jumpi\n  0x00\n  dup1\n  revert\ntag_1:\n  pop\n  dataSize(sub_0)\n  dup1\n  dataOffset(sub_0)\n  0x00\n  codecopy\n  0x00\n  return\nstop\n\nsub_0: assembly {\n        /* \"3-Twitter-Struct.sol\":195:981  contract Twitter {... */\n      mstore(0x40, 0x80)\n      callvalue\n      dup1\n      iszero\n      tag_1\n      jumpi\n      0x00\n      dup1\n      revert\n    tag_1:\n      pop\n      jumpi(tag_2, lt(calldatasize, 0x04))\n      shr(0xe0, calldataload(0x00))\n      dup1\n      0x05a1b4a9\n      eq\n      tag_3\n      jumpi\n      dup1\n      0x53256135\n      eq\n      tag_4\n      jumpi\n      dup1\n      0x7c9cd2bc\n      eq\n      tag_5\n      jumpi\n      dup1\n      0xc3ad5ecb\n      eq\n      tag_6\n      jumpi\n    tag_2:\n      0x00\n      dup1\n      revert\n        /* \"3-Twitter-Struct.sol\":392:434  mapping(address => Tweet[] ) public tweets */\n    tag_3:\n      tag_7\n      0x04\n      dup1\n      calldatasize\n      sub\n      dup2\n      add\n      swap1\n      tag_8\n      swap2\n      swap1\n      tag_9\n      jump\t// in\n    tag_8:\n      tag_10\n      jump\t// in\n    tag_7:\n      mload(0x40)\n      tag_11\n      swap5\n      swap4\n      swap3\n      swap2\n      swap1\n      tag_12\n      jump\t// in\n    tag_11:\n      mload(0x40)\n      dup1\n      swap2\n      sub\n      swap1\n      return\n        /* \"3-Twitter-Struct.sol\":871:976  function getAllTweets() public view returns (Tweet[] memory ){... */\n    tag_4:\n      tag_13\n      tag_14\n      jump\t// in\n    tag_13:\n      mload(0x40)\n      tag_15\n      swap2\n      swap1\n      tag_16\n      jump\t// in\n    tag_15:\n      mload(0x40)\n      dup1\n      swap2\n      sub\n      swap1\n      return\n        /* \"3-Twitter-Struct.sol\":443:744  function createTweet(string memory _tweet) public {... */\n    tag_5:\n      tag_17\n      0x04\n      dup1\n      calldatasize\n      sub\n      dup2\n      add\n      swap1\n      tag_18\n      swap2\n      swap1\n      tag_19\n      jump\t// in\n    tag_18:\n      tag_20\n      jump\t// in\n    tag_17:\n      stop\n        /* \"3-Twitter-Struct.sol\":752:863  function getTweet( uint _i) public view returns (Tweet memory) {... */\n    tag_6:\n      tag_21\n      0x04\n      dup1\n      calldatasize\n      sub\n      dup2\n      add\n      swap1\n      tag_22\n      swap2\n      swap1\n      tag_23\n      jump\t// in\n    tag_22:\n      tag_24\n      jump\t// in\n    tag_21:\n      mload(0x40)\n      tag_25\n      swap2\n      swap1\n      tag_26\n      jump\t// in\n    tag_25:\n      mload(0x40)\n      dup1\n      swap2\n      sub\n      swap1\n      return\n        /* \"3-Twitter-Struct.sol\":392:434  mapping(address => Tweet[] ) public tweets */\n    tag_10:\n      mstore(0x20, 0x00)\n      dup2\n      0x00\n      mstore\n      keccak256(0x00, 0x40)\n      dup2\n      dup2\n      sload\n      dup2\n      lt\n      tag_27\n      jumpi\n      0x00\n      dup1\n      revert\n    tag_27:\n      swap1\n      0x00\n      mstore\n      keccak256(0x00, 0x20)\n      swap1\n      0x04\n      mul\n      add\n      0x00\n      swap2\n      pop\n      swap2\n      pop\n      pop\n      dup1\n      0x00\n      add\n      0x00\n      swap1\n      sload\n      swap1\n      0x0100\n      exp\n      swap1\n      div\n      0xffffffffffffffffffffffffffffffffffffffff\n      and\n      swap1\n      dup1\n      0x01\n      add\n      dup1\n      sload\n      tag_29\n      swap1\n      tag_30\n      jump\t// in\n    tag_29:\n      dup1\n      0x1f\n      add\n      0x20\n      dup1\n      swap2\n      div\n      mul\n      0x20\n      add\n      mload(0x40)\n      swap1\n      dup2\n      add\n      0x40\n      mstore\n      dup1\n      swap3\n      swap2\n      swap1\n      dup2\n      dup2\n      mstore\n      0x20\n      add\n      dup3\n      dup1\n      sload\n      tag_31\n      swap1\n      tag_30\n      jump\t// in\n    tag_31:\n      dup1\n      iszero\n      tag_32\n      jumpi\n      dup1\n      0x1f\n      lt\n      tag_33\n      jumpi\n      0x0100\n      dup1\n      dup4\n      sload\n      div\n      mul\n      dup4\n      mstore\n      swap2\n      0x20\n      add\n      swap2\n      jump(tag_32)\n    tag_33:\n      dup3\n      add\n      swap2\n      swap1\n      0x00\n      mstore\n      keccak256(0x00, 0x20)\n      swap1\n    tag_34:\n      dup2\n      sload\n      dup2\n      mstore\n      swap1\n      0x01\n      add\n      swap1\n      0x20\n      add\n      dup1\n      dup4\n      gt\n      tag_34\n      jumpi\n      dup3\n      swap1\n      sub\n      0x1f\n      and\n      dup3\n      add\n      swap2\n    tag_32:\n      pop\n      pop\n      pop\n      pop\n      pop\n      swap1\n      dup1\n      0x02\n      add\n      sload\n      swap1\n      dup1\n      0x03\n      add\n      sload\n      swap1\n      pop\n      dup5\n      jump\t// out\n        /* \"3-Twitter-Struct.sol\":871:976  function getAllTweets() public view returns (Tweet[] memory ){... */\n    tag_14:\n        /* \"3-Twitter-Struct.sol\":916:930  Tweet[] memory */\n      0x60\n        /* \"3-Twitter-Struct.sol\":950:956  tweets */\n      0x00\n        /* \"3-Twitter-Struct.sol\":950:968  tweets[msg.sender] */\n      dup1\n        /* \"3-Twitter-Struct.sol\":957:967  msg.sender */\n      caller\n        /* \"3-Twitter-Struct.sol\":950:968  tweets[msg.sender] */\n      0xffffffffffffffffffffffffffffffffffffffff\n      and\n      0xffffffffffffffffffffffffffffffffffffffff\n      and\n      dup2\n      mstore\n      0x20\n      add\n      swap1\n      dup2\n      mstore\n      0x20\n      add\n      0x00\n      keccak256\n        /* \"3-Twitter-Struct.sol\":943:968  return tweets[msg.sender] */\n      dup1\n      sload\n      dup1\n      0x20\n      mul\n      0x20\n      add\n      mload(0x40)\n      swap1\n      dup2\n      add\n      0x40\n      mstore\n      dup1\n      swap3\n      swap2\n      swap1\n      dup2\n      dup2\n      mstore\n      0x20\n      add\n      0x00\n      swap1\n    tag_36:\n      dup3\n      dup3\n      lt\n      iszero\n      tag_37\n      jumpi\n      dup4\n      dup3\n      swap1\n      0x00\n      mstore\n      keccak256(0x00, 0x20)\n      swap1\n      0x04\n      mul\n      add\n      mload(0x40)\n      dup1\n      0x80\n      add\n      0x40\n      mstore\n      swap1\n      dup2\n      0x00\n      dup3\n      add\n      0x00\n      swap1\n      sload\n      swap1\n      0x0100\n      exp\n      swap1\n      div\n      0xffffffffffffffffffffffffffffffffffffffff\n      and\n      0xffffffffffffffffffffffffffffffffffffffff\n      and\n      0xffffffffffffffffffffffffffffffffffffffff\n      and\n      dup2\n      mstore\n      0x20\n      add\n      0x01\n      dup3\n      add\n      dup1\n      sload\n      tag_39\n      swap1\n      tag_30\n      jump\t// in\n    tag_39:\n      dup1\n      0x1f\n      add\n      0x20\n      dup1\n      swap2\n      div\n      mul\n      0x20\n      add\n      mload(0x40)\n      swap1\n      dup2\n      add\n      0x40\n      mstore\n      dup1\n      swap3\n      swap2\n      swap1\n      dup2\n      dup2\n      mstore\n      0x20\n      add\n      dup3\n      dup1\n      sload\n      tag_40\n      swap1\n      tag_30\n      jump\t// in\n    tag_40:\n      dup1\n      iszero\n      tag_41\n      jumpi\n      dup1\n      0x1f\n      lt\n      tag_42\n      jumpi\n      0x0100\n      dup1\n      dup4\n      sload\n      div\n      mul\n      dup4\n      mstore\n      swap2\n      0x20\n      add\n      swap2\n      jump(tag_41)\n    tag_42:\n      dup3\n      add\n      swap2\n      swap1\n      0x00\n      mstore\n      keccak256(0x00, 0x20)\n      swap1\n    tag_43:\n      dup2\n      sload\n      dup2\n      mstore\n      swap1\n      0x01\n      add\n      swap1\n      0x20\n      add\n      dup1\n      dup4\n      gt\n      tag_43\n      jumpi\n      dup3\n      swap1\n      sub\n      0x1f\n      and\n      dup3\n      add\n      swap2\n    tag_41:\n      pop\n      pop\n      pop\n      pop\n      pop\n      dup2\n      mstore\n      0x20\n      add\n      0x02\n      dup3\n      add\n      sload\n      dup2\n      mstore\n      0x20\n      add\n      0x03\n      dup3\n      add\n      sload\n      dup2\n      mstore\n      pop\n      pop\n      dup2\n      mstore\n      0x20\n      add\n      swap1\n      0x01\n      add\n      swap1\n      jump(tag_36)\n    tag_37:\n      pop\n      pop\n      pop\n      pop\n      swap1\n      pop\n        /* \"3-Twitter-Struct.sol\":871:976  function getAllTweets() public view returns (Tweet[] memory ){... */\n      swap1\n      jump\t// out\n        /* \"3-Twitter-Struct.sol\":443:744  function createTweet(string memory _tweet) public {... */\n    tag_20:\n        /* \"3-Twitter-Struct.sol\":504:525  Tweet memory newTweet */\n      0x00\n        /* \"3-Twitter-Struct.sol\":527:692  Tweet({... */\n      mload(0x40)\n      dup1\n      0x80\n      add\n      0x40\n      mstore\n      dup1\n        /* \"3-Twitter-Struct.sol\":556:566  msg.sender */\n      caller\n        /* \"3-Twitter-Struct.sol\":527:692  Tweet({... */\n      0xffffffffffffffffffffffffffffffffffffffff\n      and\n      dup2\n      mstore\n      0x20\n      add\n        /* \"3-Twitter-Struct.sol\":590:596  _tweet */\n      dup4\n        /* \"3-Twitter-Struct.sol\":527:692  Tweet({... */\n      dup2\n      mstore\n      0x20\n      add\n        /* \"3-Twitter-Struct.sol\":621:636  block.timestamp */\n      timestamp\n        /* \"3-Twitter-Struct.sol\":527:692  Tweet({... */\n      dup2\n      mstore\n      0x20\n      add\n        /* \"3-Twitter-Struct.sol\":658:659  0 */\n      0x00\n        /* \"3-Twitter-Struct.sol\":527:692  Tweet({... */\n      dup2\n      mstore\n      pop\n        /* \"3-Twitter-Struct.sol\":504:692  Tweet memory newTweet =Tweet({... */\n      swap1\n      pop\n        /* \"3-Twitter-Struct.sol\":703:709  tweets */\n      0x00\n        /* \"3-Twitter-Struct.sol\":703:721  tweets[msg.sender] */\n      dup1\n        /* \"3-Twitter-Struct.sol\":710:720  msg.sender */\n      caller\n        /* \"3-Twitter-Struct.sol\":703:721  tweets[msg.sender] */\n      0xffffffffffffffffffffffffffffffffffffffff\n      and\n      0xffffffffffffffffffffffffffffffffffffffff\n      and\n      dup2\n      mstore\n      0x20\n      add\n      swap1\n      dup2\n      mstore\n      0x20\n      add\n      0x00\n      keccak256\n        /* \"3-Twitter-Struct.sol\":727:735  newTweet */\n      dup2\n        /* \"3-Twitter-Struct.sol\":703:736  tweets[msg.sender].push(newTweet) */\n      swap1\n      dup1\n      0x01\n      dup2\n      sload\n      add\n      dup1\n      dup3\n      sstore\n      dup1\n      swap2\n      pop\n      pop\n      0x01\n      swap1\n      sub\n      swap1\n      0x00\n      mstore\n      keccak256(0x00, 0x20)\n      swap1\n      0x04\n      mul\n      add\n      0x00\n      swap1\n      swap2\n      swap1\n      swap2\n      swap1\n      swap2\n      pop\n      0x00\n      dup3\n      add\n      mload\n      dup2\n      0x00\n      add\n      exp(0x0100, 0x00)\n      dup2\n      sload\n      dup2\n      0xffffffffffffffffffffffffffffffffffffffff\n      mul\n      not\n      and\n      swap1\n      dup4\n      0xffffffffffffffffffffffffffffffffffffffff\n      and\n      mul\n      or\n      swap1\n      sstore\n      pop\n      0x20\n      dup3\n      add\n      mload\n      dup2\n      0x01\n      add\n      swap1\n      dup2\n      tag_46\n      swap2\n      swap1\n      tag_47\n      jump\t// in\n    tag_46:\n      pop\n      0x40\n      dup3\n      add\n      mload\n      dup2\n      0x02\n      add\n      sstore\n      0x60\n      dup3\n      add\n      mload\n      dup2\n      0x03\n      add\n      sstore\n      pop\n      pop\n        /* \"3-Twitter-Struct.sol\":493:744  {... */\n      pop\n        /* \"3-Twitter-Struct.sol\":443:744  function createTweet(string memory _tweet) public {... */\n      pop\n      jump\t// out\n        /* \"3-Twitter-Struct.sol\":752:863  function getTweet( uint _i) public view returns (Tweet memory) {... */\n    tag_24:\n        /* \"3-Twitter-Struct.sol\":801:813  Tweet memory */\n      tag_48\n      tag_49\n      jump\t// in\n    tag_48:\n        /* \"3-Twitter-Struct.sol\":833:839  tweets */\n      0x00\n        /* \"3-Twitter-Struct.sol\":833:851  tweets[msg.sender] */\n      dup1\n        /* \"3-Twitter-Struct.sol\":840:850  msg.sender */\n      caller\n        /* \"3-Twitter-Struct.sol\":833:851  tweets[msg.sender] */\n      0xffffffffffffffffffffffffffffffffffffffff\n      and\n      0xffffffffffffffffffffffffffffffffffffffff\n      and\n      dup2\n      mstore\n      0x20\n      add\n      swap1\n      dup2\n      mstore\n      0x20\n      add\n      0x00\n      keccak256\n        /* \"3-Twitter-Struct.sol\":852:854  _i */\n      dup3\n        /* \"3-Twitter-Struct.sol\":833:855  tweets[msg.sender][_i] */\n      dup2\n      sload\n      dup2\n      lt\n      tag_51\n      jumpi\n      tag_52\n      tag_53\n      jump\t// in\n    tag_52:\n    tag_51:\n      swap1\n      0x00\n      mstore\n      keccak256(0x00, 0x20)\n      swap1\n      0x04\n      mul\n      add\n        /* \"3-Twitter-Struct.sol\":826:855  return tweets[msg.sender][_i] */\n      mload(0x40)\n      dup1\n      0x80\n      add\n      0x40\n      mstore\n      swap1\n      dup2\n      0x00\n      dup3\n      add\n      0x00\n      swap1\n      sload\n      swap1\n      0x0100\n      exp\n      swap1\n      div\n      0xffffffffffffffffffffffffffffffffffffffff\n      and\n      0xffffffffffffffffffffffffffffffffffffffff\n      and\n      0xffffffffffffffffffffffffffffffffffffffff\n      and\n      dup2\n      mstore\n      0x20\n      add\n      0x01\n      dup3\n      add\n      dup1\n      sload\n      tag_55\n      swap1\n      tag_30\n      jump\t// in\n    tag_55:\n      dup1\n      0x1f\n      add\n      0x20\n      dup1\n      swap2\n      div\n      mul\n      0x20\n      add\n      mload(0x40)\n      swap1\n      dup2\n      add\n      0x40\n      mstore\n      dup1\n      swap3\n      swap2\n      swap1\n      dup2\n      dup2\n      mstore\n      0x20\n      add\n      dup3\n      dup1\n      sload\n      tag_56\n      swap1\n      tag_30\n      jump\t// in\n    tag_56:\n      dup1\n      iszero\n      tag_57\n      jumpi\n      dup1\n      0x1f\n      lt\n      tag_58\n      jumpi\n      0x0100\n      dup1\n      dup4\n      sload\n      div\n      mul\n      dup4\n      mstore\n      swap2\n      0x20\n      add\n      swap2\n      jump(tag_57)\n    tag_58:\n      dup3\n      add\n      swap2\n      swap1\n      0x00\n      mstore\n      keccak256(0x00, 0x20)\n      swap1\n    tag_59:\n      dup2\n      sload\n      dup2\n      mstore\n      swap1\n      0x01\n      add\n      swap1\n      0x20\n      add\n      dup1\n      dup4\n      gt\n      tag_59\n      jumpi\n      dup3\n      swap1\n      sub\n      0x1f\n      and\n      dup3\n      add\n      swap2\n    tag_57:\n      pop\n      pop\n      pop\n      pop\n      pop\n      dup2\n      mstore\n      0x20\n      add\n      0x02\n      dup3\n      add\n      sload\n      dup2\n      mstore\n      0x20\n      add\n      0x03\n      dup3\n      add\n      sload\n      dup2\n      mstore\n      pop\n      pop\n      swap1\n      pop\n        /* \"3-Twitter-Struct.sol\":752:863  function getTweet( uint _i) public view returns (Tweet memory) {... */\n      swap2\n      swap1\n      pop\n      jump\t// out\n    tag_49:\n      mload(0x40)\n      dup1\n      0x80\n      add\n      0x40\n      mstore\n      dup1\n      and(0xffffffffffffffffffffffffffffffffffffffff, 0x00)\n      dup2\n      mstore\n      0x20\n      add\n      0x60\n      dup2\n      mstore\n      0x20\n      add\n      0x00\n      dup2\n      mstore\n      0x20\n      add\n      0x00\n      dup2\n      mstore\n      pop\n      swap1\n      jump\t// out\n        /* \"#utility.yul\":7:82   */\n    tag_60:\n        /* \"#utility.yul\":40:46   */\n      0x00\n        /* \"#utility.yul\":73:75   */\n      0x40\n        /* \"#utility.yul\":67:76   */\n      mload\n        /* \"#utility.yul\":57:76   */\n      swap1\n      pop\n        /* \"#utility.yul\":7:82   */\n      swap1\n      jump\t// out\n        /* \"#utility.yul\":88:205   */\n    tag_61:\n        /* \"#utility.yul\":197:198   */\n      0x00\n        /* \"#utility.yul\":194:195   */\n      dup1\n        /* \"#utility.yul\":187:199   */\n      revert\n        /* \"#utility.yul\":211:328   */\n    tag_62:\n        /* \"#utility.yul\":320:321   */\n      0x00\n        /* \"#utility.yul\":317:318   */\n      dup1\n        /* \"#utility.yul\":310:322   */\n      revert\n        /* \"#utility.yul\":334:460   */\n    tag_63:\n        /* \"#utility.yul\":371:378   */\n      0x00\n        /* \"#utility.yul\":411:453   */\n      0xffffffffffffffffffffffffffffffffffffffff\n        /* \"#utility.yul\":404:409   */\n      dup3\n        /* \"#utility.yul\":400:454   */\n      and\n        /* \"#utility.yul\":389:454   */\n      swap1\n      pop\n        /* \"#utility.yul\":334:460   */\n      swap2\n      swap1\n      pop\n      jump\t// out\n        /* \"#utility.yul\":466:562   */\n    tag_64:\n        /* \"#utility.yul\":503:510   */\n      0x00\n        /* \"#utility.yul\":532:556   */\n      tag_120\n        /* \"#utility.yul\":550:555   */\n      dup3\n        /* \"#utility.yul\":532:556   */\n      tag_63\n      jump\t// in\n    tag_120:\n        /* \"#utility.yul\":521:556   */\n      swap1\n      pop\n        /* \"#utility.yul\":466:562   */\n      swap2\n      swap1\n      pop\n      jump\t// out\n        /* \"#utility.yul\":568:690   */\n    tag_65:\n        /* \"#utility.yul\":641:665   */\n      tag_122\n        /* \"#utility.yul\":659:664   */\n      dup2\n        /* \"#utility.yul\":641:665   */\n      tag_64\n      jump\t// in\n    tag_122:\n        /* \"#utility.yul\":634:639   */\n      dup2\n        /* \"#utility.yul\":631:666   */\n      eq\n        /* \"#utility.yul\":621:684   */\n      tag_123\n      jumpi\n        /* \"#utility.yul\":680:681   */\n      0x00\n        /* \"#utility.yul\":677:678   */\n      dup1\n        /* \"#utility.yul\":670:682   */\n      revert\n        /* \"#utility.yul\":621:684   */\n    tag_123:\n        /* \"#utility.yul\":568:690   */\n      pop\n      jump\t// out\n        /* \"#utility.yul\":696:835   */\n    tag_66:\n        /* \"#utility.yul\":742:747   */\n      0x00\n        /* \"#utility.yul\":780:786   */\n      dup2\n        /* \"#utility.yul\":767:787   */\n      calldataload\n        /* \"#utility.yul\":758:787   */\n      swap1\n      pop\n        /* \"#utility.yul\":796:829   */\n      tag_125\n        /* \"#utility.yul\":823:828   */\n      dup2\n        /* \"#utility.yul\":796:829   */\n      tag_65\n      jump\t// in\n    tag_125:\n        /* \"#utility.yul\":696:835   */\n      swap3\n      swap2\n      pop\n      pop\n      jump\t// out\n        /* \"#utility.yul\":841:918   */\n    tag_67:\n        /* \"#utility.yul\":878:885   */\n      0x00\n        /* \"#utility.yul\":907:912   */\n      dup2\n        /* \"#utility.yul\":896:912   */\n      swap1\n      pop\n        /* \"#utility.yul\":841:918   */\n      swap2\n      swap1\n      pop\n      jump\t// out\n        /* \"#utility.yul\":924:1046   */\n    tag_68:\n        /* \"#utility.yul\":997:1021   */\n      tag_128\n        /* \"#utility.yul\":1015:1020   */\n      dup2\n        /* \"#utility.yul\":997:1021   */\n      tag_67\n      jump\t// in\n    tag_128:\n        /* \"#utility.yul\":990:995   */\n      dup2\n        /* \"#utility.yul\":987:1022   */\n      eq\n        /* \"#utility.yul\":977:1040   */\n      tag_129\n      jumpi\n        /* \"#utility.yul\":1036:1037   */\n      0x00\n        /* \"#utility.yul\":1033:1034   */\n      dup1\n        /* \"#utility.yul\":1026:1038   */\n      revert\n        /* \"#utility.yul\":977:1040   */\n    tag_129:\n        /* \"#utility.yul\":924:1046   */\n      pop\n      jump\t// out\n        /* \"#utility.yul\":1052:1191   */\n    tag_69:\n        /* \"#utility.yul\":1098:1103   */\n      0x00\n        /* \"#utility.yul\":1136:1142   */\n      dup2\n        /* \"#utility.yul\":1123:1143   */\n      calldataload\n        /* \"#utility.yul\":1114:1143   */\n      swap1\n      pop\n        /* \"#utility.yul\":1152:1185   */\n      tag_131\n        /* \"#utility.yul\":1179:1184   */\n      dup2\n        /* \"#utility.yul\":1152:1185   */\n      tag_68\n      jump\t// in\n    tag_131:\n        /* \"#utility.yul\":1052:1191   */\n      swap3\n      swap2\n      pop\n      pop\n      jump\t// out\n        /* \"#utility.yul\":1197:1671   */\n    tag_9:\n        /* \"#utility.yul\":1265:1271   */\n      0x00\n        /* \"#utility.yul\":1273:1279   */\n      dup1\n        /* \"#utility.yul\":1322:1324   */\n      0x40\n        /* \"#utility.yul\":1310:1319   */\n      dup4\n        /* \"#utility.yul\":1301:1308   */\n      dup6\n        /* \"#utility.yul\":1297:1320   */\n      sub\n        /* \"#utility.yul\":1293:1325   */\n      slt\n        /* \"#utility.yul\":1290:1409   */\n      iszero\n      tag_133\n      jumpi\n        /* \"#utility.yul\":1328:1407   */\n      tag_134\n      tag_61\n      jump\t// in\n    tag_134:\n        /* \"#utility.yul\":1290:1409   */\n    tag_133:\n        /* \"#utility.yul\":1448:1449   */\n      0x00\n        /* \"#utility.yul\":1473:1526   */\n      tag_135\n        /* \"#utility.yul\":1518:1525   */\n      dup6\n        /* \"#utility.yul\":1509:1515   */\n      dup3\n        /* \"#utility.yul\":1498:1507   */\n      dup7\n        /* \"#utility.yul\":1494:1516   */\n      add\n        /* \"#utility.yul\":1473:1526   */\n      tag_66\n      jump\t// in\n    tag_135:\n        /* \"#utility.yul\":1463:1526   */\n      swap3\n      pop\n        /* \"#utility.yul\":1419:1536   */\n      pop\n        /* \"#utility.yul\":1575:1577   */\n      0x20\n        /* \"#utility.yul\":1601:1654   */\n      tag_136\n        /* \"#utility.yul\":1646:1653   */\n      dup6\n        /* \"#utility.yul\":1637:1643   */\n      dup3\n        /* \"#utility.yul\":1626:1635   */\n      dup7\n        /* \"#utility.yul\":1622:1644   */\n      add\n        /* \"#utility.yul\":1601:1654   */\n      tag_69\n      jump\t// in\n    tag_136:\n        /* \"#utility.yul\":1591:1654   */\n      swap2\n      pop\n        /* \"#utility.yul\":1546:1664   */\n      pop\n        /* \"#utility.yul\":1197:1671   */\n      swap3\n      pop\n      swap3\n      swap1\n      pop\n      jump\t// out\n        /* \"#utility.yul\":1677:1795   */\n    tag_70:\n        /* \"#utility.yul\":1764:1788   */\n      tag_138\n        /* \"#utility.yul\":1782:1787   */\n      dup2\n        /* \"#utility.yul\":1764:1788   */\n      tag_64\n      jump\t// in\n    tag_138:\n        /* \"#utility.yul\":1759:1762   */\n      dup3\n        /* \"#utility.yul\":1752:1789   */\n      mstore\n        /* \"#utility.yul\":1677:1795   */\n      pop\n      pop\n      jump\t// out\n        /* \"#utility.yul\":1801:1900   */\n    tag_71:\n        /* \"#utility.yul\":1853:1859   */\n      0x00\n        /* \"#utility.yul\":1887:1892   */\n      dup2\n        /* \"#utility.yul\":1881:1893   */\n      mload\n        /* \"#utility.yul\":1871:1893   */\n      swap1\n      pop\n        /* \"#utility.yul\":1801:1900   */\n      swap2\n      swap1\n      pop\n      jump\t// out\n        /* \"#utility.yul\":1906:2075   */\n    tag_72:\n        /* \"#utility.yul\":1990:2001   */\n      0x00\n        /* \"#utility.yul\":2024:2030   */\n      dup3\n        /* \"#utility.yul\":2019:2022   */\n      dup3\n        /* \"#utility.yul\":2012:2031   */\n      mstore\n        /* \"#utility.yul\":2064:2068   */\n      0x20\n        /* \"#utility.yul\":2059:2062   */\n      dup3\n        /* \"#utility.yul\":2055:2069   */\n      add\n        /* \"#utility.yul\":2040:2069   */\n      swap1\n      pop\n        /* \"#utility.yul\":1906:2075   */\n      swap3\n      swap2\n      pop\n      pop\n      jump\t// out\n        /* \"#utility.yul\":2081:2327   */\n    tag_73:\n        /* \"#utility.yul\":2162:2163   */\n      0x00\n        /* \"#utility.yul\":2172:2285   */\n    tag_142:\n        /* \"#utility.yul\":2186:2192   */\n      dup4\n        /* \"#utility.yul\":2183:2184   */\n      dup2\n        /* \"#utility.yul\":2180:2193   */\n      lt\n        /* \"#utility.yul\":2172:2285   */\n      iszero\n      tag_144\n      jumpi\n        /* \"#utility.yul\":2271:2272   */\n      dup1\n        /* \"#utility.yul\":2266:2269   */\n      dup3\n        /* \"#utility.yul\":2262:2273   */\n      add\n        /* \"#utility.yul\":2256:2274   */\n      mload\n        /* \"#utility.yul\":2252:2253   */\n      dup2\n        /* \"#utility.yul\":2247:2250   */\n      dup5\n        /* \"#utility.yul\":2243:2254   */\n      add\n        /* \"#utility.yul\":2236:2275   */\n      mstore\n        /* \"#utility.yul\":2208:2210   */\n      0x20\n        /* \"#utility.yul\":2205:2206   */\n      dup2\n        /* \"#utility.yul\":2201:2211   */\n      add\n        /* \"#utility.yul\":2196:2211   */\n      swap1\n      pop\n        /* \"#utility.yul\":2172:2285   */\n      jump(tag_142)\n    tag_144:\n        /* \"#utility.yul\":2319:2320   */\n      0x00\n        /* \"#utility.yul\":2310:2316   */\n      dup5\n        /* \"#utility.yul\":2305:2308   */\n      dup5\n        /* \"#utility.yul\":2301:2317   */\n      add\n        /* \"#utility.yul\":2294:2321   */\n      mstore\n        /* \"#utility.yul\":2143:2327   */\n      pop\n        /* \"#utility.yul\":2081:2327   */\n      pop\n      pop\n      pop\n      jump\t// out\n        /* \"#utility.yul\":2333:2435   */\n    tag_74:\n        /* \"#utility.yul\":2374:2380   */\n      0x00\n        /* \"#utility.yul\":2425:2427   */\n      0x1f\n        /* \"#utility.yul\":2421:2428   */\n      not\n        /* \"#utility.yul\":2416:2418   */\n      0x1f\n        /* \"#utility.yul\":2409:2414   */\n      dup4\n        /* \"#utility.yul\":2405:2419   */\n      add\n        /* \"#utility.yul\":2401:2429   */\n      and\n        /* \"#utility.yul\":2391:2429   */\n      swap1\n      pop\n        /* \"#utility.yul\":2333:2435   */\n      swap2\n      swap1\n      pop\n      jump\t// out\n        /* \"#utility.yul\":2441:2818   */\n    tag_75:\n        /* \"#utility.yul\":2529:2532   */\n      0x00\n        /* \"#utility.yul\":2557:2596   */\n      tag_147\n        /* \"#utility.yul\":2590:2595   */\n      dup3\n        /* \"#utility.yul\":2557:2596   */\n      tag_71\n      jump\t// in\n    tag_147:\n        /* \"#utility.yul\":2612:2683   */\n      tag_148\n        /* \"#utility.yul\":2676:2682   */\n      dup2\n        /* \"#utility.yul\":2671:2674   */\n      dup6\n        /* \"#utility.yul\":2612:2683   */\n      tag_72\n      jump\t// in\n    tag_148:\n        /* \"#utility.yul\":2605:2683   */\n      swap4\n      pop\n        /* \"#utility.yul\":2692:2757   */\n      tag_149\n        /* \"#utility.yul\":2750:2756   */\n      dup2\n        /* \"#utility.yul\":2745:2748   */\n      dup6\n        /* \"#utility.yul\":2738:2742   */\n      0x20\n        /* \"#utility.yul\":2731:2736   */\n      dup7\n        /* \"#utility.yul\":2727:2743   */\n      add\n        /* \"#utility.yul\":2692:2757   */\n      tag_73\n      jump\t// in\n    tag_149:\n        /* \"#utility.yul\":2782:2811   */\n      tag_150\n        /* \"#utility.yul\":2804:2810   */\n      dup2\n        /* \"#utility.yul\":2782:2811   */\n      tag_74\n      jump\t// in\n    tag_150:\n        /* \"#utility.yul\":2777:2780   */\n      dup5\n        /* \"#utility.yul\":2773:2812   */\n      add\n        /* \"#utility.yul\":2766:2812   */\n      swap2\n      pop\n        /* \"#utility.yul\":2533:2818   */\n      pop\n        /* \"#utility.yul\":2441:2818   */\n      swap3\n      swap2\n      pop\n      pop\n      jump\t// out\n        /* \"#utility.yul\":2824:2942   */\n    tag_76:\n        /* \"#utility.yul\":2911:2935   */\n      tag_152\n        /* \"#utility.yul\":2929:2934   */\n      dup2\n        /* \"#utility.yul\":2911:2935   */\n      tag_67\n      jump\t// in\n    tag_152:\n        /* \"#utility.yul\":2906:2909   */\n      dup3\n        /* \"#utility.yul\":2899:2936   */\n      mstore\n        /* \"#utility.yul\":2824:2942   */\n      pop\n      pop\n      jump\t// out\n        /* \"#utility.yul\":2948:3592   */\n    tag_12:\n        /* \"#utility.yul\":3145:3149   */\n      0x00\n        /* \"#utility.yul\":3183:3186   */\n      0x80\n        /* \"#utility.yul\":3172:3181   */\n      dup3\n        /* \"#utility.yul\":3168:3187   */\n      add\n        /* \"#utility.yul\":3160:3187   */\n      swap1\n      pop\n        /* \"#utility.yul\":3197:3268   */\n      tag_154\n        /* \"#utility.yul\":3265:3266   */\n      0x00\n        /* \"#utility.yul\":3254:3263   */\n      dup4\n        /* \"#utility.yul\":3250:3267   */\n      add\n        /* \"#utility.yul\":3241:3247   */\n      dup8\n        /* \"#utility.yul\":3197:3268   */\n      tag_70\n      jump\t// in\n    tag_154:\n        /* \"#utility.yul\":3315:3324   */\n      dup2\n        /* \"#utility.yul\":3309:3313   */\n      dup2\n        /* \"#utility.yul\":3305:3325   */\n      sub\n        /* \"#utility.yul\":3300:3302   */\n      0x20\n        /* \"#utility.yul\":3289:3298   */\n      dup4\n        /* \"#utility.yul\":3285:3303   */\n      add\n        /* \"#utility.yul\":3278:3326   */\n      mstore\n        /* \"#utility.yul\":3343:3421   */\n      tag_155\n        /* \"#utility.yul\":3416:3420   */\n      dup2\n        /* \"#utility.yul\":3407:3413   */\n      dup7\n        /* \"#utility.yul\":3343:3421   */\n      tag_75\n      jump\t// in\n    tag_155:\n        /* \"#utility.yul\":3335:3421   */\n      swap1\n      pop\n        /* \"#utility.yul\":3431:3503   */\n      tag_156\n        /* \"#utility.yul\":3499:3501   */\n      0x40\n        /* \"#utility.yul\":3488:3497   */\n      dup4\n        /* \"#utility.yul\":3484:3502   */\n      add\n        /* \"#utility.yul\":3475:3481   */\n      dup6\n        /* \"#utility.yul\":3431:3503   */\n      tag_76\n      jump\t// in\n    tag_156:\n        /* \"#utility.yul\":3513:3585   */\n      tag_157\n        /* \"#utility.yul\":3581:3583   */\n      0x60\n        /* \"#utility.yul\":3570:3579   */\n      dup4\n        /* \"#utility.yul\":3566:3584   */\n      add\n        /* \"#utility.yul\":3557:3563   */\n      dup5\n        /* \"#utility.yul\":3513:3585   */\n      tag_76\n      jump\t// in\n    tag_157:\n        /* \"#utility.yul\":2948:3592   */\n      swap6\n      swap5\n      pop\n      pop\n      pop\n      pop\n      pop\n      jump\t// out\n        /* \"#utility.yul\":3598:3733   */\n    tag_77:\n        /* \"#utility.yul\":3686:3692   */\n      0x00\n        /* \"#utility.yul\":3720:3725   */\n      dup2\n        /* \"#utility.yul\":3714:3726   */\n      mload\n        /* \"#utility.yul\":3704:3726   */\n      swap1\n      pop\n        /* \"#utility.yul\":3598:3733   */\n      swap2\n      swap1\n      pop\n      jump\t// out\n        /* \"#utility.yul\":3739:3944   */\n    tag_78:\n        /* \"#utility.yul\":3859:3870   */\n      0x00\n        /* \"#utility.yul\":3893:3899   */\n      dup3\n        /* \"#utility.yul\":3888:3891   */\n      dup3\n        /* \"#utility.yul\":3881:3900   */\n      mstore\n        /* \"#utility.yul\":3933:3937   */\n      0x20\n        /* \"#utility.yul\":3928:3931   */\n      dup3\n        /* \"#utility.yul\":3924:3938   */\n      add\n        /* \"#utility.yul\":3909:3938   */\n      swap1\n      pop\n        /* \"#utility.yul\":3739:3944   */\n      swap3\n      swap2\n      pop\n      pop\n      jump\t// out\n        /* \"#utility.yul\":3950:4103   */\n    tag_79:\n        /* \"#utility.yul\":4038:4042   */\n      0x00\n        /* \"#utility.yul\":4061:4064   */\n      dup2\n        /* \"#utility.yul\":4053:4064   */\n      swap1\n      pop\n        /* \"#utility.yul\":4091:4095   */\n      0x20\n        /* \"#utility.yul\":4086:4089   */\n      dup3\n        /* \"#utility.yul\":4082:4096   */\n      add\n        /* \"#utility.yul\":4074:4096   */\n      swap1\n      pop\n        /* \"#utility.yul\":3950:4103   */\n      swap2\n      swap1\n      pop\n      jump\t// out\n        /* \"#utility.yul\":4109:4217   */\n    tag_80:\n        /* \"#utility.yul\":4186:4210   */\n      tag_162\n        /* \"#utility.yul\":4204:4209   */\n      dup2\n        /* \"#utility.yul\":4186:4210   */\n      tag_64\n      jump\t// in\n    tag_162:\n        /* \"#utility.yul\":4181:4184   */\n      dup3\n        /* \"#utility.yul\":4174:4211   */\n      mstore\n        /* \"#utility.yul\":4109:4217   */\n      pop\n      pop\n      jump\t// out\n        /* \"#utility.yul\":4223:4382   */\n    tag_81:\n        /* \"#utility.yul\":4297:4308   */\n      0x00\n        /* \"#utility.yul\":4331:4337   */\n      dup3\n        /* \"#utility.yul\":4326:4329   */\n      dup3\n        /* \"#utility.yul\":4319:4338   */\n      mstore\n        /* \"#utility.yul\":4371:4375   */\n      0x20\n        /* \"#utility.yul\":4366:4369   */\n      dup3\n        /* \"#utility.yul\":4362:4376   */\n      add\n        /* \"#utility.yul\":4347:4376   */\n      swap1\n      pop\n        /* \"#utility.yul\":4223:4382   */\n      swap3\n      swap2\n      pop\n      pop\n      jump\t// out\n        /* \"#utility.yul\":4388:4745   */\n    tag_82:\n        /* \"#utility.yul\":4466:4469   */\n      0x00\n        /* \"#utility.yul\":4494:4533   */\n      tag_165\n        /* \"#utility.yul\":4527:4532   */\n      dup3\n        /* \"#utility.yul\":4494:4533   */\n      tag_71\n      jump\t// in\n    tag_165:\n        /* \"#utility.yul\":4549:4610   */\n      tag_166\n        /* \"#utility.yul\":4603:4609   */\n      dup2\n        /* \"#utility.yul\":4598:4601   */\n      dup6\n        /* \"#utility.yul\":4549:4610   */\n      tag_81\n      jump\t// in\n    tag_166:\n        /* \"#utility.yul\":4542:4610   */\n      swap4\n      pop\n        /* \"#utility.yul\":4619:4684   */\n      tag_167\n        /* \"#utility.yul\":4677:4683   */\n      dup2\n        /* \"#utility.yul\":4672:4675   */\n      dup6\n        /* \"#utility.yul\":4665:4669   */\n      0x20\n        /* \"#utility.yul\":4658:4663   */\n      dup7\n        /* \"#utility.yul\":4654:4670   */\n      add\n        /* \"#utility.yul\":4619:4684   */\n      tag_73\n      jump\t// in\n    tag_167:\n        /* \"#utility.yul\":4709:4738   */\n      tag_168\n        /* \"#utility.yul\":4731:4737   */\n      dup2\n        /* \"#utility.yul\":4709:4738   */\n      tag_74\n      jump\t// in\n    tag_168:\n        /* \"#utility.yul\":4704:4707   */\n      dup5\n        /* \"#utility.yul\":4700:4739   */\n      add\n        /* \"#utility.yul\":4693:4739   */\n      swap2\n      pop\n        /* \"#utility.yul\":4470:4745   */\n      pop\n        /* \"#utility.yul\":4388:4745   */\n      swap3\n      swap2\n      pop\n      pop\n      jump\t// out\n        /* \"#utility.yul\":4751:4859   */\n    tag_83:\n        /* \"#utility.yul\":4828:4852   */\n      tag_170\n        /* \"#utility.yul\":4846:4851   */\n      dup2\n        /* \"#utility.yul\":4828:4852   */\n      tag_67\n      jump\t// in\n    tag_170:\n        /* \"#utility.yul\":4823:4826   */\n      dup3\n        /* \"#utility.yul\":4816:4853   */\n      mstore\n        /* \"#utility.yul\":4751:4859   */\n      pop\n      pop\n      jump\t// out\n        /* \"#utility.yul\":4917:5864   */\n    tag_84:\n        /* \"#utility.yul\":5018:5021   */\n      0x00\n        /* \"#utility.yul\":5054:5058   */\n      0x80\n        /* \"#utility.yul\":5049:5052   */\n      dup4\n        /* \"#utility.yul\":5045:5059   */\n      add\n        /* \"#utility.yul\":5143:5147   */\n      0x00\n        /* \"#utility.yul\":5136:5141   */\n      dup4\n        /* \"#utility.yul\":5132:5148   */\n      add\n        /* \"#utility.yul\":5126:5149   */\n      mload\n        /* \"#utility.yul\":5162:5225   */\n      tag_172\n        /* \"#utility.yul\":5219:5223   */\n      0x00\n        /* \"#utility.yul\":5214:5217   */\n      dup7\n        /* \"#utility.yul\":5210:5224   */\n      add\n        /* \"#utility.yul\":5196:5208   */\n      dup3\n        /* \"#utility.yul\":5162:5225   */\n      tag_80\n      jump\t// in\n    tag_172:\n        /* \"#utility.yul\":5069:5235   */\n      pop\n        /* \"#utility.yul\":5320:5324   */\n      0x20\n        /* \"#utility.yul\":5313:5318   */\n      dup4\n        /* \"#utility.yul\":5309:5325   */\n      add\n        /* \"#utility.yul\":5303:5326   */\n      mload\n        /* \"#utility.yul\":5373:5376   */\n      dup5\n        /* \"#utility.yul\":5367:5371   */\n      dup3\n        /* \"#utility.yul\":5363:5377   */\n      sub\n        /* \"#utility.yul\":5356:5360   */\n      0x20\n        /* \"#utility.yul\":5351:5354   */\n      dup7\n        /* \"#utility.yul\":5347:5361   */\n      add\n        /* \"#utility.yul\":5340:5378   */\n      mstore\n        /* \"#utility.yul\":5399:5472   */\n      tag_173\n        /* \"#utility.yul\":5467:5471   */\n      dup3\n        /* \"#utility.yul\":5453:5465   */\n      dup3\n        /* \"#utility.yul\":5399:5472   */\n      tag_82\n      jump\t// in\n    tag_173:\n        /* \"#utility.yul\":5391:5472   */\n      swap2\n      pop\n        /* \"#utility.yul\":5245:5483   */\n      pop\n        /* \"#utility.yul\":5570:5574   */\n      0x40\n        /* \"#utility.yul\":5563:5568   */\n      dup4\n        /* \"#utility.yul\":5559:5575   */\n      add\n        /* \"#utility.yul\":5553:5576   */\n      mload\n        /* \"#utility.yul\":5589:5652   */\n      tag_174\n        /* \"#utility.yul\":5646:5650   */\n      0x40\n        /* \"#utility.yul\":5641:5644   */\n      dup7\n        /* \"#utility.yul\":5637:5651   */\n      add\n        /* \"#utility.yul\":5623:5635   */\n      dup3\n        /* \"#utility.yul\":5589:5652   */\n      tag_83\n      jump\t// in\n    tag_174:\n        /* \"#utility.yul\":5493:5662   */\n      pop\n        /* \"#utility.yul\":5745:5749   */\n      0x60\n        /* \"#utility.yul\":5738:5743   */\n      dup4\n        /* \"#utility.yul\":5734:5750   */\n      add\n        /* \"#utility.yul\":5728:5751   */\n      mload\n        /* \"#utility.yul\":5764:5827   */\n      tag_175\n        /* \"#utility.yul\":5821:5825   */\n      0x60\n        /* \"#utility.yul\":5816:5819   */\n      dup7\n        /* \"#utility.yul\":5812:5826   */\n      add\n        /* \"#utility.yul\":5798:5810   */\n      dup3\n        /* \"#utility.yul\":5764:5827   */\n      tag_83\n      jump\t// in\n    tag_175:\n        /* \"#utility.yul\":5672:5837   */\n      pop\n        /* \"#utility.yul\":5854:5858   */\n      dup1\n        /* \"#utility.yul\":5847:5858   */\n      swap2\n      pop\n        /* \"#utility.yul\":5023:5864   */\n      pop\n        /* \"#utility.yul\":4917:5864   */\n      swap3\n      swap2\n      pop\n      pop\n      jump\t// out\n        /* \"#utility.yul\":5870:6110   */\n    tag_85:\n        /* \"#utility.yul\":5981:5991   */\n      0x00\n        /* \"#utility.yul\":6016:6104   */\n      tag_177\n        /* \"#utility.yul\":6100:6103   */\n      dup4\n        /* \"#utility.yul\":6092:6098   */\n      dup4\n        /* \"#utility.yul\":6016:6104   */\n      tag_84\n      jump\t// in\n    tag_177:\n        /* \"#utility.yul\":6002:6104   */\n      swap1\n      pop\n        /* \"#utility.yul\":5870:6110   */\n      swap3\n      swap2\n      pop\n      pop\n      jump\t// out\n        /* \"#utility.yul\":6116:6250   */\n    tag_86:\n        /* \"#utility.yul\":6207:6211   */\n      0x00\n        /* \"#utility.yul\":6239:6243   */\n      0x20\n        /* \"#utility.yul\":6234:6237   */\n      dup3\n        /* \"#utility.yul\":6230:6244   */\n      add\n        /* \"#utility.yul\":6222:6244   */\n      swap1\n      pop\n        /* \"#utility.yul\":6116:6250   */\n      swap2\n      swap1\n      pop\n      jump\t// out\n        /* \"#utility.yul\":6312:7391   */\n    tag_87:\n        /* \"#utility.yul\":6473:6476   */\n      0x00\n        /* \"#utility.yul\":6502:6577   */\n      tag_180\n        /* \"#utility.yul\":6571:6576   */\n      dup3\n        /* \"#utility.yul\":6502:6577   */\n      tag_77\n      jump\t// in\n    tag_180:\n        /* \"#utility.yul\":6593:6700   */\n      tag_181\n        /* \"#utility.yul\":6693:6699   */\n      dup2\n        /* \"#utility.yul\":6688:6691   */\n      dup6\n        /* \"#utility.yul\":6593:6700   */\n      tag_78\n      jump\t// in\n    tag_181:\n        /* \"#utility.yul\":6586:6700   */\n      swap4\n      pop\n        /* \"#utility.yul\":6726:6729   */\n      dup4\n        /* \"#utility.yul\":6771:6775   */\n      0x20\n        /* \"#utility.yul\":6763:6769   */\n      dup3\n        /* \"#utility.yul\":6759:6776   */\n      mul\n        /* \"#utility.yul\":6754:6757   */\n      dup6\n        /* \"#utility.yul\":6750:6777   */\n      add\n        /* \"#utility.yul\":6801:6878   */\n      tag_182\n        /* \"#utility.yul\":6872:6877   */\n      dup6\n        /* \"#utility.yul\":6801:6878   */\n      tag_79\n      jump\t// in\n    tag_182:\n        /* \"#utility.yul\":6901:6908   */\n      dup1\n        /* \"#utility.yul\":6932:6933   */\n      0x00\n        /* \"#utility.yul\":6917:7346   */\n    tag_183:\n        /* \"#utility.yul\":6942:6948   */\n      dup6\n        /* \"#utility.yul\":6939:6940   */\n      dup2\n        /* \"#utility.yul\":6936:6949   */\n      lt\n        /* \"#utility.yul\":6917:7346   */\n      iszero\n      tag_185\n      jumpi\n        /* \"#utility.yul\":7013:7022   */\n      dup5\n        /* \"#utility.yul\":7007:7011   */\n      dup5\n        /* \"#utility.yul\":7003:7023   */\n      sub\n        /* \"#utility.yul\":6998:7001   */\n      dup10\n        /* \"#utility.yul\":6991:7024   */\n      mstore\n        /* \"#utility.yul\":7064:7070   */\n      dup2\n        /* \"#utility.yul\":7058:7071   */\n      mload\n        /* \"#utility.yul\":7092:7198   */\n      tag_186\n        /* \"#utility.yul\":7193:7197   */\n      dup6\n        /* \"#utility.yul\":7178:7191   */\n      dup3\n        /* \"#utility.yul\":7092:7198   */\n      tag_85\n      jump\t// in\n    tag_186:\n        /* \"#utility.yul\":7084:7198   */\n      swap5\n      pop\n        /* \"#utility.yul\":7221:7302   */\n      tag_187\n        /* \"#utility.yul\":7295:7301   */\n      dup4\n        /* \"#utility.yul\":7221:7302   */\n      tag_86\n      jump\t// in\n    tag_187:\n        /* \"#utility.yul\":7211:7302   */\n      swap3\n      pop\n        /* \"#utility.yul\":7331:7335   */\n      0x20\n        /* \"#utility.yul\":7326:7329   */\n      dup11\n        /* \"#utility.yul\":7322:7336   */\n      add\n        /* \"#utility.yul\":7315:7336   */\n      swap10\n      pop\n        /* \"#utility.yul\":6977:7346   */\n      pop\n        /* \"#utility.yul\":6964:6965   */\n      0x01\n        /* \"#utility.yul\":6961:6962   */\n      dup2\n        /* \"#utility.yul\":6957:6966   */\n      add\n        /* \"#utility.yul\":6952:6966   */\n      swap1\n      pop\n        /* \"#utility.yul\":6917:7346   */\n      jump(tag_183)\n    tag_185:\n        /* \"#utility.yul\":6921:6935   */\n      pop\n        /* \"#utility.yul\":7362:7366   */\n      dup3\n        /* \"#utility.yul\":7355:7366   */\n      swap8\n      pop\n        /* \"#utility.yul\":7382:7385   */\n      dup8\n        /* \"#utility.yul\":7375:7385   */\n      swap6\n      pop\n        /* \"#utility.yul\":6478:7391   */\n      pop\n      pop\n      pop\n      pop\n      pop\n        /* \"#utility.yul\":6312:7391   */\n      swap3\n      swap2\n      pop\n      pop\n      jump\t// out\n        /* \"#utility.yul\":7397:7854   */\n    tag_16:\n        /* \"#utility.yul\":7582:7586   */\n      0x00\n        /* \"#utility.yul\":7620:7622   */\n      0x20\n        /* \"#utility.yul\":7609:7618   */\n      dup3\n        /* \"#utility.yul\":7605:7623   */\n      add\n        /* \"#utility.yul\":7597:7623   */\n      swap1\n      pop\n        /* \"#utility.yul\":7669:7678   */\n      dup2\n        /* \"#utility.yul\":7663:7667   */\n      dup2\n        /* \"#utility.yul\":7659:7679   */\n      sub\n        /* \"#utility.yul\":7655:7656   */\n      0x00\n        /* \"#utility.yul\":7644:7653   */\n      dup4\n        /* \"#utility.yul\":7640:7657   */\n      add\n        /* \"#utility.yul\":7633:7680   */\n      mstore\n        /* \"#utility.yul\":7697:7847   */\n      tag_189\n        /* \"#utility.yul\":7842:7846   */\n      dup2\n        /* \"#utility.yul\":7833:7839   */\n      dup5\n        /* \"#utility.yul\":7697:7847   */\n      tag_87\n      jump\t// in\n    tag_189:\n        /* \"#utility.yul\":7689:7847   */\n      swap1\n      pop\n        /* \"#utility.yul\":7397:7854   */\n      swap3\n      swap2\n      pop\n      pop\n      jump\t// out\n        /* \"#utility.yul\":7860:7977   */\n    tag_88:\n        /* \"#utility.yul\":7969:7970   */\n      0x00\n        /* \"#utility.yul\":7966:7967   */\n      dup1\n        /* \"#utility.yul\":7959:7971   */\n      revert\n        /* \"#utility.yul\":7983:8100   */\n    tag_89:\n        /* \"#utility.yul\":8092:8093   */\n      0x00\n        /* \"#utility.yul\":8089:8090   */\n      dup1\n        /* \"#utility.yul\":8082:8094   */\n      revert\n        /* \"#utility.yul\":8106:8286   */\n    tag_90:\n        /* \"#utility.yul\":8154:8231   */\n      0x4e487b7100000000000000000000000000000000000000000000000000000000\n        /* \"#utility.yul\":8151:8152   */\n      0x00\n        /* \"#utility.yul\":8144:8232   */\n      mstore\n        /* \"#utility.yul\":8251:8255   */\n      0x41\n        /* \"#utility.yul\":8248:8249   */\n      0x04\n        /* \"#utility.yul\":8241:8256   */\n      mstore\n        /* \"#utility.yul\":8275:8279   */\n      0x24\n        /* \"#utility.yul\":8272:8273   */\n      0x00\n        /* \"#utility.yul\":8265:8280   */\n      revert\n        /* \"#utility.yul\":8292:8573   */\n    tag_91:\n        /* \"#utility.yul\":8375:8402   */\n      tag_194\n        /* \"#utility.yul\":8397:8401   */\n      dup3\n        /* \"#utility.yul\":8375:8402   */\n      tag_74\n      jump\t// in\n    tag_194:\n        /* \"#utility.yul\":8367:8373   */\n      dup2\n        /* \"#utility.yul\":8363:8403   */\n      add\n        /* \"#utility.yul\":8505:8511   */\n      dup2\n        /* \"#utility.yul\":8493:8503   */\n      dup2\n        /* \"#utility.yul\":8490:8512   */\n      lt\n        /* \"#utility.yul\":8469:8487   */\n      0xffffffffffffffff\n        /* \"#utility.yul\":8457:8467   */\n      dup3\n        /* \"#utility.yul\":8454:8488   */\n      gt\n        /* \"#utility.yul\":8451:8513   */\n      or\n        /* \"#utility.yul\":8448:8536   */\n      iszero\n      tag_195\n      jumpi\n        /* \"#utility.yul\":8516:8534   */\n      tag_196\n      tag_90\n      jump\t// in\n    tag_196:\n        /* \"#utility.yul\":8448:8536   */\n    tag_195:\n        /* \"#utility.yul\":8556:8566   */\n      dup1\n        /* \"#utility.yul\":8552:8554   */\n      0x40\n        /* \"#utility.yul\":8545:8567   */\n      mstore\n        /* \"#utility.yul\":8335:8573   */\n      pop\n        /* \"#utility.yul\":8292:8573   */\n      pop\n      pop\n      jump\t// out\n        /* \"#utility.yul\":8579:8708   */\n    tag_92:\n        /* \"#utility.yul\":8613:8619   */\n      0x00\n        /* \"#utility.yul\":8640:8660   */\n      tag_198\n      tag_60\n      jump\t// in\n    tag_198:\n        /* \"#utility.yul\":8630:8660   */\n      swap1\n      pop\n        /* \"#utility.yul\":8669:8702   */\n      tag_199\n        /* \"#utility.yul\":8697:8701   */\n      dup3\n        /* \"#utility.yul\":8689:8695   */\n      dup3\n        /* \"#utility.yul\":8669:8702   */\n      tag_91\n      jump\t// in\n    tag_199:\n        /* \"#utility.yul\":8579:8708   */\n      swap2\n      swap1\n      pop\n      jump\t// out\n        /* \"#utility.yul\":8714:9022   */\n    tag_93:\n        /* \"#utility.yul\":8776:8780   */\n      0x00\n        /* \"#utility.yul\":8866:8884   */\n      0xffffffffffffffff\n        /* \"#utility.yul\":8858:8864   */\n      dup3\n        /* \"#utility.yul\":8855:8885   */\n      gt\n        /* \"#utility.yul\":8852:8908   */\n      iszero\n      tag_201\n      jumpi\n        /* \"#utility.yul\":8888:8906   */\n      tag_202\n      tag_90\n      jump\t// in\n    tag_202:\n        /* \"#utility.yul\":8852:8908   */\n    tag_201:\n        /* \"#utility.yul\":8926:8955   */\n      tag_203\n        /* \"#utility.yul\":8948:8954   */\n      dup3\n        /* \"#utility.yul\":8926:8955   */\n      tag_74\n      jump\t// in\n    tag_203:\n        /* \"#utility.yul\":8918:8955   */\n      swap1\n      pop\n        /* \"#utility.yul\":9010:9014   */\n      0x20\n        /* \"#utility.yul\":9004:9008   */\n      dup2\n        /* \"#utility.yul\":9000:9015   */\n      add\n        /* \"#utility.yul\":8992:9015   */\n      swap1\n      pop\n        /* \"#utility.yul\":8714:9022   */\n      swap2\n      swap1\n      pop\n      jump\t// out\n        /* \"#utility.yul\":9028:9174   */\n    tag_94:\n        /* \"#utility.yul\":9125:9131   */\n      dup3\n        /* \"#utility.yul\":9120:9123   */\n      dup2\n        /* \"#utility.yul\":9115:9118   */\n      dup4\n        /* \"#utility.yul\":9102:9132   */\n      calldatacopy\n        /* \"#utility.yul\":9166:9167   */\n      0x00\n        /* \"#utility.yul\":9157:9163   */\n      dup4\n        /* \"#utility.yul\":9152:9155   */\n      dup4\n        /* \"#utility.yul\":9148:9164   */\n      add\n        /* \"#utility.yul\":9141:9168   */\n      mstore\n        /* \"#utility.yul\":9028:9174   */\n      pop\n      pop\n      pop\n      jump\t// out\n        /* \"#utility.yul\":9180:9605   */\n    tag_95:\n        /* \"#utility.yul\":9258:9263   */\n      0x00\n        /* \"#utility.yul\":9283:9349   */\n      tag_206\n        /* \"#utility.yul\":9299:9348   */\n      tag_207\n        /* \"#utility.yul\":9341:9347   */\n      dup5\n        /* \"#utility.yul\":9299:9348   */\n      tag_93\n      jump\t// in\n    tag_207:\n        /* \"#utility.yul\":9283:9349   */\n      tag_92\n      jump\t// in\n    tag_206:\n        /* \"#utility.yul\":9274:9349   */\n      swap1\n      pop\n        /* \"#utility.yul\":9372:9378   */\n      dup3\n        /* \"#utility.yul\":9365:9370   */\n      dup2\n        /* \"#utility.yul\":9358:9379   */\n      mstore\n        /* \"#utility.yul\":9410:9414   */\n      0x20\n        /* \"#utility.yul\":9403:9408   */\n      dup2\n        /* \"#utility.yul\":9399:9415   */\n      add\n        /* \"#utility.yul\":9448:9451   */\n      dup5\n        /* \"#utility.yul\":9439:9445   */\n      dup5\n        /* \"#utility.yul\":9434:9437   */\n      dup5\n        /* \"#utility.yul\":9430:9446   */\n      add\n        /* \"#utility.yul\":9427:9452   */\n      gt\n        /* \"#utility.yul\":9424:9536   */\n      iszero\n      tag_208\n      jumpi\n        /* \"#utility.yul\":9455:9534   */\n      tag_209\n      tag_89\n      jump\t// in\n    tag_209:\n        /* \"#utility.yul\":9424:9536   */\n    tag_208:\n        /* \"#utility.yul\":9545:9599   */\n      tag_210\n        /* \"#utility.yul\":9592:9598   */\n      dup5\n        /* \"#utility.yul\":9587:9590   */\n      dup3\n        /* \"#utility.yul\":9582:9585   */\n      dup6\n        /* \"#utility.yul\":9545:9599   */\n      tag_94\n      jump\t// in\n    tag_210:\n        /* \"#utility.yul\":9264:9605   */\n      pop\n        /* \"#utility.yul\":9180:9605   */\n      swap4\n      swap3\n      pop\n      pop\n      pop\n      jump\t// out\n        /* \"#utility.yul\":9625:9965   */\n    tag_96:\n        /* \"#utility.yul\":9681:9686   */\n      0x00\n        /* \"#utility.yul\":9730:9733   */\n      dup3\n        /* \"#utility.yul\":9723:9727   */\n      0x1f\n        /* \"#utility.yul\":9715:9721   */\n      dup4\n        /* \"#utility.yul\":9711:9728   */\n      add\n        /* \"#utility.yul\":9707:9734   */\n      slt\n        /* \"#utility.yul\":9697:9819   */\n      tag_212\n      jumpi\n        /* \"#utility.yul\":9738:9817   */\n      tag_213\n      tag_88\n      jump\t// in\n    tag_213:\n        /* \"#utility.yul\":9697:9819   */\n    tag_212:\n        /* \"#utility.yul\":9855:9861   */\n      dup2\n        /* \"#utility.yul\":9842:9862   */\n      calldataload\n        /* \"#utility.yul\":9880:9959   */\n      tag_214\n        /* \"#utility.yul\":9955:9958   */\n      dup5\n        /* \"#utility.yul\":9947:9953   */\n      dup3\n        /* \"#utility.yul\":9940:9944   */\n      0x20\n        /* \"#utility.yul\":9932:9938   */\n      dup7\n        /* \"#utility.yul\":9928:9945   */\n      add\n        /* \"#utility.yul\":9880:9959   */\n      tag_95\n      jump\t// in\n    tag_214:\n        /* \"#utility.yul\":9871:9959   */\n      swap2\n      pop\n        /* \"#utility.yul\":9687:9965   */\n      pop\n        /* \"#utility.yul\":9625:9965   */\n      swap3\n      swap2\n      pop\n      pop\n      jump\t// out\n        /* \"#utility.yul\":9971:10480   */\n    tag_19:\n        /* \"#utility.yul\":10040:10046   */\n      0x00\n        /* \"#utility.yul\":10089:10091   */\n      0x20\n        /* \"#utility.yul\":10077:10086   */\n      dup3\n        /* \"#utility.yul\":10068:10075   */\n      dup5\n        /* \"#utility.yul\":10064:10087   */\n      sub\n        /* \"#utility.yul\":10060:10092   */\n      slt\n        /* \"#utility.yul\":10057:10176   */\n      iszero\n      tag_216\n      jumpi\n        /* \"#utility.yul\":10095:10174   */\n      tag_217\n      tag_61\n      jump\t// in\n    tag_217:\n        /* \"#utility.yul\":10057:10176   */\n    tag_216:\n        /* \"#utility.yul\":10243:10244   */\n      0x00\n        /* \"#utility.yul\":10232:10241   */\n      dup3\n        /* \"#utility.yul\":10228:10245   */\n      add\n        /* \"#utility.yul\":10215:10246   */\n      calldataload\n        /* \"#utility.yul\":10273:10291   */\n      0xffffffffffffffff\n        /* \"#utility.yul\":10265:10271   */\n      dup2\n        /* \"#utility.yul\":10262:10292   */\n      gt\n        /* \"#utility.yul\":10259:10376   */\n      iszero\n      tag_218\n      jumpi\n        /* \"#utility.yul\":10295:10374   */\n      tag_219\n      tag_62\n      jump\t// in\n    tag_219:\n        /* \"#utility.yul\":10259:10376   */\n    tag_218:\n        /* \"#utility.yul\":10400:10463   */\n      tag_220\n        /* \"#utility.yul\":10455:10462   */\n      dup5\n        /* \"#utility.yul\":10446:10452   */\n      dup3\n        /* \"#utility.yul\":10435:10444   */\n      dup6\n        /* \"#utility.yul\":10431:10453   */\n      add\n        /* \"#utility.yul\":10400:10463   */\n      tag_96\n      jump\t// in\n    tag_220:\n        /* \"#utility.yul\":10390:10463   */\n      swap2\n      pop\n        /* \"#utility.yul\":10186:10473   */\n      pop\n        /* \"#utility.yul\":9971:10480   */\n      swap3\n      swap2\n      pop\n      pop\n      jump\t// out\n        /* \"#utility.yul\":10486:10815   */\n    tag_23:\n        /* \"#utility.yul\":10545:10551   */\n      0x00\n        /* \"#utility.yul\":10594:10596   */\n      0x20\n        /* \"#utility.yul\":10582:10591   */\n      dup3\n        /* \"#utility.yul\":10573:10580   */\n      dup5\n        /* \"#utility.yul\":10569:10592   */\n      sub\n        /* \"#utility.yul\":10565:10597   */\n      slt\n        /* \"#utility.yul\":10562:10681   */\n      iszero\n      tag_222\n      jumpi\n        /* \"#utility.yul\":10600:10679   */\n      tag_223\n      tag_61\n      jump\t// in\n    tag_223:\n        /* \"#utility.yul\":10562:10681   */\n    tag_222:\n        /* \"#utility.yul\":10720:10721   */\n      0x00\n        /* \"#utility.yul\":10745:10798   */\n      tag_224\n        /* \"#utility.yul\":10790:10797   */\n      dup5\n        /* \"#utility.yul\":10781:10787   */\n      dup3\n        /* \"#utility.yul\":10770:10779   */\n      dup6\n        /* \"#utility.yul\":10766:10788   */\n      add\n        /* \"#utility.yul\":10745:10798   */\n      tag_69\n      jump\t// in\n    tag_224:\n        /* \"#utility.yul\":10735:10798   */\n      swap2\n      pop\n        /* \"#utility.yul\":10691:10808   */\n      pop\n        /* \"#utility.yul\":10486:10815   */\n      swap3\n      swap2\n      pop\n      pop\n      jump\t// out\n        /* \"#utility.yul\":10873:11830   */\n    tag_97:\n        /* \"#utility.yul\":10984:10987   */\n      0x00\n        /* \"#utility.yul\":11020:11024   */\n      0x80\n        /* \"#utility.yul\":11015:11018   */\n      dup4\n        /* \"#utility.yul\":11011:11025   */\n      add\n        /* \"#utility.yul\":11109:11113   */\n      0x00\n        /* \"#utility.yul\":11102:11107   */\n      dup4\n        /* \"#utility.yul\":11098:11114   */\n      add\n        /* \"#utility.yul\":11092:11115   */\n      mload\n        /* \"#utility.yul\":11128:11191   */\n      tag_226\n        /* \"#utility.yul\":11185:11189   */\n      0x00\n        /* \"#utility.yul\":11180:11183   */\n      dup7\n        /* \"#utility.yul\":11176:11190   */\n      add\n        /* \"#utility.yul\":11162:11174   */\n      dup3\n        /* \"#utility.yul\":11128:11191   */\n      tag_80\n      jump\t// in\n    tag_226:\n        /* \"#utility.yul\":11035:11201   */\n      pop\n        /* \"#utility.yul\":11286:11290   */\n      0x20\n        /* \"#utility.yul\":11279:11284   */\n      dup4\n        /* \"#utility.yul\":11275:11291   */\n      add\n        /* \"#utility.yul\":11269:11292   */\n      mload\n        /* \"#utility.yul\":11339:11342   */\n      dup5\n        /* \"#utility.yul\":11333:11337   */\n      dup3\n        /* \"#utility.yul\":11329:11343   */\n      sub\n        /* \"#utility.yul\":11322:11326   */\n      0x20\n        /* \"#utility.yul\":11317:11320   */\n      dup7\n        /* \"#utility.yul\":11313:11327   */\n      add\n        /* \"#utility.yul\":11306:11344   */\n      mstore\n        /* \"#utility.yul\":11365:11438   */\n      tag_227\n        /* \"#utility.yul\":11433:11437   */\n      dup3\n        /* \"#utility.yul\":11419:11431   */\n      dup3\n        /* \"#utility.yul\":11365:11438   */\n      tag_82\n      jump\t// in\n    tag_227:\n        /* \"#utility.yul\":11357:11438   */\n      swap2\n      pop\n        /* \"#utility.yul\":11211:11449   */\n      pop\n        /* \"#utility.yul\":11536:11540   */\n      0x40\n        /* \"#utility.yul\":11529:11534   */\n      dup4\n        /* \"#utility.yul\":11525:11541   */\n      add\n        /* \"#utility.yul\":11519:11542   */\n      mload\n        /* \"#utility.yul\":11555:11618   */\n      tag_228\n        /* \"#utility.yul\":11612:11616   */\n      0x40\n        /* \"#utility.yul\":11607:11610   */\n      dup7\n        /* \"#utility.yul\":11603:11617   */\n      add\n        /* \"#utility.yul\":11589:11601   */\n      dup3\n        /* \"#utility.yul\":11555:11618   */\n      tag_83\n      jump\t// in\n    tag_228:\n        /* \"#utility.yul\":11459:11628   */\n      pop\n        /* \"#utility.yul\":11711:11715   */\n      0x60\n        /* \"#utility.yul\":11704:11709   */\n      dup4\n        /* \"#utility.yul\":11700:11716   */\n      add\n        /* \"#utility.yul\":11694:11717   */\n      mload\n        /* \"#utility.yul\":11730:11793   */\n      tag_229\n        /* \"#utility.yul\":11787:11791   */\n      0x60\n        /* \"#utility.yul\":11782:11785   */\n      dup7\n        /* \"#utility.yul\":11778:11792   */\n      add\n        /* \"#utility.yul\":11764:11776   */\n      dup3\n        /* \"#utility.yul\":11730:11793   */\n      tag_83\n      jump\t// in\n    tag_229:\n        /* \"#utility.yul\":11638:11803   */\n      pop\n        /* \"#utility.yul\":11820:11824   */\n      dup1\n        /* \"#utility.yul\":11813:11824   */\n      swap2\n      pop\n        /* \"#utility.yul\":10989:11830   */\n      pop\n        /* \"#utility.yul\":10873:11830   */\n      swap3\n      swap2\n      pop\n      pop\n      jump\t// out\n        /* \"#utility.yul\":11836:12193   */\n    tag_26:\n        /* \"#utility.yul\":11971:11975   */\n      0x00\n        /* \"#utility.yul\":12009:12011   */\n      0x20\n        /* \"#utility.yul\":11998:12007   */\n      dup3\n        /* \"#utility.yul\":11994:12012   */\n      add\n        /* \"#utility.yul\":11986:12012   */\n      swap1\n      pop\n        /* \"#utility.yul\":12058:12067   */\n      dup2\n        /* \"#utility.yul\":12052:12056   */\n      dup2\n        /* \"#utility.yul\":12048:12068   */\n      sub\n        /* \"#utility.yul\":12044:12045   */\n      0x00\n        /* \"#utility.yul\":12033:12042   */\n      dup4\n        /* \"#utility.yul\":12029:12046   */\n      add\n        /* \"#utility.yul\":12022:12069   */\n      mstore\n        /* \"#utility.yul\":12086:12186   */\n      tag_231\n        /* \"#utility.yul\":12181:12185   */\n      dup2\n        /* \"#utility.yul\":12172:12178   */\n      dup5\n        /* \"#utility.yul\":12086:12186   */\n      tag_97\n      jump\t// in\n    tag_231:\n        /* \"#utility.yul\":12078:12186   */\n      swap1\n      pop\n        /* \"#utility.yul\":11836:12193   */\n      swap3\n      swap2\n      pop\n      pop\n      jump\t// out\n        /* \"#utility.yul\":12199:12379   */\n    tag_98:\n        /* \"#utility.yul\":12247:12324   */\n      0x4e487b7100000000000000000000000000000000000000000000000000000000\n        /* \"#utility.yul\":12244:12245   */\n      0x00\n        /* \"#utility.yul\":12237:12325   */\n      mstore\n        /* \"#utility.yul\":12344:12348   */\n      0x22\n        /* \"#utility.yul\":12341:12342   */\n      0x04\n        /* \"#utility.yul\":12334:12349   */\n      mstore\n        /* \"#utility.yul\":12368:12372   */\n      0x24\n        /* \"#utility.yul\":12365:12366   */\n      0x00\n        /* \"#utility.yul\":12358:12373   */\n      revert\n        /* \"#utility.yul\":12385:12705   */\n    tag_30:\n        /* \"#utility.yul\":12429:12435   */\n      0x00\n        /* \"#utility.yul\":12466:12467   */\n      0x02\n        /* \"#utility.yul\":12460:12464   */\n      dup3\n        /* \"#utility.yul\":12456:12468   */\n      div\n        /* \"#utility.yul\":12446:12468   */\n      swap1\n      pop\n        /* \"#utility.yul\":12513:12514   */\n      0x01\n        /* \"#utility.yul\":12507:12511   */\n      dup3\n        /* \"#utility.yul\":12503:12515   */\n      and\n        /* \"#utility.yul\":12534:12552   */\n      dup1\n        /* \"#utility.yul\":12524:12605   */\n      tag_234\n      jumpi\n        /* \"#utility.yul\":12590:12594   */\n      0x7f\n        /* \"#utility.yul\":12582:12588   */\n      dup3\n        /* \"#utility.yul\":12578:12595   */\n      and\n        /* \"#utility.yul\":12568:12595   */\n      swap2\n      pop\n        /* \"#utility.yul\":12524:12605   */\n    tag_234:\n        /* \"#utility.yul\":12652:12654   */\n      0x20\n        /* \"#utility.yul\":12644:12650   */\n      dup3\n        /* \"#utility.yul\":12641:12655   */\n      lt\n        /* \"#utility.yul\":12621:12639   */\n      dup2\n        /* \"#utility.yul\":12618:12656   */\n      sub\n        /* \"#utility.yul\":12615:12699   */\n      tag_235\n      jumpi\n        /* \"#utility.yul\":12671:12689   */\n      tag_236\n      tag_98\n      jump\t// in\n    tag_236:\n        /* \"#utility.yul\":12615:12699   */\n    tag_235:\n        /* \"#utility.yul\":12436:12705   */\n      pop\n        /* \"#utility.yul\":12385:12705   */\n      swap2\n      swap1\n      pop\n      jump\t// out\n        /* \"#utility.yul\":12711:12852   */\n    tag_99:\n        /* \"#utility.yul\":12760:12764   */\n      0x00\n        /* \"#utility.yul\":12783:12786   */\n      dup2\n        /* \"#utility.yul\":12775:12786   */\n      swap1\n      pop\n        /* \"#utility.yul\":12806:12809   */\n      dup2\n        /* \"#utility.yul\":12803:12804   */\n      0x00\n        /* \"#utility.yul\":12796:12810   */\n      mstore\n        /* \"#utility.yul\":12840:12844   */\n      0x20\n        /* \"#utility.yul\":12837:12838   */\n      0x00\n        /* \"#utility.yul\":12827:12845   */\n      keccak256\n        /* \"#utility.yul\":12819:12845   */\n      swap1\n      pop\n        /* \"#utility.yul\":12711:12852   */\n      swap2\n      swap1\n      pop\n      jump\t// out\n        /* \"#utility.yul\":12858:12951   */\n    tag_100:\n        /* \"#utility.yul\":12895:12901   */\n      0x00\n        /* \"#utility.yul\":12942:12944   */\n      0x20\n        /* \"#utility.yul\":12937:12939   */\n      0x1f\n        /* \"#utility.yul\":12930:12935   */\n      dup4\n        /* \"#utility.yul\":12926:12940   */\n      add\n        /* \"#utility.yul\":12922:12945   */\n      div\n        /* \"#utility.yul\":12912:12945   */\n      swap1\n      pop\n        /* \"#utility.yul\":12858:12951   */\n      swap2\n      swap1\n      pop\n      jump\t// out\n        /* \"#utility.yul\":12957:13064   */\n    tag_101:\n        /* \"#utility.yul\":13001:13009   */\n      0x00\n        /* \"#utility.yul\":13051:13056   */\n      dup3\n        /* \"#utility.yul\":13045:13049   */\n      dup3\n        /* \"#utility.yul\":13041:13057   */\n      shl\n        /* \"#utility.yul\":13020:13057   */\n      swap1\n      pop\n        /* \"#utility.yul\":12957:13064   */\n      swap3\n      swap2\n      pop\n      pop\n      jump\t// out\n        /* \"#utility.yul\":13070:13463   */\n    tag_102:\n        /* \"#utility.yul\":13139:13145   */\n      0x00\n        /* \"#utility.yul\":13189:13190   */\n      0x08\n        /* \"#utility.yul\":13177:13187   */\n      dup4\n        /* \"#utility.yul\":13173:13191   */\n      mul\n        /* \"#utility.yul\":13212:13309   */\n      tag_241\n        /* \"#utility.yul\":13242:13308   */\n      0xffffffffffffffffffffffffffffffffffffffffffffffffffffffffffffffff\n        /* \"#utility.yul\":13231:13240   */\n      dup3\n        /* \"#utility.yul\":13212:13309   */\n      tag_101\n      jump\t// in\n    tag_241:\n        /* \"#utility.yul\":13330:13369   */\n      tag_242\n        /* \"#utility.yul\":13360:13368   */\n      dup7\n        /* \"#utility.yul\":13349:13358   */\n      dup4\n        /* \"#utility.yul\":13330:13369   */\n      tag_101\n      jump\t// in\n    tag_242:\n        /* \"#utility.yul\":13318:13369   */\n      swap6\n      pop\n        /* \"#utility.yul\":13402:13406   */\n      dup1\n        /* \"#utility.yul\":13398:13407   */\n      not\n        /* \"#utility.yul\":13391:13396   */\n      dup5\n        /* \"#utility.yul\":13387:13408   */\n      and\n        /* \"#utility.yul\":13378:13408   */\n      swap4\n      pop\n        /* \"#utility.yul\":13451:13455   */\n      dup1\n        /* \"#utility.yul\":13441:13449   */\n      dup7\n        /* \"#utility.yul\":13437:13456   */\n      and\n        /* \"#utility.yul\":13430:13435   */\n      dup5\n        /* \"#utility.yul\":13427:13457   */\n      or\n        /* \"#utility.yul\":13417:13457   */\n      swap3\n      pop\n        /* \"#utility.yul\":13146:13463   */\n      pop\n      pop\n        /* \"#utility.yul\":13070:13463   */\n      swap4\n      swap3\n      pop\n      pop\n      pop\n      jump\t// out\n        /* \"#utility.yul\":13469:13529   */\n    tag_103:\n        /* \"#utility.yul\":13497:13500   */\n      0x00\n        /* \"#utility.yul\":13518:13523   */\n      dup2\n        /* \"#utility.yul\":13511:13523   */\n      swap1\n      pop\n        /* \"#utility.yul\":13469:13529   */\n      swap2\n      swap1\n      pop\n      jump\t// out\n        /* \"#utility.yul\":13535:13677   */\n    tag_104:\n        /* \"#utility.yul\":13585:13594   */\n      0x00\n        /* \"#utility.yul\":13618:13671   */\n      tag_245\n        /* \"#utility.yul\":13636:13670   */\n      tag_246\n        /* \"#utility.yul\":13645:13669   */\n      tag_247\n        /* \"#utility.yul\":13663:13668   */\n      dup5\n        /* \"#utility.yul\":13645:13669   */\n      tag_67\n      jump\t// in\n    tag_247:\n        /* \"#utility.yul\":13636:13670   */\n      tag_103\n      jump\t// in\n    tag_246:\n        /* \"#utility.yul\":13618:13671   */\n      tag_67\n      jump\t// in\n    tag_245:\n        /* \"#utility.yul\":13605:13671   */\n      swap1\n      pop\n        /* \"#utility.yul\":13535:13677   */\n      swap2\n      swap1\n      pop\n      jump\t// out\n        /* \"#utility.yul\":13683:13758   */\n    tag_105:\n        /* \"#utility.yul\":13726:13729   */\n      0x00\n        /* \"#utility.yul\":13747:13752   */\n      dup2\n        /* \"#utility.yul\":13740:13752   */\n      swap1\n      pop\n        /* \"#utility.yul\":13683:13758   */\n      swap2\n      swap1\n      pop\n      jump\t// out\n        /* \"#utility.yul\":13764:14033   */\n    tag_106:\n        /* \"#utility.yul\":13874:13913   */\n      tag_250\n        /* \"#utility.yul\":13905:13912   */\n      dup4\n        /* \"#utility.yul\":13874:13913   */\n      tag_104\n      jump\t// in\n    tag_250:\n        /* \"#utility.yul\":13935:14026   */\n      tag_251\n        /* \"#utility.yul\":13984:14025   */\n      tag_252\n        /* \"#utility.yul\":14008:14024   */\n      dup3\n        /* \"#utility.yul\":13984:14025   */\n      tag_105\n      jump\t// in\n    tag_252:\n        /* \"#utility.yul\":13976:13982   */\n      dup5\n        /* \"#utility.yul\":13969:13973   */\n      dup5\n        /* \"#utility.yul\":13963:13974   */\n      sload\n        /* \"#utility.yul\":13935:14026   */\n      tag_102\n      jump\t// in\n    tag_251:\n        /* \"#utility.yul\":13929:13933   */\n      dup3\n        /* \"#utility.yul\":13922:14027   */\n      sstore\n        /* \"#utility.yul\":13840:14033   */\n      pop\n        /* \"#utility.yul\":13764:14033   */\n      pop\n      pop\n      pop\n      jump\t// out\n        /* \"#utility.yul\":14039:14112   */\n    tag_107:\n        /* \"#utility.yul\":14084:14087   */\n      0x00\n        /* \"#utility.yul\":14039:14112   */\n      swap1\n      jump\t// out\n        /* \"#utility.yul\":14118:14307   */\n    tag_108:\n        /* \"#utility.yul\":14195:14227   */\n      tag_255\n      tag_107\n      jump\t// in\n    tag_255:\n        /* \"#utility.yul\":14236:14301   */\n      tag_256\n        /* \"#utility.yul\":14294:14300   */\n      dup2\n        /* \"#utility.yul\":14286:14292   */\n      dup5\n        /* \"#utility.yul\":14280:14284   */\n      dup5\n        /* \"#utility.yul\":14236:14301   */\n      tag_106\n      jump\t// in\n    tag_256:\n        /* \"#utility.yul\":14171:14307   */\n      pop\n        /* \"#utility.yul\":14118:14307   */\n      pop\n      pop\n      jump\t// out\n        /* \"#utility.yul\":14313:14499   */\n    tag_109:\n        /* \"#utility.yul\":14373:14493   */\n    tag_258:\n        /* \"#utility.yul\":14390:14393   */\n      dup2\n        /* \"#utility.yul\":14383:14388   */\n      dup2\n        /* \"#utility.yul\":14380:14394   */\n      lt\n        /* \"#utility.yul\":14373:14493   */\n      iszero\n      tag_260\n      jumpi\n        /* \"#utility.yul\":14444:14483   */\n      tag_261\n        /* \"#utility.yul\":14481:14482   */\n      0x00\n        /* \"#utility.yul\":14474:14479   */\n      dup3\n        /* \"#utility.yul\":14444:14483   */\n      tag_108\n      jump\t// in\n    tag_261:\n        /* \"#utility.yul\":14417:14418   */\n      0x01\n        /* \"#utility.yul\":14410:14415   */\n      dup2\n        /* \"#utility.yul\":14406:14419   */\n      add\n        /* \"#utility.yul\":14397:14419   */\n      swap1\n      pop\n        /* \"#utility.yul\":14373:14493   */\n      jump(tag_258)\n    tag_260:\n        /* \"#utility.yul\":14313:14499   */\n      pop\n      pop\n      jump\t// out\n        /* \"#utility.yul\":14505:15048   */\n    tag_110:\n        /* \"#utility.yul\":14606:14608   */\n      0x1f\n        /* \"#utility.yul\":14601:14604   */\n      dup3\n        /* \"#utility.yul\":14598:14609   */\n      gt\n        /* \"#utility.yul\":14595:15041   */\n      iszero\n      tag_263\n      jumpi\n        /* \"#utility.yul\":14640:14678   */\n      tag_264\n        /* \"#utility.yul\":14672:14677   */\n      dup2\n        /* \"#utility.yul\":14640:14678   */\n      tag_99\n      jump\t// in\n    tag_264:\n        /* \"#utility.yul\":14724:14753   */\n      tag_265\n        /* \"#utility.yul\":14742:14752   */\n      dup5\n        /* \"#utility.yul\":14724:14753   */\n      tag_100\n      jump\t// in\n    tag_265:\n        /* \"#utility.yul\":14714:14722   */\n      dup2\n        /* \"#utility.yul\":14710:14754   */\n      add\n        /* \"#utility.yul\":14907:14909   */\n      0x20\n        /* \"#utility.yul\":14895:14905   */\n      dup6\n        /* \"#utility.yul\":14892:14910   */\n      lt\n        /* \"#utility.yul\":14889:14938   */\n      iszero\n      tag_266\n      jumpi\n        /* \"#utility.yul\":14928:14936   */\n      dup2\n        /* \"#utility.yul\":14913:14936   */\n      swap1\n      pop\n        /* \"#utility.yul\":14889:14938   */\n    tag_266:\n        /* \"#utility.yul\":14951:15031   */\n      tag_267\n        /* \"#utility.yul\":15007:15029   */\n      tag_268\n        /* \"#utility.yul\":15025:15028   */\n      dup6\n        /* \"#utility.yul\":15007:15029   */\n      tag_100\n      jump\t// in\n    tag_268:\n        /* \"#utility.yul\":14997:15005   */\n      dup4\n        /* \"#utility.yul\":14993:15030   */\n      add\n        /* \"#utility.yul\":14980:14991   */\n      dup3\n        /* \"#utility.yul\":14951:15031   */\n      tag_109\n      jump\t// in\n    tag_267:\n        /* \"#utility.yul\":14610:15041   */\n      pop\n      pop\n        /* \"#utility.yul\":14595:15041   */\n    tag_263:\n        /* \"#utility.yul\":14505:15048   */\n      pop\n      pop\n      pop\n      jump\t// out\n        /* \"#utility.yul\":15054:15171   */\n    tag_111:\n        /* \"#utility.yul\":15108:15116   */\n      0x00\n        /* \"#utility.yul\":15158:15163   */\n      dup3\n        /* \"#utility.yul\":15152:15156   */\n      dup3\n        /* \"#utility.yul\":15148:15164   */\n      shr\n        /* \"#utility.yul\":15127:15164   */\n      swap1\n      pop\n        /* \"#utility.yul\":15054:15171   */\n      swap3\n      swap2\n      pop\n      pop\n      jump\t// out\n        /* \"#utility.yul\":15177:15346   */\n    tag_112:\n        /* \"#utility.yul\":15221:15227   */\n      0x00\n        /* \"#utility.yul\":15254:15305   */\n      tag_271\n        /* \"#utility.yul\":15302:15303   */\n      0x00\n        /* \"#utility.yul\":15298:15304   */\n      not\n        /* \"#utility.yul\":15290:15295   */\n      dup5\n        /* \"#utility.yul\":15287:15288   */\n      0x08\n        /* \"#utility.yul\":15283:15296   */\n      mul\n        /* \"#utility.yul\":15254:15305   */\n      tag_111\n      jump\t// in\n    tag_271:\n        /* \"#utility.yul\":15250:15306   */\n      not\n        /* \"#utility.yul\":15335:15339   */\n      dup1\n        /* \"#utility.yul\":15329:15333   */\n      dup4\n        /* \"#utility.yul\":15325:15340   */\n      and\n        /* \"#utility.yul\":15315:15340   */\n      swap2\n      pop\n        /* \"#utility.yul\":15228:15346   */\n      pop\n        /* \"#utility.yul\":15177:15346   */\n      swap3\n      swap2\n      pop\n      pop\n      jump\t// out\n        /* \"#utility.yul\":15351:15646   */\n    tag_113:\n        /* \"#utility.yul\":15427:15431   */\n      0x00\n        /* \"#utility.yul\":15573:15602   */\n      tag_273\n        /* \"#utility.yul\":15598:15601   */\n      dup4\n        /* \"#utility.yul\":15592:15596   */\n      dup4\n        /* \"#utility.yul\":15573:15602   */\n      tag_112\n      jump\t// in\n    tag_273:\n        /* \"#utility.yul\":15565:15602   */\n      swap2\n      pop\n        /* \"#utility.yul\":15635:15638   */\n      dup3\n        /* \"#utility.yul\":15632:15633   */\n      0x02\n        /* \"#utility.yul\":15628:15639   */\n      mul\n        /* \"#utility.yul\":15622:15626   */\n      dup3\n        /* \"#utility.yul\":15619:15640   */\n      or\n        /* \"#utility.yul\":15611:15640   */\n      swap1\n      pop\n        /* \"#utility.yul\":15351:15646   */\n      swap3\n      swap2\n      pop\n      pop\n      jump\t// out\n        /* \"#utility.yul\":15651:17046   */\n    tag_47:\n        /* \"#utility.yul\":15768:15805   */\n      tag_275\n        /* \"#utility.yul\":15801:15804   */\n      dup3\n        /* \"#utility.yul\":15768:15805   */\n      tag_71\n      jump\t// in\n    tag_275:\n        /* \"#utility.yul\":15870:15888   */\n      0xffffffffffffffff\n        /* \"#utility.yul\":15862:15868   */\n      dup2\n        /* \"#utility.yul\":15859:15889   */\n      gt\n        /* \"#utility.yul\":15856:15912   */\n      iszero\n      tag_276\n      jumpi\n        /* \"#utility.yul\":15892:15910   */\n      tag_277\n      tag_90\n      jump\t// in\n    tag_277:\n        /* \"#utility.yul\":15856:15912   */\n    tag_276:\n        /* \"#utility.yul\":15936:15974   */\n      tag_278\n        /* \"#utility.yul\":15968:15972   */\n      dup3\n        /* \"#utility.yul\":15962:15973   */\n      sload\n        /* \"#utility.yul\":15936:15974   */\n      tag_30\n      jump\t// in\n    tag_278:\n        /* \"#utility.yul\":16021:16088   */\n      tag_279\n        /* \"#utility.yul\":16081:16087   */\n      dup3\n        /* \"#utility.yul\":16073:16079   */\n      dup3\n        /* \"#utility.yul\":16067:16071   */\n      dup6\n        /* \"#utility.yul\":16021:16088   */\n      tag_110\n      jump\t// in\n    tag_279:\n        /* \"#utility.yul\":16115:16116   */\n      0x00\n        /* \"#utility.yul\":16139:16143   */\n      0x20\n        /* \"#utility.yul\":16126:16143   */\n      swap1\n      pop\n        /* \"#utility.yul\":16171:16173   */\n      0x1f\n        /* \"#utility.yul\":16163:16169   */\n      dup4\n        /* \"#utility.yul\":16160:16174   */\n      gt\n        /* \"#utility.yul\":16188:16189   */\n      0x01\n        /* \"#utility.yul\":16183:16801   */\n      dup2\n      eq\n      tag_281\n      jumpi\n        /* \"#utility.yul\":16845:16846   */\n      0x00\n        /* \"#utility.yul\":16862:16868   */\n      dup5\n        /* \"#utility.yul\":16859:16936   */\n      iszero\n      tag_282\n      jumpi\n        /* \"#utility.yul\":16911:16920   */\n      dup3\n        /* \"#utility.yul\":16906:16909   */\n      dup8\n        /* \"#utility.yul\":16902:16921   */\n      add\n        /* \"#utility.yul\":16896:16922   */\n      mload\n        /* \"#utility.yul\":16887:16922   */\n      swap1\n      pop\n        /* \"#utility.yul\":16859:16936   */\n    tag_282:\n        /* \"#utility.yul\":16962:17029   */\n      tag_283\n        /* \"#utility.yul\":17022:17028   */\n      dup6\n        /* \"#utility.yul\":17015:17020   */\n      dup3\n        /* \"#utility.yul\":16962:17029   */\n      tag_113\n      jump\t// in\n    tag_283:\n        /* \"#utility.yul\":16956:16960   */\n      dup7\n        /* \"#utility.yul\":16949:17030   */\n      sstore\n        /* \"#utility.yul\":16818:17040   */\n      pop\n        /* \"#utility.yul\":16153:17040   */\n      jump(tag_280)\n        /* \"#utility.yul\":16183:16801   */\n    tag_281:\n        /* \"#utility.yul\":16235:16239   */\n      0x1f\n        /* \"#utility.yul\":16231:16240   */\n      not\n        /* \"#utility.yul\":16223:16229   */\n      dup5\n        /* \"#utility.yul\":16219:16241   */\n      and\n        /* \"#utility.yul\":16269:16306   */\n      tag_284\n        /* \"#utility.yul\":16301:16305   */\n      dup7\n        /* \"#utility.yul\":16269:16306   */\n      tag_99\n      jump\t// in\n    tag_284:\n        /* \"#utility.yul\":16328:16329   */\n      0x00\n        /* \"#utility.yul\":16342:16550   */\n    tag_285:\n        /* \"#utility.yul\":16356:16363   */\n      dup3\n        /* \"#utility.yul\":16353:16354   */\n      dup2\n        /* \"#utility.yul\":16350:16364   */\n      lt\n        /* \"#utility.yul\":16342:16550   */\n      iszero\n      tag_287\n      jumpi\n        /* \"#utility.yul\":16435:16444   */\n      dup5\n        /* \"#utility.yul\":16430:16433   */\n      dup10\n        /* \"#utility.yul\":16426:16445   */\n      add\n        /* \"#utility.yul\":16420:16446   */\n      mload\n        /* \"#utility.yul\":16412:16418   */\n      dup3\n        /* \"#utility.yul\":16405:16447   */\n      sstore\n        /* \"#utility.yul\":16486:16487   */\n      0x01\n        /* \"#utility.yul\":16478:16484   */\n      dup3\n        /* \"#utility.yul\":16474:16488   */\n      add\n        /* \"#utility.yul\":16464:16488   */\n      swap2\n      pop\n        /* \"#utility.yul\":16533:16535   */\n      0x20\n        /* \"#utility.yul\":16522:16531   */\n      dup6\n        /* \"#utility.yul\":16518:16536   */\n      add\n        /* \"#utility.yul\":16505:16536   */\n      swap5\n      pop\n        /* \"#utility.yul\":16379:16383   */\n      0x20\n        /* \"#utility.yul\":16376:16377   */\n      dup2\n        /* \"#utility.yul\":16372:16384   */\n      add\n        /* \"#utility.yul\":16367:16384   */\n      swap1\n      pop\n        /* \"#utility.yul\":16342:16550   */\n      jump(tag_285)\n    tag_287:\n        /* \"#utility.yul\":16578:16584   */\n      dup7\n        /* \"#utility.yul\":16569:16576   */\n      dup4\n        /* \"#utility.yul\":16566:16585   */\n      lt\n        /* \"#utility.yul\":16563:16742   */\n      iszero\n      tag_288\n      jumpi\n        /* \"#utility.yul\":16636:16645   */\n      dup5\n        /* \"#utility.yul\":16631:16634   */\n      dup10\n        /* \"#utility.yul\":16627:16646   */\n      add\n        /* \"#utility.yul\":16621:16647   */\n      mload\n        /* \"#utility.yul\":16679:16727   */\n      tag_289\n        /* \"#utility.yul\":16721:16725   */\n      0x1f\n        /* \"#utility.yul\":16713:16719   */\n      dup10\n        /* \"#utility.yul\":16709:16726   */\n      and\n        /* \"#utility.yul\":16698:16707   */\n      dup3\n        /* \"#utility.yul\":16679:16727   */\n      tag_112\n      jump\t// in\n    tag_289:\n        /* \"#utility.yul\":16671:16677   */\n      dup4\n        /* \"#utility.yul\":16664:16728   */\n      sstore\n        /* \"#utility.yul\":16586:16742   */\n      pop\n        /* \"#utility.yul\":16563:16742   */\n    tag_288:\n        /* \"#utility.yul\":16788:16789   */\n      0x01\n        /* \"#utility.yul\":16784:16785   */\n      0x02\n        /* \"#utility.yul\":16776:16782   */\n      dup9\n        /* \"#utility.yul\":16772:16786   */\n      mul\n        /* \"#utility.yul\":16768:16790   */\n      add\n        /* \"#utility.yul\":16762:16766   */\n      dup9\n        /* \"#utility.yul\":16755:16791   */\n      sstore\n        /* \"#utility.yul\":16190:16801   */\n      pop\n      pop\n      pop\n        /* \"#utility.yul\":16153:17040   */\n    tag_280:\n      pop\n        /* \"#utility.yul\":15743:17046   */\n      pop\n      pop\n      pop\n        /* \"#utility.yul\":15651:17046   */\n      pop\n      pop\n      jump\t// out\n        /* \"#utility.yul\":17052:17232   */\n    tag_53:\n        /* \"#utility.yul\":17100:17177   */\n      0x4e487b7100000000000000000000000000000000000000000000000000000000\n        /* \"#utility.yul\":17097:17098   */\n      0x00\n        /* \"#utility.yul\":17090:17178   */\n      mstore\n        /* \"#utility.yul\":17197:17201   */\n      0x32\n        /* \"#utility.yul\":17194:17195   */\n      0x04\n        /* \"#utility.yul\":17187:17202   */\n      mstore\n        /* \"#utility.yul\":17221:17225   */\n      0x24\n        /* \"#utility.yul\":17218:17219   */\n      0x00\n        /* \"#utility.yul\":17211:17226   */\n      revert\n\n    auxdata: 0xa264697066735822122002c6407dbbaba19adc2d92d6815b547eadcecb2342f99fdea0d9b106e077846864736f6c63430008180033\n}\n",
				"bytecode": {
					"linkReferences": {},
					"object": "608060405234801561000f575f80fd5b50610ed48061001d5f395ff3fe608060405234801561000f575f80fd5b506004361061004a575f3560e01c806305a1b4a91461004e57806353256135146100815780637c9cd2bc1461009f578063c3ad5ecb146100bb575b5f80fd5b610068600480360381019061006391906106b9565b6100eb565b604051610078949392919061079f565b60405180910390f35b6100896101d5565b604051610096919061096a565b60405180910390f35b6100b960048036038101906100b49190610ab6565b610363565b005b6100d560048036038101906100d09190610afd565b610474565b6040516100e29190610b88565b60405180910390f35b5f602052815f5260405f208181548110610103575f80fd5b905f5260205f2090600402015f9150915050805f015f9054906101000a900473ffffffffffffffffffffffffffffffffffffffff169080600101805461014890610bd5565b80601f016020809104026020016040519081016040528092919081815260200182805461017490610bd5565b80156101bf5780601f10610196576101008083540402835291602001916101bf565b820191905f5260205f20905b8154815290600101906020018083116101a257829003601f168201915b5050505050908060020154908060030154905084565b60605f803373ffffffffffffffffffffffffffffffffffffffff1673ffffffffffffffffffffffffffffffffffffffff1681526020019081526020015f20805480602002602001604051908101604052809291908181526020015f905b8282101561035a578382905f5260205f2090600402016040518060800160405290815f82015f9054906101000a900473ffffffffffffffffffffffffffffffffffffffff1673ffffffffffffffffffffffffffffffffffffffff1673ffffffffffffffffffffffffffffffffffffffff1681526020016001820180546102b790610bd5565b80601f01602080910402602001604051908101604052809291908181526020018280546102e390610bd5565b801561032e5780601f106103055761010080835404028352916020019161032e565b820191905f5260205f20905b81548152906001019060200180831161031157829003601f168201915b505050505081526020016002820154815260200160038201548152505081526020019060010190610232565b50505050905090565b5f60405180608001604052803373ffffffffffffffffffffffffffffffffffffffff1681526020018381526020014281526020015f81525090505f803373ffffffffffffffffffffffffffffffffffffffff1673ffffffffffffffffffffffffffffffffffffffff1681526020019081526020015f2081908060018154018082558091505060019003905f5260205f2090600402015f909190919091505f820151815f015f6101000a81548173ffffffffffffffffffffffffffffffffffffffff021916908373ffffffffffffffffffffffffffffffffffffffff16021790555060208201518160010190816104599190610da2565b50604082015181600201556060820151816003015550505050565b61047c6105e0565b5f803373ffffffffffffffffffffffffffffffffffffffff1673ffffffffffffffffffffffffffffffffffffffff1681526020019081526020015f2082815481106104ca576104c9610e71565b5b905f5260205f2090600402016040518060800160405290815f82015f9054906101000a900473ffffffffffffffffffffffffffffffffffffffff1673ffffffffffffffffffffffffffffffffffffffff1673ffffffffffffffffffffffffffffffffffffffff16815260200160018201805461054590610bd5565b80601f016020809104026020016040519081016040528092919081815260200182805461057190610bd5565b80156105bc5780601f10610593576101008083540402835291602001916105bc565b820191905f5260205f20905b81548152906001019060200180831161059f57829003601f168201915b50505050508152602001600282015481526020016003820154815250509050919050565b60405180608001604052805f73ffffffffffffffffffffffffffffffffffffffff168152602001606081526020015f81526020015f81525090565b5f604051905090565b5f80fd5b5f80fd5b5f73ffffffffffffffffffffffffffffffffffffffff82169050919050565b5f6106558261062c565b9050919050565b6106658161064b565b811461066f575f80fd5b50565b5f813590506106808161065c565b92915050565b5f819050919050565b61069881610686565b81146106a2575f80fd5b50565b5f813590506106b38161068f565b92915050565b5f80604083850312156106cf576106ce610624565b5b5f6106dc85828601610672565b92505060206106ed858286016106a5565b9150509250929050565b6107008161064b565b82525050565b5f81519050919050565b5f82825260208201905092915050565b5f5b8381101561073d578082015181840152602081019050610722565b5f8484015250505050565b5f601f19601f8301169050919050565b5f61076282610706565b61076c8185610710565b935061077c818560208601610720565b61078581610748565b840191505092915050565b61079981610686565b82525050565b5f6080820190506107b25f8301876106f7565b81810360208301526107c48186610758565b90506107d36040830185610790565b6107e06060830184610790565b95945050505050565b5f81519050919050565b5f82825260208201905092915050565b5f819050602082019050919050565b61081b8161064b565b82525050565b5f82825260208201905092915050565b5f61083b82610706565b6108458185610821565b9350610855818560208601610720565b61085e81610748565b840191505092915050565b61087281610686565b82525050565b5f608083015f83015161088d5f860182610812565b50602083015184820360208601526108a58282610831565b91505060408301516108ba6040860182610869565b5060608301516108cd6060860182610869565b508091505092915050565b5f6108e38383610878565b905092915050565b5f602082019050919050565b5f610901826107e9565b61090b81856107f3565b93508360208202850161091d85610803565b805f5b85811015610958578484038952815161093985826108d8565b9450610944836108eb565b925060208a01995050600181019050610920565b50829750879550505050505092915050565b5f6020820190508181035f83015261098281846108f7565b905092915050565b5f80fd5b5f80fd5b7f4e487b71000000000000000000000000000000000000000000000000000000005f52604160045260245ffd5b6109c882610748565b810181811067ffffffffffffffff821117156109e7576109e6610992565b5b80604052505050565b5f6109f961061b565b9050610a0582826109bf565b919050565b5f67ffffffffffffffff821115610a2457610a23610992565b5b610a2d82610748565b9050602081019050919050565b828183375f83830152505050565b5f610a5a610a5584610a0a565b6109f0565b905082815260208101848484011115610a7657610a7561098e565b5b610a81848285610a3a565b509392505050565b5f82601f830112610a9d57610a9c61098a565b5b8135610aad848260208601610a48565b91505092915050565b5f60208284031215610acb57610aca610624565b5b5f82013567ffffffffffffffff811115610ae857610ae7610628565b5b610af484828501610a89565b91505092915050565b5f60208284031215610b1257610b11610624565b5b5f610b1f848285016106a5565b91505092915050565b5f608083015f830151610b3d5f860182610812565b5060208301518482036020860152610b558282610831565b9150506040830151610b6a6040860182610869565b506060830151610b7d6060860182610869565b508091505092915050565b5f6020820190508181035f830152610ba08184610b28565b905092915050565b7f4e487b71000000000000000000000000000000000000000000000000000000005f52602260045260245ffd5b5f6002820490506001821680610bec57607f821691505b602082108103610bff57610bfe610ba8565b5b50919050565b5f819050815f5260205f209050919050565b5f6020601f8301049050919050565b5f82821b905092915050565b5f60088302610c617fffffffffffffffffffffffffffffffffffffffffffffffffffffffffffffffff82610c26565b610c6b8683610c26565b95508019841693508086168417925050509392505050565b5f819050919050565b5f610ca6610ca1610c9c84610686565b610c83565b610686565b9050919050565b5f819050919050565b610cbf83610c8c565b610cd3610ccb82610cad565b848454610c32565b825550505050565b5f90565b610ce7610cdb565b610cf2818484610cb6565b505050565b5b81811015610d1557610d0a5f82610cdf565b600181019050610cf8565b5050565b601f821115610d5a57610d2b81610c05565b610d3484610c17565b81016020851015610d43578190505b610d57610d4f85610c17565b830182610cf7565b50505b505050565b5f82821c905092915050565b5f610d7a5f1984600802610d5f565b1980831691505092915050565b5f610d928383610d6b565b9150826002028217905092915050565b610dab82610706565b67ffffffffffffffff811115610dc457610dc3610992565b5b610dce8254610bd5565b610dd9828285610d19565b5f60209050601f831160018114610e0a575f8415610df8578287015190505b610e028582610d87565b865550610e69565b601f198416610e1886610c05565b5f5b82811015610e3f57848901518255600182019150602085019450602081019050610e1a565b86831015610e5c5784890151610e58601f891682610d6b565b8355505b6001600288020188555050505b505050505050565b7f4e487b71000000000000000000000000000000000000000000000000000000005f52603260045260245ffdfea264697066735822122002c6407dbbaba19adc2d92d6815b547eadcecb2342f99fdea0d9b106e077846864736f6c63430008180033",
					"opcodes": "PUSH1 0x80 PUSH1 0x40 MSTORE CALLVALUE DUP1 ISZERO PUSH2 0xF JUMPI PUSH0 DUP1 REVERT JUMPDEST POP PUSH2 0xED4 DUP1 PUSH2 0x1D PUSH0 CODECOPY PUSH0 RETURN INVALID PUSH1 0x80 PUSH1 0x40 MSTORE CALLVALUE DUP1 ISZERO PUSH2 0xF JUMPI PUSH0 DUP1 REVERT JUMPDEST POP PUSH1 0x4 CALLDATASIZE LT PUSH2 0x4A JUMPI PUSH0 CALLDATALOAD PUSH1 0xE0 SHR DUP1 PUSH4 0x5A1B4A9 EQ PUSH2 0x4E JUMPI DUP1 PUSH4 0x53256135 EQ PUSH2 0x81 JUMPI DUP1 PUSH4 0x7C9CD2BC EQ PUSH2 0x9F JUMPI DUP1 PUSH4 0xC3AD5ECB EQ PUSH2 0xBB JUMPI JUMPDEST PUSH0 DUP1 REVERT JUMPDEST PUSH2 0x68 PUSH1 0x4 DUP1 CALLDATASIZE SUB DUP2 ADD SWAP1 PUSH2 0x63 SWAP2 SWAP1 PUSH2 0x6B9 JUMP JUMPDEST PUSH2 0xEB JUMP JUMPDEST PUSH1 0x40 MLOAD PUSH2 0x78 SWAP5 SWAP4 SWAP3 SWAP2 SWAP1 PUSH2 0x79F JUMP JUMPDEST PUSH1 0x40 MLOAD DUP1 SWAP2 SUB SWAP1 RETURN JUMPDEST PUSH2 0x89 PUSH2 0x1D5 JUMP JUMPDEST PUSH1 0x40 MLOAD PUSH2 0x96 SWAP2 SWAP1 PUSH2 0x96A JUMP JUMPDEST PUSH1 0x40 MLOAD DUP1 SWAP2 SUB SWAP1 RETURN JUMPDEST PUSH2 0xB9 PUSH1 0x4 DUP1 CALLDATASIZE SUB DUP2 ADD SWAP1 PUSH2 0xB4 SWAP2 SWAP1 PUSH2 0xAB6 JUMP JUMPDEST PUSH2 0x363 JUMP JUMPDEST STOP JUMPDEST PUSH2 0xD5 PUSH1 0x4 DUP1 CALLDATASIZE SUB DUP2 ADD SWAP1 PUSH2 0xD0 SWAP2 SWAP1 PUSH2 0xAFD JUMP JUMPDEST PUSH2 0x474 JUMP JUMPDEST PUSH1 0x40 MLOAD PUSH2 0xE2 SWAP2 SWAP1 PUSH2 0xB88 JUMP JUMPDEST PUSH1 0x40 MLOAD DUP1 SWAP2 SUB SWAP1 RETURN JUMPDEST PUSH0 PUSH1 0x20 MSTORE DUP2 PUSH0 MSTORE PUSH1 0x40 PUSH0 KECCAK256 DUP2 DUP2 SLOAD DUP2 LT PUSH2 0x103 JUMPI PUSH0 DUP1 REVERT JUMPDEST SWAP1 PUSH0 MSTORE PUSH1 0x20 PUSH0 KECCAK256 SWAP1 PUSH1 0x4 MUL ADD PUSH0 SWAP2 POP SWAP2 POP POP DUP1 PUSH0 ADD PUSH0 SWAP1 SLOAD SWAP1 PUSH2 0x100 EXP SWAP1 DIV PUSH20 0xFFFFFFFFFFFFFFFFFFFFFFFFFFFFFFFFFFFFFFFF AND SWAP1 DUP1 PUSH1 0x1 ADD DUP1 SLOAD PUSH2 0x148 SWAP1 PUSH2 0xBD5 JUMP JUMPDEST DUP1 PUSH1 0x1F ADD PUSH1 0x20 DUP1 SWAP2 DIV MUL PUSH1 0x20 ADD PUSH1 0x40 MLOAD SWAP1 DUP2 ADD PUSH1 0x40 MSTORE DUP1 SWAP3 SWAP2 SWAP1 DUP2 DUP2 MSTORE PUSH1 0x20 ADD DUP3 DUP1 SLOAD PUSH2 0x174 SWAP1 PUSH2 0xBD5 JUMP JUMPDEST DUP1 ISZERO PUSH2 0x1BF JUMPI DUP1 PUSH1 0x1F LT PUSH2 0x196 JUMPI PUSH2 0x100 DUP1 DUP4 SLOAD DIV MUL DUP4 MSTORE SWAP2 PUSH1 0x20 ADD SWAP2 PUSH2 0x1BF JUMP JUMPDEST DUP3 ADD SWAP2 SWAP1 PUSH0 MSTORE PUSH1 0x20 PUSH0 KECCAK256 SWAP1 JUMPDEST DUP2 SLOAD DUP2 MSTORE SWAP1 PUSH1 0x1 ADD SWAP1 PUSH1 0x20 ADD DUP1 DUP4 GT PUSH2 0x1A2 JUMPI DUP3 SWAP1 SUB PUSH1 0x1F AND DUP3 ADD SWAP2 JUMPDEST POP POP POP POP POP SWAP1 DUP1 PUSH1 0x2 ADD SLOAD SWAP1 DUP1 PUSH1 0x3 ADD SLOAD SWAP1 POP DUP5 JUMP JUMPDEST PUSH1 0x60 PUSH0 DUP1 CALLER PUSH20 0xFFFFFFFFFFFFFFFFFFFFFFFFFFFFFFFFFFFFFFFF AND PUSH20 0xFFFFFFFFFFFFFFFFFFFFFFFFFFFFFFFFFFFFFFFF AND DUP2 MSTORE PUSH1 0x20 ADD SWAP1 DUP2 MSTORE PUSH1 0x20 ADD PUSH0 KECCAK256 DUP1 SLOAD DUP1 PUSH1 0x20 MUL PUSH1 0x20 ADD PUSH1 0x40 MLOAD SWAP1 DUP2 ADD PUSH1 0x40 MSTORE DUP1 SWAP3 SWAP2 SWAP1 DUP2 DUP2 MSTORE PUSH1 0x20 ADD PUSH0 SWAP1 JUMPDEST DUP3 DUP3 LT ISZERO PUSH2 0x35A JUMPI DUP4 DUP3 SWAP1 PUSH0 MSTORE PUSH1 0x20 PUSH0 KECCAK256 SWAP1 PUSH1 0x4 MUL ADD PUSH1 0x40 MLOAD DUP1 PUSH1 0x80 ADD PUSH1 0x40 MSTORE SWAP1 DUP2 PUSH0 DUP3 ADD PUSH0 SWAP1 SLOAD SWAP1 PUSH2 0x100 EXP SWAP1 DIV PUSH20 0xFFFFFFFFFFFFFFFFFFFFFFFFFFFFFFFFFFFFFFFF AND PUSH20 0xFFFFFFFFFFFFFFFFFFFFFFFFFFFFFFFFFFFFFFFF AND PUSH20 0xFFFFFFFFFFFFFFFFFFFFFFFFFFFFFFFFFFFFFFFF AND DUP2 MSTORE PUSH1 0x20 ADD PUSH1 0x1 DUP3 ADD DUP1 SLOAD PUSH2 0x2B7 SWAP1 PUSH2 0xBD5 JUMP JUMPDEST DUP1 PUSH1 0x1F ADD PUSH1 0x20 DUP1 SWAP2 DIV MUL PUSH1 0x20 ADD PUSH1 0x40 MLOAD SWAP1 DUP2 ADD PUSH1 0x40 MSTORE DUP1 SWAP3 SWAP2 SWAP1 DUP2 DUP2 MSTORE PUSH1 0x20 ADD DUP3 DUP1 SLOAD PUSH2 0x2E3 SWAP1 PUSH2 0xBD5 JUMP JUMPDEST DUP1 ISZERO PUSH2 0x32E JUMPI DUP1 PUSH1 0x1F LT PUSH2 0x305 JUMPI PUSH2 0x100 DUP1 DUP4 SLOAD DIV MUL DUP4 MSTORE SWAP2 PUSH1 0x20 ADD SWAP2 PUSH2 0x32E JUMP JUMPDEST DUP3 ADD SWAP2 SWAP1 PUSH0 MSTORE PUSH1 0x20 PUSH0 KECCAK256 SWAP1 JUMPDEST DUP2 SLOAD DUP2 MSTORE SWAP1 PUSH1 0x1 ADD SWAP1 PUSH1 0x20 ADD DUP1 DUP4 GT PUSH2 0x311 JUMPI DUP3 SWAP1 SUB PUSH1 0x1F AND DUP3 ADD SWAP2 JUMPDEST POP POP POP POP POP DUP2 MSTORE PUSH1 0x20 ADD PUSH1 0x2 DUP3 ADD SLOAD DUP2 MSTORE PUSH1 0x20 ADD PUSH1 0x3 DUP3 ADD SLOAD DUP2 MSTORE POP POP DUP2 MSTORE PUSH1 0x20 ADD SWAP1 PUSH1 0x1 ADD SWAP1 PUSH2 0x232 JUMP JUMPDEST POP POP POP POP SWAP1 POP SWAP1 JUMP JUMPDEST PUSH0 PUSH1 0x40 MLOAD DUP1 PUSH1 0x80 ADD PUSH1 0x40 MSTORE DUP1 CALLER PUSH20 0xFFFFFFFFFFFFFFFFFFFFFFFFFFFFFFFFFFFFFFFF AND DUP2 MSTORE PUSH1 0x20 ADD DUP4 DUP2 MSTORE PUSH1 0x20 ADD TIMESTAMP DUP2 MSTORE PUSH1 0x20 ADD PUSH0 DUP2 MSTORE POP SWAP1 POP PUSH0 DUP1 CALLER PUSH20 0xFFFFFFFFFFFFFFFFFFFFFFFFFFFFFFFFFFFFFFFF AND PUSH20 0xFFFFFFFFFFFFFFFFFFFFFFFFFFFFFFFFFFFFFFFF AND DUP2 MSTORE PUSH1 0x20 ADD SWAP1 DUP2 MSTORE PUSH1 0x20 ADD PUSH0 KECCAK256 DUP2 SWAP1 DUP1 PUSH1 0x1 DUP2 SLOAD ADD DUP1 DUP3 SSTORE DUP1 SWAP2 POP POP PUSH1 0x1 SWAP1 SUB SWAP1 PUSH0 MSTORE PUSH1 0x20 PUSH0 KECCAK256 SWAP1 PUSH1 0x4 MUL ADD PUSH0 SWAP1 SWAP2 SWAP1 SWAP2 SWAP1 SWAP2 POP PUSH0 DUP3 ADD MLOAD DUP2 PUSH0 ADD PUSH0 PUSH2 0x100 EXP DUP2 SLOAD DUP2 PUSH20 0xFFFFFFFFFFFFFFFFFFFFFFFFFFFFFFFFFFFFFFFF MUL NOT AND SWAP1 DUP4 PUSH20 0xFFFFFFFFFFFFFFFFFFFFFFFFFFFFFFFFFFFFFFFF AND MUL OR SWAP1 SSTORE POP PUSH1 0x20 DUP3 ADD MLOAD DUP2 PUSH1 0x1 ADD SWAP1 DUP2 PUSH2 0x459 SWAP2 SWAP1 PUSH2 0xDA2 JUMP JUMPDEST POP PUSH1 0x40 DUP3 ADD MLOAD DUP2 PUSH1 0x2 ADD SSTORE PUSH1 0x60 DUP3 ADD MLOAD DUP2 PUSH1 0x3 ADD SSTORE POP POP POP POP JUMP JUMPDEST PUSH2 0x47C PUSH2 0x5E0 JUMP JUMPDEST PUSH0 DUP1 CALLER PUSH20 0xFFFFFFFFFFFFFFFFFFFFFFFFFFFFFFFFFFFFFFFF AND PUSH20 0xFFFFFFFFFFFFFFFFFFFFFFFFFFFFFFFFFFFFFFFF AND DUP2 MSTORE PUSH1 0x20 ADD SWAP1 DUP2 MSTORE PUSH1 0x20 ADD PUSH0 KECCAK256 DUP3 DUP2 SLOAD DUP2 LT PUSH2 0x4CA JUMPI PUSH2 0x4C9 PUSH2 0xE71 JUMP JUMPDEST JUMPDEST SWAP1 PUSH0 MSTORE PUSH1 0x20 PUSH0 KECCAK256 SWAP1 PUSH1 0x4 MUL ADD PUSH1 0x40 MLOAD DUP1 PUSH1 0x80 ADD PUSH1 0x40 MSTORE SWAP1 DUP2 PUSH0 DUP3 ADD PUSH0 SWAP1 SLOAD SWAP1 PUSH2 0x100 EXP SWAP1 DIV PUSH20 0xFFFFFFFFFFFFFFFFFFFFFFFFFFFFFFFFFFFFFFFF AND PUSH20 0xFFFFFFFFFFFFFFFFFFFFFFFFFFFFFFFFFFFFFFFF AND PUSH20 0xFFFFFFFFFFFFFFFFFFFFFFFFFFFFFFFFFFFFFFFF AND DUP2 MSTORE PUSH1 0x20 ADD PUSH1 0x1 DUP3 ADD DUP1 SLOAD PUSH2 0x545 SWAP1 PUSH2 0xBD5 JUMP JUMPDEST DUP1 PUSH1 0x1F ADD PUSH1 0x20 DUP1 SWAP2 DIV MUL PUSH1 0x20 ADD PUSH1 0x40 MLOAD SWAP1 DUP2 ADD PUSH1 0x40 MSTORE DUP1 SWAP3 SWAP2 SWAP1 DUP2 DUP2 MSTORE PUSH1 0x20 ADD DUP3 DUP1 SLOAD PUSH2 0x571 SWAP1 PUSH2 0xBD5 JUMP JUMPDEST DUP1 ISZERO PUSH2 0x5BC JUMPI DUP1 PUSH1 0x1F LT PUSH2 0x593 JUMPI PUSH2 0x100 DUP1 DUP4 SLOAD DIV MUL DUP4 MSTORE SWAP2 PUSH1 0x20 ADD SWAP2 PUSH2 0x5BC JUMP JUMPDEST DUP3 ADD SWAP2 SWAP1 PUSH0 MSTORE PUSH1 0x20 PUSH0 KECCAK256 SWAP1 JUMPDEST DUP2 SLOAD DUP2 MSTORE SWAP1 PUSH1 0x1 ADD SWAP1 PUSH1 0x20 ADD DUP1 DUP4 GT PUSH2 0x59F JUMPI DUP3 SWAP1 SUB PUSH1 0x1F AND DUP3 ADD SWAP2 JUMPDEST POP POP POP POP POP DUP2 MSTORE PUSH1 0x20 ADD PUSH1 0x2 DUP3 ADD SLOAD DUP2 MSTORE PUSH1 0x20 ADD PUSH1 0x3 DUP3 ADD SLOAD DUP2 MSTORE POP POP SWAP1 POP SWAP2 SWAP1 POP JUMP JUMPDEST PUSH1 0x40 MLOAD DUP1 PUSH1 0x80 ADD PUSH1 0x40 MSTORE DUP1 PUSH0 PUSH20 0xFFFFFFFFFFFFFFFFFFFFFFFFFFFFFFFFFFFFFFFF AND DUP2 MSTORE PUSH1 0x20 ADD PUSH1 0x60 DUP2 MSTORE PUSH1 0x20 ADD PUSH0 DUP2 MSTORE PUSH1 0x20 ADD PUSH0 DUP2 MSTORE POP SWAP1 JUMP JUMPDEST PUSH0 PUSH1 0x40 MLOAD SWAP1 POP SWAP1 JUMP JUMPDEST PUSH0 DUP1 REVERT JUMPDEST PUSH0 DUP1 REVERT JUMPDEST PUSH0 PUSH20 0xFFFFFFFFFFFFFFFFFFFFFFFFFFFFFFFFFFFFFFFF DUP3 AND SWAP1 POP SWAP2 SWAP1 POP JUMP JUMPDEST PUSH0 PUSH2 0x655 DUP3 PUSH2 0x62C JUMP JUMPDEST SWAP1 POP SWAP2 SWAP1 POP JUMP JUMPDEST PUSH2 0x665 DUP2 PUSH2 0x64B JUMP JUMPDEST DUP2 EQ PUSH2 0x66F JUMPI PUSH0 DUP1 REVERT JUMPDEST POP JUMP JUMPDEST PUSH0 DUP2 CALLDATALOAD SWAP1 POP PUSH2 0x680 DUP2 PUSH2 0x65C JUMP JUMPDEST SWAP3 SWAP2 POP POP JUMP JUMPDEST PUSH0 DUP2 SWAP1 POP SWAP2 SWAP1 POP JUMP JUMPDEST PUSH2 0x698 DUP2 PUSH2 0x686 JUMP JUMPDEST DUP2 EQ PUSH2 0x6A2 JUMPI PUSH0 DUP1 REVERT JUMPDEST POP JUMP JUMPDEST PUSH0 DUP2 CALLDATALOAD SWAP1 POP PUSH2 0x6B3 DUP2 PUSH2 0x68F JUMP JUMPDEST SWAP3 SWAP2 POP POP JUMP JUMPDEST PUSH0 DUP1 PUSH1 0x40 DUP4 DUP6 SUB SLT ISZERO PUSH2 0x6CF JUMPI PUSH2 0x6CE PUSH2 0x624 JUMP JUMPDEST JUMPDEST PUSH0 PUSH2 0x6DC DUP6 DUP3 DUP7 ADD PUSH2 0x672 JUMP JUMPDEST SWAP3 POP POP PUSH1 0x20 PUSH2 0x6ED DUP6 DUP3 DUP7 ADD PUSH2 0x6A5 JUMP JUMPDEST SWAP2 POP POP SWAP3 POP SWAP3 SWAP1 POP JUMP JUMPDEST PUSH2 0x700 DUP2 PUSH2 0x64B JUMP JUMPDEST DUP3 MSTORE POP POP JUMP JUMPDEST PUSH0 DUP2 MLOAD SWAP1 POP SWAP2 SWAP1 POP JUMP JUMPDEST PUSH0 DUP3 DUP3 MSTORE PUSH1 0x20 DUP3 ADD SWAP1 POP SWAP3 SWAP2 POP POP JUMP JUMPDEST PUSH0 JUMPDEST DUP4 DUP2 LT ISZERO PUSH2 0x73D JUMPI DUP1 DUP3 ADD MLOAD DUP2 DUP5 ADD MSTORE PUSH1 0x20 DUP2 ADD SWAP1 POP PUSH2 0x722 JUMP JUMPDEST PUSH0 DUP5 DUP5 ADD MSTORE POP POP POP POP JUMP JUMPDEST PUSH0 PUSH1 0x1F NOT PUSH1 0x1F DUP4 ADD AND SWAP1 POP SWAP2 SWAP1 POP JUMP JUMPDEST PUSH0 PUSH2 0x762 DUP3 PUSH2 0x706 JUMP JUMPDEST PUSH2 0x76C DUP2 DUP6 PUSH2 0x710 JUMP JUMPDEST SWAP4 POP PUSH2 0x77C DUP2 DUP6 PUSH1 0x20 DUP7 ADD PUSH2 0x720 JUMP JUMPDEST PUSH2 0x785 DUP2 PUSH2 0x748 JUMP JUMPDEST DUP5 ADD SWAP2 POP POP SWAP3 SWAP2 POP POP JUMP JUMPDEST PUSH2 0x799 DUP2 PUSH2 0x686 JUMP JUMPDEST DUP3 MSTORE POP POP JUMP JUMPDEST PUSH0 PUSH1 0x80 DUP3 ADD SWAP1 POP PUSH2 0x7B2 PUSH0 DUP4 ADD DUP8 PUSH2 0x6F7 JUMP JUMPDEST DUP2 DUP2 SUB PUSH1 0x20 DUP4 ADD MSTORE PUSH2 0x7C4 DUP2 DUP7 PUSH2 0x758 JUMP JUMPDEST SWAP1 POP PUSH2 0x7D3 PUSH1 0x40 DUP4 ADD DUP6 PUSH2 0x790 JUMP JUMPDEST PUSH2 0x7E0 PUSH1 0x60 DUP4 ADD DUP5 PUSH2 0x790 JUMP JUMPDEST SWAP6 SWAP5 POP POP POP POP POP JUMP JUMPDEST PUSH0 DUP2 MLOAD SWAP1 POP SWAP2 SWAP1 POP JUMP JUMPDEST PUSH0 DUP3 DUP3 MSTORE PUSH1 0x20 DUP3 ADD SWAP1 POP SWAP3 SWAP2 POP POP JUMP JUMPDEST PUSH0 DUP2 SWAP1 POP PUSH1 0x20 DUP3 ADD SWAP1 POP SWAP2 SWAP1 POP JUMP JUMPDEST PUSH2 0x81B DUP2 PUSH2 0x64B JUMP JUMPDEST DUP3 MSTORE POP POP JUMP JUMPDEST PUSH0 DUP3 DUP3 MSTORE PUSH1 0x20 DUP3 ADD SWAP1 POP SWAP3 SWAP2 POP POP JUMP JUMPDEST PUSH0 PUSH2 0x83B DUP3 PUSH2 0x706 JUMP JUMPDEST PUSH2 0x845 DUP2 DUP6 PUSH2 0x821 JUMP JUMPDEST SWAP4 POP PUSH2 0x855 DUP2 DUP6 PUSH1 0x20 DUP7 ADD PUSH2 0x720 JUMP JUMPDEST PUSH2 0x85E DUP2 PUSH2 0x748 JUMP JUMPDEST DUP5 ADD SWAP2 POP POP SWAP3 SWAP2 POP POP JUMP JUMPDEST PUSH2 0x872 DUP2 PUSH2 0x686 JUMP JUMPDEST DUP3 MSTORE POP POP JUMP JUMPDEST PUSH0 PUSH1 0x80 DUP4 ADD PUSH0 DUP4 ADD MLOAD PUSH2 0x88D PUSH0 DUP7 ADD DUP3 PUSH2 0x812 JUMP JUMPDEST POP PUSH1 0x20 DUP4 ADD MLOAD DUP5 DUP3 SUB PUSH1 0x20 DUP7 ADD MSTORE PUSH2 0x8A5 DUP3 DUP3 PUSH2 0x831 JUMP JUMPDEST SWAP2 POP POP PUSH1 0x40 DUP4 ADD MLOAD PUSH2 0x8BA PUSH1 0x40 DUP7 ADD DUP3 PUSH2 0x869 JUMP JUMPDEST POP PUSH1 0x60 DUP4 ADD MLOAD PUSH2 0x8CD PUSH1 0x60 DUP7 ADD DUP3 PUSH2 0x869 JUMP JUMPDEST POP DUP1 SWAP2 POP POP SWAP3 SWAP2 POP POP JUMP JUMPDEST PUSH0 PUSH2 0x8E3 DUP4 DUP4 PUSH2 0x878 JUMP JUMPDEST SWAP1 POP SWAP3 SWAP2 POP POP JUMP JUMPDEST PUSH0 PUSH1 0x20 DUP3 ADD SWAP1 POP SWAP2 SWAP1 POP JUMP JUMPDEST PUSH0 PUSH2 0x901 DUP3 PUSH2 0x7E9 JUMP JUMPDEST PUSH2 0x90B DUP2 DUP6 PUSH2 0x7F3 JUMP JUMPDEST SWAP4 POP DUP4 PUSH1 0x20 DUP3 MUL DUP6 ADD PUSH2 0x91D DUP6 PUSH2 0x803 JUMP JUMPDEST DUP1 PUSH0 JUMPDEST DUP6 DUP2 LT ISZERO PUSH2 0x958 JUMPI DUP5 DUP5 SUB DUP10 MSTORE DUP2 MLOAD PUSH2 0x939 DUP6 DUP3 PUSH2 0x8D8 JUMP JUMPDEST SWAP5 POP PUSH2 0x944 DUP4 PUSH2 0x8EB JUMP JUMPDEST SWAP3 POP PUSH1 0x20 DUP11 ADD SWAP10 POP POP PUSH1 0x1 DUP2 ADD SWAP1 POP PUSH2 0x920 JUMP JUMPDEST POP DUP3 SWAP8 POP DUP8 SWAP6 POP POP POP POP POP POP SWAP3 SWAP2 POP POP JUMP JUMPDEST PUSH0 PUSH1 0x20 DUP3 ADD SWAP1 POP DUP2 DUP2 SUB PUSH0 DUP4 ADD MSTORE PUSH2 0x982 DUP2 DUP5 PUSH2 0x8F7 JUMP JUMPDEST SWAP1 POP SWAP3 SWAP2 POP POP JUMP JUMPDEST PUSH0 DUP1 REVERT JUMPDEST PUSH0 DUP1 REVERT JUMPDEST PUSH32 0x4E487B7100000000000000000000000000000000000000000000000000000000 PUSH0 MSTORE PUSH1 0x41 PUSH1 0x4 MSTORE PUSH1 0x24 PUSH0 REVERT JUMPDEST PUSH2 0x9C8 DUP3 PUSH2 0x748 JUMP JUMPDEST DUP2 ADD DUP2 DUP2 LT PUSH8 0xFFFFFFFFFFFFFFFF DUP3 GT OR ISZERO PUSH2 0x9E7 JUMPI PUSH2 0x9E6 PUSH2 0x992 JUMP JUMPDEST JUMPDEST DUP1 PUSH1 0x40 MSTORE POP POP POP JUMP JUMPDEST PUSH0 PUSH2 0x9F9 PUSH2 0x61B JUMP JUMPDEST SWAP1 POP PUSH2 0xA05 DUP3 DUP3 PUSH2 0x9BF JUMP JUMPDEST SWAP2 SWAP1 POP JUMP JUMPDEST PUSH0 PUSH8 0xFFFFFFFFFFFFFFFF DUP3 GT ISZERO PUSH2 0xA24 JUMPI PUSH2 0xA23 PUSH2 0x992 JUMP JUMPDEST JUMPDEST PUSH2 0xA2D DUP3 PUSH2 0x748 JUMP JUMPDEST SWAP1 POP PUSH1 0x20 DUP2 ADD SWAP1 POP SWAP2 SWAP1 POP JUMP JUMPDEST DUP3 DUP2 DUP4 CALLDATACOPY PUSH0 DUP4 DUP4 ADD MSTORE POP POP POP JUMP JUMPDEST PUSH0 PUSH2 0xA5A PUSH2 0xA55 DUP5 PUSH2 0xA0A JUMP JUMPDEST PUSH2 0x9F0 JUMP JUMPDEST SWAP1 POP DUP3 DUP2 MSTORE PUSH1 0x20 DUP2 ADD DUP5 DUP5 DUP5 ADD GT ISZERO PUSH2 0xA76 JUMPI PUSH2 0xA75 PUSH2 0x98E JUMP JUMPDEST JUMPDEST PUSH2 0xA81 DUP5 DUP3 DUP6 PUSH2 0xA3A JUMP JUMPDEST POP SWAP4 SWAP3 POP POP POP JUMP JUMPDEST PUSH0 DUP3 PUSH1 0x1F DUP4 ADD SLT PUSH2 0xA9D JUMPI PUSH2 0xA9C PUSH2 0x98A JUMP JUMPDEST JUMPDEST DUP2 CALLDATALOAD PUSH2 0xAAD DUP5 DUP3 PUSH1 0x20 DUP7 ADD PUSH2 0xA48 JUMP JUMPDEST SWAP2 POP POP SWAP3 SWAP2 POP POP JUMP JUMPDEST PUSH0 PUSH1 0x20 DUP3 DUP5 SUB SLT ISZERO PUSH2 0xACB JUMPI PUSH2 0xACA PUSH2 0x624 JUMP JUMPDEST JUMPDEST PUSH0 DUP3 ADD CALLDATALOAD PUSH8 0xFFFFFFFFFFFFFFFF DUP2 GT ISZERO PUSH2 0xAE8 JUMPI PUSH2 0xAE7 PUSH2 0x628 JUMP JUMPDEST JUMPDEST PUSH2 0xAF4 DUP5 DUP3 DUP6 ADD PUSH2 0xA89 JUMP JUMPDEST SWAP2 POP POP SWAP3 SWAP2 POP POP JUMP JUMPDEST PUSH0 PUSH1 0x20 DUP3 DUP5 SUB SLT ISZERO PUSH2 0xB12 JUMPI PUSH2 0xB11 PUSH2 0x624 JUMP JUMPDEST JUMPDEST PUSH0 PUSH2 0xB1F DUP5 DUP3 DUP6 ADD PUSH2 0x6A5 JUMP JUMPDEST SWAP2 POP POP SWAP3 SWAP2 POP POP JUMP JUMPDEST PUSH0 PUSH1 0x80 DUP4 ADD PUSH0 DUP4 ADD MLOAD PUSH2 0xB3D PUSH0 DUP7 ADD DUP3 PUSH2 0x812 JUMP JUMPDEST POP PUSH1 0x20 DUP4 ADD MLOAD DUP5 DUP3 SUB PUSH1 0x20 DUP7 ADD MSTORE PUSH2 0xB55 DUP3 DUP3 PUSH2 0x831 JUMP JUMPDEST SWAP2 POP POP PUSH1 0x40 DUP4 ADD MLOAD PUSH2 0xB6A PUSH1 0x40 DUP7 ADD DUP3 PUSH2 0x869 JUMP JUMPDEST POP PUSH1 0x60 DUP4 ADD MLOAD PUSH2 0xB7D PUSH1 0x60 DUP7 ADD DUP3 PUSH2 0x869 JUMP JUMPDEST POP DUP1 SWAP2 POP POP SWAP3 SWAP2 POP POP JUMP JUMPDEST PUSH0 PUSH1 0x20 DUP3 ADD SWAP1 POP DUP2 DUP2 SUB PUSH0 DUP4 ADD MSTORE PUSH2 0xBA0 DUP2 DUP5 PUSH2 0xB28 JUMP JUMPDEST SWAP1 POP SWAP3 SWAP2 POP POP JUMP JUMPDEST PUSH32 0x4E487B7100000000000000000000000000000000000000000000000000000000 PUSH0 MSTORE PUSH1 0x22 PUSH1 0x4 MSTORE PUSH1 0x24 PUSH0 REVERT JUMPDEST PUSH0 PUSH1 0x2 DUP3 DIV SWAP1 POP PUSH1 0x1 DUP3 AND DUP1 PUSH2 0xBEC JUMPI PUSH1 0x7F DUP3 AND SWAP2 POP JUMPDEST PUSH1 0x20 DUP3 LT DUP2 SUB PUSH2 0xBFF JUMPI PUSH2 0xBFE PUSH2 0xBA8 JUMP JUMPDEST JUMPDEST POP SWAP2 SWAP1 POP JUMP JUMPDEST PUSH0 DUP2 SWAP1 POP DUP2 PUSH0 MSTORE PUSH1 0x20 PUSH0 KECCAK256 SWAP1 POP SWAP2 SWAP1 POP JUMP JUMPDEST PUSH0 PUSH1 0x20 PUSH1 0x1F DUP4 ADD DIV SWAP1 POP SWAP2 SWAP1 POP JUMP JUMPDEST PUSH0 DUP3 DUP3 SHL SWAP1 POP SWAP3 SWAP2 POP POP JUMP JUMPDEST PUSH0 PUSH1 0x8 DUP4 MUL PUSH2 0xC61 PUSH32 0xFFFFFFFFFFFFFFFFFFFFFFFFFFFFFFFFFFFFFFFFFFFFFFFFFFFFFFFFFFFFFFFF DUP3 PUSH2 0xC26 JUMP JUMPDEST PUSH2 0xC6B DUP7 DUP4 PUSH2 0xC26 JUMP JUMPDEST SWAP6 POP DUP1 NOT DUP5 AND SWAP4 POP DUP1 DUP7 AND DUP5 OR SWAP3 POP POP POP SWAP4 SWAP3 POP POP POP JUMP JUMPDEST PUSH0 DUP2 SWAP1 POP SWAP2 SWAP1 POP JUMP JUMPDEST PUSH0 PUSH2 0xCA6 PUSH2 0xCA1 PUSH2 0xC9C DUP5 PUSH2 0x686 JUMP JUMPDEST PUSH2 0xC83 JUMP JUMPDEST PUSH2 0x686 JUMP JUMPDEST SWAP1 POP SWAP2 SWAP1 POP JUMP JUMPDEST PUSH0 DUP2 SWAP1 POP SWAP2 SWAP1 POP JUMP JUMPDEST PUSH2 0xCBF DUP4 PUSH2 0xC8C JUMP JUMPDEST PUSH2 0xCD3 PUSH2 0xCCB DUP3 PUSH2 0xCAD JUMP JUMPDEST DUP5 DUP5 SLOAD PUSH2 0xC32 JUMP JUMPDEST DUP3 SSTORE POP POP POP POP JUMP JUMPDEST PUSH0 SWAP1 JUMP JUMPDEST PUSH2 0xCE7 PUSH2 0xCDB JUMP JUMPDEST PUSH2 0xCF2 DUP2 DUP5 DUP5 PUSH2 0xCB6 JUMP JUMPDEST POP POP POP JUMP JUMPDEST JUMPDEST DUP2 DUP2 LT ISZERO PUSH2 0xD15 JUMPI PUSH2 0xD0A PUSH0 DUP3 PUSH2 0xCDF JUMP JUMPDEST PUSH1 0x1 DUP2 ADD SWAP1 POP PUSH2 0xCF8 JUMP JUMPDEST POP POP JUMP JUMPDEST PUSH1 0x1F DUP3 GT ISZERO PUSH2 0xD5A JUMPI PUSH2 0xD2B DUP2 PUSH2 0xC05 JUMP JUMPDEST PUSH2 0xD34 DUP5 PUSH2 0xC17 JUMP JUMPDEST DUP2 ADD PUSH1 0x20 DUP6 LT ISZERO PUSH2 0xD43 JUMPI DUP2 SWAP1 POP JUMPDEST PUSH2 0xD57 PUSH2 0xD4F DUP6 PUSH2 0xC17 JUMP JUMPDEST DUP4 ADD DUP3 PUSH2 0xCF7 JUMP JUMPDEST POP POP JUMPDEST POP POP POP JUMP JUMPDEST PUSH0 DUP3 DUP3 SHR SWAP1 POP SWAP3 SWAP2 POP POP JUMP JUMPDEST PUSH0 PUSH2 0xD7A PUSH0 NOT DUP5 PUSH1 0x8 MUL PUSH2 0xD5F JUMP JUMPDEST NOT DUP1 DUP4 AND SWAP2 POP POP SWAP3 SWAP2 POP POP JUMP JUMPDEST PUSH0 PUSH2 0xD92 DUP4 DUP4 PUSH2 0xD6B JUMP JUMPDEST SWAP2 POP DUP3 PUSH1 0x2 MUL DUP3 OR SWAP1 POP SWAP3 SWAP2 POP POP JUMP JUMPDEST PUSH2 0xDAB DUP3 PUSH2 0x706 JUMP JUMPDEST PUSH8 0xFFFFFFFFFFFFFFFF DUP2 GT ISZERO PUSH2 0xDC4 JUMPI PUSH2 0xDC3 PUSH2 0x992 JUMP JUMPDEST JUMPDEST PUSH2 0xDCE DUP3 SLOAD PUSH2 0xBD5 JUMP JUMPDEST PUSH2 0xDD9 DUP3 DUP3 DUP6 PUSH2 0xD19 JUMP JUMPDEST PUSH0 PUSH1 0x20 SWAP1 POP PUSH1 0x1F DUP4 GT PUSH1 0x1 DUP2 EQ PUSH2 0xE0A JUMPI PUSH0 DUP5 ISZERO PUSH2 0xDF8 JUMPI DUP3 DUP8 ADD MLOAD SWAP1 POP JUMPDEST PUSH2 0xE02 DUP6 DUP3 PUSH2 0xD87 JUMP JUMPDEST DUP7 SSTORE POP PUSH2 0xE69 JUMP JUMPDEST PUSH1 0x1F NOT DUP5 AND PUSH2 0xE18 DUP7 PUSH2 0xC05 JUMP JUMPDEST PUSH0 JUMPDEST DUP3 DUP2 LT ISZERO PUSH2 0xE3F JUMPI DUP5 DUP10 ADD MLOAD DUP3 SSTORE PUSH1 0x1 DUP3 ADD SWAP2 POP PUSH1 0x20 DUP6 ADD SWAP5 POP PUSH1 0x20 DUP2 ADD SWAP1 POP PUSH2 0xE1A JUMP JUMPDEST DUP7 DUP4 LT ISZERO PUSH2 0xE5C JUMPI DUP5 DUP10 ADD MLOAD PUSH2 0xE58 PUSH1 0x1F DUP10 AND DUP3 PUSH2 0xD6B JUMP JUMPDEST DUP4 SSTORE POP JUMPDEST PUSH1 0x1 PUSH1 0x2 DUP9 MUL ADD DUP9 SSTORE POP POP POP JUMPDEST POP POP POP POP POP POP JUMP JUMPDEST PUSH32 0x4E487B7100000000000000000000000000000000000000000000000000000000 PUSH0 MSTORE PUSH1 0x32 PUSH1 0x4 MSTORE PUSH1 0x24 PUSH0 REVERT INVALID LOG2 PUSH5 0x6970667358 0x22 SLT KECCAK256 MUL 0xC6 BLOCKHASH PUSH30 0xBBABA19ADC2D92D6815B547EADCECB2342F99FDEA0D9B106E07784686473 PUSH16 0x6C634300081800330000000000000000 "
				},
				"gasEstimates": {
					"creation": {
						"codeDepositCost": "759200",
						"executionCost": "790",
						"totalCost": "759990"
					},
					"external": {
						"createTweet(string)": "infinite",
						"getAllTweets()": "infinite",
						"getTweet(uint256)": "infinite",
						"tweets(address,uint256)": "infinite"
					}
				},
				"methodIdentifiers": {
					"createTweet(string)": "7c9cd2bc",
					"getAllTweets()": "53256135",
					"getTweet(uint256)": "c3ad5ecb",
					"tweets(address,uint256)": "05a1b4a9"
				}
			},
			"storageLayout": {
				"storage": [
					{
						"astId": 16,
						"contract": "3-Twitter-Struct.sol:Twitter",
						"label": "tweets",
						"offset": 0,
						"slot": "0",
						"type": "t_mapping(t_address,t_array(t_struct(Tweet)10_storage)dyn_storage)"
					}
				],
				"types": {
					"t_address": {
						"encoding": "inplace",
						"label": "address",
						"numberOfBytes": "20"
					},
					"t_array(t_struct(Tweet)10_storage)dyn_storage": {
						"base": "t_struct(Tweet)10_storage",
						"encoding": "dynamic_array",
						"label": "struct Twitter.Tweet[]",
						"numberOfBytes": "32"
					},
					"t_mapping(t_address,t_array(t_struct(Tweet)10_storage)dyn_storage)": {
						"encoding": "mapping",
						"key": "t_address",
						"label": "mapping(address => struct Twitter.Tweet[])",
						"numberOfBytes": "32",
						"value": "t_array(t_struct(Tweet)10_storage)dyn_storage"
					},
					"t_string_storage": {
						"encoding": "bytes",
						"label": "string",
						"numberOfBytes": "32"
					},
					"t_struct(Tweet)10_storage": {
						"encoding": "inplace",
						"label": "struct Twitter.Tweet",
						"members": [
							{
								"astId": 3,
								"contract": "3-Twitter-Struct.sol:Twitter",
								"label": "author",
								"offset": 0,
								"slot": "0",
								"type": "t_address"
							},
							{
								"astId": 5,
								"contract": "3-Twitter-Struct.sol:Twitter",
								"label": "content",
								"offset": 0,
								"slot": "1",
								"type": "t_string_storage"
							},
							{
								"astId": 7,
								"contract": "3-Twitter-Struct.sol:Twitter",
								"label": "timestamp",
								"offset": 0,
								"slot": "2",
								"type": "t_uint256"
							},
							{
								"astId": 9,
								"contract": "3-Twitter-Struct.sol:Twitter",
								"label": "likes",
								"offset": 0,
								"slot": "3",
								"type": "t_uint256"
							}
						],
						"numberOfBytes": "128"
					},
					"t_uint256": {
						"encoding": "inplace",
						"label": "uint256",
						"numberOfBytes": "32"
					}
				}
			},
			"userdoc": {
				"kind": "user",
				"methods": {},
				"version": 1
			}
		}
	}
}