{
	"2-BasicTwitter.sol": {
		"Twitter": {
			"abi": [
				{
					"inputs": [
						{
							"internalType": "string",
							"name": "_tweet",
							"type": "string"
						}
					],
					"name": "createTweet",
					"outputs": [],
					"stateMutability": "nonpayable",
					"type": "function"
				},
				{
					"inputs": [
						{
							"internalType": "address",
							"name": "_addrs",
							"type": "address"
						}
					],
					"name": "getTweet",
					"outputs": [
						{
							"internalType": "string[]",
							"name": "",
							"type": "string[]"
						}
					],
					"stateMutability": "view",
					"type": "function"
				},
				{
					"inputs": [
						{
							"internalType": "address",
							"name": "_addrs",
							"type": "address"
						},
						{
							"internalType": "uint256",
							"name": "_i",
							"type": "uint256"
						}
					],
					"name": "getoneTweet",
					"outputs": [
						{
							"internalType": "string",
							"name": "",
							"type": "string"
						}
					],
					"stateMutability": "view",
					"type": "function"
				},
				{
					"inputs": [
						{
							"internalType": "address",
							"name": "",
							"type": "address"
						},
						{
							"internalType": "uint256",
							"name": "",
							"type": "uint256"
						}
					],
					"name": "tweets",
					"outputs": [
						{
							"internalType": "string",
							"name": "",
							"type": "string"
						}
					],
					"stateMutability": "view",
					"type": "function"
				}
			],
			"devdoc": {
				"kind": "dev",
				"methods": {},
				"version": 1
			},
			"evm": {
				"assembly": "    /* \"2-BasicTwitter.sol\":288:708  contract Twitter {... */\n  mstore(0x40, 0x80)\n  callvalue\n  dup1\n  iszero\n  tag_1\n  jumpi\n  0x00\n  dup1\n  revert\ntag_1:\n  pop\n  dataSize(sub_0)\n  dup1\n  dataOffset(sub_0)\n  0x00\n  codecopy\n  0x00\n  return\nstop\n\nsub_0: assembly {\n        /* \"2-BasicTwitter.sol\":288:708  contract Twitter {... */\n      mstore(0x40, 0x80)\n      callvalue\n      dup1\n      iszero\n      tag_1\n      jumpi\n      0x00\n      dup1\n      revert\n    tag_1:\n      pop\n      jumpi(tag_2, lt(calldatasize, 0x04))\n      shr(0xe0, calldataload(0x00))\n      dup1\n      0x05a1b4a9\n      eq\n      tag_3\n      jumpi\n      dup1\n      0x1d6b664e\n      eq\n      tag_4\n      jumpi\n      dup1\n      0x7c9cd2bc\n      eq\n      tag_5\n      jumpi\n      dup1\n      0xc194ec1c\n      eq\n      tag_6\n      jumpi\n    tag_2:\n      0x00\n      dup1\n      revert\n        /* \"2-BasicTwitter.sol\":312:355  mapping(address => string[] ) public tweets */\n    tag_3:\n      tag_7\n      0x04\n      dup1\n      calldatasize\n      sub\n      dup2\n      add\n      swap1\n      tag_8\n      swap2\n      swap1\n      tag_9\n      jump\t// in\n    tag_8:\n      tag_10\n      jump\t// in\n    tag_7:\n      mload(0x40)\n      tag_11\n      swap2\n      swap1\n      tag_12\n      jump\t// in\n    tag_11:\n      mload(0x40)\n      dup1\n      swap2\n      sub\n      swap1\n      return\n        /* \"2-BasicTwitter.sol\":466:576  function getTweet(address  _addrs) public view returns (string[] memory){... */\n    tag_4:\n      tag_13\n      0x04\n      dup1\n      calldatasize\n      sub\n      dup2\n      add\n      swap1\n      tag_14\n      swap2\n      swap1\n      tag_15\n      jump\t// in\n    tag_14:\n      tag_16\n      jump\t// in\n    tag_13:\n      mload(0x40)\n      tag_17\n      swap2\n      swap1\n      tag_18\n      jump\t// in\n    tag_17:\n      mload(0x40)\n      dup1\n      swap2\n      sub\n      swap1\n      return\n        /* \"2-BasicTwitter.sol\":362:460  function createTweet(string memory _tweet) public {... */\n    tag_5:\n      tag_19\n      0x04\n      dup1\n      calldatasize\n      sub\n      dup2\n      add\n      swap1\n      tag_20\n      swap2\n      swap1\n      tag_21\n      jump\t// in\n    tag_20:\n      tag_22\n      jump\t// in\n    tag_19:\n      stop\n        /* \"2-BasicTwitter.sol\":582:705  function getoneTweet(address _addrs ,uint _i) public view returns (string memory){... */\n    tag_6:\n      tag_23\n      0x04\n      dup1\n      calldatasize\n      sub\n      dup2\n      add\n      swap1\n      tag_24\n      swap2\n      swap1\n      tag_9\n      jump\t// in\n    tag_24:\n      tag_25\n      jump\t// in\n    tag_23:\n      mload(0x40)\n      tag_26\n      swap2\n      swap1\n      tag_12\n      jump\t// in\n    tag_26:\n      mload(0x40)\n      dup1\n      swap2\n      sub\n      swap1\n      return\n        /* \"2-BasicTwitter.sol\":312:355  mapping(address => string[] ) public tweets */\n    tag_10:\n      mstore(0x20, 0x00)\n      dup2\n      0x00\n      mstore\n      keccak256(0x00, 0x40)\n      dup2\n      dup2\n      sload\n      dup2\n      lt\n      tag_27\n      jumpi\n      0x00\n      dup1\n      revert\n    tag_27:\n      swap1\n      0x00\n      mstore\n      keccak256(0x00, 0x20)\n      add\n      0x00\n      swap2\n      pop\n      swap2\n      pop\n      pop\n      dup1\n      sload\n      tag_29\n      swap1\n      tag_30\n      jump\t// in\n    tag_29:\n      dup1\n      0x1f\n      add\n      0x20\n      dup1\n      swap2\n      div\n      mul\n      0x20\n      add\n      mload(0x40)\n      swap1\n      dup2\n      add\n      0x40\n      mstore\n      dup1\n      swap3\n      swap2\n      swap1\n      dup2\n      dup2\n      mstore\n      0x20\n      add\n      dup3\n      dup1\n      sload\n      tag_31\n      swap1\n      tag_30\n      jump\t// in\n    tag_31:\n      dup1\n      iszero\n      tag_32\n      jumpi\n      dup1\n      0x1f\n      lt\n      tag_33\n      jumpi\n      0x0100\n      dup1\n      dup4\n      sload\n      div\n      mul\n      dup4\n      mstore\n      swap2\n      0x20\n      add\n      swap2\n      jump(tag_32)\n    tag_33:\n      dup3\n      add\n      swap2\n      swap1\n      0x00\n      mstore\n      keccak256(0x00, 0x20)\n      swap1\n    tag_34:\n      dup2\n      sload\n      dup2\n      mstore\n      swap1\n      0x01\n      add\n      swap1\n      0x20\n      add\n      dup1\n      dup4\n      gt\n      tag_34\n      jumpi\n      dup3\n      swap1\n      sub\n      0x1f\n      and\n      dup3\n      add\n      swap2\n    tag_32:\n      pop\n      pop\n      pop\n      pop\n      pop\n      dup2\n      jump\t// out\n        /* \"2-BasicTwitter.sol\":466:576  function getTweet(address  _addrs) public view returns (string[] memory){... */\n    tag_16:\n        /* \"2-BasicTwitter.sol\":522:537  string[] memory */\n      0x60\n        /* \"2-BasicTwitter.sol\":555:561  tweets */\n      0x00\n        /* \"2-BasicTwitter.sol\":555:569  tweets[_addrs] */\n      dup1\n        /* \"2-BasicTwitter.sol\":562:568  _addrs */\n      dup4\n        /* \"2-BasicTwitter.sol\":555:569  tweets[_addrs] */\n      0xffffffffffffffffffffffffffffffffffffffff\n      and\n      0xffffffffffffffffffffffffffffffffffffffff\n      and\n      dup2\n      mstore\n      0x20\n      add\n      swap1\n      dup2\n      mstore\n      0x20\n      add\n      0x00\n      keccak256\n        /* \"2-BasicTwitter.sol\":548:569  return tweets[_addrs] */\n      dup1\n      sload\n      dup1\n      0x20\n      mul\n      0x20\n      add\n      mload(0x40)\n      swap1\n      dup2\n      add\n      0x40\n      mstore\n      dup1\n      swap3\n      swap2\n      swap1\n      dup2\n      dup2\n      mstore\n      0x20\n      add\n      0x00\n      swap1\n    tag_36:\n      dup3\n      dup3\n      lt\n      iszero\n      tag_37\n      jumpi\n      dup4\n      dup3\n      swap1\n      0x00\n      mstore\n      keccak256(0x00, 0x20)\n      add\n      dup1\n      sload\n      tag_39\n      swap1\n      tag_30\n      jump\t// in\n    tag_39:\n      dup1\n      0x1f\n      add\n      0x20\n      dup1\n      swap2\n      div\n      mul\n      0x20\n      add\n      mload(0x40)\n      swap1\n      dup2\n      add\n      0x40\n      mstore\n      dup1\n      swap3\n      swap2\n      swap1\n      dup2\n      dup2\n      mstore\n      0x20\n      add\n      dup3\n      dup1\n      sload\n      tag_40\n      swap1\n      tag_30\n      jump\t// in\n    tag_40:\n      dup1\n      iszero\n      tag_41\n      jumpi\n      dup1\n      0x1f\n      lt\n      tag_42\n      jumpi\n      0x0100\n      dup1\n      dup4\n      sload\n      div\n      mul\n      dup4\n      mstore\n      swap2\n      0x20\n      add\n      swap2\n      jump(tag_41)\n    tag_42:\n      dup3\n      add\n      swap2\n      swap1\n      0x00\n      mstore\n      keccak256(0x00, 0x20)\n      swap1\n    tag_43:\n      dup2\n      sload\n      dup2\n      mstore\n      swap1\n      0x01\n      add\n      swap1\n      0x20\n      add\n      dup1\n      dup4\n      gt\n      tag_43\n      jumpi\n      dup3\n      swap1\n      sub\n      0x1f\n      and\n      dup3\n      add\n      swap2\n    tag_41:\n      pop\n      pop\n      pop\n      pop\n      pop\n      dup2\n      mstore\n      0x20\n      add\n      swap1\n      0x01\n      add\n      swap1\n      jump(tag_36)\n    tag_37:\n      pop\n      pop\n      pop\n      pop\n      swap1\n      pop\n        /* \"2-BasicTwitter.sol\":466:576  function getTweet(address  _addrs) public view returns (string[] memory){... */\n      swap2\n      swap1\n      pop\n      jump\t// out\n        /* \"2-BasicTwitter.sol\":362:460  function createTweet(string memory _tweet) public {... */\n    tag_22:\n        /* \"2-BasicTwitter.sol\":422:428  tweets */\n      0x00\n        /* \"2-BasicTwitter.sol\":422:440  tweets[msg.sender] */\n      dup1\n        /* \"2-BasicTwitter.sol\":429:439  msg.sender */\n      caller\n        /* \"2-BasicTwitter.sol\":422:440  tweets[msg.sender] */\n      0xffffffffffffffffffffffffffffffffffffffff\n      and\n      0xffffffffffffffffffffffffffffffffffffffff\n      and\n      dup2\n      mstore\n      0x20\n      add\n      swap1\n      dup2\n      mstore\n      0x20\n      add\n      0x00\n      keccak256\n        /* \"2-BasicTwitter.sol\":446:452  _tweet */\n      dup2\n        /* \"2-BasicTwitter.sol\":422:453  tweets[msg.sender].push(_tweet) */\n      swap1\n      dup1\n      0x01\n      dup2\n      sload\n      add\n      dup1\n      dup3\n      sstore\n      dup1\n      swap2\n      pop\n      pop\n      0x01\n      swap1\n      sub\n      swap1\n      0x00\n      mstore\n      keccak256(0x00, 0x20)\n      add\n      0x00\n      swap1\n      swap2\n      swap1\n      swap2\n      swap1\n      swap2\n      pop\n      swap1\n      dup2\n      tag_46\n      swap2\n      swap1\n      tag_47\n      jump\t// in\n    tag_46:\n      pop\n        /* \"2-BasicTwitter.sol\":362:460  function createTweet(string memory _tweet) public {... */\n      pop\n      jump\t// out\n        /* \"2-BasicTwitter.sol\":582:705  function getoneTweet(address _addrs ,uint _i) public view returns (string memory){... */\n    tag_25:\n        /* \"2-BasicTwitter.sol\":649:662  string memory */\n      0x60\n        /* \"2-BasicTwitter.sol\":680:686  tweets */\n      0x00\n        /* \"2-BasicTwitter.sol\":680:694  tweets[_addrs] */\n      dup1\n        /* \"2-BasicTwitter.sol\":687:693  _addrs */\n      dup5\n        /* \"2-BasicTwitter.sol\":680:694  tweets[_addrs] */\n      0xffffffffffffffffffffffffffffffffffffffff\n      and\n      0xffffffffffffffffffffffffffffffffffffffff\n      and\n      dup2\n      mstore\n      0x20\n      add\n      swap1\n      dup2\n      mstore\n      0x20\n      add\n      0x00\n      keccak256\n        /* \"2-BasicTwitter.sol\":695:697  _i */\n      dup3\n        /* \"2-BasicTwitter.sol\":680:698  tweets[_addrs][_i] */\n      dup2\n      sload\n      dup2\n      lt\n      tag_49\n      jumpi\n      tag_50\n      tag_51\n      jump\t// in\n    tag_50:\n    tag_49:\n      swap1\n      0x00\n      mstore\n      keccak256(0x00, 0x20)\n      add\n        /* \"2-BasicTwitter.sol\":673:698  return tweets[_addrs][_i] */\n      dup1\n      sload\n      tag_53\n      swap1\n      tag_30\n      jump\t// in\n    tag_53:\n      dup1\n      0x1f\n      add\n      0x20\n      dup1\n      swap2\n      div\n      mul\n      0x20\n      add\n      mload(0x40)\n      swap1\n      dup2\n      add\n      0x40\n      mstore\n      dup1\n      swap3\n      swap2\n      swap1\n      dup2\n      dup2\n      mstore\n      0x20\n      add\n      dup3\n      dup1\n      sload\n      tag_54\n      swap1\n      tag_30\n      jump\t// in\n    tag_54:\n      dup1\n      iszero\n      tag_55\n      jumpi\n      dup1\n      0x1f\n      lt\n      tag_56\n      jumpi\n      0x0100\n      dup1\n      dup4\n      sload\n      div\n      mul\n      dup4\n      mstore\n      swap2\n      0x20\n      add\n      swap2\n      jump(tag_55)\n    tag_56:\n      dup3\n      add\n      swap2\n      swap1\n      0x00\n      mstore\n      keccak256(0x00, 0x20)\n      swap1\n    tag_57:\n      dup2\n      sload\n      dup2\n      mstore\n      swap1\n      0x01\n      add\n      swap1\n      0x20\n      add\n      dup1\n      dup4\n      gt\n      tag_57\n      jumpi\n      dup3\n      swap1\n      sub\n      0x1f\n      and\n      dup3\n      add\n      swap2\n    tag_55:\n      pop\n      pop\n      pop\n      pop\n      pop\n      swap1\n      pop\n        /* \"2-BasicTwitter.sol\":582:705  function getoneTweet(address _addrs ,uint _i) public view returns (string memory){... */\n      swap3\n      swap2\n      pop\n      pop\n      jump\t// out\n        /* \"#utility.yul\":7:82   */\n    tag_58:\n        /* \"#utility.yul\":40:46   */\n      0x00\n        /* \"#utility.yul\":73:75   */\n      0x40\n        /* \"#utility.yul\":67:76   */\n      mload\n        /* \"#utility.yul\":57:76   */\n      swap1\n      pop\n        /* \"#utility.yul\":7:82   */\n      swap1\n      jump\t// out\n        /* \"#utility.yul\":88:205   */\n    tag_59:\n        /* \"#utility.yul\":197:198   */\n      0x00\n        /* \"#utility.yul\":194:195   */\n      dup1\n        /* \"#utility.yul\":187:199   */\n      revert\n        /* \"#utility.yul\":211:328   */\n    tag_60:\n        /* \"#utility.yul\":320:321   */\n      0x00\n        /* \"#utility.yul\":317:318   */\n      dup1\n        /* \"#utility.yul\":310:322   */\n      revert\n        /* \"#utility.yul\":334:460   */\n    tag_61:\n        /* \"#utility.yul\":371:378   */\n      0x00\n        /* \"#utility.yul\":411:453   */\n      0xffffffffffffffffffffffffffffffffffffffff\n        /* \"#utility.yul\":404:409   */\n      dup3\n        /* \"#utility.yul\":400:454   */\n      and\n        /* \"#utility.yul\":389:454   */\n      swap1\n      pop\n        /* \"#utility.yul\":334:460   */\n      swap2\n      swap1\n      pop\n      jump\t// out\n        /* \"#utility.yul\":466:562   */\n    tag_62:\n        /* \"#utility.yul\":503:510   */\n      0x00\n        /* \"#utility.yul\":532:556   */\n      tag_112\n        /* \"#utility.yul\":550:555   */\n      dup3\n        /* \"#utility.yul\":532:556   */\n      tag_61\n      jump\t// in\n    tag_112:\n        /* \"#utility.yul\":521:556   */\n      swap1\n      pop\n        /* \"#utility.yul\":466:562   */\n      swap2\n      swap1\n      pop\n      jump\t// out\n        /* \"#utility.yul\":568:690   */\n    tag_63:\n        /* \"#utility.yul\":641:665   */\n      tag_114\n        /* \"#utility.yul\":659:664   */\n      dup2\n        /* \"#utility.yul\":641:665   */\n      tag_62\n      jump\t// in\n    tag_114:\n        /* \"#utility.yul\":634:639   */\n      dup2\n        /* \"#utility.yul\":631:666   */\n      eq\n        /* \"#utility.yul\":621:684   */\n      tag_115\n      jumpi\n        /* \"#utility.yul\":680:681   */\n      0x00\n        /* \"#utility.yul\":677:678   */\n      dup1\n        /* \"#utility.yul\":670:682   */\n      revert\n        /* \"#utility.yul\":621:684   */\n    tag_115:\n        /* \"#utility.yul\":568:690   */\n      pop\n      jump\t// out\n        /* \"#utility.yul\":696:835   */\n    tag_64:\n        /* \"#utility.yul\":742:747   */\n      0x00\n        /* \"#utility.yul\":780:786   */\n      dup2\n        /* \"#utility.yul\":767:787   */\n      calldataload\n        /* \"#utility.yul\":758:787   */\n      swap1\n      pop\n        /* \"#utility.yul\":796:829   */\n      tag_117\n        /* \"#utility.yul\":823:828   */\n      dup2\n        /* \"#utility.yul\":796:829   */\n      tag_63\n      jump\t// in\n    tag_117:\n        /* \"#utility.yul\":696:835   */\n      swap3\n      swap2\n      pop\n      pop\n      jump\t// out\n        /* \"#utility.yul\":841:918   */\n    tag_65:\n        /* \"#utility.yul\":878:885   */\n      0x00\n        /* \"#utility.yul\":907:912   */\n      dup2\n        /* \"#utility.yul\":896:912   */\n      swap1\n      pop\n        /* \"#utility.yul\":841:918   */\n      swap2\n      swap1\n      pop\n      jump\t// out\n        /* \"#utility.yul\":924:1046   */\n    tag_66:\n        /* \"#utility.yul\":997:1021   */\n      tag_120\n        /* \"#utility.yul\":1015:1020   */\n      dup2\n        /* \"#utility.yul\":997:1021   */\n      tag_65\n      jump\t// in\n    tag_120:\n        /* \"#utility.yul\":990:995   */\n      dup2\n        /* \"#utility.yul\":987:1022   */\n      eq\n        /* \"#utility.yul\":977:1040   */\n      tag_121\n      jumpi\n        /* \"#utility.yul\":1036:1037   */\n      0x00\n        /* \"#utility.yul\":1033:1034   */\n      dup1\n        /* \"#utility.yul\":1026:1038   */\n      revert\n        /* \"#utility.yul\":977:1040   */\n    tag_121:\n        /* \"#utility.yul\":924:1046   */\n      pop\n      jump\t// out\n        /* \"#utility.yul\":1052:1191   */\n    tag_67:\n        /* \"#utility.yul\":1098:1103   */\n      0x00\n        /* \"#utility.yul\":1136:1142   */\n      dup2\n        /* \"#utility.yul\":1123:1143   */\n      calldataload\n        /* \"#utility.yul\":1114:1143   */\n      swap1\n      pop\n        /* \"#utility.yul\":1152:1185   */\n      tag_123\n        /* \"#utility.yul\":1179:1184   */\n      dup2\n        /* \"#utility.yul\":1152:1185   */\n      tag_66\n      jump\t// in\n    tag_123:\n        /* \"#utility.yul\":1052:1191   */\n      swap3\n      swap2\n      pop\n      pop\n      jump\t// out\n        /* \"#utility.yul\":1197:1671   */\n    tag_9:\n        /* \"#utility.yul\":1265:1271   */\n      0x00\n        /* \"#utility.yul\":1273:1279   */\n      dup1\n        /* \"#utility.yul\":1322:1324   */\n      0x40\n        /* \"#utility.yul\":1310:1319   */\n      dup4\n        /* \"#utility.yul\":1301:1308   */\n      dup6\n        /* \"#utility.yul\":1297:1320   */\n      sub\n        /* \"#utility.yul\":1293:1325   */\n      slt\n        /* \"#utility.yul\":1290:1409   */\n      iszero\n      tag_125\n      jumpi\n        /* \"#utility.yul\":1328:1407   */\n      tag_126\n      tag_59\n      jump\t// in\n    tag_126:\n        /* \"#utility.yul\":1290:1409   */\n    tag_125:\n        /* \"#utility.yul\":1448:1449   */\n      0x00\n        /* \"#utility.yul\":1473:1526   */\n      tag_127\n        /* \"#utility.yul\":1518:1525   */\n      dup6\n        /* \"#utility.yul\":1509:1515   */\n      dup3\n        /* \"#utility.yul\":1498:1507   */\n      dup7\n        /* \"#utility.yul\":1494:1516   */\n      add\n        /* \"#utility.yul\":1473:1526   */\n      tag_64\n      jump\t// in\n    tag_127:\n        /* \"#utility.yul\":1463:1526   */\n      swap3\n      pop\n        /* \"#utility.yul\":1419:1536   */\n      pop\n        /* \"#utility.yul\":1575:1577   */\n      0x20\n        /* \"#utility.yul\":1601:1654   */\n      tag_128\n        /* \"#utility.yul\":1646:1653   */\n      dup6\n        /* \"#utility.yul\":1637:1643   */\n      dup3\n        /* \"#utility.yul\":1626:1635   */\n      dup7\n        /* \"#utility.yul\":1622:1644   */\n      add\n        /* \"#utility.yul\":1601:1654   */\n      tag_67\n      jump\t// in\n    tag_128:\n        /* \"#utility.yul\":1591:1654   */\n      swap2\n      pop\n        /* \"#utility.yul\":1546:1664   */\n      pop\n        /* \"#utility.yul\":1197:1671   */\n      swap3\n      pop\n      swap3\n      swap1\n      pop\n      jump\t// out\n        /* \"#utility.yul\":1677:1776   */\n    tag_68:\n        /* \"#utility.yul\":1729:1735   */\n      0x00\n        /* \"#utility.yul\":1763:1768   */\n      dup2\n        /* \"#utility.yul\":1757:1769   */\n      mload\n        /* \"#utility.yul\":1747:1769   */\n      swap1\n      pop\n        /* \"#utility.yul\":1677:1776   */\n      swap2\n      swap1\n      pop\n      jump\t// out\n        /* \"#utility.yul\":1782:1951   */\n    tag_69:\n        /* \"#utility.yul\":1866:1877   */\n      0x00\n        /* \"#utility.yul\":1900:1906   */\n      dup3\n        /* \"#utility.yul\":1895:1898   */\n      dup3\n        /* \"#utility.yul\":1888:1907   */\n      mstore\n        /* \"#utility.yul\":1940:1944   */\n      0x20\n        /* \"#utility.yul\":1935:1938   */\n      dup3\n        /* \"#utility.yul\":1931:1945   */\n      add\n        /* \"#utility.yul\":1916:1945   */\n      swap1\n      pop\n        /* \"#utility.yul\":1782:1951   */\n      swap3\n      swap2\n      pop\n      pop\n      jump\t// out\n        /* \"#utility.yul\":1957:2203   */\n    tag_70:\n        /* \"#utility.yul\":2038:2039   */\n      0x00\n        /* \"#utility.yul\":2048:2161   */\n    tag_132:\n        /* \"#utility.yul\":2062:2068   */\n      dup4\n        /* \"#utility.yul\":2059:2060   */\n      dup2\n        /* \"#utility.yul\":2056:2069   */\n      lt\n        /* \"#utility.yul\":2048:2161   */\n      iszero\n      tag_134\n      jumpi\n        /* \"#utility.yul\":2147:2148   */\n      dup1\n        /* \"#utility.yul\":2142:2145   */\n      dup3\n        /* \"#utility.yul\":2138:2149   */\n      add\n        /* \"#utility.yul\":2132:2150   */\n      mload\n        /* \"#utility.yul\":2128:2129   */\n      dup2\n        /* \"#utility.yul\":2123:2126   */\n      dup5\n        /* \"#utility.yul\":2119:2130   */\n      add\n        /* \"#utility.yul\":2112:2151   */\n      mstore\n        /* \"#utility.yul\":2084:2086   */\n      0x20\n        /* \"#utility.yul\":2081:2082   */\n      dup2\n        /* \"#utility.yul\":2077:2087   */\n      add\n        /* \"#utility.yul\":2072:2087   */\n      swap1\n      pop\n        /* \"#utility.yul\":2048:2161   */\n      jump(tag_132)\n    tag_134:\n        /* \"#utility.yul\":2195:2196   */\n      0x00\n        /* \"#utility.yul\":2186:2192   */\n      dup5\n        /* \"#utility.yul\":2181:2184   */\n      dup5\n        /* \"#utility.yul\":2177:2193   */\n      add\n        /* \"#utility.yul\":2170:2197   */\n      mstore\n        /* \"#utility.yul\":2019:2203   */\n      pop\n        /* \"#utility.yul\":1957:2203   */\n      pop\n      pop\n      pop\n      jump\t// out\n        /* \"#utility.yul\":2209:2311   */\n    tag_71:\n        /* \"#utility.yul\":2250:2256   */\n      0x00\n        /* \"#utility.yul\":2301:2303   */\n      0x1f\n        /* \"#utility.yul\":2297:2304   */\n      not\n        /* \"#utility.yul\":2292:2294   */\n      0x1f\n        /* \"#utility.yul\":2285:2290   */\n      dup4\n        /* \"#utility.yul\":2281:2295   */\n      add\n        /* \"#utility.yul\":2277:2305   */\n      and\n        /* \"#utility.yul\":2267:2305   */\n      swap1\n      pop\n        /* \"#utility.yul\":2209:2311   */\n      swap2\n      swap1\n      pop\n      jump\t// out\n        /* \"#utility.yul\":2317:2694   */\n    tag_72:\n        /* \"#utility.yul\":2405:2408   */\n      0x00\n        /* \"#utility.yul\":2433:2472   */\n      tag_137\n        /* \"#utility.yul\":2466:2471   */\n      dup3\n        /* \"#utility.yul\":2433:2472   */\n      tag_68\n      jump\t// in\n    tag_137:\n        /* \"#utility.yul\":2488:2559   */\n      tag_138\n        /* \"#utility.yul\":2552:2558   */\n      dup2\n        /* \"#utility.yul\":2547:2550   */\n      dup6\n        /* \"#utility.yul\":2488:2559   */\n      tag_69\n      jump\t// in\n    tag_138:\n        /* \"#utility.yul\":2481:2559   */\n      swap4\n      pop\n        /* \"#utility.yul\":2568:2633   */\n      tag_139\n        /* \"#utility.yul\":2626:2632   */\n      dup2\n        /* \"#utility.yul\":2621:2624   */\n      dup6\n        /* \"#utility.yul\":2614:2618   */\n      0x20\n        /* \"#utility.yul\":2607:2612   */\n      dup7\n        /* \"#utility.yul\":2603:2619   */\n      add\n        /* \"#utility.yul\":2568:2633   */\n      tag_70\n      jump\t// in\n    tag_139:\n        /* \"#utility.yul\":2658:2687   */\n      tag_140\n        /* \"#utility.yul\":2680:2686   */\n      dup2\n        /* \"#utility.yul\":2658:2687   */\n      tag_71\n      jump\t// in\n    tag_140:\n        /* \"#utility.yul\":2653:2656   */\n      dup5\n        /* \"#utility.yul\":2649:2688   */\n      add\n        /* \"#utility.yul\":2642:2688   */\n      swap2\n      pop\n        /* \"#utility.yul\":2409:2694   */\n      pop\n        /* \"#utility.yul\":2317:2694   */\n      swap3\n      swap2\n      pop\n      pop\n      jump\t// out\n        /* \"#utility.yul\":2700:3013   */\n    tag_12:\n        /* \"#utility.yul\":2813:2817   */\n      0x00\n        /* \"#utility.yul\":2851:2853   */\n      0x20\n        /* \"#utility.yul\":2840:2849   */\n      dup3\n        /* \"#utility.yul\":2836:2854   */\n      add\n        /* \"#utility.yul\":2828:2854   */\n      swap1\n      pop\n        /* \"#utility.yul\":2900:2909   */\n      dup2\n        /* \"#utility.yul\":2894:2898   */\n      dup2\n        /* \"#utility.yul\":2890:2910   */\n      sub\n        /* \"#utility.yul\":2886:2887   */\n      0x00\n        /* \"#utility.yul\":2875:2884   */\n      dup4\n        /* \"#utility.yul\":2871:2888   */\n      add\n        /* \"#utility.yul\":2864:2911   */\n      mstore\n        /* \"#utility.yul\":2928:3006   */\n      tag_142\n        /* \"#utility.yul\":3001:3005   */\n      dup2\n        /* \"#utility.yul\":2992:2998   */\n      dup5\n        /* \"#utility.yul\":2928:3006   */\n      tag_72\n      jump\t// in\n    tag_142:\n        /* \"#utility.yul\":2920:3006   */\n      swap1\n      pop\n        /* \"#utility.yul\":2700:3013   */\n      swap3\n      swap2\n      pop\n      pop\n      jump\t// out\n        /* \"#utility.yul\":3019:3348   */\n    tag_15:\n        /* \"#utility.yul\":3078:3084   */\n      0x00\n        /* \"#utility.yul\":3127:3129   */\n      0x20\n        /* \"#utility.yul\":3115:3124   */\n      dup3\n        /* \"#utility.yul\":3106:3113   */\n      dup5\n        /* \"#utility.yul\":3102:3125   */\n      sub\n        /* \"#utility.yul\":3098:3130   */\n      slt\n        /* \"#utility.yul\":3095:3214   */\n      iszero\n      tag_144\n      jumpi\n        /* \"#utility.yul\":3133:3212   */\n      tag_145\n      tag_59\n      jump\t// in\n    tag_145:\n        /* \"#utility.yul\":3095:3214   */\n    tag_144:\n        /* \"#utility.yul\":3253:3254   */\n      0x00\n        /* \"#utility.yul\":3278:3331   */\n      tag_146\n        /* \"#utility.yul\":3323:3330   */\n      dup5\n        /* \"#utility.yul\":3314:3320   */\n      dup3\n        /* \"#utility.yul\":3303:3312   */\n      dup6\n        /* \"#utility.yul\":3299:3321   */\n      add\n        /* \"#utility.yul\":3278:3331   */\n      tag_64\n      jump\t// in\n    tag_146:\n        /* \"#utility.yul\":3268:3331   */\n      swap2\n      pop\n        /* \"#utility.yul\":3224:3341   */\n      pop\n        /* \"#utility.yul\":3019:3348   */\n      swap3\n      swap2\n      pop\n      pop\n      jump\t// out\n        /* \"#utility.yul\":3354:3478   */\n    tag_73:\n        /* \"#utility.yul\":3431:3437   */\n      0x00\n        /* \"#utility.yul\":3465:3470   */\n      dup2\n        /* \"#utility.yul\":3459:3471   */\n      mload\n        /* \"#utility.yul\":3449:3471   */\n      swap1\n      pop\n        /* \"#utility.yul\":3354:3478   */\n      swap2\n      swap1\n      pop\n      jump\t// out\n        /* \"#utility.yul\":3484:3678   */\n    tag_74:\n        /* \"#utility.yul\":3593:3604   */\n      0x00\n        /* \"#utility.yul\":3627:3633   */\n      dup3\n        /* \"#utility.yul\":3622:3625   */\n      dup3\n        /* \"#utility.yul\":3615:3634   */\n      mstore\n        /* \"#utility.yul\":3667:3671   */\n      0x20\n        /* \"#utility.yul\":3662:3665   */\n      dup3\n        /* \"#utility.yul\":3658:3672   */\n      add\n        /* \"#utility.yul\":3643:3672   */\n      swap1\n      pop\n        /* \"#utility.yul\":3484:3678   */\n      swap3\n      swap2\n      pop\n      pop\n      jump\t// out\n        /* \"#utility.yul\":3684:3826   */\n    tag_75:\n        /* \"#utility.yul\":3761:3765   */\n      0x00\n        /* \"#utility.yul\":3784:3787   */\n      dup2\n        /* \"#utility.yul\":3776:3787   */\n      swap1\n      pop\n        /* \"#utility.yul\":3814:3818   */\n      0x20\n        /* \"#utility.yul\":3809:3812   */\n      dup3\n        /* \"#utility.yul\":3805:3819   */\n      add\n        /* \"#utility.yul\":3797:3819   */\n      swap1\n      pop\n        /* \"#utility.yul\":3684:3826   */\n      swap2\n      swap1\n      pop\n      jump\t// out\n        /* \"#utility.yul\":3832:3991   */\n    tag_76:\n        /* \"#utility.yul\":3906:3917   */\n      0x00\n        /* \"#utility.yul\":3940:3946   */\n      dup3\n        /* \"#utility.yul\":3935:3938   */\n      dup3\n        /* \"#utility.yul\":3928:3947   */\n      mstore\n        /* \"#utility.yul\":3980:3984   */\n      0x20\n        /* \"#utility.yul\":3975:3978   */\n      dup3\n        /* \"#utility.yul\":3971:3985   */\n      add\n        /* \"#utility.yul\":3956:3985   */\n      swap1\n      pop\n        /* \"#utility.yul\":3832:3991   */\n      swap3\n      swap2\n      pop\n      pop\n      jump\t// out\n        /* \"#utility.yul\":3997:4354   */\n    tag_77:\n        /* \"#utility.yul\":4075:4078   */\n      0x00\n        /* \"#utility.yul\":4103:4142   */\n      tag_152\n        /* \"#utility.yul\":4136:4141   */\n      dup3\n        /* \"#utility.yul\":4103:4142   */\n      tag_68\n      jump\t// in\n    tag_152:\n        /* \"#utility.yul\":4158:4219   */\n      tag_153\n        /* \"#utility.yul\":4212:4218   */\n      dup2\n        /* \"#utility.yul\":4207:4210   */\n      dup6\n        /* \"#utility.yul\":4158:4219   */\n      tag_76\n      jump\t// in\n    tag_153:\n        /* \"#utility.yul\":4151:4219   */\n      swap4\n      pop\n        /* \"#utility.yul\":4228:4293   */\n      tag_154\n        /* \"#utility.yul\":4286:4292   */\n      dup2\n        /* \"#utility.yul\":4281:4284   */\n      dup6\n        /* \"#utility.yul\":4274:4278   */\n      0x20\n        /* \"#utility.yul\":4267:4272   */\n      dup7\n        /* \"#utility.yul\":4263:4279   */\n      add\n        /* \"#utility.yul\":4228:4293   */\n      tag_70\n      jump\t// in\n    tag_154:\n        /* \"#utility.yul\":4318:4347   */\n      tag_155\n        /* \"#utility.yul\":4340:4346   */\n      dup2\n        /* \"#utility.yul\":4318:4347   */\n      tag_71\n      jump\t// in\n    tag_155:\n        /* \"#utility.yul\":4313:4316   */\n      dup5\n        /* \"#utility.yul\":4309:4348   */\n      add\n        /* \"#utility.yul\":4302:4348   */\n      swap2\n      pop\n        /* \"#utility.yul\":4079:4354   */\n      pop\n        /* \"#utility.yul\":3997:4354   */\n      swap3\n      swap2\n      pop\n      pop\n      jump\t// out\n        /* \"#utility.yul\":4360:4556   */\n    tag_78:\n        /* \"#utility.yul\":4449:4459   */\n      0x00\n        /* \"#utility.yul\":4484:4550   */\n      tag_157\n        /* \"#utility.yul\":4546:4549   */\n      dup4\n        /* \"#utility.yul\":4538:4544   */\n      dup4\n        /* \"#utility.yul\":4484:4550   */\n      tag_77\n      jump\t// in\n    tag_157:\n        /* \"#utility.yul\":4470:4550   */\n      swap1\n      pop\n        /* \"#utility.yul\":4360:4556   */\n      swap3\n      swap2\n      pop\n      pop\n      jump\t// out\n        /* \"#utility.yul\":4562:4685   */\n    tag_79:\n        /* \"#utility.yul\":4642:4646   */\n      0x00\n        /* \"#utility.yul\":4674:4678   */\n      0x20\n        /* \"#utility.yul\":4669:4672   */\n      dup3\n        /* \"#utility.yul\":4665:4679   */\n      add\n        /* \"#utility.yul\":4657:4679   */\n      swap1\n      pop\n        /* \"#utility.yul\":4562:4685   */\n      swap2\n      swap1\n      pop\n      jump\t// out\n        /* \"#utility.yul\":4719:5710   */\n    tag_80:\n        /* \"#utility.yul\":4858:4861   */\n      0x00\n        /* \"#utility.yul\":4887:4951   */\n      tag_160\n        /* \"#utility.yul\":4945:4950   */\n      dup3\n        /* \"#utility.yul\":4887:4951   */\n      tag_73\n      jump\t// in\n    tag_160:\n        /* \"#utility.yul\":4967:5063   */\n      tag_161\n        /* \"#utility.yul\":5056:5062   */\n      dup2\n        /* \"#utility.yul\":5051:5054   */\n      dup6\n        /* \"#utility.yul\":4967:5063   */\n      tag_74\n      jump\t// in\n    tag_161:\n        /* \"#utility.yul\":4960:5063   */\n      swap4\n      pop\n        /* \"#utility.yul\":5089:5092   */\n      dup4\n        /* \"#utility.yul\":5134:5138   */\n      0x20\n        /* \"#utility.yul\":5126:5132   */\n      dup3\n        /* \"#utility.yul\":5122:5139   */\n      mul\n        /* \"#utility.yul\":5117:5120   */\n      dup6\n        /* \"#utility.yul\":5113:5140   */\n      add\n        /* \"#utility.yul\":5164:5230   */\n      tag_162\n        /* \"#utility.yul\":5224:5229   */\n      dup6\n        /* \"#utility.yul\":5164:5230   */\n      tag_75\n      jump\t// in\n    tag_162:\n        /* \"#utility.yul\":5253:5260   */\n      dup1\n        /* \"#utility.yul\":5284:5285   */\n      0x00\n        /* \"#utility.yul\":5269:5665   */\n    tag_163:\n        /* \"#utility.yul\":5294:5300   */\n      dup6\n        /* \"#utility.yul\":5291:5292   */\n      dup2\n        /* \"#utility.yul\":5288:5301   */\n      lt\n        /* \"#utility.yul\":5269:5665   */\n      iszero\n      tag_165\n      jumpi\n        /* \"#utility.yul\":5365:5374   */\n      dup5\n        /* \"#utility.yul\":5359:5363   */\n      dup5\n        /* \"#utility.yul\":5355:5375   */\n      sub\n        /* \"#utility.yul\":5350:5353   */\n      dup10\n        /* \"#utility.yul\":5343:5376   */\n      mstore\n        /* \"#utility.yul\":5416:5422   */\n      dup2\n        /* \"#utility.yul\":5410:5423   */\n      mload\n        /* \"#utility.yul\":5444:5528   */\n      tag_166\n        /* \"#utility.yul\":5523:5527   */\n      dup6\n        /* \"#utility.yul\":5508:5521   */\n      dup3\n        /* \"#utility.yul\":5444:5528   */\n      tag_78\n      jump\t// in\n    tag_166:\n        /* \"#utility.yul\":5436:5528   */\n      swap5\n      pop\n        /* \"#utility.yul\":5551:5621   */\n      tag_167\n        /* \"#utility.yul\":5614:5620   */\n      dup4\n        /* \"#utility.yul\":5551:5621   */\n      tag_79\n      jump\t// in\n    tag_167:\n        /* \"#utility.yul\":5541:5621   */\n      swap3\n      pop\n        /* \"#utility.yul\":5650:5654   */\n      0x20\n        /* \"#utility.yul\":5645:5648   */\n      dup11\n        /* \"#utility.yul\":5641:5655   */\n      add\n        /* \"#utility.yul\":5634:5655   */\n      swap10\n      pop\n        /* \"#utility.yul\":5329:5665   */\n      pop\n        /* \"#utility.yul\":5316:5317   */\n      0x01\n        /* \"#utility.yul\":5313:5314   */\n      dup2\n        /* \"#utility.yul\":5309:5318   */\n      add\n        /* \"#utility.yul\":5304:5318   */\n      swap1\n      pop\n        /* \"#utility.yul\":5269:5665   */\n      jump(tag_163)\n    tag_165:\n        /* \"#utility.yul\":5273:5287   */\n      pop\n        /* \"#utility.yul\":5681:5685   */\n      dup3\n        /* \"#utility.yul\":5674:5685   */\n      swap8\n      pop\n        /* \"#utility.yul\":5701:5704   */\n      dup8\n        /* \"#utility.yul\":5694:5704   */\n      swap6\n      pop\n        /* \"#utility.yul\":4863:5710   */\n      pop\n      pop\n      pop\n      pop\n      pop\n        /* \"#utility.yul\":4719:5710   */\n      swap3\n      swap2\n      pop\n      pop\n      jump\t// out\n        /* \"#utility.yul\":5716:6129   */\n    tag_18:\n        /* \"#utility.yul\":5879:5883   */\n      0x00\n        /* \"#utility.yul\":5917:5919   */\n      0x20\n        /* \"#utility.yul\":5906:5915   */\n      dup3\n        /* \"#utility.yul\":5902:5920   */\n      add\n        /* \"#utility.yul\":5894:5920   */\n      swap1\n      pop\n        /* \"#utility.yul\":5966:5975   */\n      dup2\n        /* \"#utility.yul\":5960:5964   */\n      dup2\n        /* \"#utility.yul\":5956:5976   */\n      sub\n        /* \"#utility.yul\":5952:5953   */\n      0x00\n        /* \"#utility.yul\":5941:5950   */\n      dup4\n        /* \"#utility.yul\":5937:5954   */\n      add\n        /* \"#utility.yul\":5930:5977   */\n      mstore\n        /* \"#utility.yul\":5994:6122   */\n      tag_169\n        /* \"#utility.yul\":6117:6121   */\n      dup2\n        /* \"#utility.yul\":6108:6114   */\n      dup5\n        /* \"#utility.yul\":5994:6122   */\n      tag_80\n      jump\t// in\n    tag_169:\n        /* \"#utility.yul\":5986:6122   */\n      swap1\n      pop\n        /* \"#utility.yul\":5716:6129   */\n      swap3\n      swap2\n      pop\n      pop\n      jump\t// out\n        /* \"#utility.yul\":6135:6252   */\n    tag_81:\n        /* \"#utility.yul\":6244:6245   */\n      0x00\n        /* \"#utility.yul\":6241:6242   */\n      dup1\n        /* \"#utility.yul\":6234:6246   */\n      revert\n        /* \"#utility.yul\":6258:6375   */\n    tag_82:\n        /* \"#utility.yul\":6367:6368   */\n      0x00\n        /* \"#utility.yul\":6364:6365   */\n      dup1\n        /* \"#utility.yul\":6357:6369   */\n      revert\n        /* \"#utility.yul\":6381:6561   */\n    tag_83:\n        /* \"#utility.yul\":6429:6506   */\n      0x4e487b7100000000000000000000000000000000000000000000000000000000\n        /* \"#utility.yul\":6426:6427   */\n      0x00\n        /* \"#utility.yul\":6419:6507   */\n      mstore\n        /* \"#utility.yul\":6526:6530   */\n      0x41\n        /* \"#utility.yul\":6523:6524   */\n      0x04\n        /* \"#utility.yul\":6516:6531   */\n      mstore\n        /* \"#utility.yul\":6550:6554   */\n      0x24\n        /* \"#utility.yul\":6547:6548   */\n      0x00\n        /* \"#utility.yul\":6540:6555   */\n      revert\n        /* \"#utility.yul\":6567:6848   */\n    tag_84:\n        /* \"#utility.yul\":6650:6677   */\n      tag_174\n        /* \"#utility.yul\":6672:6676   */\n      dup3\n        /* \"#utility.yul\":6650:6677   */\n      tag_71\n      jump\t// in\n    tag_174:\n        /* \"#utility.yul\":6642:6648   */\n      dup2\n        /* \"#utility.yul\":6638:6678   */\n      add\n        /* \"#utility.yul\":6780:6786   */\n      dup2\n        /* \"#utility.yul\":6768:6778   */\n      dup2\n        /* \"#utility.yul\":6765:6787   */\n      lt\n        /* \"#utility.yul\":6744:6762   */\n      0xffffffffffffffff\n        /* \"#utility.yul\":6732:6742   */\n      dup3\n        /* \"#utility.yul\":6729:6763   */\n      gt\n        /* \"#utility.yul\":6726:6788   */\n      or\n        /* \"#utility.yul\":6723:6811   */\n      iszero\n      tag_175\n      jumpi\n        /* \"#utility.yul\":6791:6809   */\n      tag_176\n      tag_83\n      jump\t// in\n    tag_176:\n        /* \"#utility.yul\":6723:6811   */\n    tag_175:\n        /* \"#utility.yul\":6831:6841   */\n      dup1\n        /* \"#utility.yul\":6827:6829   */\n      0x40\n        /* \"#utility.yul\":6820:6842   */\n      mstore\n        /* \"#utility.yul\":6610:6848   */\n      pop\n        /* \"#utility.yul\":6567:6848   */\n      pop\n      pop\n      jump\t// out\n        /* \"#utility.yul\":6854:6983   */\n    tag_85:\n        /* \"#utility.yul\":6888:6894   */\n      0x00\n        /* \"#utility.yul\":6915:6935   */\n      tag_178\n      tag_58\n      jump\t// in\n    tag_178:\n        /* \"#utility.yul\":6905:6935   */\n      swap1\n      pop\n        /* \"#utility.yul\":6944:6977   */\n      tag_179\n        /* \"#utility.yul\":6972:6976   */\n      dup3\n        /* \"#utility.yul\":6964:6970   */\n      dup3\n        /* \"#utility.yul\":6944:6977   */\n      tag_84\n      jump\t// in\n    tag_179:\n        /* \"#utility.yul\":6854:6983   */\n      swap2\n      swap1\n      pop\n      jump\t// out\n        /* \"#utility.yul\":6989:7297   */\n    tag_86:\n        /* \"#utility.yul\":7051:7055   */\n      0x00\n        /* \"#utility.yul\":7141:7159   */\n      0xffffffffffffffff\n        /* \"#utility.yul\":7133:7139   */\n      dup3\n        /* \"#utility.yul\":7130:7160   */\n      gt\n        /* \"#utility.yul\":7127:7183   */\n      iszero\n      tag_181\n      jumpi\n        /* \"#utility.yul\":7163:7181   */\n      tag_182\n      tag_83\n      jump\t// in\n    tag_182:\n        /* \"#utility.yul\":7127:7183   */\n    tag_181:\n        /* \"#utility.yul\":7201:7230   */\n      tag_183\n        /* \"#utility.yul\":7223:7229   */\n      dup3\n        /* \"#utility.yul\":7201:7230   */\n      tag_71\n      jump\t// in\n    tag_183:\n        /* \"#utility.yul\":7193:7230   */\n      swap1\n      pop\n        /* \"#utility.yul\":7285:7289   */\n      0x20\n        /* \"#utility.yul\":7279:7283   */\n      dup2\n        /* \"#utility.yul\":7275:7290   */\n      add\n        /* \"#utility.yul\":7267:7290   */\n      swap1\n      pop\n        /* \"#utility.yul\":6989:7297   */\n      swap2\n      swap1\n      pop\n      jump\t// out\n        /* \"#utility.yul\":7303:7449   */\n    tag_87:\n        /* \"#utility.yul\":7400:7406   */\n      dup3\n        /* \"#utility.yul\":7395:7398   */\n      dup2\n        /* \"#utility.yul\":7390:7393   */\n      dup4\n        /* \"#utility.yul\":7377:7407   */\n      calldatacopy\n        /* \"#utility.yul\":7441:7442   */\n      0x00\n        /* \"#utility.yul\":7432:7438   */\n      dup4\n        /* \"#utility.yul\":7427:7430   */\n      dup4\n        /* \"#utility.yul\":7423:7439   */\n      add\n        /* \"#utility.yul\":7416:7443   */\n      mstore\n        /* \"#utility.yul\":7303:7449   */\n      pop\n      pop\n      pop\n      jump\t// out\n        /* \"#utility.yul\":7455:7880   */\n    tag_88:\n        /* \"#utility.yul\":7533:7538   */\n      0x00\n        /* \"#utility.yul\":7558:7624   */\n      tag_186\n        /* \"#utility.yul\":7574:7623   */\n      tag_187\n        /* \"#utility.yul\":7616:7622   */\n      dup5\n        /* \"#utility.yul\":7574:7623   */\n      tag_86\n      jump\t// in\n    tag_187:\n        /* \"#utility.yul\":7558:7624   */\n      tag_85\n      jump\t// in\n    tag_186:\n        /* \"#utility.yul\":7549:7624   */\n      swap1\n      pop\n        /* \"#utility.yul\":7647:7653   */\n      dup3\n        /* \"#utility.yul\":7640:7645   */\n      dup2\n        /* \"#utility.yul\":7633:7654   */\n      mstore\n        /* \"#utility.yul\":7685:7689   */\n      0x20\n        /* \"#utility.yul\":7678:7683   */\n      dup2\n        /* \"#utility.yul\":7674:7690   */\n      add\n        /* \"#utility.yul\":7723:7726   */\n      dup5\n        /* \"#utility.yul\":7714:7720   */\n      dup5\n        /* \"#utility.yul\":7709:7712   */\n      dup5\n        /* \"#utility.yul\":7705:7721   */\n      add\n        /* \"#utility.yul\":7702:7727   */\n      gt\n        /* \"#utility.yul\":7699:7811   */\n      iszero\n      tag_188\n      jumpi\n        /* \"#utility.yul\":7730:7809   */\n      tag_189\n      tag_82\n      jump\t// in\n    tag_189:\n        /* \"#utility.yul\":7699:7811   */\n    tag_188:\n        /* \"#utility.yul\":7820:7874   */\n      tag_190\n        /* \"#utility.yul\":7867:7873   */\n      dup5\n        /* \"#utility.yul\":7862:7865   */\n      dup3\n        /* \"#utility.yul\":7857:7860   */\n      dup6\n        /* \"#utility.yul\":7820:7874   */\n      tag_87\n      jump\t// in\n    tag_190:\n        /* \"#utility.yul\":7539:7880   */\n      pop\n        /* \"#utility.yul\":7455:7880   */\n      swap4\n      swap3\n      pop\n      pop\n      pop\n      jump\t// out\n        /* \"#utility.yul\":7900:8240   */\n    tag_89:\n        /* \"#utility.yul\":7956:7961   */\n      0x00\n        /* \"#utility.yul\":8005:8008   */\n      dup3\n        /* \"#utility.yul\":7998:8002   */\n      0x1f\n        /* \"#utility.yul\":7990:7996   */\n      dup4\n        /* \"#utility.yul\":7986:8003   */\n      add\n        /* \"#utility.yul\":7982:8009   */\n      slt\n        /* \"#utility.yul\":7972:8094   */\n      tag_192\n      jumpi\n        /* \"#utility.yul\":8013:8092   */\n      tag_193\n      tag_81\n      jump\t// in\n    tag_193:\n        /* \"#utility.yul\":7972:8094   */\n    tag_192:\n        /* \"#utility.yul\":8130:8136   */\n      dup2\n        /* \"#utility.yul\":8117:8137   */\n      calldataload\n        /* \"#utility.yul\":8155:8234   */\n      tag_194\n        /* \"#utility.yul\":8230:8233   */\n      dup5\n        /* \"#utility.yul\":8222:8228   */\n      dup3\n        /* \"#utility.yul\":8215:8219   */\n      0x20\n        /* \"#utility.yul\":8207:8213   */\n      dup7\n        /* \"#utility.yul\":8203:8220   */\n      add\n        /* \"#utility.yul\":8155:8234   */\n      tag_88\n      jump\t// in\n    tag_194:\n        /* \"#utility.yul\":8146:8234   */\n      swap2\n      pop\n        /* \"#utility.yul\":7962:8240   */\n      pop\n        /* \"#utility.yul\":7900:8240   */\n      swap3\n      swap2\n      pop\n      pop\n      jump\t// out\n        /* \"#utility.yul\":8246:8755   */\n    tag_21:\n        /* \"#utility.yul\":8315:8321   */\n      0x00\n        /* \"#utility.yul\":8364:8366   */\n      0x20\n        /* \"#utility.yul\":8352:8361   */\n      dup3\n        /* \"#utility.yul\":8343:8350   */\n      dup5\n        /* \"#utility.yul\":8339:8362   */\n      sub\n        /* \"#utility.yul\":8335:8367   */\n      slt\n        /* \"#utility.yul\":8332:8451   */\n      iszero\n      tag_196\n      jumpi\n        /* \"#utility.yul\":8370:8449   */\n      tag_197\n      tag_59\n      jump\t// in\n    tag_197:\n        /* \"#utility.yul\":8332:8451   */\n    tag_196:\n        /* \"#utility.yul\":8518:8519   */\n      0x00\n        /* \"#utility.yul\":8507:8516   */\n      dup3\n        /* \"#utility.yul\":8503:8520   */\n      add\n        /* \"#utility.yul\":8490:8521   */\n      calldataload\n        /* \"#utility.yul\":8548:8566   */\n      0xffffffffffffffff\n        /* \"#utility.yul\":8540:8546   */\n      dup2\n        /* \"#utility.yul\":8537:8567   */\n      gt\n        /* \"#utility.yul\":8534:8651   */\n      iszero\n      tag_198\n      jumpi\n        /* \"#utility.yul\":8570:8649   */\n      tag_199\n      tag_60\n      jump\t// in\n    tag_199:\n        /* \"#utility.yul\":8534:8651   */\n    tag_198:\n        /* \"#utility.yul\":8675:8738   */\n      tag_200\n        /* \"#utility.yul\":8730:8737   */\n      dup5\n        /* \"#utility.yul\":8721:8727   */\n      dup3\n        /* \"#utility.yul\":8710:8719   */\n      dup6\n        /* \"#utility.yul\":8706:8728   */\n      add\n        /* \"#utility.yul\":8675:8738   */\n      tag_89\n      jump\t// in\n    tag_200:\n        /* \"#utility.yul\":8665:8738   */\n      swap2\n      pop\n        /* \"#utility.yul\":8461:8748   */\n      pop\n        /* \"#utility.yul\":8246:8755   */\n      swap3\n      swap2\n      pop\n      pop\n      jump\t// out\n        /* \"#utility.yul\":8761:8941   */\n    tag_90:\n        /* \"#utility.yul\":8809:8886   */\n      0x4e487b7100000000000000000000000000000000000000000000000000000000\n        /* \"#utility.yul\":8806:8807   */\n      0x00\n        /* \"#utility.yul\":8799:8887   */\n      mstore\n        /* \"#utility.yul\":8906:8910   */\n      0x22\n        /* \"#utility.yul\":8903:8904   */\n      0x04\n        /* \"#utility.yul\":8896:8911   */\n      mstore\n        /* \"#utility.yul\":8930:8934   */\n      0x24\n        /* \"#utility.yul\":8927:8928   */\n      0x00\n        /* \"#utility.yul\":8920:8935   */\n      revert\n        /* \"#utility.yul\":8947:9267   */\n    tag_30:\n        /* \"#utility.yul\":8991:8997   */\n      0x00\n        /* \"#utility.yul\":9028:9029   */\n      0x02\n        /* \"#utility.yul\":9022:9026   */\n      dup3\n        /* \"#utility.yul\":9018:9030   */\n      div\n        /* \"#utility.yul\":9008:9030   */\n      swap1\n      pop\n        /* \"#utility.yul\":9075:9076   */\n      0x01\n        /* \"#utility.yul\":9069:9073   */\n      dup3\n        /* \"#utility.yul\":9065:9077   */\n      and\n        /* \"#utility.yul\":9096:9114   */\n      dup1\n        /* \"#utility.yul\":9086:9167   */\n      tag_203\n      jumpi\n        /* \"#utility.yul\":9152:9156   */\n      0x7f\n        /* \"#utility.yul\":9144:9150   */\n      dup3\n        /* \"#utility.yul\":9140:9157   */\n      and\n        /* \"#utility.yul\":9130:9157   */\n      swap2\n      pop\n        /* \"#utility.yul\":9086:9167   */\n    tag_203:\n        /* \"#utility.yul\":9214:9216   */\n      0x20\n        /* \"#utility.yul\":9206:9212   */\n      dup3\n        /* \"#utility.yul\":9203:9217   */\n      lt\n        /* \"#utility.yul\":9183:9201   */\n      dup2\n        /* \"#utility.yul\":9180:9218   */\n      sub\n        /* \"#utility.yul\":9177:9261   */\n      tag_204\n      jumpi\n        /* \"#utility.yul\":9233:9251   */\n      tag_205\n      tag_90\n      jump\t// in\n    tag_205:\n        /* \"#utility.yul\":9177:9261   */\n    tag_204:\n        /* \"#utility.yul\":8998:9267   */\n      pop\n        /* \"#utility.yul\":8947:9267   */\n      swap2\n      swap1\n      pop\n      jump\t// out\n        /* \"#utility.yul\":9273:9414   */\n    tag_91:\n        /* \"#utility.yul\":9322:9326   */\n      0x00\n        /* \"#utility.yul\":9345:9348   */\n      dup2\n        /* \"#utility.yul\":9337:9348   */\n      swap1\n      pop\n        /* \"#utility.yul\":9368:9371   */\n      dup2\n        /* \"#utility.yul\":9365:9366   */\n      0x00\n        /* \"#utility.yul\":9358:9372   */\n      mstore\n        /* \"#utility.yul\":9402:9406   */\n      0x20\n        /* \"#utility.yul\":9399:9400   */\n      0x00\n        /* \"#utility.yul\":9389:9407   */\n      keccak256\n        /* \"#utility.yul\":9381:9407   */\n      swap1\n      pop\n        /* \"#utility.yul\":9273:9414   */\n      swap2\n      swap1\n      pop\n      jump\t// out\n        /* \"#utility.yul\":9420:9513   */\n    tag_92:\n        /* \"#utility.yul\":9457:9463   */\n      0x00\n        /* \"#utility.yul\":9504:9506   */\n      0x20\n        /* \"#utility.yul\":9499:9501   */\n      0x1f\n        /* \"#utility.yul\":9492:9497   */\n      dup4\n        /* \"#utility.yul\":9488:9502   */\n      add\n        /* \"#utility.yul\":9484:9507   */\n      div\n        /* \"#utility.yul\":9474:9507   */\n      swap1\n      pop\n        /* \"#utility.yul\":9420:9513   */\n      swap2\n      swap1\n      pop\n      jump\t// out\n        /* \"#utility.yul\":9519:9626   */\n    tag_93:\n        /* \"#utility.yul\":9563:9571   */\n      0x00\n        /* \"#utility.yul\":9613:9618   */\n      dup3\n        /* \"#utility.yul\":9607:9611   */\n      dup3\n        /* \"#utility.yul\":9603:9619   */\n      shl\n        /* \"#utility.yul\":9582:9619   */\n      swap1\n      pop\n        /* \"#utility.yul\":9519:9626   */\n      swap3\n      swap2\n      pop\n      pop\n      jump\t// out\n        /* \"#utility.yul\":9632:10025   */\n    tag_94:\n        /* \"#utility.yul\":9701:9707   */\n      0x00\n        /* \"#utility.yul\":9751:9752   */\n      0x08\n        /* \"#utility.yul\":9739:9749   */\n      dup4\n        /* \"#utility.yul\":9735:9753   */\n      mul\n        /* \"#utility.yul\":9774:9871   */\n      tag_210\n        /* \"#utility.yul\":9804:9870   */\n      0xffffffffffffffffffffffffffffffffffffffffffffffffffffffffffffffff\n        /* \"#utility.yul\":9793:9802   */\n      dup3\n        /* \"#utility.yul\":9774:9871   */\n      tag_93\n      jump\t// in\n    tag_210:\n        /* \"#utility.yul\":9892:9931   */\n      tag_211\n        /* \"#utility.yul\":9922:9930   */\n      dup7\n        /* \"#utility.yul\":9911:9920   */\n      dup4\n        /* \"#utility.yul\":9892:9931   */\n      tag_93\n      jump\t// in\n    tag_211:\n        /* \"#utility.yul\":9880:9931   */\n      swap6\n      pop\n        /* \"#utility.yul\":9964:9968   */\n      dup1\n        /* \"#utility.yul\":9960:9969   */\n      not\n        /* \"#utility.yul\":9953:9958   */\n      dup5\n        /* \"#utility.yul\":9949:9970   */\n      and\n        /* \"#utility.yul\":9940:9970   */\n      swap4\n      pop\n        /* \"#utility.yul\":10013:10017   */\n      dup1\n        /* \"#utility.yul\":10003:10011   */\n      dup7\n        /* \"#utility.yul\":9999:10018   */\n      and\n        /* \"#utility.yul\":9992:9997   */\n      dup5\n        /* \"#utility.yul\":9989:10019   */\n      or\n        /* \"#utility.yul\":9979:10019   */\n      swap3\n      pop\n        /* \"#utility.yul\":9708:10025   */\n      pop\n      pop\n        /* \"#utility.yul\":9632:10025   */\n      swap4\n      swap3\n      pop\n      pop\n      pop\n      jump\t// out\n        /* \"#utility.yul\":10031:10091   */\n    tag_95:\n        /* \"#utility.yul\":10059:10062   */\n      0x00\n        /* \"#utility.yul\":10080:10085   */\n      dup2\n        /* \"#utility.yul\":10073:10085   */\n      swap1\n      pop\n        /* \"#utility.yul\":10031:10091   */\n      swap2\n      swap1\n      pop\n      jump\t// out\n        /* \"#utility.yul\":10097:10239   */\n    tag_96:\n        /* \"#utility.yul\":10147:10156   */\n      0x00\n        /* \"#utility.yul\":10180:10233   */\n      tag_214\n        /* \"#utility.yul\":10198:10232   */\n      tag_215\n        /* \"#utility.yul\":10207:10231   */\n      tag_216\n        /* \"#utility.yul\":10225:10230   */\n      dup5\n        /* \"#utility.yul\":10207:10231   */\n      tag_65\n      jump\t// in\n    tag_216:\n        /* \"#utility.yul\":10198:10232   */\n      tag_95\n      jump\t// in\n    tag_215:\n        /* \"#utility.yul\":10180:10233   */\n      tag_65\n      jump\t// in\n    tag_214:\n        /* \"#utility.yul\":10167:10233   */\n      swap1\n      pop\n        /* \"#utility.yul\":10097:10239   */\n      swap2\n      swap1\n      pop\n      jump\t// out\n        /* \"#utility.yul\":10245:10320   */\n    tag_97:\n        /* \"#utility.yul\":10288:10291   */\n      0x00\n        /* \"#utility.yul\":10309:10314   */\n      dup2\n        /* \"#utility.yul\":10302:10314   */\n      swap1\n      pop\n        /* \"#utility.yul\":10245:10320   */\n      swap2\n      swap1\n      pop\n      jump\t// out\n        /* \"#utility.yul\":10326:10595   */\n    tag_98:\n        /* \"#utility.yul\":10436:10475   */\n      tag_219\n        /* \"#utility.yul\":10467:10474   */\n      dup4\n        /* \"#utility.yul\":10436:10475   */\n      tag_96\n      jump\t// in\n    tag_219:\n        /* \"#utility.yul\":10497:10588   */\n      tag_220\n        /* \"#utility.yul\":10546:10587   */\n      tag_221\n        /* \"#utility.yul\":10570:10586   */\n      dup3\n        /* \"#utility.yul\":10546:10587   */\n      tag_97\n      jump\t// in\n    tag_221:\n        /* \"#utility.yul\":10538:10544   */\n      dup5\n        /* \"#utility.yul\":10531:10535   */\n      dup5\n        /* \"#utility.yul\":10525:10536   */\n      sload\n        /* \"#utility.yul\":10497:10588   */\n      tag_94\n      jump\t// in\n    tag_220:\n        /* \"#utility.yul\":10491:10495   */\n      dup3\n        /* \"#utility.yul\":10484:10589   */\n      sstore\n        /* \"#utility.yul\":10402:10595   */\n      pop\n        /* \"#utility.yul\":10326:10595   */\n      pop\n      pop\n      pop\n      jump\t// out\n        /* \"#utility.yul\":10601:10674   */\n    tag_99:\n        /* \"#utility.yul\":10646:10649   */\n      0x00\n        /* \"#utility.yul\":10601:10674   */\n      swap1\n      jump\t// out\n        /* \"#utility.yul\":10680:10869   */\n    tag_100:\n        /* \"#utility.yul\":10757:10789   */\n      tag_224\n      tag_99\n      jump\t// in\n    tag_224:\n        /* \"#utility.yul\":10798:10863   */\n      tag_225\n        /* \"#utility.yul\":10856:10862   */\n      dup2\n        /* \"#utility.yul\":10848:10854   */\n      dup5\n        /* \"#utility.yul\":10842:10846   */\n      dup5\n        /* \"#utility.yul\":10798:10863   */\n      tag_98\n      jump\t// in\n    tag_225:\n        /* \"#utility.yul\":10733:10869   */\n      pop\n        /* \"#utility.yul\":10680:10869   */\n      pop\n      pop\n      jump\t// out\n        /* \"#utility.yul\":10875:11061   */\n    tag_101:\n        /* \"#utility.yul\":10935:11055   */\n    tag_227:\n        /* \"#utility.yul\":10952:10955   */\n      dup2\n        /* \"#utility.yul\":10945:10950   */\n      dup2\n        /* \"#utility.yul\":10942:10956   */\n      lt\n        /* \"#utility.yul\":10935:11055   */\n      iszero\n      tag_229\n      jumpi\n        /* \"#utility.yul\":11006:11045   */\n      tag_230\n        /* \"#utility.yul\":11043:11044   */\n      0x00\n        /* \"#utility.yul\":11036:11041   */\n      dup3\n        /* \"#utility.yul\":11006:11045   */\n      tag_100\n      jump\t// in\n    tag_230:\n        /* \"#utility.yul\":10979:10980   */\n      0x01\n        /* \"#utility.yul\":10972:10977   */\n      dup2\n        /* \"#utility.yul\":10968:10981   */\n      add\n        /* \"#utility.yul\":10959:10981   */\n      swap1\n      pop\n        /* \"#utility.yul\":10935:11055   */\n      jump(tag_227)\n    tag_229:\n        /* \"#utility.yul\":10875:11061   */\n      pop\n      pop\n      jump\t// out\n        /* \"#utility.yul\":11067:11610   */\n    tag_102:\n        /* \"#utility.yul\":11168:11170   */\n      0x1f\n        /* \"#utility.yul\":11163:11166   */\n      dup3\n        /* \"#utility.yul\":11160:11171   */\n      gt\n        /* \"#utility.yul\":11157:11603   */\n      iszero\n      tag_232\n      jumpi\n        /* \"#utility.yul\":11202:11240   */\n      tag_233\n        /* \"#utility.yul\":11234:11239   */\n      dup2\n        /* \"#utility.yul\":11202:11240   */\n      tag_91\n      jump\t// in\n    tag_233:\n        /* \"#utility.yul\":11286:11315   */\n      tag_234\n        /* \"#utility.yul\":11304:11314   */\n      dup5\n        /* \"#utility.yul\":11286:11315   */\n      tag_92\n      jump\t// in\n    tag_234:\n        /* \"#utility.yul\":11276:11284   */\n      dup2\n        /* \"#utility.yul\":11272:11316   */\n      add\n        /* \"#utility.yul\":11469:11471   */\n      0x20\n        /* \"#utility.yul\":11457:11467   */\n      dup6\n        /* \"#utility.yul\":11454:11472   */\n      lt\n        /* \"#utility.yul\":11451:11500   */\n      iszero\n      tag_235\n      jumpi\n        /* \"#utility.yul\":11490:11498   */\n      dup2\n        /* \"#utility.yul\":11475:11498   */\n      swap1\n      pop\n        /* \"#utility.yul\":11451:11500   */\n    tag_235:\n        /* \"#utility.yul\":11513:11593   */\n      tag_236\n        /* \"#utility.yul\":11569:11591   */\n      tag_237\n        /* \"#utility.yul\":11587:11590   */\n      dup6\n        /* \"#utility.yul\":11569:11591   */\n      tag_92\n      jump\t// in\n    tag_237:\n        /* \"#utility.yul\":11559:11567   */\n      dup4\n        /* \"#utility.yul\":11555:11592   */\n      add\n        /* \"#utility.yul\":11542:11553   */\n      dup3\n        /* \"#utility.yul\":11513:11593   */\n      tag_101\n      jump\t// in\n    tag_236:\n        /* \"#utility.yul\":11172:11603   */\n      pop\n      pop\n        /* \"#utility.yul\":11157:11603   */\n    tag_232:\n        /* \"#utility.yul\":11067:11610   */\n      pop\n      pop\n      pop\n      jump\t// out\n        /* \"#utility.yul\":11616:11733   */\n    tag_103:\n        /* \"#utility.yul\":11670:11678   */\n      0x00\n        /* \"#utility.yul\":11720:11725   */\n      dup3\n        /* \"#utility.yul\":11714:11718   */\n      dup3\n        /* \"#utility.yul\":11710:11726   */\n      shr\n        /* \"#utility.yul\":11689:11726   */\n      swap1\n      pop\n        /* \"#utility.yul\":11616:11733   */\n      swap3\n      swap2\n      pop\n      pop\n      jump\t// out\n        /* \"#utility.yul\":11739:11908   */\n    tag_104:\n        /* \"#utility.yul\":11783:11789   */\n      0x00\n        /* \"#utility.yul\":11816:11867   */\n      tag_240\n        /* \"#utility.yul\":11864:11865   */\n      0x00\n        /* \"#utility.yul\":11860:11866   */\n      not\n        /* \"#utility.yul\":11852:11857   */\n      dup5\n        /* \"#utility.yul\":11849:11850   */\n      0x08\n        /* \"#utility.yul\":11845:11858   */\n      mul\n        /* \"#utility.yul\":11816:11867   */\n      tag_103\n      jump\t// in\n    tag_240:\n        /* \"#utility.yul\":11812:11868   */\n      not\n        /* \"#utility.yul\":11897:11901   */\n      dup1\n        /* \"#utility.yul\":11891:11895   */\n      dup4\n        /* \"#utility.yul\":11887:11902   */\n      and\n        /* \"#utility.yul\":11877:11902   */\n      swap2\n      pop\n        /* \"#utility.yul\":11790:11908   */\n      pop\n        /* \"#utility.yul\":11739:11908   */\n      swap3\n      swap2\n      pop\n      pop\n      jump\t// out\n        /* \"#utility.yul\":11913:12208   */\n    tag_105:\n        /* \"#utility.yul\":11989:11993   */\n      0x00\n        /* \"#utility.yul\":12135:12164   */\n      tag_242\n        /* \"#utility.yul\":12160:12163   */\n      dup4\n        /* \"#utility.yul\":12154:12158   */\n      dup4\n        /* \"#utility.yul\":12135:12164   */\n      tag_104\n      jump\t// in\n    tag_242:\n        /* \"#utility.yul\":12127:12164   */\n      swap2\n      pop\n        /* \"#utility.yul\":12197:12200   */\n      dup3\n        /* \"#utility.yul\":12194:12195   */\n      0x02\n        /* \"#utility.yul\":12190:12201   */\n      mul\n        /* \"#utility.yul\":12184:12188   */\n      dup3\n        /* \"#utility.yul\":12181:12202   */\n      or\n        /* \"#utility.yul\":12173:12202   */\n      swap1\n      pop\n        /* \"#utility.yul\":11913:12208   */\n      swap3\n      swap2\n      pop\n      pop\n      jump\t// out\n        /* \"#utility.yul\":12213:13608   */\n    tag_47:\n        /* \"#utility.yul\":12330:12367   */\n      tag_244\n        /* \"#utility.yul\":12363:12366   */\n      dup3\n        /* \"#utility.yul\":12330:12367   */\n      tag_68\n      jump\t// in\n    tag_244:\n        /* \"#utility.yul\":12432:12450   */\n      0xffffffffffffffff\n        /* \"#utility.yul\":12424:12430   */\n      dup2\n        /* \"#utility.yul\":12421:12451   */\n      gt\n        /* \"#utility.yul\":12418:12474   */\n      iszero\n      tag_245\n      jumpi\n        /* \"#utility.yul\":12454:12472   */\n      tag_246\n      tag_83\n      jump\t// in\n    tag_246:\n        /* \"#utility.yul\":12418:12474   */\n    tag_245:\n        /* \"#utility.yul\":12498:12536   */\n      tag_247\n        /* \"#utility.yul\":12530:12534   */\n      dup3\n        /* \"#utility.yul\":12524:12535   */\n      sload\n        /* \"#utility.yul\":12498:12536   */\n      tag_30\n      jump\t// in\n    tag_247:\n        /* \"#utility.yul\":12583:12650   */\n      tag_248\n        /* \"#utility.yul\":12643:12649   */\n      dup3\n        /* \"#utility.yul\":12635:12641   */\n      dup3\n        /* \"#utility.yul\":12629:12633   */\n      dup6\n        /* \"#utility.yul\":12583:12650   */\n      tag_102\n      jump\t// in\n    tag_248:\n        /* \"#utility.yul\":12677:12678   */\n      0x00\n        /* \"#utility.yul\":12701:12705   */\n      0x20\n        /* \"#utility.yul\":12688:12705   */\n      swap1\n      pop\n        /* \"#utility.yul\":12733:12735   */\n      0x1f\n        /* \"#utility.yul\":12725:12731   */\n      dup4\n        /* \"#utility.yul\":12722:12736   */\n      gt\n        /* \"#utility.yul\":12750:12751   */\n      0x01\n        /* \"#utility.yul\":12745:13363   */\n      dup2\n      eq\n      tag_250\n      jumpi\n        /* \"#utility.yul\":13407:13408   */\n      0x00\n        /* \"#utility.yul\":13424:13430   */\n      dup5\n        /* \"#utility.yul\":13421:13498   */\n      iszero\n      tag_251\n      jumpi\n        /* \"#utility.yul\":13473:13482   */\n      dup3\n        /* \"#utility.yul\":13468:13471   */\n      dup8\n        /* \"#utility.yul\":13464:13483   */\n      add\n        /* \"#utility.yul\":13458:13484   */\n      mload\n        /* \"#utility.yul\":13449:13484   */\n      swap1\n      pop\n        /* \"#utility.yul\":13421:13498   */\n    tag_251:\n        /* \"#utility.yul\":13524:13591   */\n      tag_252\n        /* \"#utility.yul\":13584:13590   */\n      dup6\n        /* \"#utility.yul\":13577:13582   */\n      dup3\n        /* \"#utility.yul\":13524:13591   */\n      tag_105\n      jump\t// in\n    tag_252:\n        /* \"#utility.yul\":13518:13522   */\n      dup7\n        /* \"#utility.yul\":13511:13592   */\n      sstore\n        /* \"#utility.yul\":13380:13602   */\n      pop\n        /* \"#utility.yul\":12715:13602   */\n      jump(tag_249)\n        /* \"#utility.yul\":12745:13363   */\n    tag_250:\n        /* \"#utility.yul\":12797:12801   */\n      0x1f\n        /* \"#utility.yul\":12793:12802   */\n      not\n        /* \"#utility.yul\":12785:12791   */\n      dup5\n        /* \"#utility.yul\":12781:12803   */\n      and\n        /* \"#utility.yul\":12831:12868   */\n      tag_253\n        /* \"#utility.yul\":12863:12867   */\n      dup7\n        /* \"#utility.yul\":12831:12868   */\n      tag_91\n      jump\t// in\n    tag_253:\n        /* \"#utility.yul\":12890:12891   */\n      0x00\n        /* \"#utility.yul\":12904:13112   */\n    tag_254:\n        /* \"#utility.yul\":12918:12925   */\n      dup3\n        /* \"#utility.yul\":12915:12916   */\n      dup2\n        /* \"#utility.yul\":12912:12926   */\n      lt\n        /* \"#utility.yul\":12904:13112   */\n      iszero\n      tag_256\n      jumpi\n        /* \"#utility.yul\":12997:13006   */\n      dup5\n        /* \"#utility.yul\":12992:12995   */\n      dup10\n        /* \"#utility.yul\":12988:13007   */\n      add\n        /* \"#utility.yul\":12982:13008   */\n      mload\n        /* \"#utility.yul\":12974:12980   */\n      dup3\n        /* \"#utility.yul\":12967:13009   */\n      sstore\n        /* \"#utility.yul\":13048:13049   */\n      0x01\n        /* \"#utility.yul\":13040:13046   */\n      dup3\n        /* \"#utility.yul\":13036:13050   */\n      add\n        /* \"#utility.yul\":13026:13050   */\n      swap2\n      pop\n        /* \"#utility.yul\":13095:13097   */\n      0x20\n        /* \"#utility.yul\":13084:13093   */\n      dup6\n        /* \"#utility.yul\":13080:13098   */\n      add\n        /* \"#utility.yul\":13067:13098   */\n      swap5\n      pop\n        /* \"#utility.yul\":12941:12945   */\n      0x20\n        /* \"#utility.yul\":12938:12939   */\n      dup2\n        /* \"#utility.yul\":12934:12946   */\n      add\n        /* \"#utility.yul\":12929:12946   */\n      swap1\n      pop\n        /* \"#utility.yul\":12904:13112   */\n      jump(tag_254)\n    tag_256:\n        /* \"#utility.yul\":13140:13146   */\n      dup7\n        /* \"#utility.yul\":13131:13138   */\n      dup4\n        /* \"#utility.yul\":13128:13147   */\n      lt\n        /* \"#utility.yul\":13125:13304   */\n      iszero\n      tag_257\n      jumpi\n        /* \"#utility.yul\":13198:13207   */\n      dup5\n        /* \"#utility.yul\":13193:13196   */\n      dup10\n        /* \"#utility.yul\":13189:13208   */\n      add\n        /* \"#utility.yul\":13183:13209   */\n      mload\n        /* \"#utility.yul\":13241:13289   */\n      tag_258\n        /* \"#utility.yul\":13283:13287   */\n      0x1f\n        /* \"#utility.yul\":13275:13281   */\n      dup10\n        /* \"#utility.yul\":13271:13288   */\n      and\n        /* \"#utility.yul\":13260:13269   */\n      dup3\n        /* \"#utility.yul\":13241:13289   */\n      tag_104\n      jump\t// in\n    tag_258:\n        /* \"#utility.yul\":13233:13239   */\n      dup4\n        /* \"#utility.yul\":13226:13290   */\n      sstore\n        /* \"#utility.yul\":13148:13304   */\n      pop\n        /* \"#utility.yul\":13125:13304   */\n    tag_257:\n        /* \"#utility.yul\":13350:13351   */\n      0x01\n        /* \"#utility.yul\":13346:13347   */\n      0x02\n        /* \"#utility.yul\":13338:13344   */\n      dup9\n        /* \"#utility.yul\":13334:13348   */\n      mul\n        /* \"#utility.yul\":13330:13352   */\n      add\n        /* \"#utility.yul\":13324:13328   */\n      dup9\n        /* \"#utility.yul\":13317:13353   */\n      sstore\n        /* \"#utility.yul\":12752:13363   */\n      pop\n      pop\n      pop\n        /* \"#utility.yul\":12715:13602   */\n    tag_249:\n      pop\n        /* \"#utility.yul\":12305:13608   */\n      pop\n      pop\n      pop\n        /* \"#utility.yul\":12213:13608   */\n      pop\n      pop\n      jump\t// out\n        /* \"#utility.yul\":13614:13794   */\n    tag_51:\n        /* \"#utility.yul\":13662:13739   */\n      0x4e487b7100000000000000000000000000000000000000000000000000000000\n        /* \"#utility.yul\":13659:13660   */\n      0x00\n        /* \"#utility.yul\":13652:13740   */\n      mstore\n        /* \"#utility.yul\":13759:13763   */\n      0x32\n        /* \"#utility.yul\":13756:13757   */\n      0x04\n        /* \"#utility.yul\":13749:13764   */\n      mstore\n        /* \"#utility.yul\":13783:13787   */\n      0x24\n        /* \"#utility.yul\":13780:13781   */\n      0x00\n        /* \"#utility.yul\":13773:13788   */\n      revert\n\n    auxdata: 0xa26469706673582212201b0225b7604a00c1fb82caa3e2ca7eb2c91556bf0fc4630f367fcbbacf757c1864736f6c63430008180033\n}\n",
				"bytecode": {
					"linkReferences": {},
					"object": "608060405234801561000f575f80fd5b50610b838061001d5f395ff3fe608060405234801561000f575f80fd5b506004361061004a575f3560e01c806305a1b4a91461004e5780631d6b664e1461007e5780637c9cd2bc146100ae578063c194ec1c146100ca575b5f80fd5b610068600480360381019061006391906104ae565b6100fa565b6040516100759190610576565b60405180910390f35b61009860048036038101906100939190610596565b6101aa565b6040516100a591906106c4565b60405180910390f35b6100c860048036038101906100c39190610810565b6102ba565b005b6100e460048036038101906100df91906104ae565b610329565b6040516100f19190610576565b60405180910390f35b5f602052815f5260405f208181548110610112575f80fd5b905f5260205f20015f9150915050805461012b90610884565b80601f016020809104026020016040519081016040528092919081815260200182805461015790610884565b80156101a25780601f10610179576101008083540402835291602001916101a2565b820191905f5260205f20905b81548152906001019060200180831161018557829003601f168201915b505050505081565b60605f808373ffffffffffffffffffffffffffffffffffffffff1673ffffffffffffffffffffffffffffffffffffffff1681526020019081526020015f20805480602002602001604051908101604052809291908181526020015f905b828210156102af578382905f5260205f2001805461022490610884565b80601f016020809104026020016040519081016040528092919081815260200182805461025090610884565b801561029b5780601f106102725761010080835404028352916020019161029b565b820191905f5260205f20905b81548152906001019060200180831161027e57829003601f168201915b505050505081526020019060010190610207565b505050509050919050565b5f803373ffffffffffffffffffffffffffffffffffffffff1673ffffffffffffffffffffffffffffffffffffffff1681526020019081526020015f2081908060018154018082558091505060019003905f5260205f20015f9091909190915090816103259190610a51565b5050565b60605f808473ffffffffffffffffffffffffffffffffffffffff1673ffffffffffffffffffffffffffffffffffffffff1681526020019081526020015f20828154811061037957610378610b20565b5b905f5260205f2001805461038c90610884565b80601f01602080910402602001604051908101604052809291908181526020018280546103b890610884565b80156104035780601f106103da57610100808354040283529160200191610403565b820191905f5260205f20905b8154815290600101906020018083116103e657829003601f168201915b5050505050905092915050565b5f604051905090565b5f80fd5b5f80fd5b5f73ffffffffffffffffffffffffffffffffffffffff82169050919050565b5f61044a82610421565b9050919050565b61045a81610440565b8114610464575f80fd5b50565b5f8135905061047581610451565b92915050565b5f819050919050565b61048d8161047b565b8114610497575f80fd5b50565b5f813590506104a881610484565b92915050565b5f80604083850312156104c4576104c3610419565b5b5f6104d185828601610467565b92505060206104e28582860161049a565b9150509250929050565b5f81519050919050565b5f82825260208201905092915050565b5f5b83811015610523578082015181840152602081019050610508565b5f8484015250505050565b5f601f19601f8301169050919050565b5f610548826104ec565b61055281856104f6565b9350610562818560208601610506565b61056b8161052e565b840191505092915050565b5f6020820190508181035f83015261058e818461053e565b905092915050565b5f602082840312156105ab576105aa610419565b5b5f6105b884828501610467565b91505092915050565b5f81519050919050565b5f82825260208201905092915050565b5f819050602082019050919050565b5f82825260208201905092915050565b5f610604826104ec565b61060e81856105ea565b935061061e818560208601610506565b6106278161052e565b840191505092915050565b5f61063d83836105fa565b905092915050565b5f602082019050919050565b5f61065b826105c1565b61066581856105cb565b935083602082028501610677856105db565b805f5b858110156106b257848403895281516106938582610632565b945061069e83610645565b925060208a0199505060018101905061067a565b50829750879550505050505092915050565b5f6020820190508181035f8301526106dc8184610651565b905092915050565b5f80fd5b5f80fd5b7f4e487b71000000000000000000000000000000000000000000000000000000005f52604160045260245ffd5b6107228261052e565b810181811067ffffffffffffffff82111715610741576107406106ec565b5b80604052505050565b5f610753610410565b905061075f8282610719565b919050565b5f67ffffffffffffffff82111561077e5761077d6106ec565b5b6107878261052e565b9050602081019050919050565b828183375f83830152505050565b5f6107b46107af84610764565b61074a565b9050828152602081018484840111156107d0576107cf6106e8565b5b6107db848285610794565b509392505050565b5f82601f8301126107f7576107f66106e4565b5b81356108078482602086016107a2565b91505092915050565b5f6020828403121561082557610824610419565b5b5f82013567ffffffffffffffff8111156108425761084161041d565b5b61084e848285016107e3565b91505092915050565b7f4e487b71000000000000000000000000000000000000000000000000000000005f52602260045260245ffd5b5f600282049050600182168061089b57607f821691505b6020821081036108ae576108ad610857565b5b50919050565b5f819050815f5260205f209050919050565b5f6020601f8301049050919050565b5f82821b905092915050565b5f600883026109107fffffffffffffffffffffffffffffffffffffffffffffffffffffffffffffffff826108d5565b61091a86836108d5565b95508019841693508086168417925050509392505050565b5f819050919050565b5f61095561095061094b8461047b565b610932565b61047b565b9050919050565b5f819050919050565b61096e8361093b565b61098261097a8261095c565b8484546108e1565b825550505050565b5f90565b61099661098a565b6109a1818484610965565b505050565b5b818110156109c4576109b95f8261098e565b6001810190506109a7565b5050565b601f821115610a09576109da816108b4565b6109e3846108c6565b810160208510156109f2578190505b610a066109fe856108c6565b8301826109a6565b50505b505050565b5f82821c905092915050565b5f610a295f1984600802610a0e565b1980831691505092915050565b5f610a418383610a1a565b9150826002028217905092915050565b610a5a826104ec565b67ffffffffffffffff811115610a7357610a726106ec565b5b610a7d8254610884565b610a888282856109c8565b5f60209050601f831160018114610ab9575f8415610aa7578287015190505b610ab18582610a36565b865550610b18565b601f198416610ac7866108b4565b5f5b82811015610aee57848901518255600182019150602085019450602081019050610ac9565b86831015610b0b5784890151610b07601f891682610a1a565b8355505b6001600288020188555050505b505050505050565b7f4e487b71000000000000000000000000000000000000000000000000000000005f52603260045260245ffdfea26469706673582212201b0225b7604a00c1fb82caa3e2ca7eb2c91556bf0fc4630f367fcbbacf757c1864736f6c63430008180033",
					"opcodes": "PUSH1 0x80 PUSH1 0x40 MSTORE CALLVALUE DUP1 ISZERO PUSH2 0xF JUMPI PUSH0 DUP1 REVERT JUMPDEST POP PUSH2 0xB83 DUP1 PUSH2 0x1D PUSH0 CODECOPY PUSH0 RETURN INVALID PUSH1 0x80 PUSH1 0x40 MSTORE CALLVALUE DUP1 ISZERO PUSH2 0xF JUMPI PUSH0 DUP1 REVERT JUMPDEST POP PUSH1 0x4 CALLDATASIZE LT PUSH2 0x4A JUMPI PUSH0 CALLDATALOAD PUSH1 0xE0 SHR DUP1 PUSH4 0x5A1B4A9 EQ PUSH2 0x4E JUMPI DUP1 PUSH4 0x1D6B664E EQ PUSH2 0x7E JUMPI DUP1 PUSH4 0x7C9CD2BC EQ PUSH2 0xAE JUMPI DUP1 PUSH4 0xC194EC1C EQ PUSH2 0xCA JUMPI JUMPDEST PUSH0 DUP1 REVERT JUMPDEST PUSH2 0x68 PUSH1 0x4 DUP1 CALLDATASIZE SUB DUP2 ADD SWAP1 PUSH2 0x63 SWAP2 SWAP1 PUSH2 0x4AE JUMP JUMPDEST PUSH2 0xFA JUMP JUMPDEST PUSH1 0x40 MLOAD PUSH2 0x75 SWAP2 SWAP1 PUSH2 0x576 JUMP JUMPDEST PUSH1 0x40 MLOAD DUP1 SWAP2 SUB SWAP1 RETURN JUMPDEST PUSH2 0x98 PUSH1 0x4 DUP1 CALLDATASIZE SUB DUP2 ADD SWAP1 PUSH2 0x93 SWAP2 SWAP1 PUSH2 0x596 JUMP JUMPDEST PUSH2 0x1AA JUMP JUMPDEST PUSH1 0x40 MLOAD PUSH2 0xA5 SWAP2 SWAP1 PUSH2 0x6C4 JUMP JUMPDEST PUSH1 0x40 MLOAD DUP1 SWAP2 SUB SWAP1 RETURN JUMPDEST PUSH2 0xC8 PUSH1 0x4 DUP1 CALLDATASIZE SUB DUP2 ADD SWAP1 PUSH2 0xC3 SWAP2 SWAP1 PUSH2 0x810 JUMP JUMPDEST PUSH2 0x2BA JUMP JUMPDEST STOP JUMPDEST PUSH2 0xE4 PUSH1 0x4 DUP1 CALLDATASIZE SUB DUP2 ADD SWAP1 PUSH2 0xDF SWAP2 SWAP1 PUSH2 0x4AE JUMP JUMPDEST PUSH2 0x329 JUMP JUMPDEST PUSH1 0x40 MLOAD PUSH2 0xF1 SWAP2 SWAP1 PUSH2 0x576 JUMP JUMPDEST PUSH1 0x40 MLOAD DUP1 SWAP2 SUB SWAP1 RETURN JUMPDEST PUSH0 PUSH1 0x20 MSTORE DUP2 PUSH0 MSTORE PUSH1 0x40 PUSH0 KECCAK256 DUP2 DUP2 SLOAD DUP2 LT PUSH2 0x112 JUMPI PUSH0 DUP1 REVERT JUMPDEST SWAP1 PUSH0 MSTORE PUSH1 0x20 PUSH0 KECCAK256 ADD PUSH0 SWAP2 POP SWAP2 POP POP DUP1 SLOAD PUSH2 0x12B SWAP1 PUSH2 0x884 JUMP JUMPDEST DUP1 PUSH1 0x1F ADD PUSH1 0x20 DUP1 SWAP2 DIV MUL PUSH1 0x20 ADD PUSH1 0x40 MLOAD SWAP1 DUP2 ADD PUSH1 0x40 MSTORE DUP1 SWAP3 SWAP2 SWAP1 DUP2 DUP2 MSTORE PUSH1 0x20 ADD DUP3 DUP1 SLOAD PUSH2 0x157 SWAP1 PUSH2 0x884 JUMP JUMPDEST DUP1 ISZERO PUSH2 0x1A2 JUMPI DUP1 PUSH1 0x1F LT PUSH2 0x179 JUMPI PUSH2 0x100 DUP1 DUP4 SLOAD DIV MUL DUP4 MSTORE SWAP2 PUSH1 0x20 ADD SWAP2 PUSH2 0x1A2 JUMP JUMPDEST DUP3 ADD SWAP2 SWAP1 PUSH0 MSTORE PUSH1 0x20 PUSH0 KECCAK256 SWAP1 JUMPDEST DUP2 SLOAD DUP2 MSTORE SWAP1 PUSH1 0x1 ADD SWAP1 PUSH1 0x20 ADD DUP1 DUP4 GT PUSH2 0x185 JUMPI DUP3 SWAP1 SUB PUSH1 0x1F AND DUP3 ADD SWAP2 JUMPDEST POP POP POP POP POP DUP2 JUMP JUMPDEST PUSH1 0x60 PUSH0 DUP1 DUP4 PUSH20 0xFFFFFFFFFFFFFFFFFFFFFFFFFFFFFFFFFFFFFFFF AND PUSH20 0xFFFFFFFFFFFFFFFFFFFFFFFFFFFFFFFFFFFFFFFF AND DUP2 MSTORE PUSH1 0x20 ADD SWAP1 DUP2 MSTORE PUSH1 0x20 ADD PUSH0 KECCAK256 DUP1 SLOAD DUP1 PUSH1 0x20 MUL PUSH1 0x20 ADD PUSH1 0x40 MLOAD SWAP1 DUP2 ADD PUSH1 0x40 MSTORE DUP1 SWAP3 SWAP2 SWAP1 DUP2 DUP2 MSTORE PUSH1 0x20 ADD PUSH0 SWAP1 JUMPDEST DUP3 DUP3 LT ISZERO PUSH2 0x2AF JUMPI DUP4 DUP3 SWAP1 PUSH0 MSTORE PUSH1 0x20 PUSH0 KECCAK256 ADD DUP1 SLOAD PUSH2 0x224 SWAP1 PUSH2 0x884 JUMP JUMPDEST DUP1 PUSH1 0x1F ADD PUSH1 0x20 DUP1 SWAP2 DIV MUL PUSH1 0x20 ADD PUSH1 0x40 MLOAD SWAP1 DUP2 ADD PUSH1 0x40 MSTORE DUP1 SWAP3 SWAP2 SWAP1 DUP2 DUP2 MSTORE PUSH1 0x20 ADD DUP3 DUP1 SLOAD PUSH2 0x250 SWAP1 PUSH2 0x884 JUMP JUMPDEST DUP1 ISZERO PUSH2 0x29B JUMPI DUP1 PUSH1 0x1F LT PUSH2 0x272 JUMPI PUSH2 0x100 DUP1 DUP4 SLOAD DIV MUL DUP4 MSTORE SWAP2 PUSH1 0x20 ADD SWAP2 PUSH2 0x29B JUMP JUMPDEST DUP3 ADD SWAP2 SWAP1 PUSH0 MSTORE PUSH1 0x20 PUSH0 KECCAK256 SWAP1 JUMPDEST DUP2 SLOAD DUP2 MSTORE SWAP1 PUSH1 0x1 ADD SWAP1 PUSH1 0x20 ADD DUP1 DUP4 GT PUSH2 0x27E JUMPI DUP3 SWAP1 SUB PUSH1 0x1F AND DUP3 ADD SWAP2 JUMPDEST POP POP POP POP POP DUP2 MSTORE PUSH1 0x20 ADD SWAP1 PUSH1 0x1 ADD SWAP1 PUSH2 0x207 JUMP JUMPDEST POP POP POP POP SWAP1 POP SWAP2 SWAP1 POP JUMP JUMPDEST PUSH0 DUP1 CALLER PUSH20 0xFFFFFFFFFFFFFFFFFFFFFFFFFFFFFFFFFFFFFFFF AND PUSH20 0xFFFFFFFFFFFFFFFFFFFFFFFFFFFFFFFFFFFFFFFF AND DUP2 MSTORE PUSH1 0x20 ADD SWAP1 DUP2 MSTORE PUSH1 0x20 ADD PUSH0 KECCAK256 DUP2 SWAP1 DUP1 PUSH1 0x1 DUP2 SLOAD ADD DUP1 DUP3 SSTORE DUP1 SWAP2 POP POP PUSH1 0x1 SWAP1 SUB SWAP1 PUSH0 MSTORE PUSH1 0x20 PUSH0 KECCAK256 ADD PUSH0 SWAP1 SWAP2 SWAP1 SWAP2 SWAP1 SWAP2 POP SWAP1 DUP2 PUSH2 0x325 SWAP2 SWAP1 PUSH2 0xA51 JUMP JUMPDEST POP POP JUMP JUMPDEST PUSH1 0x60 PUSH0 DUP1 DUP5 PUSH20 0xFFFFFFFFFFFFFFFFFFFFFFFFFFFFFFFFFFFFFFFF AND PUSH20 0xFFFFFFFFFFFFFFFFFFFFFFFFFFFFFFFFFFFFFFFF AND DUP2 MSTORE PUSH1 0x20 ADD SWAP1 DUP2 MSTORE PUSH1 0x20 ADD PUSH0 KECCAK256 DUP3 DUP2 SLOAD DUP2 LT PUSH2 0x379 JUMPI PUSH2 0x378 PUSH2 0xB20 JUMP JUMPDEST JUMPDEST SWAP1 PUSH0 MSTORE PUSH1 0x20 PUSH0 KECCAK256 ADD DUP1 SLOAD PUSH2 0x38C SWAP1 PUSH2 0x884 JUMP JUMPDEST DUP1 PUSH1 0x1F ADD PUSH1 0x20 DUP1 SWAP2 DIV MUL PUSH1 0x20 ADD PUSH1 0x40 MLOAD SWAP1 DUP2 ADD PUSH1 0x40 MSTORE DUP1 SWAP3 SWAP2 SWAP1 DUP2 DUP2 MSTORE PUSH1 0x20 ADD DUP3 DUP1 SLOAD PUSH2 0x3B8 SWAP1 PUSH2 0x884 JUMP JUMPDEST DUP1 ISZERO PUSH2 0x403 JUMPI DUP1 PUSH1 0x1F LT PUSH2 0x3DA JUMPI PUSH2 0x100 DUP1 DUP4 SLOAD DIV MUL DUP4 MSTORE SWAP2 PUSH1 0x20 ADD SWAP2 PUSH2 0x403 JUMP JUMPDEST DUP3 ADD SWAP2 SWAP1 PUSH0 MSTORE PUSH1 0x20 PUSH0 KECCAK256 SWAP1 JUMPDEST DUP2 SLOAD DUP2 MSTORE SWAP1 PUSH1 0x1 ADD SWAP1 PUSH1 0x20 ADD DUP1 DUP4 GT PUSH2 0x3E6 JUMPI DUP3 SWAP1 SUB PUSH1 0x1F AND DUP3 ADD SWAP2 JUMPDEST POP POP POP POP POP SWAP1 POP SWAP3 SWAP2 POP POP JUMP JUMPDEST PUSH0 PUSH1 0x40 MLOAD SWAP1 POP SWAP1 JUMP JUMPDEST PUSH0 DUP1 REVERT JUMPDEST PUSH0 DUP1 REVERT JUMPDEST PUSH0 PUSH20 0xFFFFFFFFFFFFFFFFFFFFFFFFFFFFFFFFFFFFFFFF DUP3 AND SWAP1 POP SWAP2 SWAP1 POP JUMP JUMPDEST PUSH0 PUSH2 0x44A DUP3 PUSH2 0x421 JUMP JUMPDEST SWAP1 POP SWAP2 SWAP1 POP JUMP JUMPDEST PUSH2 0x45A DUP2 PUSH2 0x440 JUMP JUMPDEST DUP2 EQ PUSH2 0x464 JUMPI PUSH0 DUP1 REVERT JUMPDEST POP JUMP JUMPDEST PUSH0 DUP2 CALLDATALOAD SWAP1 POP PUSH2 0x475 DUP2 PUSH2 0x451 JUMP JUMPDEST SWAP3 SWAP2 POP POP JUMP JUMPDEST PUSH0 DUP2 SWAP1 POP SWAP2 SWAP1 POP JUMP JUMPDEST PUSH2 0x48D DUP2 PUSH2 0x47B JUMP JUMPDEST DUP2 EQ PUSH2 0x497 JUMPI PUSH0 DUP1 REVERT JUMPDEST POP JUMP JUMPDEST PUSH0 DUP2 CALLDATALOAD SWAP1 POP PUSH2 0x4A8 DUP2 PUSH2 0x484 JUMP JUMPDEST SWAP3 SWAP2 POP POP JUMP JUMPDEST PUSH0 DUP1 PUSH1 0x40 DUP4 DUP6 SUB SLT ISZERO PUSH2 0x4C4 JUMPI PUSH2 0x4C3 PUSH2 0x419 JUMP JUMPDEST JUMPDEST PUSH0 PUSH2 0x4D1 DUP6 DUP3 DUP7 ADD PUSH2 0x467 JUMP JUMPDEST SWAP3 POP POP PUSH1 0x20 PUSH2 0x4E2 DUP6 DUP3 DUP7 ADD PUSH2 0x49A JUMP JUMPDEST SWAP2 POP POP SWAP3 POP SWAP3 SWAP1 POP JUMP JUMPDEST PUSH0 DUP2 MLOAD SWAP1 POP SWAP2 SWAP1 POP JUMP JUMPDEST PUSH0 DUP3 DUP3 MSTORE PUSH1 0x20 DUP3 ADD SWAP1 POP SWAP3 SWAP2 POP POP JUMP JUMPDEST PUSH0 JUMPDEST DUP4 DUP2 LT ISZERO PUSH2 0x523 JUMPI DUP1 DUP3 ADD MLOAD DUP2 DUP5 ADD MSTORE PUSH1 0x20 DUP2 ADD SWAP1 POP PUSH2 0x508 JUMP JUMPDEST PUSH0 DUP5 DUP5 ADD MSTORE POP POP POP POP JUMP JUMPDEST PUSH0 PUSH1 0x1F NOT PUSH1 0x1F DUP4 ADD AND SWAP1 POP SWAP2 SWAP1 POP JUMP JUMPDEST PUSH0 PUSH2 0x548 DUP3 PUSH2 0x4EC JUMP JUMPDEST PUSH2 0x552 DUP2 DUP6 PUSH2 0x4F6 JUMP JUMPDEST SWAP4 POP PUSH2 0x562 DUP2 DUP6 PUSH1 0x20 DUP7 ADD PUSH2 0x506 JUMP JUMPDEST PUSH2 0x56B DUP2 PUSH2 0x52E JUMP JUMPDEST DUP5 ADD SWAP2 POP POP SWAP3 SWAP2 POP POP JUMP JUMPDEST PUSH0 PUSH1 0x20 DUP3 ADD SWAP1 POP DUP2 DUP2 SUB PUSH0 DUP4 ADD MSTORE PUSH2 0x58E DUP2 DUP5 PUSH2 0x53E JUMP JUMPDEST SWAP1 POP SWAP3 SWAP2 POP POP JUMP JUMPDEST PUSH0 PUSH1 0x20 DUP3 DUP5 SUB SLT ISZERO PUSH2 0x5AB JUMPI PUSH2 0x5AA PUSH2 0x419 JUMP JUMPDEST JUMPDEST PUSH0 PUSH2 0x5B8 DUP5 DUP3 DUP6 ADD PUSH2 0x467 JUMP JUMPDEST SWAP2 POP POP SWAP3 SWAP2 POP POP JUMP JUMPDEST PUSH0 DUP2 MLOAD SWAP1 POP SWAP2 SWAP1 POP JUMP JUMPDEST PUSH0 DUP3 DUP3 MSTORE PUSH1 0x20 DUP3 ADD SWAP1 POP SWAP3 SWAP2 POP POP JUMP JUMPDEST PUSH0 DUP2 SWAP1 POP PUSH1 0x20 DUP3 ADD SWAP1 POP SWAP2 SWAP1 POP JUMP JUMPDEST PUSH0 DUP3 DUP3 MSTORE PUSH1 0x20 DUP3 ADD SWAP1 POP SWAP3 SWAP2 POP POP JUMP JUMPDEST PUSH0 PUSH2 0x604 DUP3 PUSH2 0x4EC JUMP JUMPDEST PUSH2 0x60E DUP2 DUP6 PUSH2 0x5EA JUMP JUMPDEST SWAP4 POP PUSH2 0x61E DUP2 DUP6 PUSH1 0x20 DUP7 ADD PUSH2 0x506 JUMP JUMPDEST PUSH2 0x627 DUP2 PUSH2 0x52E JUMP JUMPDEST DUP5 ADD SWAP2 POP POP SWAP3 SWAP2 POP POP JUMP JUMPDEST PUSH0 PUSH2 0x63D DUP4 DUP4 PUSH2 0x5FA JUMP JUMPDEST SWAP1 POP SWAP3 SWAP2 POP POP JUMP JUMPDEST PUSH0 PUSH1 0x20 DUP3 ADD SWAP1 POP SWAP2 SWAP1 POP JUMP JUMPDEST PUSH0 PUSH2 0x65B DUP3 PUSH2 0x5C1 JUMP JUMPDEST PUSH2 0x665 DUP2 DUP6 PUSH2 0x5CB JUMP JUMPDEST SWAP4 POP DUP4 PUSH1 0x20 DUP3 MUL DUP6 ADD PUSH2 0x677 DUP6 PUSH2 0x5DB JUMP JUMPDEST DUP1 PUSH0 JUMPDEST DUP6 DUP2 LT ISZERO PUSH2 0x6B2 JUMPI DUP5 DUP5 SUB DUP10 MSTORE DUP2 MLOAD PUSH2 0x693 DUP6 DUP3 PUSH2 0x632 JUMP JUMPDEST SWAP5 POP PUSH2 0x69E DUP4 PUSH2 0x645 JUMP JUMPDEST SWAP3 POP PUSH1 0x20 DUP11 ADD SWAP10 POP POP PUSH1 0x1 DUP2 ADD SWAP1 POP PUSH2 0x67A JUMP JUMPDEST POP DUP3 SWAP8 POP DUP8 SWAP6 POP POP POP POP POP POP SWAP3 SWAP2 POP POP JUMP JUMPDEST PUSH0 PUSH1 0x20 DUP3 ADD SWAP1 POP DUP2 DUP2 SUB PUSH0 DUP4 ADD MSTORE PUSH2 0x6DC DUP2 DUP5 PUSH2 0x651 JUMP JUMPDEST SWAP1 POP SWAP3 SWAP2 POP POP JUMP JUMPDEST PUSH0 DUP1 REVERT JUMPDEST PUSH0 DUP1 REVERT JUMPDEST PUSH32 0x4E487B7100000000000000000000000000000000000000000000000000000000 PUSH0 MSTORE PUSH1 0x41 PUSH1 0x4 MSTORE PUSH1 0x24 PUSH0 REVERT JUMPDEST PUSH2 0x722 DUP3 PUSH2 0x52E JUMP JUMPDEST DUP2 ADD DUP2 DUP2 LT PUSH8 0xFFFFFFFFFFFFFFFF DUP3 GT OR ISZERO PUSH2 0x741 JUMPI PUSH2 0x740 PUSH2 0x6EC JUMP JUMPDEST JUMPDEST DUP1 PUSH1 0x40 MSTORE POP POP POP JUMP JUMPDEST PUSH0 PUSH2 0x753 PUSH2 0x410 JUMP JUMPDEST SWAP1 POP PUSH2 0x75F DUP3 DUP3 PUSH2 0x719 JUMP JUMPDEST SWAP2 SWAP1 POP JUMP JUMPDEST PUSH0 PUSH8 0xFFFFFFFFFFFFFFFF DUP3 GT ISZERO PUSH2 0x77E JUMPI PUSH2 0x77D PUSH2 0x6EC JUMP JUMPDEST JUMPDEST PUSH2 0x787 DUP3 PUSH2 0x52E JUMP JUMPDEST SWAP1 POP PUSH1 0x20 DUP2 ADD SWAP1 POP SWAP2 SWAP1 POP JUMP JUMPDEST DUP3 DUP2 DUP4 CALLDATACOPY PUSH0 DUP4 DUP4 ADD MSTORE POP POP POP JUMP JUMPDEST PUSH0 PUSH2 0x7B4 PUSH2 0x7AF DUP5 PUSH2 0x764 JUMP JUMPDEST PUSH2 0x74A JUMP JUMPDEST SWAP1 POP DUP3 DUP2 MSTORE PUSH1 0x20 DUP2 ADD DUP5 DUP5 DUP5 ADD GT ISZERO PUSH2 0x7D0 JUMPI PUSH2 0x7CF PUSH2 0x6E8 JUMP JUMPDEST JUMPDEST PUSH2 0x7DB DUP5 DUP3 DUP6 PUSH2 0x794 JUMP JUMPDEST POP SWAP4 SWAP3 POP POP POP JUMP JUMPDEST PUSH0 DUP3 PUSH1 0x1F DUP4 ADD SLT PUSH2 0x7F7 JUMPI PUSH2 0x7F6 PUSH2 0x6E4 JUMP JUMPDEST JUMPDEST DUP2 CALLDATALOAD PUSH2 0x807 DUP5 DUP3 PUSH1 0x20 DUP7 ADD PUSH2 0x7A2 JUMP JUMPDEST SWAP2 POP POP SWAP3 SWAP2 POP POP JUMP JUMPDEST PUSH0 PUSH1 0x20 DUP3 DUP5 SUB SLT ISZERO PUSH2 0x825 JUMPI PUSH2 0x824 PUSH2 0x419 JUMP JUMPDEST JUMPDEST PUSH0 DUP3 ADD CALLDATALOAD PUSH8 0xFFFFFFFFFFFFFFFF DUP2 GT ISZERO PUSH2 0x842 JUMPI PUSH2 0x841 PUSH2 0x41D JUMP JUMPDEST JUMPDEST PUSH2 0x84E DUP5 DUP3 DUP6 ADD PUSH2 0x7E3 JUMP JUMPDEST SWAP2 POP POP SWAP3 SWAP2 POP POP JUMP JUMPDEST PUSH32 0x4E487B7100000000000000000000000000000000000000000000000000000000 PUSH0 MSTORE PUSH1 0x22 PUSH1 0x4 MSTORE PUSH1 0x24 PUSH0 REVERT JUMPDEST PUSH0 PUSH1 0x2 DUP3 DIV SWAP1 POP PUSH1 0x1 DUP3 AND DUP1 PUSH2 0x89B JUMPI PUSH1 0x7F DUP3 AND SWAP2 POP JUMPDEST PUSH1 0x20 DUP3 LT DUP2 SUB PUSH2 0x8AE JUMPI PUSH2 0x8AD PUSH2 0x857 JUMP JUMPDEST JUMPDEST POP SWAP2 SWAP1 POP JUMP JUMPDEST PUSH0 DUP2 SWAP1 POP DUP2 PUSH0 MSTORE PUSH1 0x20 PUSH0 KECCAK256 SWAP1 POP SWAP2 SWAP1 POP JUMP JUMPDEST PUSH0 PUSH1 0x20 PUSH1 0x1F DUP4 ADD DIV SWAP1 POP SWAP2 SWAP1 POP JUMP JUMPDEST PUSH0 DUP3 DUP3 SHL SWAP1 POP SWAP3 SWAP2 POP POP JUMP JUMPDEST PUSH0 PUSH1 0x8 DUP4 MUL PUSH2 0x910 PUSH32 0xFFFFFFFFFFFFFFFFFFFFFFFFFFFFFFFFFFFFFFFFFFFFFFFFFFFFFFFFFFFFFFFF DUP3 PUSH2 0x8D5 JUMP JUMPDEST PUSH2 0x91A DUP7 DUP4 PUSH2 0x8D5 JUMP JUMPDEST SWAP6 POP DUP1 NOT DUP5 AND SWAP4 POP DUP1 DUP7 AND DUP5 OR SWAP3 POP POP POP SWAP4 SWAP3 POP POP POP JUMP JUMPDEST PUSH0 DUP2 SWAP1 POP SWAP2 SWAP1 POP JUMP JUMPDEST PUSH0 PUSH2 0x955 PUSH2 0x950 PUSH2 0x94B DUP5 PUSH2 0x47B JUMP JUMPDEST PUSH2 0x932 JUMP JUMPDEST PUSH2 0x47B JUMP JUMPDEST SWAP1 POP SWAP2 SWAP1 POP JUMP JUMPDEST PUSH0 DUP2 SWAP1 POP SWAP2 SWAP1 POP JUMP JUMPDEST PUSH2 0x96E DUP4 PUSH2 0x93B JUMP JUMPDEST PUSH2 0x982 PUSH2 0x97A DUP3 PUSH2 0x95C JUMP JUMPDEST DUP5 DUP5 SLOAD PUSH2 0x8E1 JUMP JUMPDEST DUP3 SSTORE POP POP POP POP JUMP JUMPDEST PUSH0 SWAP1 JUMP JUMPDEST PUSH2 0x996 PUSH2 0x98A JUMP JUMPDEST PUSH2 0x9A1 DUP2 DUP5 DUP5 PUSH2 0x965 JUMP JUMPDEST POP POP POP JUMP JUMPDEST JUMPDEST DUP2 DUP2 LT ISZERO PUSH2 0x9C4 JUMPI PUSH2 0x9B9 PUSH0 DUP3 PUSH2 0x98E JUMP JUMPDEST PUSH1 0x1 DUP2 ADD SWAP1 POP PUSH2 0x9A7 JUMP JUMPDEST POP POP JUMP JUMPDEST PUSH1 0x1F DUP3 GT ISZERO PUSH2 0xA09 JUMPI PUSH2 0x9DA DUP2 PUSH2 0x8B4 JUMP JUMPDEST PUSH2 0x9E3 DUP5 PUSH2 0x8C6 JUMP JUMPDEST DUP2 ADD PUSH1 0x20 DUP6 LT ISZERO PUSH2 0x9F2 JUMPI DUP2 SWAP1 POP JUMPDEST PUSH2 0xA06 PUSH2 0x9FE DUP6 PUSH2 0x8C6 JUMP JUMPDEST DUP4 ADD DUP3 PUSH2 0x9A6 JUMP JUMPDEST POP POP JUMPDEST POP POP POP JUMP JUMPDEST PUSH0 DUP3 DUP3 SHR SWAP1 POP SWAP3 SWAP2 POP POP JUMP JUMPDEST PUSH0 PUSH2 0xA29 PUSH0 NOT DUP5 PUSH1 0x8 MUL PUSH2 0xA0E JUMP JUMPDEST NOT DUP1 DUP4 AND SWAP2 POP POP SWAP3 SWAP2 POP POP JUMP JUMPDEST PUSH0 PUSH2 0xA41 DUP4 DUP4 PUSH2 0xA1A JUMP JUMPDEST SWAP2 POP DUP3 PUSH1 0x2 MUL DUP3 OR SWAP1 POP SWAP3 SWAP2 POP POP JUMP JUMPDEST PUSH2 0xA5A DUP3 PUSH2 0x4EC JUMP JUMPDEST PUSH8 0xFFFFFFFFFFFFFFFF DUP2 GT ISZERO PUSH2 0xA73 JUMPI PUSH2 0xA72 PUSH2 0x6EC JUMP JUMPDEST JUMPDEST PUSH2 0xA7D DUP3 SLOAD PUSH2 0x884 JUMP JUMPDEST PUSH2 0xA88 DUP3 DUP3 DUP6 PUSH2 0x9C8 JUMP JUMPDEST PUSH0 PUSH1 0x20 SWAP1 POP PUSH1 0x1F DUP4 GT PUSH1 0x1 DUP2 EQ PUSH2 0xAB9 JUMPI PUSH0 DUP5 ISZERO PUSH2 0xAA7 JUMPI DUP3 DUP8 ADD MLOAD SWAP1 POP JUMPDEST PUSH2 0xAB1 DUP6 DUP3 PUSH2 0xA36 JUMP JUMPDEST DUP7 SSTORE POP PUSH2 0xB18 JUMP JUMPDEST PUSH1 0x1F NOT DUP5 AND PUSH2 0xAC7 DUP7 PUSH2 0x8B4 JUMP JUMPDEST PUSH0 JUMPDEST DUP3 DUP2 LT ISZERO PUSH2 0xAEE JUMPI DUP5 DUP10 ADD MLOAD DUP3 SSTORE PUSH1 0x1 DUP3 ADD SWAP2 POP PUSH1 0x20 DUP6 ADD SWAP5 POP PUSH1 0x20 DUP2 ADD SWAP1 POP PUSH2 0xAC9 JUMP JUMPDEST DUP7 DUP4 LT ISZERO PUSH2 0xB0B JUMPI DUP5 DUP10 ADD MLOAD PUSH2 0xB07 PUSH1 0x1F DUP10 AND DUP3 PUSH2 0xA1A JUMP JUMPDEST DUP4 SSTORE POP JUMPDEST PUSH1 0x1 PUSH1 0x2 DUP9 MUL ADD DUP9 SSTORE POP POP POP JUMPDEST POP POP POP POP POP POP JUMP JUMPDEST PUSH32 0x4E487B7100000000000000000000000000000000000000000000000000000000 PUSH0 MSTORE PUSH1 0x32 PUSH1 0x4 MSTORE PUSH1 0x24 PUSH0 REVERT INVALID LOG2 PUSH5 0x6970667358 0x22 SLT KECCAK256 SHL MUL 0x25 0xB7 PUSH1 0x4A STOP 0xC1 0xFB DUP3 0xCA LOG3 0xE2 0xCA PUSH31 0xB2C91556BF0FC4630F367FCBBACF757C1864736F6C63430008180033000000 "
				},
				"gasEstimates": {
					"creation": {
						"codeDepositCost": "589400",
						"executionCost": "623",
						"totalCost": "590023"
					},
					"external": {
						"createTweet(string)": "infinite",
						"getTweet(address)": "infinite",
						"getoneTweet(address,uint256)": "infinite",
						"tweets(address,uint256)": "infinite"
					}
				},
				"methodIdentifiers": {
					"createTweet(string)": "7c9cd2bc",
					"getTweet(address)": "1d6b664e",
					"getoneTweet(address,uint256)": "c194ec1c",
					"tweets(address,uint256)": "05a1b4a9"
				}
			},
			"storageLayout": {
				"storage": [
					{
						"astId": 6,
						"contract": "2-BasicTwitter.sol:Twitter",
						"label": "tweets",
						"offset": 0,
						"slot": "0",
						"type": "t_mapping(t_address,t_array(t_string_storage)dyn_storage)"
					}
				],
				"types": {
					"t_address": {
						"encoding": "inplace",
						"label": "address",
						"numberOfBytes": "20"
					},
					"t_array(t_string_storage)dyn_storage": {
						"base": "t_string_storage",
						"encoding": "dynamic_array",
						"label": "string[]",
						"numberOfBytes": "32"
					},
					"t_mapping(t_address,t_array(t_string_storage)dyn_storage)": {
						"encoding": "mapping",
						"key": "t_address",
						"label": "mapping(address => string[])",
						"numberOfBytes": "32",
						"value": "t_array(t_string_storage)dyn_storage"
					},
					"t_string_storage": {
						"encoding": "bytes",
						"label": "string",
						"numberOfBytes": "32"
					}
				}
			},
			"userdoc": {
				"kind": "user",
				"methods": {},
				"version": 1
			}
		}
	}
}