{
	"3-Twitter-Struct.sol": {
		"Twitter": {
			"abi": [
				{
					"inputs": [
						{
							"internalType": "string",
							"name": "_tweet",
							"type": "string"
						}
					],
					"name": "createTweet",
					"outputs": [],
					"stateMutability": "nonpayable",
					"type": "function"
				},
				{
					"inputs": [
						{
							"internalType": "address",
							"name": "_owner",
							"type": "address"
						}
					],
					"name": "getAllTweets",
					"outputs": [
						{
							"components": [
								{
									"internalType": "address",
									"name": "author",
									"type": "address"
								},
								{
									"internalType": "string",
									"name": "content",
									"type": "string"
								},
								{
									"internalType": "uint256",
									"name": "timestamp",
									"type": "uint256"
								},
								{
									"internalType": "uint256",
									"name": "likes",
									"type": "uint256"
								}
							],
							"internalType": "struct Twitter.Tweet[]",
							"name": "",
							"type": "tuple[]"
						}
					],
					"stateMutability": "view",
					"type": "function"
				},
				{
					"inputs": [
						{
							"internalType": "address",
							"name": "_owner",
							"type": "address"
						},
						{
							"internalType": "uint256",
							"name": "_i",
							"type": "uint256"
						}
					],
					"name": "getTweet",
					"outputs": [
						{
							"components": [
								{
									"internalType": "address",
									"name": "author",
									"type": "address"
								},
								{
									"internalType": "string",
									"name": "content",
									"type": "string"
								},
								{
									"internalType": "uint256",
									"name": "timestamp",
									"type": "uint256"
								},
								{
									"internalType": "uint256",
									"name": "likes",
									"type": "uint256"
								}
							],
							"internalType": "struct Twitter.Tweet",
							"name": "",
							"type": "tuple"
						}
					],
					"stateMutability": "view",
					"type": "function"
				},
				{
					"inputs": [
						{
							"internalType": "address",
							"name": "",
							"type": "address"
						},
						{
							"internalType": "uint256",
							"name": "",
							"type": "uint256"
						}
					],
					"name": "tweets",
					"outputs": [
						{
							"internalType": "address",
							"name": "author",
							"type": "address"
						},
						{
							"internalType": "string",
							"name": "content",
							"type": "string"
						},
						{
							"internalType": "uint256",
							"name": "timestamp",
							"type": "uint256"
						},
						{
							"internalType": "uint256",
							"name": "likes",
							"type": "uint256"
						}
					],
					"stateMutability": "view",
					"type": "function"
				}
			],
			"devdoc": {
				"kind": "dev",
				"methods": {},
				"version": 1
			},
			"evm": {
				"assembly": "    /* \"3-Twitter-Struct.sol\":195:1004  contract Twitter {... */\n  mstore(0x40, 0x80)\n  callvalue\n  dup1\n  iszero\n  tag_1\n  jumpi\n  0x00\n  dup1\n  revert\ntag_1:\n  pop\n  dataSize(sub_0)\n  dup1\n  dataOffset(sub_0)\n  0x00\n  codecopy\n  0x00\n  return\nstop\n\nsub_0: assembly {\n        /* \"3-Twitter-Struct.sol\":195:1004  contract Twitter {... */\n      mstore(0x40, 0x80)\n      callvalue\n      dup1\n      iszero\n      tag_1\n      jumpi\n      0x00\n      dup1\n      revert\n    tag_1:\n      pop\n      jumpi(tag_2, lt(calldatasize, 0x04))\n      shr(0xe0, calldataload(0x00))\n      dup1\n      0x05a1b4a9\n      eq\n      tag_3\n      jumpi\n      dup1\n      0x112f54e3\n      eq\n      tag_4\n      jumpi\n      dup1\n      0x12e7ee1c\n      eq\n      tag_5\n      jumpi\n      dup1\n      0x7c9cd2bc\n      eq\n      tag_6\n      jumpi\n    tag_2:\n      0x00\n      dup1\n      revert\n        /* \"3-Twitter-Struct.sol\":392:434  mapping(address => Tweet[] ) public tweets */\n    tag_3:\n      tag_7\n      0x04\n      dup1\n      calldatasize\n      sub\n      dup2\n      add\n      swap1\n      tag_8\n      swap2\n      swap1\n      tag_9\n      jump\t// in\n    tag_8:\n      tag_10\n      jump\t// in\n    tag_7:\n      mload(0x40)\n      tag_11\n      swap5\n      swap4\n      swap3\n      swap2\n      swap1\n      tag_12\n      jump\t// in\n    tag_11:\n      mload(0x40)\n      dup1\n      swap2\n      sub\n      swap1\n      return\n        /* \"3-Twitter-Struct.sol\":754:876  function getTweet(address _owner, uint _i) public view returns (Tweet memory) {... */\n    tag_4:\n      tag_13\n      0x04\n      dup1\n      calldatasize\n      sub\n      dup2\n      add\n      swap1\n      tag_14\n      swap2\n      swap1\n      tag_9\n      jump\t// in\n    tag_14:\n      tag_15\n      jump\t// in\n    tag_13:\n      mload(0x40)\n      tag_16\n      swap2\n      swap1\n      tag_17\n      jump\t// in\n    tag_16:\n      mload(0x40)\n      dup1\n      swap2\n      sub\n      swap1\n      return\n        /* \"3-Twitter-Struct.sol\":884:999  function getAllTweets(address _owner) public view returns (Tweet[] memory ){... */\n    tag_5:\n      tag_18\n      0x04\n      dup1\n      calldatasize\n      sub\n      dup2\n      add\n      swap1\n      tag_19\n      swap2\n      swap1\n      tag_20\n      jump\t// in\n    tag_19:\n      tag_21\n      jump\t// in\n    tag_18:\n      mload(0x40)\n      tag_22\n      swap2\n      swap1\n      tag_23\n      jump\t// in\n    tag_22:\n      mload(0x40)\n      dup1\n      swap2\n      sub\n      swap1\n      return\n        /* \"3-Twitter-Struct.sol\":443:746  function createTweet(string memory _tweet) public {... */\n    tag_6:\n      tag_24\n      0x04\n      dup1\n      calldatasize\n      sub\n      dup2\n      add\n      swap1\n      tag_25\n      swap2\n      swap1\n      tag_26\n      jump\t// in\n    tag_25:\n      tag_27\n      jump\t// in\n    tag_24:\n      stop\n        /* \"3-Twitter-Struct.sol\":392:434  mapping(address => Tweet[] ) public tweets */\n    tag_10:\n      mstore(0x20, 0x00)\n      dup2\n      0x00\n      mstore\n      keccak256(0x00, 0x40)\n      dup2\n      dup2\n      sload\n      dup2\n      lt\n      tag_28\n      jumpi\n      0x00\n      dup1\n      revert\n    tag_28:\n      swap1\n      0x00\n      mstore\n      keccak256(0x00, 0x20)\n      swap1\n      0x04\n      mul\n      add\n      0x00\n      swap2\n      pop\n      swap2\n      pop\n      pop\n      dup1\n      0x00\n      add\n      0x00\n      swap1\n      sload\n      swap1\n      0x0100\n      exp\n      swap1\n      div\n      0xffffffffffffffffffffffffffffffffffffffff\n      and\n      swap1\n      dup1\n      0x01\n      add\n      dup1\n      sload\n      tag_30\n      swap1\n      tag_31\n      jump\t// in\n    tag_30:\n      dup1\n      0x1f\n      add\n      0x20\n      dup1\n      swap2\n      div\n      mul\n      0x20\n      add\n      mload(0x40)\n      swap1\n      dup2\n      add\n      0x40\n      mstore\n      dup1\n      swap3\n      swap2\n      swap1\n      dup2\n      dup2\n      mstore\n      0x20\n      add\n      dup3\n      dup1\n      sload\n      tag_32\n      swap1\n      tag_31\n      jump\t// in\n    tag_32:\n      dup1\n      iszero\n      tag_33\n      jumpi\n      dup1\n      0x1f\n      lt\n      tag_34\n      jumpi\n      0x0100\n      dup1\n      dup4\n      sload\n      div\n      mul\n      dup4\n      mstore\n      swap2\n      0x20\n      add\n      swap2\n      jump(tag_33)\n    tag_34:\n      dup3\n      add\n      swap2\n      swap1\n      0x00\n      mstore\n      keccak256(0x00, 0x20)\n      swap1\n    tag_35:\n      dup2\n      sload\n      dup2\n      mstore\n      swap1\n      0x01\n      add\n      swap1\n      0x20\n      add\n      dup1\n      dup4\n      gt\n      tag_35\n      jumpi\n      dup3\n      swap1\n      sub\n      0x1f\n      and\n      dup3\n      add\n      swap2\n    tag_33:\n      pop\n      pop\n      pop\n      pop\n      pop\n      swap1\n      dup1\n      0x02\n      add\n      sload\n      swap1\n      dup1\n      0x03\n      add\n      sload\n      swap1\n      pop\n      dup5\n      jump\t// out\n        /* \"3-Twitter-Struct.sol\":754:876  function getTweet(address _owner, uint _i) public view returns (Tweet memory) {... */\n    tag_15:\n        /* \"3-Twitter-Struct.sol\":818:830  Tweet memory */\n      tag_36\n      tag_37\n      jump\t// in\n    tag_36:\n        /* \"3-Twitter-Struct.sol\":850:856  tweets */\n      0x00\n        /* \"3-Twitter-Struct.sol\":850:864  tweets[_owner] */\n      dup1\n        /* \"3-Twitter-Struct.sol\":857:863  _owner */\n      dup5\n        /* \"3-Twitter-Struct.sol\":850:864  tweets[_owner] */\n      0xffffffffffffffffffffffffffffffffffffffff\n      and\n      0xffffffffffffffffffffffffffffffffffffffff\n      and\n      dup2\n      mstore\n      0x20\n      add\n      swap1\n      dup2\n      mstore\n      0x20\n      add\n      0x00\n      keccak256\n        /* \"3-Twitter-Struct.sol\":865:867  _i */\n      dup3\n        /* \"3-Twitter-Struct.sol\":850:868  tweets[_owner][_i] */\n      dup2\n      sload\n      dup2\n      lt\n      tag_39\n      jumpi\n      tag_40\n      tag_41\n      jump\t// in\n    tag_40:\n    tag_39:\n      swap1\n      0x00\n      mstore\n      keccak256(0x00, 0x20)\n      swap1\n      0x04\n      mul\n      add\n        /* \"3-Twitter-Struct.sol\":843:868  return tweets[_owner][_i] */\n      mload(0x40)\n      dup1\n      0x80\n      add\n      0x40\n      mstore\n      swap1\n      dup2\n      0x00\n      dup3\n      add\n      0x00\n      swap1\n      sload\n      swap1\n      0x0100\n      exp\n      swap1\n      div\n      0xffffffffffffffffffffffffffffffffffffffff\n      and\n      0xffffffffffffffffffffffffffffffffffffffff\n      and\n      0xffffffffffffffffffffffffffffffffffffffff\n      and\n      dup2\n      mstore\n      0x20\n      add\n      0x01\n      dup3\n      add\n      dup1\n      sload\n      tag_43\n      swap1\n      tag_31\n      jump\t// in\n    tag_43:\n      dup1\n      0x1f\n      add\n      0x20\n      dup1\n      swap2\n      div\n      mul\n      0x20\n      add\n      mload(0x40)\n      swap1\n      dup2\n      add\n      0x40\n      mstore\n      dup1\n      swap3\n      swap2\n      swap1\n      dup2\n      dup2\n      mstore\n      0x20\n      add\n      dup3\n      dup1\n      sload\n      tag_44\n      swap1\n      tag_31\n      jump\t// in\n    tag_44:\n      dup1\n      iszero\n      tag_45\n      jumpi\n      dup1\n      0x1f\n      lt\n      tag_46\n      jumpi\n      0x0100\n      dup1\n      dup4\n      sload\n      div\n      mul\n      dup4\n      mstore\n      swap2\n      0x20\n      add\n      swap2\n      jump(tag_45)\n    tag_46:\n      dup3\n      add\n      swap2\n      swap1\n      0x00\n      mstore\n      keccak256(0x00, 0x20)\n      swap1\n    tag_47:\n      dup2\n      sload\n      dup2\n      mstore\n      swap1\n      0x01\n      add\n      swap1\n      0x20\n      add\n      dup1\n      dup4\n      gt\n      tag_47\n      jumpi\n      dup3\n      swap1\n      sub\n      0x1f\n      and\n      dup3\n      add\n      swap2\n    tag_45:\n      pop\n      pop\n      pop\n      pop\n      pop\n      dup2\n      mstore\n      0x20\n      add\n      0x02\n      dup3\n      add\n      sload\n      dup2\n      mstore\n      0x20\n      add\n      0x03\n      dup3\n      add\n      sload\n      dup2\n      mstore\n      pop\n      pop\n      swap1\n      pop\n        /* \"3-Twitter-Struct.sol\":754:876  function getTweet(address _owner, uint _i) public view returns (Tweet memory) {... */\n      swap3\n      swap2\n      pop\n      pop\n      jump\t// out\n        /* \"3-Twitter-Struct.sol\":884:999  function getAllTweets(address _owner) public view returns (Tweet[] memory ){... */\n    tag_21:\n        /* \"3-Twitter-Struct.sol\":943:957  Tweet[] memory */\n      0x60\n        /* \"3-Twitter-Struct.sol\":977:983  tweets */\n      0x00\n        /* \"3-Twitter-Struct.sol\":977:991  tweets[_owner] */\n      dup1\n        /* \"3-Twitter-Struct.sol\":984:990  _owner */\n      dup4\n        /* \"3-Twitter-Struct.sol\":977:991  tweets[_owner] */\n      0xffffffffffffffffffffffffffffffffffffffff\n      and\n      0xffffffffffffffffffffffffffffffffffffffff\n      and\n      dup2\n      mstore\n      0x20\n      add\n      swap1\n      dup2\n      mstore\n      0x20\n      add\n      0x00\n      keccak256\n        /* \"3-Twitter-Struct.sol\":970:991  return tweets[_owner] */\n      dup1\n      sload\n      dup1\n      0x20\n      mul\n      0x20\n      add\n      mload(0x40)\n      swap1\n      dup2\n      add\n      0x40\n      mstore\n      dup1\n      swap3\n      swap2\n      swap1\n      dup2\n      dup2\n      mstore\n      0x20\n      add\n      0x00\n      swap1\n    tag_49:\n      dup3\n      dup3\n      lt\n      iszero\n      tag_50\n      jumpi\n      dup4\n      dup3\n      swap1\n      0x00\n      mstore\n      keccak256(0x00, 0x20)\n      swap1\n      0x04\n      mul\n      add\n      mload(0x40)\n      dup1\n      0x80\n      add\n      0x40\n      mstore\n      swap1\n      dup2\n      0x00\n      dup3\n      add\n      0x00\n      swap1\n      sload\n      swap1\n      0x0100\n      exp\n      swap1\n      div\n      0xffffffffffffffffffffffffffffffffffffffff\n      and\n      0xffffffffffffffffffffffffffffffffffffffff\n      and\n      0xffffffffffffffffffffffffffffffffffffffff\n      and\n      dup2\n      mstore\n      0x20\n      add\n      0x01\n      dup3\n      add\n      dup1\n      sload\n      tag_52\n      swap1\n      tag_31\n      jump\t// in\n    tag_52:\n      dup1\n      0x1f\n      add\n      0x20\n      dup1\n      swap2\n      div\n      mul\n      0x20\n      add\n      mload(0x40)\n      swap1\n      dup2\n      add\n      0x40\n      mstore\n      dup1\n      swap3\n      swap2\n      swap1\n      dup2\n      dup2\n      mstore\n      0x20\n      add\n      dup3\n      dup1\n      sload\n      tag_53\n      swap1\n      tag_31\n      jump\t// in\n    tag_53:\n      dup1\n      iszero\n      tag_54\n      jumpi\n      dup1\n      0x1f\n      lt\n      tag_55\n      jumpi\n      0x0100\n      dup1\n      dup4\n      sload\n      div\n      mul\n      dup4\n      mstore\n      swap2\n      0x20\n      add\n      swap2\n      jump(tag_54)\n    tag_55:\n      dup3\n      add\n      swap2\n      swap1\n      0x00\n      mstore\n      keccak256(0x00, 0x20)\n      swap1\n    tag_56:\n      dup2\n      sload\n      dup2\n      mstore\n      swap1\n      0x01\n      add\n      swap1\n      0x20\n      add\n      dup1\n      dup4\n      gt\n      tag_56\n      jumpi\n      dup3\n      swap1\n      sub\n      0x1f\n      and\n      dup3\n      add\n      swap2\n    tag_54:\n      pop\n      pop\n      pop\n      pop\n      pop\n      dup2\n      mstore\n      0x20\n      add\n      0x02\n      dup3\n      add\n      sload\n      dup2\n      mstore\n      0x20\n      add\n      0x03\n      dup3\n      add\n      sload\n      dup2\n      mstore\n      pop\n      pop\n      dup2\n      mstore\n      0x20\n      add\n      swap1\n      0x01\n      add\n      swap1\n      jump(tag_49)\n    tag_50:\n      pop\n      pop\n      pop\n      pop\n      swap1\n      pop\n        /* \"3-Twitter-Struct.sol\":884:999  function getAllTweets(address _owner) public view returns (Tweet[] memory ){... */\n      swap2\n      swap1\n      pop\n      jump\t// out\n        /* \"3-Twitter-Struct.sol\":443:746  function createTweet(string memory _tweet) public {... */\n    tag_27:\n        /* \"3-Twitter-Struct.sol\":504:525  Tweet memory newTweet */\n      0x00\n        /* \"3-Twitter-Struct.sol\":527:692  Tweet({... */\n      mload(0x40)\n      dup1\n      0x80\n      add\n      0x40\n      mstore\n      dup1\n        /* \"3-Twitter-Struct.sol\":556:566  msg.sender */\n      caller\n        /* \"3-Twitter-Struct.sol\":527:692  Tweet({... */\n      0xffffffffffffffffffffffffffffffffffffffff\n      and\n      dup2\n      mstore\n      0x20\n      add\n        /* \"3-Twitter-Struct.sol\":590:596  _tweet */\n      dup4\n        /* \"3-Twitter-Struct.sol\":527:692  Tweet({... */\n      dup2\n      mstore\n      0x20\n      add\n        /* \"3-Twitter-Struct.sol\":621:636  block.timestamp */\n      timestamp\n        /* \"3-Twitter-Struct.sol\":527:692  Tweet({... */\n      dup2\n      mstore\n      0x20\n      add\n        /* \"3-Twitter-Struct.sol\":658:659  0 */\n      0x00\n        /* \"3-Twitter-Struct.sol\":527:692  Tweet({... */\n      dup2\n      mstore\n      pop\n        /* \"3-Twitter-Struct.sol\":504:692  Tweet memory newTweet =Tweet({... */\n      swap1\n      pop\n        /* \"3-Twitter-Struct.sol\":705:711  tweets */\n      0x00\n        /* \"3-Twitter-Struct.sol\":705:723  tweets[msg.sender] */\n      dup1\n        /* \"3-Twitter-Struct.sol\":712:722  msg.sender */\n      caller\n        /* \"3-Twitter-Struct.sol\":705:723  tweets[msg.sender] */\n      0xffffffffffffffffffffffffffffffffffffffff\n      and\n      0xffffffffffffffffffffffffffffffffffffffff\n      and\n      dup2\n      mstore\n      0x20\n      add\n      swap1\n      dup2\n      mstore\n      0x20\n      add\n      0x00\n      keccak256\n        /* \"3-Twitter-Struct.sol\":729:737  newTweet */\n      dup2\n        /* \"3-Twitter-Struct.sol\":705:738  tweets[msg.sender].push(newTweet) */\n      swap1\n      dup1\n      0x01\n      dup2\n      sload\n      add\n      dup1\n      dup3\n      sstore\n      dup1\n      swap2\n      pop\n      pop\n      0x01\n      swap1\n      sub\n      swap1\n      0x00\n      mstore\n      keccak256(0x00, 0x20)\n      swap1\n      0x04\n      mul\n      add\n      0x00\n      swap1\n      swap2\n      swap1\n      swap2\n      swap1\n      swap2\n      pop\n      0x00\n      dup3\n      add\n      mload\n      dup2\n      0x00\n      add\n      exp(0x0100, 0x00)\n      dup2\n      sload\n      dup2\n      0xffffffffffffffffffffffffffffffffffffffff\n      mul\n      not\n      and\n      swap1\n      dup4\n      0xffffffffffffffffffffffffffffffffffffffff\n      and\n      mul\n      or\n      swap1\n      sstore\n      pop\n      0x20\n      dup3\n      add\n      mload\n      dup2\n      0x01\n      add\n      swap1\n      dup2\n      tag_59\n      swap2\n      swap1\n      tag_60\n      jump\t// in\n    tag_59:\n      pop\n      0x40\n      dup3\n      add\n      mload\n      dup2\n      0x02\n      add\n      sstore\n      0x60\n      dup3\n      add\n      mload\n      dup2\n      0x03\n      add\n      sstore\n      pop\n      pop\n        /* \"3-Twitter-Struct.sol\":493:746  {... */\n      pop\n        /* \"3-Twitter-Struct.sol\":443:746  function createTweet(string memory _tweet) public {... */\n      pop\n      jump\t// out\n    tag_37:\n      mload(0x40)\n      dup1\n      0x80\n      add\n      0x40\n      mstore\n      dup1\n      and(0xffffffffffffffffffffffffffffffffffffffff, 0x00)\n      dup2\n      mstore\n      0x20\n      add\n      0x60\n      dup2\n      mstore\n      0x20\n      add\n      0x00\n      dup2\n      mstore\n      0x20\n      add\n      0x00\n      dup2\n      mstore\n      pop\n      swap1\n      jump\t// out\n        /* \"#utility.yul\":7:82   */\n    tag_61:\n        /* \"#utility.yul\":40:46   */\n      0x00\n        /* \"#utility.yul\":73:75   */\n      0x40\n        /* \"#utility.yul\":67:76   */\n      mload\n        /* \"#utility.yul\":57:76   */\n      swap1\n      pop\n        /* \"#utility.yul\":7:82   */\n      swap1\n      jump\t// out\n        /* \"#utility.yul\":88:205   */\n    tag_62:\n        /* \"#utility.yul\":197:198   */\n      0x00\n        /* \"#utility.yul\":194:195   */\n      dup1\n        /* \"#utility.yul\":187:199   */\n      revert\n        /* \"#utility.yul\":211:328   */\n    tag_63:\n        /* \"#utility.yul\":320:321   */\n      0x00\n        /* \"#utility.yul\":317:318   */\n      dup1\n        /* \"#utility.yul\":310:322   */\n      revert\n        /* \"#utility.yul\":334:460   */\n    tag_64:\n        /* \"#utility.yul\":371:378   */\n      0x00\n        /* \"#utility.yul\":411:453   */\n      0xffffffffffffffffffffffffffffffffffffffff\n        /* \"#utility.yul\":404:409   */\n      dup3\n        /* \"#utility.yul\":400:454   */\n      and\n        /* \"#utility.yul\":389:454   */\n      swap1\n      pop\n        /* \"#utility.yul\":334:460   */\n      swap2\n      swap1\n      pop\n      jump\t// out\n        /* \"#utility.yul\":466:562   */\n    tag_65:\n        /* \"#utility.yul\":503:510   */\n      0x00\n        /* \"#utility.yul\":532:556   */\n      tag_121\n        /* \"#utility.yul\":550:555   */\n      dup3\n        /* \"#utility.yul\":532:556   */\n      tag_64\n      jump\t// in\n    tag_121:\n        /* \"#utility.yul\":521:556   */\n      swap1\n      pop\n        /* \"#utility.yul\":466:562   */\n      swap2\n      swap1\n      pop\n      jump\t// out\n        /* \"#utility.yul\":568:690   */\n    tag_66:\n        /* \"#utility.yul\":641:665   */\n      tag_123\n        /* \"#utility.yul\":659:664   */\n      dup2\n        /* \"#utility.yul\":641:665   */\n      tag_65\n      jump\t// in\n    tag_123:\n        /* \"#utility.yul\":634:639   */\n      dup2\n        /* \"#utility.yul\":631:666   */\n      eq\n        /* \"#utility.yul\":621:684   */\n      tag_124\n      jumpi\n        /* \"#utility.yul\":680:681   */\n      0x00\n        /* \"#utility.yul\":677:678   */\n      dup1\n        /* \"#utility.yul\":670:682   */\n      revert\n        /* \"#utility.yul\":621:684   */\n    tag_124:\n        /* \"#utility.yul\":568:690   */\n      pop\n      jump\t// out\n        /* \"#utility.yul\":696:835   */\n    tag_67:\n        /* \"#utility.yul\":742:747   */\n      0x00\n        /* \"#utility.yul\":780:786   */\n      dup2\n        /* \"#utility.yul\":767:787   */\n      calldataload\n        /* \"#utility.yul\":758:787   */\n      swap1\n      pop\n        /* \"#utility.yul\":796:829   */\n      tag_126\n        /* \"#utility.yul\":823:828   */\n      dup2\n        /* \"#utility.yul\":796:829   */\n      tag_66\n      jump\t// in\n    tag_126:\n        /* \"#utility.yul\":696:835   */\n      swap3\n      swap2\n      pop\n      pop\n      jump\t// out\n        /* \"#utility.yul\":841:918   */\n    tag_68:\n        /* \"#utility.yul\":878:885   */\n      0x00\n        /* \"#utility.yul\":907:912   */\n      dup2\n        /* \"#utility.yul\":896:912   */\n      swap1\n      pop\n        /* \"#utility.yul\":841:918   */\n      swap2\n      swap1\n      pop\n      jump\t// out\n        /* \"#utility.yul\":924:1046   */\n    tag_69:\n        /* \"#utility.yul\":997:1021   */\n      tag_129\n        /* \"#utility.yul\":1015:1020   */\n      dup2\n        /* \"#utility.yul\":997:1021   */\n      tag_68\n      jump\t// in\n    tag_129:\n        /* \"#utility.yul\":990:995   */\n      dup2\n        /* \"#utility.yul\":987:1022   */\n      eq\n        /* \"#utility.yul\":977:1040   */\n      tag_130\n      jumpi\n        /* \"#utility.yul\":1036:1037   */\n      0x00\n        /* \"#utility.yul\":1033:1034   */\n      dup1\n        /* \"#utility.yul\":1026:1038   */\n      revert\n        /* \"#utility.yul\":977:1040   */\n    tag_130:\n        /* \"#utility.yul\":924:1046   */\n      pop\n      jump\t// out\n        /* \"#utility.yul\":1052:1191   */\n    tag_70:\n        /* \"#utility.yul\":1098:1103   */\n      0x00\n        /* \"#utility.yul\":1136:1142   */\n      dup2\n        /* \"#utility.yul\":1123:1143   */\n      calldataload\n        /* \"#utility.yul\":1114:1143   */\n      swap1\n      pop\n        /* \"#utility.yul\":1152:1185   */\n      tag_132\n        /* \"#utility.yul\":1179:1184   */\n      dup2\n        /* \"#utility.yul\":1152:1185   */\n      tag_69\n      jump\t// in\n    tag_132:\n        /* \"#utility.yul\":1052:1191   */\n      swap3\n      swap2\n      pop\n      pop\n      jump\t// out\n        /* \"#utility.yul\":1197:1671   */\n    tag_9:\n        /* \"#utility.yul\":1265:1271   */\n      0x00\n        /* \"#utility.yul\":1273:1279   */\n      dup1\n        /* \"#utility.yul\":1322:1324   */\n      0x40\n        /* \"#utility.yul\":1310:1319   */\n      dup4\n        /* \"#utility.yul\":1301:1308   */\n      dup6\n        /* \"#utility.yul\":1297:1320   */\n      sub\n        /* \"#utility.yul\":1293:1325   */\n      slt\n        /* \"#utility.yul\":1290:1409   */\n      iszero\n      tag_134\n      jumpi\n        /* \"#utility.yul\":1328:1407   */\n      tag_135\n      tag_62\n      jump\t// in\n    tag_135:\n        /* \"#utility.yul\":1290:1409   */\n    tag_134:\n        /* \"#utility.yul\":1448:1449   */\n      0x00\n        /* \"#utility.yul\":1473:1526   */\n      tag_136\n        /* \"#utility.yul\":1518:1525   */\n      dup6\n        /* \"#utility.yul\":1509:1515   */\n      dup3\n        /* \"#utility.yul\":1498:1507   */\n      dup7\n        /* \"#utility.yul\":1494:1516   */\n      add\n        /* \"#utility.yul\":1473:1526   */\n      tag_67\n      jump\t// in\n    tag_136:\n        /* \"#utility.yul\":1463:1526   */\n      swap3\n      pop\n        /* \"#utility.yul\":1419:1536   */\n      pop\n        /* \"#utility.yul\":1575:1577   */\n      0x20\n        /* \"#utility.yul\":1601:1654   */\n      tag_137\n        /* \"#utility.yul\":1646:1653   */\n      dup6\n        /* \"#utility.yul\":1637:1643   */\n      dup3\n        /* \"#utility.yul\":1626:1635   */\n      dup7\n        /* \"#utility.yul\":1622:1644   */\n      add\n        /* \"#utility.yul\":1601:1654   */\n      tag_70\n      jump\t// in\n    tag_137:\n        /* \"#utility.yul\":1591:1654   */\n      swap2\n      pop\n        /* \"#utility.yul\":1546:1664   */\n      pop\n        /* \"#utility.yul\":1197:1671   */\n      swap3\n      pop\n      swap3\n      swap1\n      pop\n      jump\t// out\n        /* \"#utility.yul\":1677:1795   */\n    tag_71:\n        /* \"#utility.yul\":1764:1788   */\n      tag_139\n        /* \"#utility.yul\":1782:1787   */\n      dup2\n        /* \"#utility.yul\":1764:1788   */\n      tag_65\n      jump\t// in\n    tag_139:\n        /* \"#utility.yul\":1759:1762   */\n      dup3\n        /* \"#utility.yul\":1752:1789   */\n      mstore\n        /* \"#utility.yul\":1677:1795   */\n      pop\n      pop\n      jump\t// out\n        /* \"#utility.yul\":1801:1900   */\n    tag_72:\n        /* \"#utility.yul\":1853:1859   */\n      0x00\n        /* \"#utility.yul\":1887:1892   */\n      dup2\n        /* \"#utility.yul\":1881:1893   */\n      mload\n        /* \"#utility.yul\":1871:1893   */\n      swap1\n      pop\n        /* \"#utility.yul\":1801:1900   */\n      swap2\n      swap1\n      pop\n      jump\t// out\n        /* \"#utility.yul\":1906:2075   */\n    tag_73:\n        /* \"#utility.yul\":1990:2001   */\n      0x00\n        /* \"#utility.yul\":2024:2030   */\n      dup3\n        /* \"#utility.yul\":2019:2022   */\n      dup3\n        /* \"#utility.yul\":2012:2031   */\n      mstore\n        /* \"#utility.yul\":2064:2068   */\n      0x20\n        /* \"#utility.yul\":2059:2062   */\n      dup3\n        /* \"#utility.yul\":2055:2069   */\n      add\n        /* \"#utility.yul\":2040:2069   */\n      swap1\n      pop\n        /* \"#utility.yul\":1906:2075   */\n      swap3\n      swap2\n      pop\n      pop\n      jump\t// out\n        /* \"#utility.yul\":2081:2327   */\n    tag_74:\n        /* \"#utility.yul\":2162:2163   */\n      0x00\n        /* \"#utility.yul\":2172:2285   */\n    tag_143:\n        /* \"#utility.yul\":2186:2192   */\n      dup4\n        /* \"#utility.yul\":2183:2184   */\n      dup2\n        /* \"#utility.yul\":2180:2193   */\n      lt\n        /* \"#utility.yul\":2172:2285   */\n      iszero\n      tag_145\n      jumpi\n        /* \"#utility.yul\":2271:2272   */\n      dup1\n        /* \"#utility.yul\":2266:2269   */\n      dup3\n        /* \"#utility.yul\":2262:2273   */\n      add\n        /* \"#utility.yul\":2256:2274   */\n      mload\n        /* \"#utility.yul\":2252:2253   */\n      dup2\n        /* \"#utility.yul\":2247:2250   */\n      dup5\n        /* \"#utility.yul\":2243:2254   */\n      add\n        /* \"#utility.yul\":2236:2275   */\n      mstore\n        /* \"#utility.yul\":2208:2210   */\n      0x20\n        /* \"#utility.yul\":2205:2206   */\n      dup2\n        /* \"#utility.yul\":2201:2211   */\n      add\n        /* \"#utility.yul\":2196:2211   */\n      swap1\n      pop\n        /* \"#utility.yul\":2172:2285   */\n      jump(tag_143)\n    tag_145:\n        /* \"#utility.yul\":2319:2320   */\n      0x00\n        /* \"#utility.yul\":2310:2316   */\n      dup5\n        /* \"#utility.yul\":2305:2308   */\n      dup5\n        /* \"#utility.yul\":2301:2317   */\n      add\n        /* \"#utility.yul\":2294:2321   */\n      mstore\n        /* \"#utility.yul\":2143:2327   */\n      pop\n        /* \"#utility.yul\":2081:2327   */\n      pop\n      pop\n      pop\n      jump\t// out\n        /* \"#utility.yul\":2333:2435   */\n    tag_75:\n        /* \"#utility.yul\":2374:2380   */\n      0x00\n        /* \"#utility.yul\":2425:2427   */\n      0x1f\n        /* \"#utility.yul\":2421:2428   */\n      not\n        /* \"#utility.yul\":2416:2418   */\n      0x1f\n        /* \"#utility.yul\":2409:2414   */\n      dup4\n        /* \"#utility.yul\":2405:2419   */\n      add\n        /* \"#utility.yul\":2401:2429   */\n      and\n        /* \"#utility.yul\":2391:2429   */\n      swap1\n      pop\n        /* \"#utility.yul\":2333:2435   */\n      swap2\n      swap1\n      pop\n      jump\t// out\n        /* \"#utility.yul\":2441:2818   */\n    tag_76:\n        /* \"#utility.yul\":2529:2532   */\n      0x00\n        /* \"#utility.yul\":2557:2596   */\n      tag_148\n        /* \"#utility.yul\":2590:2595   */\n      dup3\n        /* \"#utility.yul\":2557:2596   */\n      tag_72\n      jump\t// in\n    tag_148:\n        /* \"#utility.yul\":2612:2683   */\n      tag_149\n        /* \"#utility.yul\":2676:2682   */\n      dup2\n        /* \"#utility.yul\":2671:2674   */\n      dup6\n        /* \"#utility.yul\":2612:2683   */\n      tag_73\n      jump\t// in\n    tag_149:\n        /* \"#utility.yul\":2605:2683   */\n      swap4\n      pop\n        /* \"#utility.yul\":2692:2757   */\n      tag_150\n        /* \"#utility.yul\":2750:2756   */\n      dup2\n        /* \"#utility.yul\":2745:2748   */\n      dup6\n        /* \"#utility.yul\":2738:2742   */\n      0x20\n        /* \"#utility.yul\":2731:2736   */\n      dup7\n        /* \"#utility.yul\":2727:2743   */\n      add\n        /* \"#utility.yul\":2692:2757   */\n      tag_74\n      jump\t// in\n    tag_150:\n        /* \"#utility.yul\":2782:2811   */\n      tag_151\n        /* \"#utility.yul\":2804:2810   */\n      dup2\n        /* \"#utility.yul\":2782:2811   */\n      tag_75\n      jump\t// in\n    tag_151:\n        /* \"#utility.yul\":2777:2780   */\n      dup5\n        /* \"#utility.yul\":2773:2812   */\n      add\n        /* \"#utility.yul\":2766:2812   */\n      swap2\n      pop\n        /* \"#utility.yul\":2533:2818   */\n      pop\n        /* \"#utility.yul\":2441:2818   */\n      swap3\n      swap2\n      pop\n      pop\n      jump\t// out\n        /* \"#utility.yul\":2824:2942   */\n    tag_77:\n        /* \"#utility.yul\":2911:2935   */\n      tag_153\n        /* \"#utility.yul\":2929:2934   */\n      dup2\n        /* \"#utility.yul\":2911:2935   */\n      tag_68\n      jump\t// in\n    tag_153:\n        /* \"#utility.yul\":2906:2909   */\n      dup3\n        /* \"#utility.yul\":2899:2936   */\n      mstore\n        /* \"#utility.yul\":2824:2942   */\n      pop\n      pop\n      jump\t// out\n        /* \"#utility.yul\":2948:3592   */\n    tag_12:\n        /* \"#utility.yul\":3145:3149   */\n      0x00\n        /* \"#utility.yul\":3183:3186   */\n      0x80\n        /* \"#utility.yul\":3172:3181   */\n      dup3\n        /* \"#utility.yul\":3168:3187   */\n      add\n        /* \"#utility.yul\":3160:3187   */\n      swap1\n      pop\n        /* \"#utility.yul\":3197:3268   */\n      tag_155\n        /* \"#utility.yul\":3265:3266   */\n      0x00\n        /* \"#utility.yul\":3254:3263   */\n      dup4\n        /* \"#utility.yul\":3250:3267   */\n      add\n        /* \"#utility.yul\":3241:3247   */\n      dup8\n        /* \"#utility.yul\":3197:3268   */\n      tag_71\n      jump\t// in\n    tag_155:\n        /* \"#utility.yul\":3315:3324   */\n      dup2\n        /* \"#utility.yul\":3309:3313   */\n      dup2\n        /* \"#utility.yul\":3305:3325   */\n      sub\n        /* \"#utility.yul\":3300:3302   */\n      0x20\n        /* \"#utility.yul\":3289:3298   */\n      dup4\n        /* \"#utility.yul\":3285:3303   */\n      add\n        /* \"#utility.yul\":3278:3326   */\n      mstore\n        /* \"#utility.yul\":3343:3421   */\n      tag_156\n        /* \"#utility.yul\":3416:3420   */\n      dup2\n        /* \"#utility.yul\":3407:3413   */\n      dup7\n        /* \"#utility.yul\":3343:3421   */\n      tag_76\n      jump\t// in\n    tag_156:\n        /* \"#utility.yul\":3335:3421   */\n      swap1\n      pop\n        /* \"#utility.yul\":3431:3503   */\n      tag_157\n        /* \"#utility.yul\":3499:3501   */\n      0x40\n        /* \"#utility.yul\":3488:3497   */\n      dup4\n        /* \"#utility.yul\":3484:3502   */\n      add\n        /* \"#utility.yul\":3475:3481   */\n      dup6\n        /* \"#utility.yul\":3431:3503   */\n      tag_77\n      jump\t// in\n    tag_157:\n        /* \"#utility.yul\":3513:3585   */\n      tag_158\n        /* \"#utility.yul\":3581:3583   */\n      0x60\n        /* \"#utility.yul\":3570:3579   */\n      dup4\n        /* \"#utility.yul\":3566:3584   */\n      add\n        /* \"#utility.yul\":3557:3563   */\n      dup5\n        /* \"#utility.yul\":3513:3585   */\n      tag_77\n      jump\t// in\n    tag_158:\n        /* \"#utility.yul\":2948:3592   */\n      swap6\n      swap5\n      pop\n      pop\n      pop\n      pop\n      pop\n      jump\t// out\n        /* \"#utility.yul\":3598:3706   */\n    tag_78:\n        /* \"#utility.yul\":3675:3699   */\n      tag_160\n        /* \"#utility.yul\":3693:3698   */\n      dup2\n        /* \"#utility.yul\":3675:3699   */\n      tag_65\n      jump\t// in\n    tag_160:\n        /* \"#utility.yul\":3670:3673   */\n      dup3\n        /* \"#utility.yul\":3663:3700   */\n      mstore\n        /* \"#utility.yul\":3598:3706   */\n      pop\n      pop\n      jump\t// out\n        /* \"#utility.yul\":3712:3871   */\n    tag_79:\n        /* \"#utility.yul\":3786:3797   */\n      0x00\n        /* \"#utility.yul\":3820:3826   */\n      dup3\n        /* \"#utility.yul\":3815:3818   */\n      dup3\n        /* \"#utility.yul\":3808:3827   */\n      mstore\n        /* \"#utility.yul\":3860:3864   */\n      0x20\n        /* \"#utility.yul\":3855:3858   */\n      dup3\n        /* \"#utility.yul\":3851:3865   */\n      add\n        /* \"#utility.yul\":3836:3865   */\n      swap1\n      pop\n        /* \"#utility.yul\":3712:3871   */\n      swap3\n      swap2\n      pop\n      pop\n      jump\t// out\n        /* \"#utility.yul\":3877:4234   */\n    tag_80:\n        /* \"#utility.yul\":3955:3958   */\n      0x00\n        /* \"#utility.yul\":3983:4022   */\n      tag_163\n        /* \"#utility.yul\":4016:4021   */\n      dup3\n        /* \"#utility.yul\":3983:4022   */\n      tag_72\n      jump\t// in\n    tag_163:\n        /* \"#utility.yul\":4038:4099   */\n      tag_164\n        /* \"#utility.yul\":4092:4098   */\n      dup2\n        /* \"#utility.yul\":4087:4090   */\n      dup6\n        /* \"#utility.yul\":4038:4099   */\n      tag_79\n      jump\t// in\n    tag_164:\n        /* \"#utility.yul\":4031:4099   */\n      swap4\n      pop\n        /* \"#utility.yul\":4108:4173   */\n      tag_165\n        /* \"#utility.yul\":4166:4172   */\n      dup2\n        /* \"#utility.yul\":4161:4164   */\n      dup6\n        /* \"#utility.yul\":4154:4158   */\n      0x20\n        /* \"#utility.yul\":4147:4152   */\n      dup7\n        /* \"#utility.yul\":4143:4159   */\n      add\n        /* \"#utility.yul\":4108:4173   */\n      tag_74\n      jump\t// in\n    tag_165:\n        /* \"#utility.yul\":4198:4227   */\n      tag_166\n        /* \"#utility.yul\":4220:4226   */\n      dup2\n        /* \"#utility.yul\":4198:4227   */\n      tag_75\n      jump\t// in\n    tag_166:\n        /* \"#utility.yul\":4193:4196   */\n      dup5\n        /* \"#utility.yul\":4189:4228   */\n      add\n        /* \"#utility.yul\":4182:4228   */\n      swap2\n      pop\n        /* \"#utility.yul\":3959:4234   */\n      pop\n        /* \"#utility.yul\":3877:4234   */\n      swap3\n      swap2\n      pop\n      pop\n      jump\t// out\n        /* \"#utility.yul\":4240:4348   */\n    tag_81:\n        /* \"#utility.yul\":4317:4341   */\n      tag_168\n        /* \"#utility.yul\":4335:4340   */\n      dup2\n        /* \"#utility.yul\":4317:4341   */\n      tag_68\n      jump\t// in\n    tag_168:\n        /* \"#utility.yul\":4312:4315   */\n      dup3\n        /* \"#utility.yul\":4305:4342   */\n      mstore\n        /* \"#utility.yul\":4240:4348   */\n      pop\n      pop\n      jump\t// out\n        /* \"#utility.yul\":4406:5363   */\n    tag_82:\n        /* \"#utility.yul\":4517:4520   */\n      0x00\n        /* \"#utility.yul\":4553:4557   */\n      0x80\n        /* \"#utility.yul\":4548:4551   */\n      dup4\n        /* \"#utility.yul\":4544:4558   */\n      add\n        /* \"#utility.yul\":4642:4646   */\n      0x00\n        /* \"#utility.yul\":4635:4640   */\n      dup4\n        /* \"#utility.yul\":4631:4647   */\n      add\n        /* \"#utility.yul\":4625:4648   */\n      mload\n        /* \"#utility.yul\":4661:4724   */\n      tag_170\n        /* \"#utility.yul\":4718:4722   */\n      0x00\n        /* \"#utility.yul\":4713:4716   */\n      dup7\n        /* \"#utility.yul\":4709:4723   */\n      add\n        /* \"#utility.yul\":4695:4707   */\n      dup3\n        /* \"#utility.yul\":4661:4724   */\n      tag_78\n      jump\t// in\n    tag_170:\n        /* \"#utility.yul\":4568:4734   */\n      pop\n        /* \"#utility.yul\":4819:4823   */\n      0x20\n        /* \"#utility.yul\":4812:4817   */\n      dup4\n        /* \"#utility.yul\":4808:4824   */\n      add\n        /* \"#utility.yul\":4802:4825   */\n      mload\n        /* \"#utility.yul\":4872:4875   */\n      dup5\n        /* \"#utility.yul\":4866:4870   */\n      dup3\n        /* \"#utility.yul\":4862:4876   */\n      sub\n        /* \"#utility.yul\":4855:4859   */\n      0x20\n        /* \"#utility.yul\":4850:4853   */\n      dup7\n        /* \"#utility.yul\":4846:4860   */\n      add\n        /* \"#utility.yul\":4839:4877   */\n      mstore\n        /* \"#utility.yul\":4898:4971   */\n      tag_171\n        /* \"#utility.yul\":4966:4970   */\n      dup3\n        /* \"#utility.yul\":4952:4964   */\n      dup3\n        /* \"#utility.yul\":4898:4971   */\n      tag_80\n      jump\t// in\n    tag_171:\n        /* \"#utility.yul\":4890:4971   */\n      swap2\n      pop\n        /* \"#utility.yul\":4744:4982   */\n      pop\n        /* \"#utility.yul\":5069:5073   */\n      0x40\n        /* \"#utility.yul\":5062:5067   */\n      dup4\n        /* \"#utility.yul\":5058:5074   */\n      add\n        /* \"#utility.yul\":5052:5075   */\n      mload\n        /* \"#utility.yul\":5088:5151   */\n      tag_172\n        /* \"#utility.yul\":5145:5149   */\n      0x40\n        /* \"#utility.yul\":5140:5143   */\n      dup7\n        /* \"#utility.yul\":5136:5150   */\n      add\n        /* \"#utility.yul\":5122:5134   */\n      dup3\n        /* \"#utility.yul\":5088:5151   */\n      tag_81\n      jump\t// in\n    tag_172:\n        /* \"#utility.yul\":4992:5161   */\n      pop\n        /* \"#utility.yul\":5244:5248   */\n      0x60\n        /* \"#utility.yul\":5237:5242   */\n      dup4\n        /* \"#utility.yul\":5233:5249   */\n      add\n        /* \"#utility.yul\":5227:5250   */\n      mload\n        /* \"#utility.yul\":5263:5326   */\n      tag_173\n        /* \"#utility.yul\":5320:5324   */\n      0x60\n        /* \"#utility.yul\":5315:5318   */\n      dup7\n        /* \"#utility.yul\":5311:5325   */\n      add\n        /* \"#utility.yul\":5297:5309   */\n      dup3\n        /* \"#utility.yul\":5263:5326   */\n      tag_81\n      jump\t// in\n    tag_173:\n        /* \"#utility.yul\":5171:5336   */\n      pop\n        /* \"#utility.yul\":5353:5357   */\n      dup1\n        /* \"#utility.yul\":5346:5357   */\n      swap2\n      pop\n        /* \"#utility.yul\":4522:5363   */\n      pop\n        /* \"#utility.yul\":4406:5363   */\n      swap3\n      swap2\n      pop\n      pop\n      jump\t// out\n        /* \"#utility.yul\":5369:5726   */\n    tag_17:\n        /* \"#utility.yul\":5504:5508   */\n      0x00\n        /* \"#utility.yul\":5542:5544   */\n      0x20\n        /* \"#utility.yul\":5531:5540   */\n      dup3\n        /* \"#utility.yul\":5527:5545   */\n      add\n        /* \"#utility.yul\":5519:5545   */\n      swap1\n      pop\n        /* \"#utility.yul\":5591:5600   */\n      dup2\n        /* \"#utility.yul\":5585:5589   */\n      dup2\n        /* \"#utility.yul\":5581:5601   */\n      sub\n        /* \"#utility.yul\":5577:5578   */\n      0x00\n        /* \"#utility.yul\":5566:5575   */\n      dup4\n        /* \"#utility.yul\":5562:5579   */\n      add\n        /* \"#utility.yul\":5555:5602   */\n      mstore\n        /* \"#utility.yul\":5619:5719   */\n      tag_175\n        /* \"#utility.yul\":5714:5718   */\n      dup2\n        /* \"#utility.yul\":5705:5711   */\n      dup5\n        /* \"#utility.yul\":5619:5719   */\n      tag_82\n      jump\t// in\n    tag_175:\n        /* \"#utility.yul\":5611:5719   */\n      swap1\n      pop\n        /* \"#utility.yul\":5369:5726   */\n      swap3\n      swap2\n      pop\n      pop\n      jump\t// out\n        /* \"#utility.yul\":5732:6061   */\n    tag_20:\n        /* \"#utility.yul\":5791:5797   */\n      0x00\n        /* \"#utility.yul\":5840:5842   */\n      0x20\n        /* \"#utility.yul\":5828:5837   */\n      dup3\n        /* \"#utility.yul\":5819:5826   */\n      dup5\n        /* \"#utility.yul\":5815:5838   */\n      sub\n        /* \"#utility.yul\":5811:5843   */\n      slt\n        /* \"#utility.yul\":5808:5927   */\n      iszero\n      tag_177\n      jumpi\n        /* \"#utility.yul\":5846:5925   */\n      tag_178\n      tag_62\n      jump\t// in\n    tag_178:\n        /* \"#utility.yul\":5808:5927   */\n    tag_177:\n        /* \"#utility.yul\":5966:5967   */\n      0x00\n        /* \"#utility.yul\":5991:6044   */\n      tag_179\n        /* \"#utility.yul\":6036:6043   */\n      dup5\n        /* \"#utility.yul\":6027:6033   */\n      dup3\n        /* \"#utility.yul\":6016:6025   */\n      dup6\n        /* \"#utility.yul\":6012:6034   */\n      add\n        /* \"#utility.yul\":5991:6044   */\n      tag_67\n      jump\t// in\n    tag_179:\n        /* \"#utility.yul\":5981:6044   */\n      swap2\n      pop\n        /* \"#utility.yul\":5937:6054   */\n      pop\n        /* \"#utility.yul\":5732:6061   */\n      swap3\n      swap2\n      pop\n      pop\n      jump\t// out\n        /* \"#utility.yul\":6067:6202   */\n    tag_83:\n        /* \"#utility.yul\":6155:6161   */\n      0x00\n        /* \"#utility.yul\":6189:6194   */\n      dup2\n        /* \"#utility.yul\":6183:6195   */\n      mload\n        /* \"#utility.yul\":6173:6195   */\n      swap1\n      pop\n        /* \"#utility.yul\":6067:6202   */\n      swap2\n      swap1\n      pop\n      jump\t// out\n        /* \"#utility.yul\":6208:6413   */\n    tag_84:\n        /* \"#utility.yul\":6328:6339   */\n      0x00\n        /* \"#utility.yul\":6362:6368   */\n      dup3\n        /* \"#utility.yul\":6357:6360   */\n      dup3\n        /* \"#utility.yul\":6350:6369   */\n      mstore\n        /* \"#utility.yul\":6402:6406   */\n      0x20\n        /* \"#utility.yul\":6397:6400   */\n      dup3\n        /* \"#utility.yul\":6393:6407   */\n      add\n        /* \"#utility.yul\":6378:6407   */\n      swap1\n      pop\n        /* \"#utility.yul\":6208:6413   */\n      swap3\n      swap2\n      pop\n      pop\n      jump\t// out\n        /* \"#utility.yul\":6419:6572   */\n    tag_85:\n        /* \"#utility.yul\":6507:6511   */\n      0x00\n        /* \"#utility.yul\":6530:6533   */\n      dup2\n        /* \"#utility.yul\":6522:6533   */\n      swap1\n      pop\n        /* \"#utility.yul\":6560:6564   */\n      0x20\n        /* \"#utility.yul\":6555:6558   */\n      dup3\n        /* \"#utility.yul\":6551:6565   */\n      add\n        /* \"#utility.yul\":6543:6565   */\n      swap1\n      pop\n        /* \"#utility.yul\":6419:6572   */\n      swap2\n      swap1\n      pop\n      jump\t// out\n        /* \"#utility.yul\":6630:7577   */\n    tag_86:\n        /* \"#utility.yul\":6731:6734   */\n      0x00\n        /* \"#utility.yul\":6767:6771   */\n      0x80\n        /* \"#utility.yul\":6762:6765   */\n      dup4\n        /* \"#utility.yul\":6758:6772   */\n      add\n        /* \"#utility.yul\":6856:6860   */\n      0x00\n        /* \"#utility.yul\":6849:6854   */\n      dup4\n        /* \"#utility.yul\":6845:6861   */\n      add\n        /* \"#utility.yul\":6839:6862   */\n      mload\n        /* \"#utility.yul\":6875:6938   */\n      tag_184\n        /* \"#utility.yul\":6932:6936   */\n      0x00\n        /* \"#utility.yul\":6927:6930   */\n      dup7\n        /* \"#utility.yul\":6923:6937   */\n      add\n        /* \"#utility.yul\":6909:6921   */\n      dup3\n        /* \"#utility.yul\":6875:6938   */\n      tag_78\n      jump\t// in\n    tag_184:\n        /* \"#utility.yul\":6782:6948   */\n      pop\n        /* \"#utility.yul\":7033:7037   */\n      0x20\n        /* \"#utility.yul\":7026:7031   */\n      dup4\n        /* \"#utility.yul\":7022:7038   */\n      add\n        /* \"#utility.yul\":7016:7039   */\n      mload\n        /* \"#utility.yul\":7086:7089   */\n      dup5\n        /* \"#utility.yul\":7080:7084   */\n      dup3\n        /* \"#utility.yul\":7076:7090   */\n      sub\n        /* \"#utility.yul\":7069:7073   */\n      0x20\n        /* \"#utility.yul\":7064:7067   */\n      dup7\n        /* \"#utility.yul\":7060:7074   */\n      add\n        /* \"#utility.yul\":7053:7091   */\n      mstore\n        /* \"#utility.yul\":7112:7185   */\n      tag_185\n        /* \"#utility.yul\":7180:7184   */\n      dup3\n        /* \"#utility.yul\":7166:7178   */\n      dup3\n        /* \"#utility.yul\":7112:7185   */\n      tag_80\n      jump\t// in\n    tag_185:\n        /* \"#utility.yul\":7104:7185   */\n      swap2\n      pop\n        /* \"#utility.yul\":6958:7196   */\n      pop\n        /* \"#utility.yul\":7283:7287   */\n      0x40\n        /* \"#utility.yul\":7276:7281   */\n      dup4\n        /* \"#utility.yul\":7272:7288   */\n      add\n        /* \"#utility.yul\":7266:7289   */\n      mload\n        /* \"#utility.yul\":7302:7365   */\n      tag_186\n        /* \"#utility.yul\":7359:7363   */\n      0x40\n        /* \"#utility.yul\":7354:7357   */\n      dup7\n        /* \"#utility.yul\":7350:7364   */\n      add\n        /* \"#utility.yul\":7336:7348   */\n      dup3\n        /* \"#utility.yul\":7302:7365   */\n      tag_81\n      jump\t// in\n    tag_186:\n        /* \"#utility.yul\":7206:7375   */\n      pop\n        /* \"#utility.yul\":7458:7462   */\n      0x60\n        /* \"#utility.yul\":7451:7456   */\n      dup4\n        /* \"#utility.yul\":7447:7463   */\n      add\n        /* \"#utility.yul\":7441:7464   */\n      mload\n        /* \"#utility.yul\":7477:7540   */\n      tag_187\n        /* \"#utility.yul\":7534:7538   */\n      0x60\n        /* \"#utility.yul\":7529:7532   */\n      dup7\n        /* \"#utility.yul\":7525:7539   */\n      add\n        /* \"#utility.yul\":7511:7523   */\n      dup3\n        /* \"#utility.yul\":7477:7540   */\n      tag_81\n      jump\t// in\n    tag_187:\n        /* \"#utility.yul\":7385:7550   */\n      pop\n        /* \"#utility.yul\":7567:7571   */\n      dup1\n        /* \"#utility.yul\":7560:7571   */\n      swap2\n      pop\n        /* \"#utility.yul\":6736:7577   */\n      pop\n        /* \"#utility.yul\":6630:7577   */\n      swap3\n      swap2\n      pop\n      pop\n      jump\t// out\n        /* \"#utility.yul\":7583:7823   */\n    tag_87:\n        /* \"#utility.yul\":7694:7704   */\n      0x00\n        /* \"#utility.yul\":7729:7817   */\n      tag_189\n        /* \"#utility.yul\":7813:7816   */\n      dup4\n        /* \"#utility.yul\":7805:7811   */\n      dup4\n        /* \"#utility.yul\":7729:7817   */\n      tag_86\n      jump\t// in\n    tag_189:\n        /* \"#utility.yul\":7715:7817   */\n      swap1\n      pop\n        /* \"#utility.yul\":7583:7823   */\n      swap3\n      swap2\n      pop\n      pop\n      jump\t// out\n        /* \"#utility.yul\":7829:7963   */\n    tag_88:\n        /* \"#utility.yul\":7920:7924   */\n      0x00\n        /* \"#utility.yul\":7952:7956   */\n      0x20\n        /* \"#utility.yul\":7947:7950   */\n      dup3\n        /* \"#utility.yul\":7943:7957   */\n      add\n        /* \"#utility.yul\":7935:7957   */\n      swap1\n      pop\n        /* \"#utility.yul\":7829:7963   */\n      swap2\n      swap1\n      pop\n      jump\t// out\n        /* \"#utility.yul\":8025:9104   */\n    tag_89:\n        /* \"#utility.yul\":8186:8189   */\n      0x00\n        /* \"#utility.yul\":8215:8290   */\n      tag_192\n        /* \"#utility.yul\":8284:8289   */\n      dup3\n        /* \"#utility.yul\":8215:8290   */\n      tag_83\n      jump\t// in\n    tag_192:\n        /* \"#utility.yul\":8306:8413   */\n      tag_193\n        /* \"#utility.yul\":8406:8412   */\n      dup2\n        /* \"#utility.yul\":8401:8404   */\n      dup6\n        /* \"#utility.yul\":8306:8413   */\n      tag_84\n      jump\t// in\n    tag_193:\n        /* \"#utility.yul\":8299:8413   */\n      swap4\n      pop\n        /* \"#utility.yul\":8439:8442   */\n      dup4\n        /* \"#utility.yul\":8484:8488   */\n      0x20\n        /* \"#utility.yul\":8476:8482   */\n      dup3\n        /* \"#utility.yul\":8472:8489   */\n      mul\n        /* \"#utility.yul\":8467:8470   */\n      dup6\n        /* \"#utility.yul\":8463:8490   */\n      add\n        /* \"#utility.yul\":8514:8591   */\n      tag_194\n        /* \"#utility.yul\":8585:8590   */\n      dup6\n        /* \"#utility.yul\":8514:8591   */\n      tag_85\n      jump\t// in\n    tag_194:\n        /* \"#utility.yul\":8614:8621   */\n      dup1\n        /* \"#utility.yul\":8645:8646   */\n      0x00\n        /* \"#utility.yul\":8630:9059   */\n    tag_195:\n        /* \"#utility.yul\":8655:8661   */\n      dup6\n        /* \"#utility.yul\":8652:8653   */\n      dup2\n        /* \"#utility.yul\":8649:8662   */\n      lt\n        /* \"#utility.yul\":8630:9059   */\n      iszero\n      tag_197\n      jumpi\n        /* \"#utility.yul\":8726:8735   */\n      dup5\n        /* \"#utility.yul\":8720:8724   */\n      dup5\n        /* \"#utility.yul\":8716:8736   */\n      sub\n        /* \"#utility.yul\":8711:8714   */\n      dup10\n        /* \"#utility.yul\":8704:8737   */\n      mstore\n        /* \"#utility.yul\":8777:8783   */\n      dup2\n        /* \"#utility.yul\":8771:8784   */\n      mload\n        /* \"#utility.yul\":8805:8911   */\n      tag_198\n        /* \"#utility.yul\":8906:8910   */\n      dup6\n        /* \"#utility.yul\":8891:8904   */\n      dup3\n        /* \"#utility.yul\":8805:8911   */\n      tag_87\n      jump\t// in\n    tag_198:\n        /* \"#utility.yul\":8797:8911   */\n      swap5\n      pop\n        /* \"#utility.yul\":8934:9015   */\n      tag_199\n        /* \"#utility.yul\":9008:9014   */\n      dup4\n        /* \"#utility.yul\":8934:9015   */\n      tag_88\n      jump\t// in\n    tag_199:\n        /* \"#utility.yul\":8924:9015   */\n      swap3\n      pop\n        /* \"#utility.yul\":9044:9048   */\n      0x20\n        /* \"#utility.yul\":9039:9042   */\n      dup11\n        /* \"#utility.yul\":9035:9049   */\n      add\n        /* \"#utility.yul\":9028:9049   */\n      swap10\n      pop\n        /* \"#utility.yul\":8690:9059   */\n      pop\n        /* \"#utility.yul\":8677:8678   */\n      0x01\n        /* \"#utility.yul\":8674:8675   */\n      dup2\n        /* \"#utility.yul\":8670:8679   */\n      add\n        /* \"#utility.yul\":8665:8679   */\n      swap1\n      pop\n        /* \"#utility.yul\":8630:9059   */\n      jump(tag_195)\n    tag_197:\n        /* \"#utility.yul\":8634:8648   */\n      pop\n        /* \"#utility.yul\":9075:9079   */\n      dup3\n        /* \"#utility.yul\":9068:9079   */\n      swap8\n      pop\n        /* \"#utility.yul\":9095:9098   */\n      dup8\n        /* \"#utility.yul\":9088:9098   */\n      swap6\n      pop\n        /* \"#utility.yul\":8191:9104   */\n      pop\n      pop\n      pop\n      pop\n      pop\n        /* \"#utility.yul\":8025:9104   */\n      swap3\n      swap2\n      pop\n      pop\n      jump\t// out\n        /* \"#utility.yul\":9110:9567   */\n    tag_23:\n        /* \"#utility.yul\":9295:9299   */\n      0x00\n        /* \"#utility.yul\":9333:9335   */\n      0x20\n        /* \"#utility.yul\":9322:9331   */\n      dup3\n        /* \"#utility.yul\":9318:9336   */\n      add\n        /* \"#utility.yul\":9310:9336   */\n      swap1\n      pop\n        /* \"#utility.yul\":9382:9391   */\n      dup2\n        /* \"#utility.yul\":9376:9380   */\n      dup2\n        /* \"#utility.yul\":9372:9392   */\n      sub\n        /* \"#utility.yul\":9368:9369   */\n      0x00\n        /* \"#utility.yul\":9357:9366   */\n      dup4\n        /* \"#utility.yul\":9353:9370   */\n      add\n        /* \"#utility.yul\":9346:9393   */\n      mstore\n        /* \"#utility.yul\":9410:9560   */\n      tag_201\n        /* \"#utility.yul\":9555:9559   */\n      dup2\n        /* \"#utility.yul\":9546:9552   */\n      dup5\n        /* \"#utility.yul\":9410:9560   */\n      tag_89\n      jump\t// in\n    tag_201:\n        /* \"#utility.yul\":9402:9560   */\n      swap1\n      pop\n        /* \"#utility.yul\":9110:9567   */\n      swap3\n      swap2\n      pop\n      pop\n      jump\t// out\n        /* \"#utility.yul\":9573:9690   */\n    tag_90:\n        /* \"#utility.yul\":9682:9683   */\n      0x00\n        /* \"#utility.yul\":9679:9680   */\n      dup1\n        /* \"#utility.yul\":9672:9684   */\n      revert\n        /* \"#utility.yul\":9696:9813   */\n    tag_91:\n        /* \"#utility.yul\":9805:9806   */\n      0x00\n        /* \"#utility.yul\":9802:9803   */\n      dup1\n        /* \"#utility.yul\":9795:9807   */\n      revert\n        /* \"#utility.yul\":9819:9999   */\n    tag_92:\n        /* \"#utility.yul\":9867:9944   */\n      0x4e487b7100000000000000000000000000000000000000000000000000000000\n        /* \"#utility.yul\":9864:9865   */\n      0x00\n        /* \"#utility.yul\":9857:9945   */\n      mstore\n        /* \"#utility.yul\":9964:9968   */\n      0x41\n        /* \"#utility.yul\":9961:9962   */\n      0x04\n        /* \"#utility.yul\":9954:9969   */\n      mstore\n        /* \"#utility.yul\":9988:9992   */\n      0x24\n        /* \"#utility.yul\":9985:9986   */\n      0x00\n        /* \"#utility.yul\":9978:9993   */\n      revert\n        /* \"#utility.yul\":10005:10286   */\n    tag_93:\n        /* \"#utility.yul\":10088:10115   */\n      tag_206\n        /* \"#utility.yul\":10110:10114   */\n      dup3\n        /* \"#utility.yul\":10088:10115   */\n      tag_75\n      jump\t// in\n    tag_206:\n        /* \"#utility.yul\":10080:10086   */\n      dup2\n        /* \"#utility.yul\":10076:10116   */\n      add\n        /* \"#utility.yul\":10218:10224   */\n      dup2\n        /* \"#utility.yul\":10206:10216   */\n      dup2\n        /* \"#utility.yul\":10203:10225   */\n      lt\n        /* \"#utility.yul\":10182:10200   */\n      0xffffffffffffffff\n        /* \"#utility.yul\":10170:10180   */\n      dup3\n        /* \"#utility.yul\":10167:10201   */\n      gt\n        /* \"#utility.yul\":10164:10226   */\n      or\n        /* \"#utility.yul\":10161:10249   */\n      iszero\n      tag_207\n      jumpi\n        /* \"#utility.yul\":10229:10247   */\n      tag_208\n      tag_92\n      jump\t// in\n    tag_208:\n        /* \"#utility.yul\":10161:10249   */\n    tag_207:\n        /* \"#utility.yul\":10269:10279   */\n      dup1\n        /* \"#utility.yul\":10265:10267   */\n      0x40\n        /* \"#utility.yul\":10258:10280   */\n      mstore\n        /* \"#utility.yul\":10048:10286   */\n      pop\n        /* \"#utility.yul\":10005:10286   */\n      pop\n      pop\n      jump\t// out\n        /* \"#utility.yul\":10292:10421   */\n    tag_94:\n        /* \"#utility.yul\":10326:10332   */\n      0x00\n        /* \"#utility.yul\":10353:10373   */\n      tag_210\n      tag_61\n      jump\t// in\n    tag_210:\n        /* \"#utility.yul\":10343:10373   */\n      swap1\n      pop\n        /* \"#utility.yul\":10382:10415   */\n      tag_211\n        /* \"#utility.yul\":10410:10414   */\n      dup3\n        /* \"#utility.yul\":10402:10408   */\n      dup3\n        /* \"#utility.yul\":10382:10415   */\n      tag_93\n      jump\t// in\n    tag_211:\n        /* \"#utility.yul\":10292:10421   */\n      swap2\n      swap1\n      pop\n      jump\t// out\n        /* \"#utility.yul\":10427:10735   */\n    tag_95:\n        /* \"#utility.yul\":10489:10493   */\n      0x00\n        /* \"#utility.yul\":10579:10597   */\n      0xffffffffffffffff\n        /* \"#utility.yul\":10571:10577   */\n      dup3\n        /* \"#utility.yul\":10568:10598   */\n      gt\n        /* \"#utility.yul\":10565:10621   */\n      iszero\n      tag_213\n      jumpi\n        /* \"#utility.yul\":10601:10619   */\n      tag_214\n      tag_92\n      jump\t// in\n    tag_214:\n        /* \"#utility.yul\":10565:10621   */\n    tag_213:\n        /* \"#utility.yul\":10639:10668   */\n      tag_215\n        /* \"#utility.yul\":10661:10667   */\n      dup3\n        /* \"#utility.yul\":10639:10668   */\n      tag_75\n      jump\t// in\n    tag_215:\n        /* \"#utility.yul\":10631:10668   */\n      swap1\n      pop\n        /* \"#utility.yul\":10723:10727   */\n      0x20\n        /* \"#utility.yul\":10717:10721   */\n      dup2\n        /* \"#utility.yul\":10713:10728   */\n      add\n        /* \"#utility.yul\":10705:10728   */\n      swap1\n      pop\n        /* \"#utility.yul\":10427:10735   */\n      swap2\n      swap1\n      pop\n      jump\t// out\n        /* \"#utility.yul\":10741:10887   */\n    tag_96:\n        /* \"#utility.yul\":10838:10844   */\n      dup3\n        /* \"#utility.yul\":10833:10836   */\n      dup2\n        /* \"#utility.yul\":10828:10831   */\n      dup4\n        /* \"#utility.yul\":10815:10845   */\n      calldatacopy\n        /* \"#utility.yul\":10879:10880   */\n      0x00\n        /* \"#utility.yul\":10870:10876   */\n      dup4\n        /* \"#utility.yul\":10865:10868   */\n      dup4\n        /* \"#utility.yul\":10861:10877   */\n      add\n        /* \"#utility.yul\":10854:10881   */\n      mstore\n        /* \"#utility.yul\":10741:10887   */\n      pop\n      pop\n      pop\n      jump\t// out\n        /* \"#utility.yul\":10893:11318   */\n    tag_97:\n        /* \"#utility.yul\":10971:10976   */\n      0x00\n        /* \"#utility.yul\":10996:11062   */\n      tag_218\n        /* \"#utility.yul\":11012:11061   */\n      tag_219\n        /* \"#utility.yul\":11054:11060   */\n      dup5\n        /* \"#utility.yul\":11012:11061   */\n      tag_95\n      jump\t// in\n    tag_219:\n        /* \"#utility.yul\":10996:11062   */\n      tag_94\n      jump\t// in\n    tag_218:\n        /* \"#utility.yul\":10987:11062   */\n      swap1\n      pop\n        /* \"#utility.yul\":11085:11091   */\n      dup3\n        /* \"#utility.yul\":11078:11083   */\n      dup2\n        /* \"#utility.yul\":11071:11092   */\n      mstore\n        /* \"#utility.yul\":11123:11127   */\n      0x20\n        /* \"#utility.yul\":11116:11121   */\n      dup2\n        /* \"#utility.yul\":11112:11128   */\n      add\n        /* \"#utility.yul\":11161:11164   */\n      dup5\n        /* \"#utility.yul\":11152:11158   */\n      dup5\n        /* \"#utility.yul\":11147:11150   */\n      dup5\n        /* \"#utility.yul\":11143:11159   */\n      add\n        /* \"#utility.yul\":11140:11165   */\n      gt\n        /* \"#utility.yul\":11137:11249   */\n      iszero\n      tag_220\n      jumpi\n        /* \"#utility.yul\":11168:11247   */\n      tag_221\n      tag_91\n      jump\t// in\n    tag_221:\n        /* \"#utility.yul\":11137:11249   */\n    tag_220:\n        /* \"#utility.yul\":11258:11312   */\n      tag_222\n        /* \"#utility.yul\":11305:11311   */\n      dup5\n        /* \"#utility.yul\":11300:11303   */\n      dup3\n        /* \"#utility.yul\":11295:11298   */\n      dup6\n        /* \"#utility.yul\":11258:11312   */\n      tag_96\n      jump\t// in\n    tag_222:\n        /* \"#utility.yul\":10977:11318   */\n      pop\n        /* \"#utility.yul\":10893:11318   */\n      swap4\n      swap3\n      pop\n      pop\n      pop\n      jump\t// out\n        /* \"#utility.yul\":11338:11678   */\n    tag_98:\n        /* \"#utility.yul\":11394:11399   */\n      0x00\n        /* \"#utility.yul\":11443:11446   */\n      dup3\n        /* \"#utility.yul\":11436:11440   */\n      0x1f\n        /* \"#utility.yul\":11428:11434   */\n      dup4\n        /* \"#utility.yul\":11424:11441   */\n      add\n        /* \"#utility.yul\":11420:11447   */\n      slt\n        /* \"#utility.yul\":11410:11532   */\n      tag_224\n      jumpi\n        /* \"#utility.yul\":11451:11530   */\n      tag_225\n      tag_90\n      jump\t// in\n    tag_225:\n        /* \"#utility.yul\":11410:11532   */\n    tag_224:\n        /* \"#utility.yul\":11568:11574   */\n      dup2\n        /* \"#utility.yul\":11555:11575   */\n      calldataload\n        /* \"#utility.yul\":11593:11672   */\n      tag_226\n        /* \"#utility.yul\":11668:11671   */\n      dup5\n        /* \"#utility.yul\":11660:11666   */\n      dup3\n        /* \"#utility.yul\":11653:11657   */\n      0x20\n        /* \"#utility.yul\":11645:11651   */\n      dup7\n        /* \"#utility.yul\":11641:11658   */\n      add\n        /* \"#utility.yul\":11593:11672   */\n      tag_97\n      jump\t// in\n    tag_226:\n        /* \"#utility.yul\":11584:11672   */\n      swap2\n      pop\n        /* \"#utility.yul\":11400:11678   */\n      pop\n        /* \"#utility.yul\":11338:11678   */\n      swap3\n      swap2\n      pop\n      pop\n      jump\t// out\n        /* \"#utility.yul\":11684:12193   */\n    tag_26:\n        /* \"#utility.yul\":11753:11759   */\n      0x00\n        /* \"#utility.yul\":11802:11804   */\n      0x20\n        /* \"#utility.yul\":11790:11799   */\n      dup3\n        /* \"#utility.yul\":11781:11788   */\n      dup5\n        /* \"#utility.yul\":11777:11800   */\n      sub\n        /* \"#utility.yul\":11773:11805   */\n      slt\n        /* \"#utility.yul\":11770:11889   */\n      iszero\n      tag_228\n      jumpi\n        /* \"#utility.yul\":11808:11887   */\n      tag_229\n      tag_62\n      jump\t// in\n    tag_229:\n        /* \"#utility.yul\":11770:11889   */\n    tag_228:\n        /* \"#utility.yul\":11956:11957   */\n      0x00\n        /* \"#utility.yul\":11945:11954   */\n      dup3\n        /* \"#utility.yul\":11941:11958   */\n      add\n        /* \"#utility.yul\":11928:11959   */\n      calldataload\n        /* \"#utility.yul\":11986:12004   */\n      0xffffffffffffffff\n        /* \"#utility.yul\":11978:11984   */\n      dup2\n        /* \"#utility.yul\":11975:12005   */\n      gt\n        /* \"#utility.yul\":11972:12089   */\n      iszero\n      tag_230\n      jumpi\n        /* \"#utility.yul\":12008:12087   */\n      tag_231\n      tag_63\n      jump\t// in\n    tag_231:\n        /* \"#utility.yul\":11972:12089   */\n    tag_230:\n        /* \"#utility.yul\":12113:12176   */\n      tag_232\n        /* \"#utility.yul\":12168:12175   */\n      dup5\n        /* \"#utility.yul\":12159:12165   */\n      dup3\n        /* \"#utility.yul\":12148:12157   */\n      dup6\n        /* \"#utility.yul\":12144:12166   */\n      add\n        /* \"#utility.yul\":12113:12176   */\n      tag_98\n      jump\t// in\n    tag_232:\n        /* \"#utility.yul\":12103:12176   */\n      swap2\n      pop\n        /* \"#utility.yul\":11899:12186   */\n      pop\n        /* \"#utility.yul\":11684:12193   */\n      swap3\n      swap2\n      pop\n      pop\n      jump\t// out\n        /* \"#utility.yul\":12199:12379   */\n    tag_99:\n        /* \"#utility.yul\":12247:12324   */\n      0x4e487b7100000000000000000000000000000000000000000000000000000000\n        /* \"#utility.yul\":12244:12245   */\n      0x00\n        /* \"#utility.yul\":12237:12325   */\n      mstore\n        /* \"#utility.yul\":12344:12348   */\n      0x22\n        /* \"#utility.yul\":12341:12342   */\n      0x04\n        /* \"#utility.yul\":12334:12349   */\n      mstore\n        /* \"#utility.yul\":12368:12372   */\n      0x24\n        /* \"#utility.yul\":12365:12366   */\n      0x00\n        /* \"#utility.yul\":12358:12373   */\n      revert\n        /* \"#utility.yul\":12385:12705   */\n    tag_31:\n        /* \"#utility.yul\":12429:12435   */\n      0x00\n        /* \"#utility.yul\":12466:12467   */\n      0x02\n        /* \"#utility.yul\":12460:12464   */\n      dup3\n        /* \"#utility.yul\":12456:12468   */\n      div\n        /* \"#utility.yul\":12446:12468   */\n      swap1\n      pop\n        /* \"#utility.yul\":12513:12514   */\n      0x01\n        /* \"#utility.yul\":12507:12511   */\n      dup3\n        /* \"#utility.yul\":12503:12515   */\n      and\n        /* \"#utility.yul\":12534:12552   */\n      dup1\n        /* \"#utility.yul\":12524:12605   */\n      tag_235\n      jumpi\n        /* \"#utility.yul\":12590:12594   */\n      0x7f\n        /* \"#utility.yul\":12582:12588   */\n      dup3\n        /* \"#utility.yul\":12578:12595   */\n      and\n        /* \"#utility.yul\":12568:12595   */\n      swap2\n      pop\n        /* \"#utility.yul\":12524:12605   */\n    tag_235:\n        /* \"#utility.yul\":12652:12654   */\n      0x20\n        /* \"#utility.yul\":12644:12650   */\n      dup3\n        /* \"#utility.yul\":12641:12655   */\n      lt\n        /* \"#utility.yul\":12621:12639   */\n      dup2\n        /* \"#utility.yul\":12618:12656   */\n      sub\n        /* \"#utility.yul\":12615:12699   */\n      tag_236\n      jumpi\n        /* \"#utility.yul\":12671:12689   */\n      tag_237\n      tag_99\n      jump\t// in\n    tag_237:\n        /* \"#utility.yul\":12615:12699   */\n    tag_236:\n        /* \"#utility.yul\":12436:12705   */\n      pop\n        /* \"#utility.yul\":12385:12705   */\n      swap2\n      swap1\n      pop\n      jump\t// out\n        /* \"#utility.yul\":12711:12891   */\n    tag_41:\n        /* \"#utility.yul\":12759:12836   */\n      0x4e487b7100000000000000000000000000000000000000000000000000000000\n        /* \"#utility.yul\":12756:12757   */\n      0x00\n        /* \"#utility.yul\":12749:12837   */\n      mstore\n        /* \"#utility.yul\":12856:12860   */\n      0x32\n        /* \"#utility.yul\":12853:12854   */\n      0x04\n        /* \"#utility.yul\":12846:12861   */\n      mstore\n        /* \"#utility.yul\":12880:12884   */\n      0x24\n        /* \"#utility.yul\":12877:12878   */\n      0x00\n        /* \"#utility.yul\":12870:12885   */\n      revert\n        /* \"#utility.yul\":12897:13038   */\n    tag_100:\n        /* \"#utility.yul\":12946:12950   */\n      0x00\n        /* \"#utility.yul\":12969:12972   */\n      dup2\n        /* \"#utility.yul\":12961:12972   */\n      swap1\n      pop\n        /* \"#utility.yul\":12992:12995   */\n      dup2\n        /* \"#utility.yul\":12989:12990   */\n      0x00\n        /* \"#utility.yul\":12982:12996   */\n      mstore\n        /* \"#utility.yul\":13026:13030   */\n      0x20\n        /* \"#utility.yul\":13023:13024   */\n      0x00\n        /* \"#utility.yul\":13013:13031   */\n      keccak256\n        /* \"#utility.yul\":13005:13031   */\n      swap1\n      pop\n        /* \"#utility.yul\":12897:13038   */\n      swap2\n      swap1\n      pop\n      jump\t// out\n        /* \"#utility.yul\":13044:13137   */\n    tag_101:\n        /* \"#utility.yul\":13081:13087   */\n      0x00\n        /* \"#utility.yul\":13128:13130   */\n      0x20\n        /* \"#utility.yul\":13123:13125   */\n      0x1f\n        /* \"#utility.yul\":13116:13121   */\n      dup4\n        /* \"#utility.yul\":13112:13126   */\n      add\n        /* \"#utility.yul\":13108:13131   */\n      div\n        /* \"#utility.yul\":13098:13131   */\n      swap1\n      pop\n        /* \"#utility.yul\":13044:13137   */\n      swap2\n      swap1\n      pop\n      jump\t// out\n        /* \"#utility.yul\":13143:13250   */\n    tag_102:\n        /* \"#utility.yul\":13187:13195   */\n      0x00\n        /* \"#utility.yul\":13237:13242   */\n      dup3\n        /* \"#utility.yul\":13231:13235   */\n      dup3\n        /* \"#utility.yul\":13227:13243   */\n      shl\n        /* \"#utility.yul\":13206:13243   */\n      swap1\n      pop\n        /* \"#utility.yul\":13143:13250   */\n      swap3\n      swap2\n      pop\n      pop\n      jump\t// out\n        /* \"#utility.yul\":13256:13649   */\n    tag_103:\n        /* \"#utility.yul\":13325:13331   */\n      0x00\n        /* \"#utility.yul\":13375:13376   */\n      0x08\n        /* \"#utility.yul\":13363:13373   */\n      dup4\n        /* \"#utility.yul\":13359:13377   */\n      mul\n        /* \"#utility.yul\":13398:13495   */\n      tag_243\n        /* \"#utility.yul\":13428:13494   */\n      0xffffffffffffffffffffffffffffffffffffffffffffffffffffffffffffffff\n        /* \"#utility.yul\":13417:13426   */\n      dup3\n        /* \"#utility.yul\":13398:13495   */\n      tag_102\n      jump\t// in\n    tag_243:\n        /* \"#utility.yul\":13516:13555   */\n      tag_244\n        /* \"#utility.yul\":13546:13554   */\n      dup7\n        /* \"#utility.yul\":13535:13544   */\n      dup4\n        /* \"#utility.yul\":13516:13555   */\n      tag_102\n      jump\t// in\n    tag_244:\n        /* \"#utility.yul\":13504:13555   */\n      swap6\n      pop\n        /* \"#utility.yul\":13588:13592   */\n      dup1\n        /* \"#utility.yul\":13584:13593   */\n      not\n        /* \"#utility.yul\":13577:13582   */\n      dup5\n        /* \"#utility.yul\":13573:13594   */\n      and\n        /* \"#utility.yul\":13564:13594   */\n      swap4\n      pop\n        /* \"#utility.yul\":13637:13641   */\n      dup1\n        /* \"#utility.yul\":13627:13635   */\n      dup7\n        /* \"#utility.yul\":13623:13642   */\n      and\n        /* \"#utility.yul\":13616:13621   */\n      dup5\n        /* \"#utility.yul\":13613:13643   */\n      or\n        /* \"#utility.yul\":13603:13643   */\n      swap3\n      pop\n        /* \"#utility.yul\":13332:13649   */\n      pop\n      pop\n        /* \"#utility.yul\":13256:13649   */\n      swap4\n      swap3\n      pop\n      pop\n      pop\n      jump\t// out\n        /* \"#utility.yul\":13655:13715   */\n    tag_104:\n        /* \"#utility.yul\":13683:13686   */\n      0x00\n        /* \"#utility.yul\":13704:13709   */\n      dup2\n        /* \"#utility.yul\":13697:13709   */\n      swap1\n      pop\n        /* \"#utility.yul\":13655:13715   */\n      swap2\n      swap1\n      pop\n      jump\t// out\n        /* \"#utility.yul\":13721:13863   */\n    tag_105:\n        /* \"#utility.yul\":13771:13780   */\n      0x00\n        /* \"#utility.yul\":13804:13857   */\n      tag_247\n        /* \"#utility.yul\":13822:13856   */\n      tag_248\n        /* \"#utility.yul\":13831:13855   */\n      tag_249\n        /* \"#utility.yul\":13849:13854   */\n      dup5\n        /* \"#utility.yul\":13831:13855   */\n      tag_68\n      jump\t// in\n    tag_249:\n        /* \"#utility.yul\":13822:13856   */\n      tag_104\n      jump\t// in\n    tag_248:\n        /* \"#utility.yul\":13804:13857   */\n      tag_68\n      jump\t// in\n    tag_247:\n        /* \"#utility.yul\":13791:13857   */\n      swap1\n      pop\n        /* \"#utility.yul\":13721:13863   */\n      swap2\n      swap1\n      pop\n      jump\t// out\n        /* \"#utility.yul\":13869:13944   */\n    tag_106:\n        /* \"#utility.yul\":13912:13915   */\n      0x00\n        /* \"#utility.yul\":13933:13938   */\n      dup2\n        /* \"#utility.yul\":13926:13938   */\n      swap1\n      pop\n        /* \"#utility.yul\":13869:13944   */\n      swap2\n      swap1\n      pop\n      jump\t// out\n        /* \"#utility.yul\":13950:14219   */\n    tag_107:\n        /* \"#utility.yul\":14060:14099   */\n      tag_252\n        /* \"#utility.yul\":14091:14098   */\n      dup4\n        /* \"#utility.yul\":14060:14099   */\n      tag_105\n      jump\t// in\n    tag_252:\n        /* \"#utility.yul\":14121:14212   */\n      tag_253\n        /* \"#utility.yul\":14170:14211   */\n      tag_254\n        /* \"#utility.yul\":14194:14210   */\n      dup3\n        /* \"#utility.yul\":14170:14211   */\n      tag_106\n      jump\t// in\n    tag_254:\n        /* \"#utility.yul\":14162:14168   */\n      dup5\n        /* \"#utility.yul\":14155:14159   */\n      dup5\n        /* \"#utility.yul\":14149:14160   */\n      sload\n        /* \"#utility.yul\":14121:14212   */\n      tag_103\n      jump\t// in\n    tag_253:\n        /* \"#utility.yul\":14115:14119   */\n      dup3\n        /* \"#utility.yul\":14108:14213   */\n      sstore\n        /* \"#utility.yul\":14026:14219   */\n      pop\n        /* \"#utility.yul\":13950:14219   */\n      pop\n      pop\n      pop\n      jump\t// out\n        /* \"#utility.yul\":14225:14298   */\n    tag_108:\n        /* \"#utility.yul\":14270:14273   */\n      0x00\n        /* \"#utility.yul\":14225:14298   */\n      swap1\n      jump\t// out\n        /* \"#utility.yul\":14304:14493   */\n    tag_109:\n        /* \"#utility.yul\":14381:14413   */\n      tag_257\n      tag_108\n      jump\t// in\n    tag_257:\n        /* \"#utility.yul\":14422:14487   */\n      tag_258\n        /* \"#utility.yul\":14480:14486   */\n      dup2\n        /* \"#utility.yul\":14472:14478   */\n      dup5\n        /* \"#utility.yul\":14466:14470   */\n      dup5\n        /* \"#utility.yul\":14422:14487   */\n      tag_107\n      jump\t// in\n    tag_258:\n        /* \"#utility.yul\":14357:14493   */\n      pop\n        /* \"#utility.yul\":14304:14493   */\n      pop\n      pop\n      jump\t// out\n        /* \"#utility.yul\":14499:14685   */\n    tag_110:\n        /* \"#utility.yul\":14559:14679   */\n    tag_260:\n        /* \"#utility.yul\":14576:14579   */\n      dup2\n        /* \"#utility.yul\":14569:14574   */\n      dup2\n        /* \"#utility.yul\":14566:14580   */\n      lt\n        /* \"#utility.yul\":14559:14679   */\n      iszero\n      tag_262\n      jumpi\n        /* \"#utility.yul\":14630:14669   */\n      tag_263\n        /* \"#utility.yul\":14667:14668   */\n      0x00\n        /* \"#utility.yul\":14660:14665   */\n      dup3\n        /* \"#utility.yul\":14630:14669   */\n      tag_109\n      jump\t// in\n    tag_263:\n        /* \"#utility.yul\":14603:14604   */\n      0x01\n        /* \"#utility.yul\":14596:14601   */\n      dup2\n        /* \"#utility.yul\":14592:14605   */\n      add\n        /* \"#utility.yul\":14583:14605   */\n      swap1\n      pop\n        /* \"#utility.yul\":14559:14679   */\n      jump(tag_260)\n    tag_262:\n        /* \"#utility.yul\":14499:14685   */\n      pop\n      pop\n      jump\t// out\n        /* \"#utility.yul\":14691:15234   */\n    tag_111:\n        /* \"#utility.yul\":14792:14794   */\n      0x1f\n        /* \"#utility.yul\":14787:14790   */\n      dup3\n        /* \"#utility.yul\":14784:14795   */\n      gt\n        /* \"#utility.yul\":14781:15227   */\n      iszero\n      tag_265\n      jumpi\n        /* \"#utility.yul\":14826:14864   */\n      tag_266\n        /* \"#utility.yul\":14858:14863   */\n      dup2\n        /* \"#utility.yul\":14826:14864   */\n      tag_100\n      jump\t// in\n    tag_266:\n        /* \"#utility.yul\":14910:14939   */\n      tag_267\n        /* \"#utility.yul\":14928:14938   */\n      dup5\n        /* \"#utility.yul\":14910:14939   */\n      tag_101\n      jump\t// in\n    tag_267:\n        /* \"#utility.yul\":14900:14908   */\n      dup2\n        /* \"#utility.yul\":14896:14940   */\n      add\n        /* \"#utility.yul\":15093:15095   */\n      0x20\n        /* \"#utility.yul\":15081:15091   */\n      dup6\n        /* \"#utility.yul\":15078:15096   */\n      lt\n        /* \"#utility.yul\":15075:15124   */\n      iszero\n      tag_268\n      jumpi\n        /* \"#utility.yul\":15114:15122   */\n      dup2\n        /* \"#utility.yul\":15099:15122   */\n      swap1\n      pop\n        /* \"#utility.yul\":15075:15124   */\n    tag_268:\n        /* \"#utility.yul\":15137:15217   */\n      tag_269\n        /* \"#utility.yul\":15193:15215   */\n      tag_270\n        /* \"#utility.yul\":15211:15214   */\n      dup6\n        /* \"#utility.yul\":15193:15215   */\n      tag_101\n      jump\t// in\n    tag_270:\n        /* \"#utility.yul\":15183:15191   */\n      dup4\n        /* \"#utility.yul\":15179:15216   */\n      add\n        /* \"#utility.yul\":15166:15177   */\n      dup3\n        /* \"#utility.yul\":15137:15217   */\n      tag_110\n      jump\t// in\n    tag_269:\n        /* \"#utility.yul\":14796:15227   */\n      pop\n      pop\n        /* \"#utility.yul\":14781:15227   */\n    tag_265:\n        /* \"#utility.yul\":14691:15234   */\n      pop\n      pop\n      pop\n      jump\t// out\n        /* \"#utility.yul\":15240:15357   */\n    tag_112:\n        /* \"#utility.yul\":15294:15302   */\n      0x00\n        /* \"#utility.yul\":15344:15349   */\n      dup3\n        /* \"#utility.yul\":15338:15342   */\n      dup3\n        /* \"#utility.yul\":15334:15350   */\n      shr\n        /* \"#utility.yul\":15313:15350   */\n      swap1\n      pop\n        /* \"#utility.yul\":15240:15357   */\n      swap3\n      swap2\n      pop\n      pop\n      jump\t// out\n        /* \"#utility.yul\":15363:15532   */\n    tag_113:\n        /* \"#utility.yul\":15407:15413   */\n      0x00\n        /* \"#utility.yul\":15440:15491   */\n      tag_273\n        /* \"#utility.yul\":15488:15489   */\n      0x00\n        /* \"#utility.yul\":15484:15490   */\n      not\n        /* \"#utility.yul\":15476:15481   */\n      dup5\n        /* \"#utility.yul\":15473:15474   */\n      0x08\n        /* \"#utility.yul\":15469:15482   */\n      mul\n        /* \"#utility.yul\":15440:15491   */\n      tag_112\n      jump\t// in\n    tag_273:\n        /* \"#utility.yul\":15436:15492   */\n      not\n        /* \"#utility.yul\":15521:15525   */\n      dup1\n        /* \"#utility.yul\":15515:15519   */\n      dup4\n        /* \"#utility.yul\":15511:15526   */\n      and\n        /* \"#utility.yul\":15501:15526   */\n      swap2\n      pop\n        /* \"#utility.yul\":15414:15532   */\n      pop\n        /* \"#utility.yul\":15363:15532   */\n      swap3\n      swap2\n      pop\n      pop\n      jump\t// out\n        /* \"#utility.yul\":15537:15832   */\n    tag_114:\n        /* \"#utility.yul\":15613:15617   */\n      0x00\n        /* \"#utility.yul\":15759:15788   */\n      tag_275\n        /* \"#utility.yul\":15784:15787   */\n      dup4\n        /* \"#utility.yul\":15778:15782   */\n      dup4\n        /* \"#utility.yul\":15759:15788   */\n      tag_113\n      jump\t// in\n    tag_275:\n        /* \"#utility.yul\":15751:15788   */\n      swap2\n      pop\n        /* \"#utility.yul\":15821:15824   */\n      dup3\n        /* \"#utility.yul\":15818:15819   */\n      0x02\n        /* \"#utility.yul\":15814:15825   */\n      mul\n        /* \"#utility.yul\":15808:15812   */\n      dup3\n        /* \"#utility.yul\":15805:15826   */\n      or\n        /* \"#utility.yul\":15797:15826   */\n      swap1\n      pop\n        /* \"#utility.yul\":15537:15832   */\n      swap3\n      swap2\n      pop\n      pop\n      jump\t// out\n        /* \"#utility.yul\":15837:17232   */\n    tag_60:\n        /* \"#utility.yul\":15954:15991   */\n      tag_277\n        /* \"#utility.yul\":15987:15990   */\n      dup3\n        /* \"#utility.yul\":15954:15991   */\n      tag_72\n      jump\t// in\n    tag_277:\n        /* \"#utility.yul\":16056:16074   */\n      0xffffffffffffffff\n        /* \"#utility.yul\":16048:16054   */\n      dup2\n        /* \"#utility.yul\":16045:16075   */\n      gt\n        /* \"#utility.yul\":16042:16098   */\n      iszero\n      tag_278\n      jumpi\n        /* \"#utility.yul\":16078:16096   */\n      tag_279\n      tag_92\n      jump\t// in\n    tag_279:\n        /* \"#utility.yul\":16042:16098   */\n    tag_278:\n        /* \"#utility.yul\":16122:16160   */\n      tag_280\n        /* \"#utility.yul\":16154:16158   */\n      dup3\n        /* \"#utility.yul\":16148:16159   */\n      sload\n        /* \"#utility.yul\":16122:16160   */\n      tag_31\n      jump\t// in\n    tag_280:\n        /* \"#utility.yul\":16207:16274   */\n      tag_281\n        /* \"#utility.yul\":16267:16273   */\n      dup3\n        /* \"#utility.yul\":16259:16265   */\n      dup3\n        /* \"#utility.yul\":16253:16257   */\n      dup6\n        /* \"#utility.yul\":16207:16274   */\n      tag_111\n      jump\t// in\n    tag_281:\n        /* \"#utility.yul\":16301:16302   */\n      0x00\n        /* \"#utility.yul\":16325:16329   */\n      0x20\n        /* \"#utility.yul\":16312:16329   */\n      swap1\n      pop\n        /* \"#utility.yul\":16357:16359   */\n      0x1f\n        /* \"#utility.yul\":16349:16355   */\n      dup4\n        /* \"#utility.yul\":16346:16360   */\n      gt\n        /* \"#utility.yul\":16374:16375   */\n      0x01\n        /* \"#utility.yul\":16369:16987   */\n      dup2\n      eq\n      tag_283\n      jumpi\n        /* \"#utility.yul\":17031:17032   */\n      0x00\n        /* \"#utility.yul\":17048:17054   */\n      dup5\n        /* \"#utility.yul\":17045:17122   */\n      iszero\n      tag_284\n      jumpi\n        /* \"#utility.yul\":17097:17106   */\n      dup3\n        /* \"#utility.yul\":17092:17095   */\n      dup8\n        /* \"#utility.yul\":17088:17107   */\n      add\n        /* \"#utility.yul\":17082:17108   */\n      mload\n        /* \"#utility.yul\":17073:17108   */\n      swap1\n      pop\n        /* \"#utility.yul\":17045:17122   */\n    tag_284:\n        /* \"#utility.yul\":17148:17215   */\n      tag_285\n        /* \"#utility.yul\":17208:17214   */\n      dup6\n        /* \"#utility.yul\":17201:17206   */\n      dup3\n        /* \"#utility.yul\":17148:17215   */\n      tag_114\n      jump\t// in\n    tag_285:\n        /* \"#utility.yul\":17142:17146   */\n      dup7\n        /* \"#utility.yul\":17135:17216   */\n      sstore\n        /* \"#utility.yul\":17004:17226   */\n      pop\n        /* \"#utility.yul\":16339:17226   */\n      jump(tag_282)\n        /* \"#utility.yul\":16369:16987   */\n    tag_283:\n        /* \"#utility.yul\":16421:16425   */\n      0x1f\n        /* \"#utility.yul\":16417:16426   */\n      not\n        /* \"#utility.yul\":16409:16415   */\n      dup5\n        /* \"#utility.yul\":16405:16427   */\n      and\n        /* \"#utility.yul\":16455:16492   */\n      tag_286\n        /* \"#utility.yul\":16487:16491   */\n      dup7\n        /* \"#utility.yul\":16455:16492   */\n      tag_100\n      jump\t// in\n    tag_286:\n        /* \"#utility.yul\":16514:16515   */\n      0x00\n        /* \"#utility.yul\":16528:16736   */\n    tag_287:\n        /* \"#utility.yul\":16542:16549   */\n      dup3\n        /* \"#utility.yul\":16539:16540   */\n      dup2\n        /* \"#utility.yul\":16536:16550   */\n      lt\n        /* \"#utility.yul\":16528:16736   */\n      iszero\n      tag_289\n      jumpi\n        /* \"#utility.yul\":16621:16630   */\n      dup5\n        /* \"#utility.yul\":16616:16619   */\n      dup10\n        /* \"#utility.yul\":16612:16631   */\n      add\n        /* \"#utility.yul\":16606:16632   */\n      mload\n        /* \"#utility.yul\":16598:16604   */\n      dup3\n        /* \"#utility.yul\":16591:16633   */\n      sstore\n        /* \"#utility.yul\":16672:16673   */\n      0x01\n        /* \"#utility.yul\":16664:16670   */\n      dup3\n        /* \"#utility.yul\":16660:16674   */\n      add\n        /* \"#utility.yul\":16650:16674   */\n      swap2\n      pop\n        /* \"#utility.yul\":16719:16721   */\n      0x20\n        /* \"#utility.yul\":16708:16717   */\n      dup6\n        /* \"#utility.yul\":16704:16722   */\n      add\n        /* \"#utility.yul\":16691:16722   */\n      swap5\n      pop\n        /* \"#utility.yul\":16565:16569   */\n      0x20\n        /* \"#utility.yul\":16562:16563   */\n      dup2\n        /* \"#utility.yul\":16558:16570   */\n      add\n        /* \"#utility.yul\":16553:16570   */\n      swap1\n      pop\n        /* \"#utility.yul\":16528:16736   */\n      jump(tag_287)\n    tag_289:\n        /* \"#utility.yul\":16764:16770   */\n      dup7\n        /* \"#utility.yul\":16755:16762   */\n      dup4\n        /* \"#utility.yul\":16752:16771   */\n      lt\n        /* \"#utility.yul\":16749:16928   */\n      iszero\n      tag_290\n      jumpi\n        /* \"#utility.yul\":16822:16831   */\n      dup5\n        /* \"#utility.yul\":16817:16820   */\n      dup10\n        /* \"#utility.yul\":16813:16832   */\n      add\n        /* \"#utility.yul\":16807:16833   */\n      mload\n        /* \"#utility.yul\":16865:16913   */\n      tag_291\n        /* \"#utility.yul\":16907:16911   */\n      0x1f\n        /* \"#utility.yul\":16899:16905   */\n      dup10\n        /* \"#utility.yul\":16895:16912   */\n      and\n        /* \"#utility.yul\":16884:16893   */\n      dup3\n        /* \"#utility.yul\":16865:16913   */\n      tag_113\n      jump\t// in\n    tag_291:\n        /* \"#utility.yul\":16857:16863   */\n      dup4\n        /* \"#utility.yul\":16850:16914   */\n      sstore\n        /* \"#utility.yul\":16772:16928   */\n      pop\n        /* \"#utility.yul\":16749:16928   */\n    tag_290:\n        /* \"#utility.yul\":16974:16975   */\n      0x01\n        /* \"#utility.yul\":16970:16971   */\n      0x02\n        /* \"#utility.yul\":16962:16968   */\n      dup9\n        /* \"#utility.yul\":16958:16972   */\n      mul\n        /* \"#utility.yul\":16954:16976   */\n      add\n        /* \"#utility.yul\":16948:16952   */\n      dup9\n        /* \"#utility.yul\":16941:16977   */\n      sstore\n        /* \"#utility.yul\":16376:16987   */\n      pop\n      pop\n      pop\n        /* \"#utility.yul\":16339:17226   */\n    tag_282:\n      pop\n        /* \"#utility.yul\":15929:17232   */\n      pop\n      pop\n      pop\n        /* \"#utility.yul\":15837:17232   */\n      pop\n      pop\n      jump\t// out\n\n    auxdata: 0xa26469706673582212204434a0a5d3c61a4fd5c801a1adae005857d8005543ec7ca8823934004060b6ae64736f6c63430008180033\n}\n",
				"bytecode": {
					"linkReferences": {},
					"object": "608060405234801561000f575f80fd5b50610ee98061001d5f395ff3fe608060405234801561000f575f80fd5b506004361061004a575f3560e01c806305a1b4a91461004e578063112f54e31461008157806312e7ee1c146100b15780637c9cd2bc146100e1575b5f80fd5b610068600480360381019061006391906106ce565b6100fd565b60405161007894939291906107b4565b60405180910390f35b61009b600480360381019061009691906106ce565b6101e7565b6040516100a891906108c4565b60405180910390f35b6100cb60048036038101906100c691906108e4565b610354565b6040516100d89190610a2a565b60405180910390f35b6100fb60048036038101906100f69190610b76565b6104e4565b005b5f602052815f5260405f208181548110610115575f80fd5b905f5260205f2090600402015f9150915050805f015f9054906101000a900473ffffffffffffffffffffffffffffffffffffffff169080600101805461015a90610bea565b80601f016020809104026020016040519081016040528092919081815260200182805461018690610bea565b80156101d15780601f106101a8576101008083540402835291602001916101d1565b820191905f5260205f20905b8154815290600101906020018083116101b457829003601f168201915b5050505050908060020154908060030154905084565b6101ef6105f5565b5f808473ffffffffffffffffffffffffffffffffffffffff1673ffffffffffffffffffffffffffffffffffffffff1681526020019081526020015f20828154811061023d5761023c610c1a565b5b905f5260205f2090600402016040518060800160405290815f82015f9054906101000a900473ffffffffffffffffffffffffffffffffffffffff1673ffffffffffffffffffffffffffffffffffffffff1673ffffffffffffffffffffffffffffffffffffffff1681526020016001820180546102b890610bea565b80601f01602080910402602001604051908101604052809291908181526020018280546102e490610bea565b801561032f5780601f106103065761010080835404028352916020019161032f565b820191905f5260205f20905b81548152906001019060200180831161031257829003601f168201915b5050505050815260200160028201548152602001600382015481525050905092915050565b60605f808373ffffffffffffffffffffffffffffffffffffffff1673ffffffffffffffffffffffffffffffffffffffff1681526020019081526020015f20805480602002602001604051908101604052809291908181526020015f905b828210156104d9578382905f5260205f2090600402016040518060800160405290815f82015f9054906101000a900473ffffffffffffffffffffffffffffffffffffffff1673ffffffffffffffffffffffffffffffffffffffff1673ffffffffffffffffffffffffffffffffffffffff16815260200160018201805461043690610bea565b80601f016020809104026020016040519081016040528092919081815260200182805461046290610bea565b80156104ad5780601f10610484576101008083540402835291602001916104ad565b820191905f5260205f20905b81548152906001019060200180831161049057829003601f168201915b5050505050815260200160028201548152602001600382015481525050815260200190600101906103b1565b505050509050919050565b5f60405180608001604052803373ffffffffffffffffffffffffffffffffffffffff1681526020018381526020014281526020015f81525090505f803373ffffffffffffffffffffffffffffffffffffffff1673ffffffffffffffffffffffffffffffffffffffff1681526020019081526020015f2081908060018154018082558091505060019003905f5260205f2090600402015f909190919091505f820151815f015f6101000a81548173ffffffffffffffffffffffffffffffffffffffff021916908373ffffffffffffffffffffffffffffffffffffffff16021790555060208201518160010190816105da9190610de4565b50604082015181600201556060820151816003015550505050565b60405180608001604052805f73ffffffffffffffffffffffffffffffffffffffff168152602001606081526020015f81526020015f81525090565b5f604051905090565b5f80fd5b5f80fd5b5f73ffffffffffffffffffffffffffffffffffffffff82169050919050565b5f61066a82610641565b9050919050565b61067a81610660565b8114610684575f80fd5b50565b5f8135905061069581610671565b92915050565b5f819050919050565b6106ad8161069b565b81146106b7575f80fd5b50565b5f813590506106c8816106a4565b92915050565b5f80604083850312156106e4576106e3610639565b5b5f6106f185828601610687565b9250506020610702858286016106ba565b9150509250929050565b61071581610660565b82525050565b5f81519050919050565b5f82825260208201905092915050565b5f5b83811015610752578082015181840152602081019050610737565b5f8484015250505050565b5f601f19601f8301169050919050565b5f6107778261071b565b6107818185610725565b9350610791818560208601610735565b61079a8161075d565b840191505092915050565b6107ae8161069b565b82525050565b5f6080820190506107c75f83018761070c565b81810360208301526107d9818661076d565b90506107e860408301856107a5565b6107f560608301846107a5565b95945050505050565b61080781610660565b82525050565b5f82825260208201905092915050565b5f6108278261071b565b610831818561080d565b9350610841818560208601610735565b61084a8161075d565b840191505092915050565b61085e8161069b565b82525050565b5f608083015f8301516108795f8601826107fe565b5060208301518482036020860152610891828261081d565b91505060408301516108a66040860182610855565b5060608301516108b96060860182610855565b508091505092915050565b5f6020820190508181035f8301526108dc8184610864565b905092915050565b5f602082840312156108f9576108f8610639565b5b5f61090684828501610687565b91505092915050565b5f81519050919050565b5f82825260208201905092915050565b5f819050602082019050919050565b5f608083015f83015161094d5f8601826107fe565b5060208301518482036020860152610965828261081d565b915050604083015161097a6040860182610855565b50606083015161098d6060860182610855565b508091505092915050565b5f6109a38383610938565b905092915050565b5f602082019050919050565b5f6109c18261090f565b6109cb8185610919565b9350836020820285016109dd85610929565b805f5b85811015610a1857848403895281516109f98582610998565b9450610a04836109ab565b925060208a019950506001810190506109e0565b50829750879550505050505092915050565b5f6020820190508181035f830152610a4281846109b7565b905092915050565b5f80fd5b5f80fd5b7f4e487b71000000000000000000000000000000000000000000000000000000005f52604160045260245ffd5b610a888261075d565b810181811067ffffffffffffffff82111715610aa757610aa6610a52565b5b80604052505050565b5f610ab9610630565b9050610ac58282610a7f565b919050565b5f67ffffffffffffffff821115610ae457610ae3610a52565b5b610aed8261075d565b9050602081019050919050565b828183375f83830152505050565b5f610b1a610b1584610aca565b610ab0565b905082815260208101848484011115610b3657610b35610a4e565b5b610b41848285610afa565b509392505050565b5f82601f830112610b5d57610b5c610a4a565b5b8135610b6d848260208601610b08565b91505092915050565b5f60208284031215610b8b57610b8a610639565b5b5f82013567ffffffffffffffff811115610ba857610ba761063d565b5b610bb484828501610b49565b91505092915050565b7f4e487b71000000000000000000000000000000000000000000000000000000005f52602260045260245ffd5b5f6002820490506001821680610c0157607f821691505b602082108103610c1457610c13610bbd565b5b50919050565b7f4e487b71000000000000000000000000000000000000000000000000000000005f52603260045260245ffd5b5f819050815f5260205f209050919050565b5f6020601f8301049050919050565b5f82821b905092915050565b5f60088302610ca37fffffffffffffffffffffffffffffffffffffffffffffffffffffffffffffffff82610c68565b610cad8683610c68565b95508019841693508086168417925050509392505050565b5f819050919050565b5f610ce8610ce3610cde8461069b565b610cc5565b61069b565b9050919050565b5f819050919050565b610d0183610cce565b610d15610d0d82610cef565b848454610c74565b825550505050565b5f90565b610d29610d1d565b610d34818484610cf8565b505050565b5b81811015610d5757610d4c5f82610d21565b600181019050610d3a565b5050565b601f821115610d9c57610d6d81610c47565b610d7684610c59565b81016020851015610d85578190505b610d99610d9185610c59565b830182610d39565b50505b505050565b5f82821c905092915050565b5f610dbc5f1984600802610da1565b1980831691505092915050565b5f610dd48383610dad565b9150826002028217905092915050565b610ded8261071b565b67ffffffffffffffff811115610e0657610e05610a52565b5b610e108254610bea565b610e1b828285610d5b565b5f60209050601f831160018114610e4c575f8415610e3a578287015190505b610e448582610dc9565b865550610eab565b601f198416610e5a86610c47565b5f5b82811015610e8157848901518255600182019150602085019450602081019050610e5c565b86831015610e9e5784890151610e9a601f891682610dad565b8355505b6001600288020188555050505b50505050505056fea26469706673582212204434a0a5d3c61a4fd5c801a1adae005857d8005543ec7ca8823934004060b6ae64736f6c63430008180033",
					"opcodes": "PUSH1 0x80 PUSH1 0x40 MSTORE CALLVALUE DUP1 ISZERO PUSH2 0xF JUMPI PUSH0 DUP1 REVERT JUMPDEST POP PUSH2 0xEE9 DUP1 PUSH2 0x1D PUSH0 CODECOPY PUSH0 RETURN INVALID PUSH1 0x80 PUSH1 0x40 MSTORE CALLVALUE DUP1 ISZERO PUSH2 0xF JUMPI PUSH0 DUP1 REVERT JUMPDEST POP PUSH1 0x4 CALLDATASIZE LT PUSH2 0x4A JUMPI PUSH0 CALLDATALOAD PUSH1 0xE0 SHR DUP1 PUSH4 0x5A1B4A9 EQ PUSH2 0x4E JUMPI DUP1 PUSH4 0x112F54E3 EQ PUSH2 0x81 JUMPI DUP1 PUSH4 0x12E7EE1C EQ PUSH2 0xB1 JUMPI DUP1 PUSH4 0x7C9CD2BC EQ PUSH2 0xE1 JUMPI JUMPDEST PUSH0 DUP1 REVERT JUMPDEST PUSH2 0x68 PUSH1 0x4 DUP1 CALLDATASIZE SUB DUP2 ADD SWAP1 PUSH2 0x63 SWAP2 SWAP1 PUSH2 0x6CE JUMP JUMPDEST PUSH2 0xFD JUMP JUMPDEST PUSH1 0x40 MLOAD PUSH2 0x78 SWAP5 SWAP4 SWAP3 SWAP2 SWAP1 PUSH2 0x7B4 JUMP JUMPDEST PUSH1 0x40 MLOAD DUP1 SWAP2 SUB SWAP1 RETURN JUMPDEST PUSH2 0x9B PUSH1 0x4 DUP1 CALLDATASIZE SUB DUP2 ADD SWAP1 PUSH2 0x96 SWAP2 SWAP1 PUSH2 0x6CE JUMP JUMPDEST PUSH2 0x1E7 JUMP JUMPDEST PUSH1 0x40 MLOAD PUSH2 0xA8 SWAP2 SWAP1 PUSH2 0x8C4 JUMP JUMPDEST PUSH1 0x40 MLOAD DUP1 SWAP2 SUB SWAP1 RETURN JUMPDEST PUSH2 0xCB PUSH1 0x4 DUP1 CALLDATASIZE SUB DUP2 ADD SWAP1 PUSH2 0xC6 SWAP2 SWAP1 PUSH2 0x8E4 JUMP JUMPDEST PUSH2 0x354 JUMP JUMPDEST PUSH1 0x40 MLOAD PUSH2 0xD8 SWAP2 SWAP1 PUSH2 0xA2A JUMP JUMPDEST PUSH1 0x40 MLOAD DUP1 SWAP2 SUB SWAP1 RETURN JUMPDEST PUSH2 0xFB PUSH1 0x4 DUP1 CALLDATASIZE SUB DUP2 ADD SWAP1 PUSH2 0xF6 SWAP2 SWAP1 PUSH2 0xB76 JUMP JUMPDEST PUSH2 0x4E4 JUMP JUMPDEST STOP JUMPDEST PUSH0 PUSH1 0x20 MSTORE DUP2 PUSH0 MSTORE PUSH1 0x40 PUSH0 KECCAK256 DUP2 DUP2 SLOAD DUP2 LT PUSH2 0x115 JUMPI PUSH0 DUP1 REVERT JUMPDEST SWAP1 PUSH0 MSTORE PUSH1 0x20 PUSH0 KECCAK256 SWAP1 PUSH1 0x4 MUL ADD PUSH0 SWAP2 POP SWAP2 POP POP DUP1 PUSH0 ADD PUSH0 SWAP1 SLOAD SWAP1 PUSH2 0x100 EXP SWAP1 DIV PUSH20 0xFFFFFFFFFFFFFFFFFFFFFFFFFFFFFFFFFFFFFFFF AND SWAP1 DUP1 PUSH1 0x1 ADD DUP1 SLOAD PUSH2 0x15A SWAP1 PUSH2 0xBEA JUMP JUMPDEST DUP1 PUSH1 0x1F ADD PUSH1 0x20 DUP1 SWAP2 DIV MUL PUSH1 0x20 ADD PUSH1 0x40 MLOAD SWAP1 DUP2 ADD PUSH1 0x40 MSTORE DUP1 SWAP3 SWAP2 SWAP1 DUP2 DUP2 MSTORE PUSH1 0x20 ADD DUP3 DUP1 SLOAD PUSH2 0x186 SWAP1 PUSH2 0xBEA JUMP JUMPDEST DUP1 ISZERO PUSH2 0x1D1 JUMPI DUP1 PUSH1 0x1F LT PUSH2 0x1A8 JUMPI PUSH2 0x100 DUP1 DUP4 SLOAD DIV MUL DUP4 MSTORE SWAP2 PUSH1 0x20 ADD SWAP2 PUSH2 0x1D1 JUMP JUMPDEST DUP3 ADD SWAP2 SWAP1 PUSH0 MSTORE PUSH1 0x20 PUSH0 KECCAK256 SWAP1 JUMPDEST DUP2 SLOAD DUP2 MSTORE SWAP1 PUSH1 0x1 ADD SWAP1 PUSH1 0x20 ADD DUP1 DUP4 GT PUSH2 0x1B4 JUMPI DUP3 SWAP1 SUB PUSH1 0x1F AND DUP3 ADD SWAP2 JUMPDEST POP POP POP POP POP SWAP1 DUP1 PUSH1 0x2 ADD SLOAD SWAP1 DUP1 PUSH1 0x3 ADD SLOAD SWAP1 POP DUP5 JUMP JUMPDEST PUSH2 0x1EF PUSH2 0x5F5 JUMP JUMPDEST PUSH0 DUP1 DUP5 PUSH20 0xFFFFFFFFFFFFFFFFFFFFFFFFFFFFFFFFFFFFFFFF AND PUSH20 0xFFFFFFFFFFFFFFFFFFFFFFFFFFFFFFFFFFFFFFFF AND DUP2 MSTORE PUSH1 0x20 ADD SWAP1 DUP2 MSTORE PUSH1 0x20 ADD PUSH0 KECCAK256 DUP3 DUP2 SLOAD DUP2 LT PUSH2 0x23D JUMPI PUSH2 0x23C PUSH2 0xC1A JUMP JUMPDEST JUMPDEST SWAP1 PUSH0 MSTORE PUSH1 0x20 PUSH0 KECCAK256 SWAP1 PUSH1 0x4 MUL ADD PUSH1 0x40 MLOAD DUP1 PUSH1 0x80 ADD PUSH1 0x40 MSTORE SWAP1 DUP2 PUSH0 DUP3 ADD PUSH0 SWAP1 SLOAD SWAP1 PUSH2 0x100 EXP SWAP1 DIV PUSH20 0xFFFFFFFFFFFFFFFFFFFFFFFFFFFFFFFFFFFFFFFF AND PUSH20 0xFFFFFFFFFFFFFFFFFFFFFFFFFFFFFFFFFFFFFFFF AND PUSH20 0xFFFFFFFFFFFFFFFFFFFFFFFFFFFFFFFFFFFFFFFF AND DUP2 MSTORE PUSH1 0x20 ADD PUSH1 0x1 DUP3 ADD DUP1 SLOAD PUSH2 0x2B8 SWAP1 PUSH2 0xBEA JUMP JUMPDEST DUP1 PUSH1 0x1F ADD PUSH1 0x20 DUP1 SWAP2 DIV MUL PUSH1 0x20 ADD PUSH1 0x40 MLOAD SWAP1 DUP2 ADD PUSH1 0x40 MSTORE DUP1 SWAP3 SWAP2 SWAP1 DUP2 DUP2 MSTORE PUSH1 0x20 ADD DUP3 DUP1 SLOAD PUSH2 0x2E4 SWAP1 PUSH2 0xBEA JUMP JUMPDEST DUP1 ISZERO PUSH2 0x32F JUMPI DUP1 PUSH1 0x1F LT PUSH2 0x306 JUMPI PUSH2 0x100 DUP1 DUP4 SLOAD DIV MUL DUP4 MSTORE SWAP2 PUSH1 0x20 ADD SWAP2 PUSH2 0x32F JUMP JUMPDEST DUP3 ADD SWAP2 SWAP1 PUSH0 MSTORE PUSH1 0x20 PUSH0 KECCAK256 SWAP1 JUMPDEST DUP2 SLOAD DUP2 MSTORE SWAP1 PUSH1 0x1 ADD SWAP1 PUSH1 0x20 ADD DUP1 DUP4 GT PUSH2 0x312 JUMPI DUP3 SWAP1 SUB PUSH1 0x1F AND DUP3 ADD SWAP2 JUMPDEST POP POP POP POP POP DUP2 MSTORE PUSH1 0x20 ADD PUSH1 0x2 DUP3 ADD SLOAD DUP2 MSTORE PUSH1 0x20 ADD PUSH1 0x3 DUP3 ADD SLOAD DUP2 MSTORE POP POP SWAP1 POP SWAP3 SWAP2 POP POP JUMP JUMPDEST PUSH1 0x60 PUSH0 DUP1 DUP4 PUSH20 0xFFFFFFFFFFFFFFFFFFFFFFFFFFFFFFFFFFFFFFFF AND PUSH20 0xFFFFFFFFFFFFFFFFFFFFFFFFFFFFFFFFFFFFFFFF AND DUP2 MSTORE PUSH1 0x20 ADD SWAP1 DUP2 MSTORE PUSH1 0x20 ADD PUSH0 KECCAK256 DUP1 SLOAD DUP1 PUSH1 0x20 MUL PUSH1 0x20 ADD PUSH1 0x40 MLOAD SWAP1 DUP2 ADD PUSH1 0x40 MSTORE DUP1 SWAP3 SWAP2 SWAP1 DUP2 DUP2 MSTORE PUSH1 0x20 ADD PUSH0 SWAP1 JUMPDEST DUP3 DUP3 LT ISZERO PUSH2 0x4D9 JUMPI DUP4 DUP3 SWAP1 PUSH0 MSTORE PUSH1 0x20 PUSH0 KECCAK256 SWAP1 PUSH1 0x4 MUL ADD PUSH1 0x40 MLOAD DUP1 PUSH1 0x80 ADD PUSH1 0x40 MSTORE SWAP1 DUP2 PUSH0 DUP3 ADD PUSH0 SWAP1 SLOAD SWAP1 PUSH2 0x100 EXP SWAP1 DIV PUSH20 0xFFFFFFFFFFFFFFFFFFFFFFFFFFFFFFFFFFFFFFFF AND PUSH20 0xFFFFFFFFFFFFFFFFFFFFFFFFFFFFFFFFFFFFFFFF AND PUSH20 0xFFFFFFFFFFFFFFFFFFFFFFFFFFFFFFFFFFFFFFFF AND DUP2 MSTORE PUSH1 0x20 ADD PUSH1 0x1 DUP3 ADD DUP1 SLOAD PUSH2 0x436 SWAP1 PUSH2 0xBEA JUMP JUMPDEST DUP1 PUSH1 0x1F ADD PUSH1 0x20 DUP1 SWAP2 DIV MUL PUSH1 0x20 ADD PUSH1 0x40 MLOAD SWAP1 DUP2 ADD PUSH1 0x40 MSTORE DUP1 SWAP3 SWAP2 SWAP1 DUP2 DUP2 MSTORE PUSH1 0x20 ADD DUP3 DUP1 SLOAD PUSH2 0x462 SWAP1 PUSH2 0xBEA JUMP JUMPDEST DUP1 ISZERO PUSH2 0x4AD JUMPI DUP1 PUSH1 0x1F LT PUSH2 0x484 JUMPI PUSH2 0x100 DUP1 DUP4 SLOAD DIV MUL DUP4 MSTORE SWAP2 PUSH1 0x20 ADD SWAP2 PUSH2 0x4AD JUMP JUMPDEST DUP3 ADD SWAP2 SWAP1 PUSH0 MSTORE PUSH1 0x20 PUSH0 KECCAK256 SWAP1 JUMPDEST DUP2 SLOAD DUP2 MSTORE SWAP1 PUSH1 0x1 ADD SWAP1 PUSH1 0x20 ADD DUP1 DUP4 GT PUSH2 0x490 JUMPI DUP3 SWAP1 SUB PUSH1 0x1F AND DUP3 ADD SWAP2 JUMPDEST POP POP POP POP POP DUP2 MSTORE PUSH1 0x20 ADD PUSH1 0x2 DUP3 ADD SLOAD DUP2 MSTORE PUSH1 0x20 ADD PUSH1 0x3 DUP3 ADD SLOAD DUP2 MSTORE POP POP DUP2 MSTORE PUSH1 0x20 ADD SWAP1 PUSH1 0x1 ADD SWAP1 PUSH2 0x3B1 JUMP JUMPDEST POP POP POP POP SWAP1 POP SWAP2 SWAP1 POP JUMP JUMPDEST PUSH0 PUSH1 0x40 MLOAD DUP1 PUSH1 0x80 ADD PUSH1 0x40 MSTORE DUP1 CALLER PUSH20 0xFFFFFFFFFFFFFFFFFFFFFFFFFFFFFFFFFFFFFFFF AND DUP2 MSTORE PUSH1 0x20 ADD DUP4 DUP2 MSTORE PUSH1 0x20 ADD TIMESTAMP DUP2 MSTORE PUSH1 0x20 ADD PUSH0 DUP2 MSTORE POP SWAP1 POP PUSH0 DUP1 CALLER PUSH20 0xFFFFFFFFFFFFFFFFFFFFFFFFFFFFFFFFFFFFFFFF AND PUSH20 0xFFFFFFFFFFFFFFFFFFFFFFFFFFFFFFFFFFFFFFFF AND DUP2 MSTORE PUSH1 0x20 ADD SWAP1 DUP2 MSTORE PUSH1 0x20 ADD PUSH0 KECCAK256 DUP2 SWAP1 DUP1 PUSH1 0x1 DUP2 SLOAD ADD DUP1 DUP3 SSTORE DUP1 SWAP2 POP POP PUSH1 0x1 SWAP1 SUB SWAP1 PUSH0 MSTORE PUSH1 0x20 PUSH0 KECCAK256 SWAP1 PUSH1 0x4 MUL ADD PUSH0 SWAP1 SWAP2 SWAP1 SWAP2 SWAP1 SWAP2 POP PUSH0 DUP3 ADD MLOAD DUP2 PUSH0 ADD PUSH0 PUSH2 0x100 EXP DUP2 SLOAD DUP2 PUSH20 0xFFFFFFFFFFFFFFFFFFFFFFFFFFFFFFFFFFFFFFFF MUL NOT AND SWAP1 DUP4 PUSH20 0xFFFFFFFFFFFFFFFFFFFFFFFFFFFFFFFFFFFFFFFF AND MUL OR SWAP1 SSTORE POP PUSH1 0x20 DUP3 ADD MLOAD DUP2 PUSH1 0x1 ADD SWAP1 DUP2 PUSH2 0x5DA SWAP2 SWAP1 PUSH2 0xDE4 JUMP JUMPDEST POP PUSH1 0x40 DUP3 ADD MLOAD DUP2 PUSH1 0x2 ADD SSTORE PUSH1 0x60 DUP3 ADD MLOAD DUP2 PUSH1 0x3 ADD SSTORE POP POP POP POP JUMP JUMPDEST PUSH1 0x40 MLOAD DUP1 PUSH1 0x80 ADD PUSH1 0x40 MSTORE DUP1 PUSH0 PUSH20 0xFFFFFFFFFFFFFFFFFFFFFFFFFFFFFFFFFFFFFFFF AND DUP2 MSTORE PUSH1 0x20 ADD PUSH1 0x60 DUP2 MSTORE PUSH1 0x20 ADD PUSH0 DUP2 MSTORE PUSH1 0x20 ADD PUSH0 DUP2 MSTORE POP SWAP1 JUMP JUMPDEST PUSH0 PUSH1 0x40 MLOAD SWAP1 POP SWAP1 JUMP JUMPDEST PUSH0 DUP1 REVERT JUMPDEST PUSH0 DUP1 REVERT JUMPDEST PUSH0 PUSH20 0xFFFFFFFFFFFFFFFFFFFFFFFFFFFFFFFFFFFFFFFF DUP3 AND SWAP1 POP SWAP2 SWAP1 POP JUMP JUMPDEST PUSH0 PUSH2 0x66A DUP3 PUSH2 0x641 JUMP JUMPDEST SWAP1 POP SWAP2 SWAP1 POP JUMP JUMPDEST PUSH2 0x67A DUP2 PUSH2 0x660 JUMP JUMPDEST DUP2 EQ PUSH2 0x684 JUMPI PUSH0 DUP1 REVERT JUMPDEST POP JUMP JUMPDEST PUSH0 DUP2 CALLDATALOAD SWAP1 POP PUSH2 0x695 DUP2 PUSH2 0x671 JUMP JUMPDEST SWAP3 SWAP2 POP POP JUMP JUMPDEST PUSH0 DUP2 SWAP1 POP SWAP2 SWAP1 POP JUMP JUMPDEST PUSH2 0x6AD DUP2 PUSH2 0x69B JUMP JUMPDEST DUP2 EQ PUSH2 0x6B7 JUMPI PUSH0 DUP1 REVERT JUMPDEST POP JUMP JUMPDEST PUSH0 DUP2 CALLDATALOAD SWAP1 POP PUSH2 0x6C8 DUP2 PUSH2 0x6A4 JUMP JUMPDEST SWAP3 SWAP2 POP POP JUMP JUMPDEST PUSH0 DUP1 PUSH1 0x40 DUP4 DUP6 SUB SLT ISZERO PUSH2 0x6E4 JUMPI PUSH2 0x6E3 PUSH2 0x639 JUMP JUMPDEST JUMPDEST PUSH0 PUSH2 0x6F1 DUP6 DUP3 DUP7 ADD PUSH2 0x687 JUMP JUMPDEST SWAP3 POP POP PUSH1 0x20 PUSH2 0x702 DUP6 DUP3 DUP7 ADD PUSH2 0x6BA JUMP JUMPDEST SWAP2 POP POP SWAP3 POP SWAP3 SWAP1 POP JUMP JUMPDEST PUSH2 0x715 DUP2 PUSH2 0x660 JUMP JUMPDEST DUP3 MSTORE POP POP JUMP JUMPDEST PUSH0 DUP2 MLOAD SWAP1 POP SWAP2 SWAP1 POP JUMP JUMPDEST PUSH0 DUP3 DUP3 MSTORE PUSH1 0x20 DUP3 ADD SWAP1 POP SWAP3 SWAP2 POP POP JUMP JUMPDEST PUSH0 JUMPDEST DUP4 DUP2 LT ISZERO PUSH2 0x752 JUMPI DUP1 DUP3 ADD MLOAD DUP2 DUP5 ADD MSTORE PUSH1 0x20 DUP2 ADD SWAP1 POP PUSH2 0x737 JUMP JUMPDEST PUSH0 DUP5 DUP5 ADD MSTORE POP POP POP POP JUMP JUMPDEST PUSH0 PUSH1 0x1F NOT PUSH1 0x1F DUP4 ADD AND SWAP1 POP SWAP2 SWAP1 POP JUMP JUMPDEST PUSH0 PUSH2 0x777 DUP3 PUSH2 0x71B JUMP JUMPDEST PUSH2 0x781 DUP2 DUP6 PUSH2 0x725 JUMP JUMPDEST SWAP4 POP PUSH2 0x791 DUP2 DUP6 PUSH1 0x20 DUP7 ADD PUSH2 0x735 JUMP JUMPDEST PUSH2 0x79A DUP2 PUSH2 0x75D JUMP JUMPDEST DUP5 ADD SWAP2 POP POP SWAP3 SWAP2 POP POP JUMP JUMPDEST PUSH2 0x7AE DUP2 PUSH2 0x69B JUMP JUMPDEST DUP3 MSTORE POP POP JUMP JUMPDEST PUSH0 PUSH1 0x80 DUP3 ADD SWAP1 POP PUSH2 0x7C7 PUSH0 DUP4 ADD DUP8 PUSH2 0x70C JUMP JUMPDEST DUP2 DUP2 SUB PUSH1 0x20 DUP4 ADD MSTORE PUSH2 0x7D9 DUP2 DUP7 PUSH2 0x76D JUMP JUMPDEST SWAP1 POP PUSH2 0x7E8 PUSH1 0x40 DUP4 ADD DUP6 PUSH2 0x7A5 JUMP JUMPDEST PUSH2 0x7F5 PUSH1 0x60 DUP4 ADD DUP5 PUSH2 0x7A5 JUMP JUMPDEST SWAP6 SWAP5 POP POP POP POP POP JUMP JUMPDEST PUSH2 0x807 DUP2 PUSH2 0x660 JUMP JUMPDEST DUP3 MSTORE POP POP JUMP JUMPDEST PUSH0 DUP3 DUP3 MSTORE PUSH1 0x20 DUP3 ADD SWAP1 POP SWAP3 SWAP2 POP POP JUMP JUMPDEST PUSH0 PUSH2 0x827 DUP3 PUSH2 0x71B JUMP JUMPDEST PUSH2 0x831 DUP2 DUP6 PUSH2 0x80D JUMP JUMPDEST SWAP4 POP PUSH2 0x841 DUP2 DUP6 PUSH1 0x20 DUP7 ADD PUSH2 0x735 JUMP JUMPDEST PUSH2 0x84A DUP2 PUSH2 0x75D JUMP JUMPDEST DUP5 ADD SWAP2 POP POP SWAP3 SWAP2 POP POP JUMP JUMPDEST PUSH2 0x85E DUP2 PUSH2 0x69B JUMP JUMPDEST DUP3 MSTORE POP POP JUMP JUMPDEST PUSH0 PUSH1 0x80 DUP4 ADD PUSH0 DUP4 ADD MLOAD PUSH2 0x879 PUSH0 DUP7 ADD DUP3 PUSH2 0x7FE JUMP JUMPDEST POP PUSH1 0x20 DUP4 ADD MLOAD DUP5 DUP3 SUB PUSH1 0x20 DUP7 ADD MSTORE PUSH2 0x891 DUP3 DUP3 PUSH2 0x81D JUMP JUMPDEST SWAP2 POP POP PUSH1 0x40 DUP4 ADD MLOAD PUSH2 0x8A6 PUSH1 0x40 DUP7 ADD DUP3 PUSH2 0x855 JUMP JUMPDEST POP PUSH1 0x60 DUP4 ADD MLOAD PUSH2 0x8B9 PUSH1 0x60 DUP7 ADD DUP3 PUSH2 0x855 JUMP JUMPDEST POP DUP1 SWAP2 POP POP SWAP3 SWAP2 POP POP JUMP JUMPDEST PUSH0 PUSH1 0x20 DUP3 ADD SWAP1 POP DUP2 DUP2 SUB PUSH0 DUP4 ADD MSTORE PUSH2 0x8DC DUP2 DUP5 PUSH2 0x864 JUMP JUMPDEST SWAP1 POP SWAP3 SWAP2 POP POP JUMP JUMPDEST PUSH0 PUSH1 0x20 DUP3 DUP5 SUB SLT ISZERO PUSH2 0x8F9 JUMPI PUSH2 0x8F8 PUSH2 0x639 JUMP JUMPDEST JUMPDEST PUSH0 PUSH2 0x906 DUP5 DUP3 DUP6 ADD PUSH2 0x687 JUMP JUMPDEST SWAP2 POP POP SWAP3 SWAP2 POP POP JUMP JUMPDEST PUSH0 DUP2 MLOAD SWAP1 POP SWAP2 SWAP1 POP JUMP JUMPDEST PUSH0 DUP3 DUP3 MSTORE PUSH1 0x20 DUP3 ADD SWAP1 POP SWAP3 SWAP2 POP POP JUMP JUMPDEST PUSH0 DUP2 SWAP1 POP PUSH1 0x20 DUP3 ADD SWAP1 POP SWAP2 SWAP1 POP JUMP JUMPDEST PUSH0 PUSH1 0x80 DUP4 ADD PUSH0 DUP4 ADD MLOAD PUSH2 0x94D PUSH0 DUP7 ADD DUP3 PUSH2 0x7FE JUMP JUMPDEST POP PUSH1 0x20 DUP4 ADD MLOAD DUP5 DUP3 SUB PUSH1 0x20 DUP7 ADD MSTORE PUSH2 0x965 DUP3 DUP3 PUSH2 0x81D JUMP JUMPDEST SWAP2 POP POP PUSH1 0x40 DUP4 ADD MLOAD PUSH2 0x97A PUSH1 0x40 DUP7 ADD DUP3 PUSH2 0x855 JUMP JUMPDEST POP PUSH1 0x60 DUP4 ADD MLOAD PUSH2 0x98D PUSH1 0x60 DUP7 ADD DUP3 PUSH2 0x855 JUMP JUMPDEST POP DUP1 SWAP2 POP POP SWAP3 SWAP2 POP POP JUMP JUMPDEST PUSH0 PUSH2 0x9A3 DUP4 DUP4 PUSH2 0x938 JUMP JUMPDEST SWAP1 POP SWAP3 SWAP2 POP POP JUMP JUMPDEST PUSH0 PUSH1 0x20 DUP3 ADD SWAP1 POP SWAP2 SWAP1 POP JUMP JUMPDEST PUSH0 PUSH2 0x9C1 DUP3 PUSH2 0x90F JUMP JUMPDEST PUSH2 0x9CB DUP2 DUP6 PUSH2 0x919 JUMP JUMPDEST SWAP4 POP DUP4 PUSH1 0x20 DUP3 MUL DUP6 ADD PUSH2 0x9DD DUP6 PUSH2 0x929 JUMP JUMPDEST DUP1 PUSH0 JUMPDEST DUP6 DUP2 LT ISZERO PUSH2 0xA18 JUMPI DUP5 DUP5 SUB DUP10 MSTORE DUP2 MLOAD PUSH2 0x9F9 DUP6 DUP3 PUSH2 0x998 JUMP JUMPDEST SWAP5 POP PUSH2 0xA04 DUP4 PUSH2 0x9AB JUMP JUMPDEST SWAP3 POP PUSH1 0x20 DUP11 ADD SWAP10 POP POP PUSH1 0x1 DUP2 ADD SWAP1 POP PUSH2 0x9E0 JUMP JUMPDEST POP DUP3 SWAP8 POP DUP8 SWAP6 POP POP POP POP POP POP SWAP3 SWAP2 POP POP JUMP JUMPDEST PUSH0 PUSH1 0x20 DUP3 ADD SWAP1 POP DUP2 DUP2 SUB PUSH0 DUP4 ADD MSTORE PUSH2 0xA42 DUP2 DUP5 PUSH2 0x9B7 JUMP JUMPDEST SWAP1 POP SWAP3 SWAP2 POP POP JUMP JUMPDEST PUSH0 DUP1 REVERT JUMPDEST PUSH0 DUP1 REVERT JUMPDEST PUSH32 0x4E487B7100000000000000000000000000000000000000000000000000000000 PUSH0 MSTORE PUSH1 0x41 PUSH1 0x4 MSTORE PUSH1 0x24 PUSH0 REVERT JUMPDEST PUSH2 0xA88 DUP3 PUSH2 0x75D JUMP JUMPDEST DUP2 ADD DUP2 DUP2 LT PUSH8 0xFFFFFFFFFFFFFFFF DUP3 GT OR ISZERO PUSH2 0xAA7 JUMPI PUSH2 0xAA6 PUSH2 0xA52 JUMP JUMPDEST JUMPDEST DUP1 PUSH1 0x40 MSTORE POP POP POP JUMP JUMPDEST PUSH0 PUSH2 0xAB9 PUSH2 0x630 JUMP JUMPDEST SWAP1 POP PUSH2 0xAC5 DUP3 DUP3 PUSH2 0xA7F JUMP JUMPDEST SWAP2 SWAP1 POP JUMP JUMPDEST PUSH0 PUSH8 0xFFFFFFFFFFFFFFFF DUP3 GT ISZERO PUSH2 0xAE4 JUMPI PUSH2 0xAE3 PUSH2 0xA52 JUMP JUMPDEST JUMPDEST PUSH2 0xAED DUP3 PUSH2 0x75D JUMP JUMPDEST SWAP1 POP PUSH1 0x20 DUP2 ADD SWAP1 POP SWAP2 SWAP1 POP JUMP JUMPDEST DUP3 DUP2 DUP4 CALLDATACOPY PUSH0 DUP4 DUP4 ADD MSTORE POP POP POP JUMP JUMPDEST PUSH0 PUSH2 0xB1A PUSH2 0xB15 DUP5 PUSH2 0xACA JUMP JUMPDEST PUSH2 0xAB0 JUMP JUMPDEST SWAP1 POP DUP3 DUP2 MSTORE PUSH1 0x20 DUP2 ADD DUP5 DUP5 DUP5 ADD GT ISZERO PUSH2 0xB36 JUMPI PUSH2 0xB35 PUSH2 0xA4E JUMP JUMPDEST JUMPDEST PUSH2 0xB41 DUP5 DUP3 DUP6 PUSH2 0xAFA JUMP JUMPDEST POP SWAP4 SWAP3 POP POP POP JUMP JUMPDEST PUSH0 DUP3 PUSH1 0x1F DUP4 ADD SLT PUSH2 0xB5D JUMPI PUSH2 0xB5C PUSH2 0xA4A JUMP JUMPDEST JUMPDEST DUP2 CALLDATALOAD PUSH2 0xB6D DUP5 DUP3 PUSH1 0x20 DUP7 ADD PUSH2 0xB08 JUMP JUMPDEST SWAP2 POP POP SWAP3 SWAP2 POP POP JUMP JUMPDEST PUSH0 PUSH1 0x20 DUP3 DUP5 SUB SLT ISZERO PUSH2 0xB8B JUMPI PUSH2 0xB8A PUSH2 0x639 JUMP JUMPDEST JUMPDEST PUSH0 DUP3 ADD CALLDATALOAD PUSH8 0xFFFFFFFFFFFFFFFF DUP2 GT ISZERO PUSH2 0xBA8 JUMPI PUSH2 0xBA7 PUSH2 0x63D JUMP JUMPDEST JUMPDEST PUSH2 0xBB4 DUP5 DUP3 DUP6 ADD PUSH2 0xB49 JUMP JUMPDEST SWAP2 POP POP SWAP3 SWAP2 POP POP JUMP JUMPDEST PUSH32 0x4E487B7100000000000000000000000000000000000000000000000000000000 PUSH0 MSTORE PUSH1 0x22 PUSH1 0x4 MSTORE PUSH1 0x24 PUSH0 REVERT JUMPDEST PUSH0 PUSH1 0x2 DUP3 DIV SWAP1 POP PUSH1 0x1 DUP3 AND DUP1 PUSH2 0xC01 JUMPI PUSH1 0x7F DUP3 AND SWAP2 POP JUMPDEST PUSH1 0x20 DUP3 LT DUP2 SUB PUSH2 0xC14 JUMPI PUSH2 0xC13 PUSH2 0xBBD JUMP JUMPDEST JUMPDEST POP SWAP2 SWAP1 POP JUMP JUMPDEST PUSH32 0x4E487B7100000000000000000000000000000000000000000000000000000000 PUSH0 MSTORE PUSH1 0x32 PUSH1 0x4 MSTORE PUSH1 0x24 PUSH0 REVERT JUMPDEST PUSH0 DUP2 SWAP1 POP DUP2 PUSH0 MSTORE PUSH1 0x20 PUSH0 KECCAK256 SWAP1 POP SWAP2 SWAP1 POP JUMP JUMPDEST PUSH0 PUSH1 0x20 PUSH1 0x1F DUP4 ADD DIV SWAP1 POP SWAP2 SWAP1 POP JUMP JUMPDEST PUSH0 DUP3 DUP3 SHL SWAP1 POP SWAP3 SWAP2 POP POP JUMP JUMPDEST PUSH0 PUSH1 0x8 DUP4 MUL PUSH2 0xCA3 PUSH32 0xFFFFFFFFFFFFFFFFFFFFFFFFFFFFFFFFFFFFFFFFFFFFFFFFFFFFFFFFFFFFFFFF DUP3 PUSH2 0xC68 JUMP JUMPDEST PUSH2 0xCAD DUP7 DUP4 PUSH2 0xC68 JUMP JUMPDEST SWAP6 POP DUP1 NOT DUP5 AND SWAP4 POP DUP1 DUP7 AND DUP5 OR SWAP3 POP POP POP SWAP4 SWAP3 POP POP POP JUMP JUMPDEST PUSH0 DUP2 SWAP1 POP SWAP2 SWAP1 POP JUMP JUMPDEST PUSH0 PUSH2 0xCE8 PUSH2 0xCE3 PUSH2 0xCDE DUP5 PUSH2 0x69B JUMP JUMPDEST PUSH2 0xCC5 JUMP JUMPDEST PUSH2 0x69B JUMP JUMPDEST SWAP1 POP SWAP2 SWAP1 POP JUMP JUMPDEST PUSH0 DUP2 SWAP1 POP SWAP2 SWAP1 POP JUMP JUMPDEST PUSH2 0xD01 DUP4 PUSH2 0xCCE JUMP JUMPDEST PUSH2 0xD15 PUSH2 0xD0D DUP3 PUSH2 0xCEF JUMP JUMPDEST DUP5 DUP5 SLOAD PUSH2 0xC74 JUMP JUMPDEST DUP3 SSTORE POP POP POP POP JUMP JUMPDEST PUSH0 SWAP1 JUMP JUMPDEST PUSH2 0xD29 PUSH2 0xD1D JUMP JUMPDEST PUSH2 0xD34 DUP2 DUP5 DUP5 PUSH2 0xCF8 JUMP JUMPDEST POP POP POP JUMP JUMPDEST JUMPDEST DUP2 DUP2 LT ISZERO PUSH2 0xD57 JUMPI PUSH2 0xD4C PUSH0 DUP3 PUSH2 0xD21 JUMP JUMPDEST PUSH1 0x1 DUP2 ADD SWAP1 POP PUSH2 0xD3A JUMP JUMPDEST POP POP JUMP JUMPDEST PUSH1 0x1F DUP3 GT ISZERO PUSH2 0xD9C JUMPI PUSH2 0xD6D DUP2 PUSH2 0xC47 JUMP JUMPDEST PUSH2 0xD76 DUP5 PUSH2 0xC59 JUMP JUMPDEST DUP2 ADD PUSH1 0x20 DUP6 LT ISZERO PUSH2 0xD85 JUMPI DUP2 SWAP1 POP JUMPDEST PUSH2 0xD99 PUSH2 0xD91 DUP6 PUSH2 0xC59 JUMP JUMPDEST DUP4 ADD DUP3 PUSH2 0xD39 JUMP JUMPDEST POP POP JUMPDEST POP POP POP JUMP JUMPDEST PUSH0 DUP3 DUP3 SHR SWAP1 POP SWAP3 SWAP2 POP POP JUMP JUMPDEST PUSH0 PUSH2 0xDBC PUSH0 NOT DUP5 PUSH1 0x8 MUL PUSH2 0xDA1 JUMP JUMPDEST NOT DUP1 DUP4 AND SWAP2 POP POP SWAP3 SWAP2 POP POP JUMP JUMPDEST PUSH0 PUSH2 0xDD4 DUP4 DUP4 PUSH2 0xDAD JUMP JUMPDEST SWAP2 POP DUP3 PUSH1 0x2 MUL DUP3 OR SWAP1 POP SWAP3 SWAP2 POP POP JUMP JUMPDEST PUSH2 0xDED DUP3 PUSH2 0x71B JUMP JUMPDEST PUSH8 0xFFFFFFFFFFFFFFFF DUP2 GT ISZERO PUSH2 0xE06 JUMPI PUSH2 0xE05 PUSH2 0xA52 JUMP JUMPDEST JUMPDEST PUSH2 0xE10 DUP3 SLOAD PUSH2 0xBEA JUMP JUMPDEST PUSH2 0xE1B DUP3 DUP3 DUP6 PUSH2 0xD5B JUMP JUMPDEST PUSH0 PUSH1 0x20 SWAP1 POP PUSH1 0x1F DUP4 GT PUSH1 0x1 DUP2 EQ PUSH2 0xE4C JUMPI PUSH0 DUP5 ISZERO PUSH2 0xE3A JUMPI DUP3 DUP8 ADD MLOAD SWAP1 POP JUMPDEST PUSH2 0xE44 DUP6 DUP3 PUSH2 0xDC9 JUMP JUMPDEST DUP7 SSTORE POP PUSH2 0xEAB JUMP JUMPDEST PUSH1 0x1F NOT DUP5 AND PUSH2 0xE5A DUP7 PUSH2 0xC47 JUMP JUMPDEST PUSH0 JUMPDEST DUP3 DUP2 LT ISZERO PUSH2 0xE81 JUMPI DUP5 DUP10 ADD MLOAD DUP3 SSTORE PUSH1 0x1 DUP3 ADD SWAP2 POP PUSH1 0x20 DUP6 ADD SWAP5 POP PUSH1 0x20 DUP2 ADD SWAP1 POP PUSH2 0xE5C JUMP JUMPDEST DUP7 DUP4 LT ISZERO PUSH2 0xE9E JUMPI DUP5 DUP10 ADD MLOAD PUSH2 0xE9A PUSH1 0x1F DUP10 AND DUP3 PUSH2 0xDAD JUMP JUMPDEST DUP4 SSTORE POP JUMPDEST PUSH1 0x1 PUSH1 0x2 DUP9 MUL ADD DUP9 SSTORE POP POP POP JUMPDEST POP POP POP POP POP POP JUMP INVALID LOG2 PUSH5 0x6970667358 0x22 SLT KECCAK256 PREVRANDAO CALLVALUE LOG0 0xA5 0xD3 0xC6 BYTE 0x4F 0xD5 0xC8 ADD LOG1 0xAD 0xAE STOP PC JUMPI 0xD8 STOP SSTORE NUMBER 0xEC PUSH29 0xA8823934004060B6AE64736F6C63430008180033000000000000000000 "
				},
				"gasEstimates": {
					"creation": {
						"codeDepositCost": "763400",
						"executionCost": "797",
						"totalCost": "764197"
					},
					"external": {
						"createTweet(string)": "infinite",
						"getAllTweets(address)": "infinite",
						"getTweet(address,uint256)": "infinite",
						"tweets(address,uint256)": "infinite"
					}
				},
				"methodIdentifiers": {
					"createTweet(string)": "7c9cd2bc",
					"getAllTweets(address)": "12e7ee1c",
					"getTweet(address,uint256)": "112f54e3",
					"tweets(address,uint256)": "05a1b4a9"
				}
			},
			"storageLayout": {
				"storage": [
					{
						"astId": 16,
						"contract": "3-Twitter-Struct.sol:Twitter",
						"label": "tweets",
						"offset": 0,
						"slot": "0",
						"type": "t_mapping(t_address,t_array(t_struct(Tweet)10_storage)dyn_storage)"
					}
				],
				"types": {
					"t_address": {
						"encoding": "inplace",
						"label": "address",
						"numberOfBytes": "20"
					},
					"t_array(t_struct(Tweet)10_storage)dyn_storage": {
						"base": "t_struct(Tweet)10_storage",
						"encoding": "dynamic_array",
						"label": "struct Twitter.Tweet[]",
						"numberOfBytes": "32"
					},
					"t_mapping(t_address,t_array(t_struct(Tweet)10_storage)dyn_storage)": {
						"encoding": "mapping",
						"key": "t_address",
						"label": "mapping(address => struct Twitter.Tweet[])",
						"numberOfBytes": "32",
						"value": "t_array(t_struct(Tweet)10_storage)dyn_storage"
					},
					"t_string_storage": {
						"encoding": "bytes",
						"label": "string",
						"numberOfBytes": "32"
					},
					"t_struct(Tweet)10_storage": {
						"encoding": "inplace",
						"label": "struct Twitter.Tweet",
						"members": [
							{
								"astId": 3,
								"contract": "3-Twitter-Struct.sol:Twitter",
								"label": "author",
								"offset": 0,
								"slot": "0",
								"type": "t_address"
							},
							{
								"astId": 5,
								"contract": "3-Twitter-Struct.sol:Twitter",
								"label": "content",
								"offset": 0,
								"slot": "1",
								"type": "t_string_storage"
							},
							{
								"astId": 7,
								"contract": "3-Twitter-Struct.sol:Twitter",
								"label": "timestamp",
								"offset": 0,
								"slot": "2",
								"type": "t_uint256"
							},
							{
								"astId": 9,
								"contract": "3-Twitter-Struct.sol:Twitter",
								"label": "likes",
								"offset": 0,
								"slot": "3",
								"type": "t_uint256"
							}
						],
						"numberOfBytes": "128"
					},
					"t_uint256": {
						"encoding": "inplace",
						"label": "uint256",
						"numberOfBytes": "32"
					}
				}
			},
			"userdoc": {
				"kind": "user",
				"methods": {},
				"version": 1
			}
		}
	}
}