{
	"data": {
		"bytecode": {
			"linkReferences": {},
			"object": "60806040525f8055348015610012575f80fd5b506102d8806100205f395ff3fe608060405234801561000f575f80fd5b5060043610610055575f3560e01c806313d8f1e1146100595780632be55998146100755780632e4c4d3e1461009157806365372147146100ad578063de292789146100cb575b5f80fd5b610073600480360381019061006e919061017b565b6100e9565b005b61008f600480360381019061008a919061017b565b610103565b005b6100ab60048036038101906100a6919061017b565b61011d565b005b6100b5610137565b6040516100c291906101b5565b60405180910390f35b6100d361013c565b6040516100e091906101b5565b60405180910390f35b805f808282546100f991906101fb565b9250508190555050565b805f80828254610113919061023c565b9250508190555050565b805f8082825461012d919061026f565b9250508190555050565b5f5481565b5f8054905090565b5f80fd5b5f819050919050565b61015a81610148565b8114610164575f80fd5b50565b5f8135905061017581610151565b92915050565b5f602082840312156101905761018f610144565b5b5f61019d84828501610167565b91505092915050565b6101af81610148565b82525050565b5f6020820190506101c85f8301846101a6565b92915050565b7f4e487b71000000000000000000000000000000000000000000000000000000005f52601160045260245ffd5b5f61020582610148565b915061021083610148565b925082820261021e81610148565b91508282048414831517610235576102346101ce565b5b5092915050565b5f61024682610148565b915061025183610148565b9250828201905080821115610269576102686101ce565b5b92915050565b5f61027982610148565b915061028483610148565b925082820390508181111561029c5761029b6101ce565b5b9291505056fea26469706673582212201bcbd3fa2af1aa846745f8fd3f70bb8fc5c50d54418221e8a3e2eefbae829c1a64736f6c63430008180033",
			"opcodes": "PUSH1 0x80 PUSH1 0x40 MSTORE PUSH0 DUP1 SSTORE CALLVALUE DUP1 ISZERO PUSH2 0x12 JUMPI PUSH0 DUP1 REVERT JUMPDEST POP PUSH2 0x2D8 DUP1 PUSH2 0x20 PUSH0 CODECOPY PUSH0 RETURN INVALID PUSH1 0x80 PUSH1 0x40 MSTORE CALLVALUE DUP1 ISZERO PUSH2 0xF JUMPI PUSH0 DUP1 REVERT JUMPDEST POP PUSH1 0x4 CALLDATASIZE LT PUSH2 0x55 JUMPI PUSH0 CALLDATALOAD PUSH1 0xE0 SHR DUP1 PUSH4 0x13D8F1E1 EQ PUSH2 0x59 JUMPI DUP1 PUSH4 0x2BE55998 EQ PUSH2 0x75 JUMPI DUP1 PUSH4 0x2E4C4D3E EQ PUSH2 0x91 JUMPI DUP1 PUSH4 0x65372147 EQ PUSH2 0xAD JUMPI DUP1 PUSH4 0xDE292789 EQ PUSH2 0xCB JUMPI JUMPDEST PUSH0 DUP1 REVERT JUMPDEST PUSH2 0x73 PUSH1 0x4 DUP1 CALLDATASIZE SUB DUP2 ADD SWAP1 PUSH2 0x6E SWAP2 SWAP1 PUSH2 0x17B JUMP JUMPDEST PUSH2 0xE9 JUMP JUMPDEST STOP JUMPDEST PUSH2 0x8F PUSH1 0x4 DUP1 CALLDATASIZE SUB DUP2 ADD SWAP1 PUSH2 0x8A SWAP2 SWAP1 PUSH2 0x17B JUMP JUMPDEST PUSH2 0x103 JUMP JUMPDEST STOP JUMPDEST PUSH2 0xAB PUSH1 0x4 DUP1 CALLDATASIZE SUB DUP2 ADD SWAP1 PUSH2 0xA6 SWAP2 SWAP1 PUSH2 0x17B JUMP JUMPDEST PUSH2 0x11D JUMP JUMPDEST STOP JUMPDEST PUSH2 0xB5 PUSH2 0x137 JUMP JUMPDEST PUSH1 0x40 MLOAD PUSH2 0xC2 SWAP2 SWAP1 PUSH2 0x1B5 JUMP JUMPDEST PUSH1 0x40 MLOAD DUP1 SWAP2 SUB SWAP1 RETURN JUMPDEST PUSH2 0xD3 PUSH2 0x13C JUMP JUMPDEST PUSH1 0x40 MLOAD PUSH2 0xE0 SWAP2 SWAP1 PUSH2 0x1B5 JUMP JUMPDEST PUSH1 0x40 MLOAD DUP1 SWAP2 SUB SWAP1 RETURN JUMPDEST DUP1 PUSH0 DUP1 DUP3 DUP3 SLOAD PUSH2 0xF9 SWAP2 SWAP1 PUSH2 0x1FB JUMP JUMPDEST SWAP3 POP POP DUP2 SWAP1 SSTORE POP POP JUMP JUMPDEST DUP1 PUSH0 DUP1 DUP3 DUP3 SLOAD PUSH2 0x113 SWAP2 SWAP1 PUSH2 0x23C JUMP JUMPDEST SWAP3 POP POP DUP2 SWAP1 SSTORE POP POP JUMP JUMPDEST DUP1 PUSH0 DUP1 DUP3 DUP3 SLOAD PUSH2 0x12D SWAP2 SWAP1 PUSH2 0x26F JUMP JUMPDEST SWAP3 POP POP DUP2 SWAP1 SSTORE POP POP JUMP JUMPDEST PUSH0 SLOAD DUP2 JUMP JUMPDEST PUSH0 DUP1 SLOAD SWAP1 POP SWAP1 JUMP JUMPDEST PUSH0 DUP1 REVERT JUMPDEST PUSH0 DUP2 SWAP1 POP SWAP2 SWAP1 POP JUMP JUMPDEST PUSH2 0x15A DUP2 PUSH2 0x148 JUMP JUMPDEST DUP2 EQ PUSH2 0x164 JUMPI PUSH0 DUP1 REVERT JUMPDEST POP JUMP JUMPDEST PUSH0 DUP2 CALLDATALOAD SWAP1 POP PUSH2 0x175 DUP2 PUSH2 0x151 JUMP JUMPDEST SWAP3 SWAP2 POP POP JUMP JUMPDEST PUSH0 PUSH1 0x20 DUP3 DUP5 SUB SLT ISZERO PUSH2 0x190 JUMPI PUSH2 0x18F PUSH2 0x144 JUMP JUMPDEST JUMPDEST PUSH0 PUSH2 0x19D DUP5 DUP3 DUP6 ADD PUSH2 0x167 JUMP JUMPDEST SWAP2 POP POP SWAP3 SWAP2 POP POP JUMP JUMPDEST PUSH2 0x1AF DUP2 PUSH2 0x148 JUMP JUMPDEST DUP3 MSTORE POP POP JUMP JUMPDEST PUSH0 PUSH1 0x20 DUP3 ADD SWAP1 POP PUSH2 0x1C8 PUSH0 DUP4 ADD DUP5 PUSH2 0x1A6 JUMP JUMPDEST SWAP3 SWAP2 POP POP JUMP JUMPDEST PUSH32 0x4E487B7100000000000000000000000000000000000000000000000000000000 PUSH0 MSTORE PUSH1 0x11 PUSH1 0x4 MSTORE PUSH1 0x24 PUSH0 REVERT JUMPDEST PUSH0 PUSH2 0x205 DUP3 PUSH2 0x148 JUMP JUMPDEST SWAP2 POP PUSH2 0x210 DUP4 PUSH2 0x148 JUMP JUMPDEST SWAP3 POP DUP3 DUP3 MUL PUSH2 0x21E DUP2 PUSH2 0x148 JUMP JUMPDEST SWAP2 POP DUP3 DUP3 DIV DUP5 EQ DUP4 ISZERO OR PUSH2 0x235 JUMPI PUSH2 0x234 PUSH2 0x1CE JUMP JUMPDEST JUMPDEST POP SWAP3 SWAP2 POP POP JUMP JUMPDEST PUSH0 PUSH2 0x246 DUP3 PUSH2 0x148 JUMP JUMPDEST SWAP2 POP PUSH2 0x251 DUP4 PUSH2 0x148 JUMP JUMPDEST SWAP3 POP DUP3 DUP3 ADD SWAP1 POP DUP1 DUP3 GT ISZERO PUSH2 0x269 JUMPI PUSH2 0x268 PUSH2 0x1CE JUMP JUMPDEST JUMPDEST SWAP3 SWAP2 POP POP JUMP JUMPDEST PUSH0 PUSH2 0x279 DUP3 PUSH2 0x148 JUMP JUMPDEST SWAP2 POP PUSH2 0x284 DUP4 PUSH2 0x148 JUMP JUMPDEST SWAP3 POP DUP3 DUP3 SUB SWAP1 POP DUP2 DUP2 GT ISZERO PUSH2 0x29C JUMPI PUSH2 0x29B PUSH2 0x1CE JUMP JUMPDEST JUMPDEST SWAP3 SWAP2 POP POP JUMP INVALID LOG2 PUSH5 0x6970667358 0x22 SLT KECCAK256 SHL 0xCB 0xD3 STATICCALL 0x2A CALL 0xAA DUP5 PUSH8 0x45F8FD3F70BB8FC5 0xC5 0xD SLOAD COINBASE DUP3 0x21 0xE8 LOG3 0xE2 0xEE 0xFB 0xAE DUP3 SWAP13 BYTE PUSH5 0x736F6C6343 STOP ADDMOD XOR STOP CALLER "
		},
		"gasEstimates": {
			"creation": {
				"codeDepositCost": "145600",
				"executionCost": "5193",
				"totalCost": "150793"
			},
			"external": {
				"addNumbers(uint256)": "infinite",
				"getResult()": "2498",
				"multiplyNumber(uint256)": "infinite",
				"result()": "2468",
				"subtrsctNumber(uint256)": "infinite"
			}
		},
		"methodIdentifiers": {
			"addNumbers(uint256)": "2be55998",
			"getResult()": "de292789",
			"multiplyNumber(uint256)": "13d8f1e1",
			"result()": "65372147",
			"subtrsctNumber(uint256)": "2e4c4d3e"
		}
	},
	"abi": [
		{
			"inputs": [
				{
					"internalType": "uint256",
					"name": "_n1",
					"type": "uint256"
				}
			],
			"name": "addNumbers",
			"outputs": [],
			"stateMutability": "nonpayable",
			"type": "function"
		},
		{
			"inputs": [],
			"name": "getResult",
			"outputs": [
				{
					"internalType": "uint256",
					"name": "",
					"type": "uint256"
				}
			],
			"stateMutability": "view",
			"type": "function"
		},
		{
			"inputs": [
				{
					"internalType": "uint256",
					"name": "_n1",
					"type": "uint256"
				}
			],
			"name": "multiplyNumber",
			"outputs": [],
			"stateMutability": "nonpayable",
			"type": "function"
		},
		{
			"inputs": [],
			"name": "result",
			"outputs": [
				{
					"internalType": "uint256",
					"name": "",
					"type": "uint256"
				}
			],
			"stateMutability": "view",
			"type": "function"
		},
		{
			"inputs": [
				{
					"internalType": "uint256",
					"name": "_n1",
					"type": "uint256"
				}
			],
			"name": "subtrsctNumber",
			"outputs": [],
			"stateMutability": "nonpayable",
			"type": "function"
		}
	]
}